{
  "contractName": "ClientRecord",
  "abi": [
    {
      "inputs": [
        {
          "internalType": "address",
          "name": "",
          "type": "address"
        }
      ],
      "name": "ClientRecordIndexer",
      "outputs": [
        {
          "internalType": "bool",
          "name": "exists",
          "type": "bool"
        },
        {
          "internalType": "uint256",
          "name": "index",
          "type": "uint256"
        }
      ],
      "stateMutability": "view",
      "type": "function",
      "constant": true
    },
    {
      "inputs": [
        {
          "internalType": "address",
          "name": "oracle",
          "type": "address"
        }
      ],
      "name": "activateStorageOracle",
      "outputs": [],
      "stateMutability": "nonpayable",
      "type": "function"
    },
    {
      "inputs": [
        {
          "internalType": "address",
          "name": "oracle",
          "type": "address"
        },
        {
          "internalType": "bool",
          "name": "status",
          "type": "bool"
        }
      ],
      "name": "changeStorageOracleStatus",
      "outputs": [],
      "stateMutability": "nonpayable",
      "type": "function"
    },
    {
      "inputs": [
        {
          "internalType": "address",
          "name": "oracle",
          "type": "address"
        }
      ],
      "name": "deactivateStorageOracle",
      "outputs": [],
      "stateMutability": "nonpayable",
      "type": "function"
    },
    {
      "inputs": [
        {
          "internalType": "address",
          "name": "newOracle",
          "type": "address"
        }
      ],
      "name": "reAssignStorageOracle",
      "outputs": [],
      "stateMutability": "nonpayable",
      "type": "function"
    },
    {
      "inputs": [
        {
          "internalType": "address payable",
          "name": "newOwner",
          "type": "address"
        }
      ],
      "name": "transferOwnership",
      "outputs": [],
      "stateMutability": "nonpayable",
      "type": "function"
    },
    {
      "inputs": [
        {
          "internalType": "address",
          "name": "depositor",
          "type": "address"
        }
      ],
      "name": "doesClientRecordExist",
      "outputs": [
        {
          "internalType": "bool",
          "name": "",
          "type": "bool"
        }
      ],
      "stateMutability": "view",
      "type": "function",
      "constant": true
    },
    {
      "inputs": [
        {
          "internalType": "address",
          "name": "depositor",
          "type": "address"
        }
      ],
      "name": "getRecordIndex",
      "outputs": [
        {
          "internalType": "uint256",
          "name": "",
          "type": "uint256"
        }
      ],
      "stateMutability": "view",
      "type": "function",
      "constant": true
    },
    {
      "inputs": [
        {
          "internalType": "address payable",
          "name": "_address",
          "type": "address"
        },
        {
          "internalType": "uint256",
          "name": "underlyingTotalDeposits",
          "type": "uint256"
        },
        {
          "internalType": "uint256",
          "name": "underlyingTotalWithdrawn",
          "type": "uint256"
        },
        {
          "internalType": "uint256",
          "name": "derivativeBalance",
          "type": "uint256"
        },
        {
          "internalType": "uint256",
          "name": "derivativeTotalDeposits",
          "type": "uint256"
        },
        {
          "internalType": "uint256",
          "name": "derivativeTotalWithdrawn",
          "type": "uint256"
        }
      ],
      "name": "createClientRecord",
      "outputs": [],
      "stateMutability": "nonpayable",
      "type": "function"
    },
    {
      "inputs": [
        {
          "internalType": "address payable",
          "name": "_address",
          "type": "address"
        },
        {
          "internalType": "uint256",
          "name": "underlyingTotalDeposits",
          "type": "uint256"
        },
        {
          "internalType": "uint256",
          "name": "underlyingTotalWithdrawn",
          "type": "uint256"
        },
        {
          "internalType": "uint256",
          "name": "derivativeBalance",
          "type": "uint256"
        },
        {
          "internalType": "uint256",
          "name": "derivativeTotalDeposits",
          "type": "uint256"
        },
        {
          "internalType": "uint256",
          "name": "derivativeTotalWithdrawn",
          "type": "uint256"
        }
      ],
      "name": "updateClientRecord",
      "outputs": [],
      "stateMutability": "nonpayable",
      "type": "function"
    },
    {
      "inputs": [],
      "name": "getLengthOfClientRecords",
      "outputs": [
        {
          "internalType": "uint256",
          "name": "",
          "type": "uint256"
        }
      ],
      "stateMutability": "nonpayable",
      "type": "function"
    },
    {
      "inputs": [
        {
          "internalType": "uint256",
          "name": "index",
          "type": "uint256"
        }
      ],
      "name": "getClientRecordByIndex",
      "outputs": [
        {
          "internalType": "address payable",
          "name": "_address",
          "type": "address"
        },
        {
          "internalType": "uint256",
          "name": "underlyingTotalDeposits",
          "type": "uint256"
        },
        {
          "internalType": "uint256",
          "name": "underlyingTotalWithdrawn",
          "type": "uint256"
        },
        {
          "internalType": "uint256",
          "name": "derivativeBalance",
          "type": "uint256"
        },
        {
          "internalType": "uint256",
          "name": "derivativeTotalDeposits",
          "type": "uint256"
        },
        {
          "internalType": "uint256",
          "name": "derivativeTotalWithdrawn",
          "type": "uint256"
        }
      ],
      "stateMutability": "view",
      "type": "function",
      "constant": true
    },
    {
      "inputs": [
        {
          "internalType": "address",
          "name": "depositor",
          "type": "address"
        }
      ],
      "name": "getClientRecordByAddress",
      "outputs": [
        {
          "internalType": "address payable",
          "name": "_address",
          "type": "address"
        },
        {
          "internalType": "uint256",
          "name": "underlyingTotalDeposits",
          "type": "uint256"
        },
        {
          "internalType": "uint256",
          "name": "underlyingTotalWithdrawn",
          "type": "uint256"
        },
        {
          "internalType": "uint256",
          "name": "derivativeBalance",
          "type": "uint256"
        },
        {
          "internalType": "uint256",
          "name": "derivativeTotalDeposits",
          "type": "uint256"
        },
        {
          "internalType": "uint256",
          "name": "derivativeTotalWithdrawn",
          "type": "uint256"
        }
      ],
      "stateMutability": "view",
      "type": "function",
      "constant": true
    },
    {
      "inputs": [
        {
          "internalType": "address",
          "name": "member",
          "type": "address"
        }
      ],
      "name": "GetRecordIndexFromDepositor",
      "outputs": [
        {
          "internalType": "uint256",
          "name": "",
          "type": "uint256"
        }
      ],
      "stateMutability": "view",
      "type": "function",
      "constant": true
    },
    {
      "inputs": [
        {
          "internalType": "uint256",
          "name": "recordIndex",
          "type": "uint256"
        },
        {
          "internalType": "address",
          "name": "depositor",
          "type": "address"
        }
      ],
      "name": "GetRecordIdFromRecordIndexAndDepositorRecord",
      "outputs": [
        {
          "internalType": "uint256",
          "name": "",
          "type": "uint256"
        }
      ],
      "stateMutability": "view",
      "type": "function",
      "constant": true
    },
    {
      "inputs": [
        {
          "internalType": "uint256",
          "name": "amount",
          "type": "uint256"
        },
        {
          "internalType": "uint256",
          "name": "lockPeriodInSeconds",
          "type": "uint256"
        },
        {
          "internalType": "uint256",
          "name": "depositDateInSeconds",
          "type": "uint256"
        },
        {
          "internalType": "address payable",
          "name": "depositor",
          "type": "address"
        },
        {
          "internalType": "bool",
          "name": "hasWithdrawn",
          "type": "bool"
        }
      ],
      "name": "CreateDepositRecordMapping",
      "outputs": [
        {
          "internalType": "uint256",
          "name": "",
          "type": "uint256"
        }
      ],
      "stateMutability": "nonpayable",
      "type": "function"
    },
    {
      "inputs": [
        {
          "internalType": "uint256",
          "name": "DepositRecordId",
          "type": "uint256"
        },
        {
          "internalType": "uint256",
          "name": "amount",
          "type": "uint256"
        },
        {
          "internalType": "uint256",
          "name": "lockPeriodInSeconds",
          "type": "uint256"
        },
        {
          "internalType": "uint256",
          "name": "depositDateInSeconds",
          "type": "uint256"
        },
        {
          "internalType": "address payable",
          "name": "depositor",
          "type": "address"
        },
        {
          "internalType": "bool",
          "name": "hasWithdrawn",
          "type": "bool"
        }
      ],
      "name": "UpdateDepositRecordMapping",
      "outputs": [],
      "stateMutability": "nonpayable",
      "type": "function"
    },
    {
      "inputs": [],
      "name": "GetRecordId",
      "outputs": [
        {
          "internalType": "uint256",
          "name": "",
          "type": "uint256"
        }
      ],
      "stateMutability": "view",
      "type": "function",
      "constant": true
    },
    {
      "inputs": [
        {
          "internalType": "uint256",
          "name": "depositRecordId",
          "type": "uint256"
        }
      ],
      "name": "GetRecordById",
      "outputs": [
        {
          "internalType": "uint256",
          "name": "recordId",
          "type": "uint256"
        },
        {
          "internalType": "address payable",
          "name": "depositorId",
          "type": "address"
        },
        {
          "internalType": "uint256",
          "name": "amount",
          "type": "uint256"
        },
        {
          "internalType": "uint256",
          "name": "depositDateInSeconds",
          "type": "uint256"
        },
        {
          "internalType": "uint256",
          "name": "lockPeriodInSeconds",
          "type": "uint256"
        },
        {
          "internalType": "bool",
          "name": "hasWithdrawn",
          "type": "bool"
        }
      ],
      "stateMutability": "view",
      "type": "function",
      "constant": true
    },
    {
      "inputs": [],
      "name": "GetRecords",
      "outputs": [
        {
          "components": [
            {
              "internalType": "uint256",
              "name": "recordId",
              "type": "uint256"
            },
            {
              "internalType": "address payable",
              "name": "depositorId",
              "type": "address"
            },
            {
              "internalType": "bool",
              "name": "hasWithdrawn",
              "type": "bool"
            },
            {
              "internalType": "uint256",
              "name": "amount",
              "type": "uint256"
            },
            {
              "internalType": "uint256",
              "name": "depositDateInSeconds",
              "type": "uint256"
            },
            {
              "internalType": "uint256",
              "name": "lockPeriodInSeconds",
              "type": "uint256"
            }
          ],
          "internalType": "struct IClientRecordSchema.FixedDepositRecord[]",
          "name": "",
          "type": "tuple[]"
        }
      ],
      "stateMutability": "view",
      "type": "function",
      "constant": true
    },
    {
      "inputs": [
        {
          "internalType": "address payable",
          "name": "depositor",
          "type": "address"
        },
        {
          "internalType": "uint256",
          "name": "recordId",
          "type": "uint256"
        }
      ],
      "name": "CreateDepositorToDepositRecordIndexToRecordIDMapping",
      "outputs": [],
      "stateMutability": "nonpayable",
      "type": "function"
    },
    {
      "inputs": [
        {
          "internalType": "address payable",
          "name": "depositor",
          "type": "address"
        },
        {
          "internalType": "uint256",
          "name": "recordId",
          "type": "uint256"
        },
        {
          "internalType": "uint256",
          "name": "amountDeposited",
          "type": "uint256"
        },
        {
          "internalType": "uint256",
          "name": "lockPeriodInSeconds",
          "type": "uint256"
        },
        {
          "internalType": "uint256",
          "name": "depositDateInSeconds",
          "type": "uint256"
        },
        {
          "internalType": "bool",
          "name": "hasWithdrawn",
          "type": "bool"
        }
      ],
      "name": "CreateDepositorAddressToDepositRecordMapping",
      "outputs": [],
      "stateMutability": "nonpayable",
      "type": "function"
    }
  ],
  "bytecode": "0x6080604052600060028190558054600160a060020a0319163317905561161a8061002a6000396000f3fe608060405234801561001057600080fd5b506004361061015f576000357c0100000000000000000000000000000000000000000000000000000000900480637c79ed46116100d5578063d4efcbe811610099578063d4efcbe8146102e0578063e08c694c146102f3578063eac1bbe814610306578063f2fde38b14610319578063fbae33721461032c578063ff1b9e21146103345761015f565b80637c79ed461461026f57806389694be7146102945780638b6297d4146102a75780639ff8325b146102ba578063b103cccf146102cd5761015f565b8063309519361161012757806330951936146101dd57806331703b5f146101f057806335dc275b1461021157806346854aa7146102365780636041fc88146102495780636f583ba61461025c5761015f565b80630fdf80ed14610164578063217d1e93146101795780632848b7d11461018c5780632a02ab551461019f5780632adc57a6146101bd575b600080fd5b610177610172366004611187565b610349565b005b610177610187366004611276565b6103be565b61017761019a366004611347565b610416565b6101a76105bb565b6040516101b49190611585565b60405180910390f35b6101d06101cb366004611187565b6105c1565b6040516101b49190611457565b6101a76101eb3660046112f2565b6105df565b6102036101fe366004611187565b610793565b6040516101b4929190611462565b61022461021f3660046112ab565b6107b2565b6040516101b49695949392919061158e565b61017761024436600461122b565b610840565b610177610257366004611187565b610925565b61017761026a366004611187565b610973565b61028261027d366004611187565b6109c7565b6040516101b4969594939291906113a1565b6101776102a236600461122b565b610add565b6101776102b53660046111ce565b610ce6565b6101776102c83660046111a3565b610da2565b6101a76102db3660046112c3565b610e33565b6101a76102ee366004611187565b610e5e565b6102826103013660046112ab565b610e79565b6101a7610314366004611187565b610f25565b610177610327366004611187565b610f94565b6101a7610ffc565b61033c611002565b6040516101b491906113d4565b3360009081526001602052604090205460ff16806103855760405160e560020a62461bcd02815260040161037c90611472565b60405180910390fd5b50336000908152600160208190526040808320805460ff19908116909155600160a060020a039490941683529091208054909216179055565b600054600160a060020a031633146103eb5760405160e560020a62461bcd02815260040161037c90611472565b600160a060020a03919091166000908152600160205260409020805460ff1916911515919091179055565b3360009081526001602052604090205460ff16806104495760405160e560020a62461bcd02815260040161037c90611472565b5060008681526004602081905260408220978855600288019687558701948555600380880194855560018089018054600160a060020a0396871673ffffffffffffffffffffffffffffffffffffffff1996151560a060020a90810274ff0000000000000000000000000000000000000000199384161788169190911783558454938401855593909452985460059091027fc2575a0e9e593c00f959f8c92f12db2869c3395a3b0502d05e2516446f71f85b81019190915588547fc2575a0e9e593c00f959f8c92f12db2869c3395a3b0502d05e2516446f71f85c82018054909516951694909417808455975481900460ff1615150296169590951790945591547fc2575a0e9e593c00f959f8c92f12db2869c3395a3b0502d05e2516446f71f85d84015590547fc2575a0e9e593c00f959f8c92f12db2869c3395a3b0502d05e2516446f71f85e830155547fc2575a0e9e593c00f959f8c92f12db2869c3395a3b0502d05e2516446f71f85f90910155565b60085490565b600160a060020a031660009081526009602052604090205460ff1690565b3360009081526001602052604081205460ff16806106125760405160e560020a62461bcd02815260040161037c90611472565b505060028054600190810180835560008181526004602081905260408220928355828501998a5582019788556003808301978855828401805474ff00000000000000000000000000000000000000001990811660a060020a98151589021773ffffffffffffffffffffffffffffffffffffffff19908116600160a060020a039a8b16178355835496870184559290935292547fc2575a0e9e593c00f959f8c92f12db2869c3395a3b0502d05e2516446f71f85b60059095029485015582547fc2575a0e9e593c00f959f8c92f12db2869c3395a3b0502d05e2516446f71f85c85018054919098169116178087559154911660ff918590049190911615159093029290921790925593547fc2575a0e9e593c00f959f8c92f12db2869c3395a3b0502d05e2516446f71f85d85015590547fc2575a0e9e593c00f959f8c92f12db2869c3395a3b0502d05e2516446f71f85e84015590547fc2575a0e9e593c00f959f8c92f12db2869c3395a3b0502d05e2516446f71f85f909201919091555490565b6009602052600090815260409020805460019091015460ff9091169082565b6000806000806000806107c36110d7565b5050506000948552505060046020818152604094859020855160c08101875281548082526001830154600160a060020a03811694830185905260a060020a900460ff161515978201889052600283015460608301819052600384015460808401819052939095015460a09092018290529792969395509093509190565b3360009081526001602052604090205460ff16806108735760405160e560020a62461bcd02815260040161037c90611472565b61087b611118565b50600160a060020a0387166000908152600960209081526040918290208251808401909352805460ff161515808452600190910154918301919091526108d65760405160e560020a62461bcd02815260040161037c906114e0565b6108de61112f565b50506040805160e08101825260018152600160a060020a0390981660208901528701959095526060860193909352608085019190915260a084015260c09092019190915250565b600054600160a060020a031633146109525760405160e560020a62461bcd02815260040161037c90611472565b600160a060020a03166000908152600160205260409020805460ff19169055565b600054600160a060020a031633146109a05760405160e560020a62461bcd02815260040161037c90611472565b600160a060020a03166000908152600160208190526040909120805460ff19169091179055565b6000806000806000806109d8611118565b50600160a060020a0387166000908152600960209081526040918290208251808401909352805460ff16151580845260019091015491830191909152610a335760405160e560020a62461bcd02815260040161037c906114e0565b6020810151610a4061112f565b60088281548110610a4d57fe5b60009182526020918290206040805160e081018252600693909302909101805460ff8116151584526101009004600160a060020a03169383018490526001810154918301829052600281015460608401819052600382015460808501819052600483015460a0860181905260059093015460c0909501859052949f929e509c50929a509198509650945050505050565b3360009081526001602052604090205460ff1680610b105760405160e560020a62461bcd02815260040161037c90611472565b610b18611118565b50600160a060020a0387166000908152600960209081526040918290208251808401909352805460ff16158015845260019091015491830191909152610b735760405160e560020a62461bcd02815260040161037c9061154e565b610b7b61112f565b6040518060e001604052806001151581526020018a600160a060020a0316815260200189815260200188815260200187815260200186815260200185815250905060405180604001604052806001151581526020016008805490508152509150600881908060018154018082558091505060019003906000526020600020906006020160009091909190915060008201518160000160006101000a81548160ff02191690831515021790555060208201518160000160016101000a815481600160a060020a030219169083600160a060020a0316021790555060408201518160010155606082015181600201556080820151816003015560a0820151816004015560c08201518160050155505081600960008b600160a060020a0316600160a060020a0316815260200190815260200160002060008201518160000160006101000a81548160ff02191690831515021790555060208201518160010155905050505050505050505050565b3360009081526001602052604090205460ff1680610d195760405160e560020a62461bcd02815260040161037c90611472565b50600160a060020a03909516600081815260056020908152604080832088845290915290209485556001850180546002870195909555600386019290925560049094019190915592151560a060020a0274ff00000000000000000000000000000000000000001973ffffffffffffffffffffffffffffffffffffffff1990921690921716179055565b3360009081526001602052604090205460ff1680610dd55760405160e560020a62461bcd02815260040161037c90611472565b600160a060020a038316600090815260066020526040902054610dff90600163ffffffff6110a816565b600160a060020a03909316600090815260066020908152604080832086905560078252808320958352949052929092205550565b600160a060020a03811660009081526007602090815260408083208584529091529020545b92915050565b600160a060020a031660009081526006602052604090205490565b600080600080600080610e8a61112f565b60088881548110610e9757fe5b60009182526020918290206040805160e081018252600693909302909101805460ff8116151584526101009004600160a060020a03169383018490526001810154918301829052600281015460608401819052600382015460808501819052600483015460a0860181905260059093015460c0909501859052949d929c509a50929850919650945092505050565b6000610f2f611118565b50600160a060020a0382166000908152600960209081526040918290208251808401909352805460ff16151580845260019091015491830191909152610f8a5760405160e560020a62461bcd02815260040161037c90611517565b6020015192915050565b600054600160a060020a03163314610fc15760405160e560020a62461bcd02815260040161037c90611472565b600160a060020a03811615610ff9576000805473ffffffffffffffffffffffffffffffffffffffff1916600160a060020a0383161790555b50565b60025490565b60606003805480602002602001604051908101604052809291908181526020016000905b8282101561109f5760008481526020908190206040805160c0810182526005860290920180548352600180820154600160a060020a0381168587015260a060020a900460ff1615159284019290925260028101546060840152600381015460808401526004015460a08301529083529092019101611026565b50505050905090565b6000828201838110156110d05760405160e560020a62461bcd02815260040161037c906114a9565b9392505050565b6040518060c00160405280600081526020016000600160a060020a031681526020016000151581526020016000815260200160008152602001600081525090565b604080518082019091526000808252602082015290565b6040518060e001604052806000151581526020016000600160a060020a0316815260200160008152602001600081526020016000815260200160008152602001600081525090565b80358015158114610e5857600080fd5b600060208284031215611198578081fd5b81356110d0816115c1565b600080604083850312156111b5578081fd5b82356111c0816115c1565b946020939093013593505050565b60008060008060008060c087890312156111e6578182fd5b86356111f1816115c1565b95506020870135945060408701359350606087013592506080870135915060a087013561121d816115d6565b809150509295509295509295565b60008060008060008060c08789031215611243578182fd5b863561124e816115c1565b9860208801359850604088013597606081013597506080810135965060a00135945092505050565b60008060408385031215611288578182fd5b8235611293816115c1565b91506112a28460208501611177565b90509250929050565b6000602082840312156112bc578081fd5b5035919050565b600080604083850312156112d5578182fd5b8235915060208301356112e7816115c1565b809150509250929050565b600080600080600060a08688031215611309578081fd5b8535945060208601359350604086013592506060860135611329816115c1565b91506080860135611339816115d6565b809150509295509295909350565b60008060008060008060c0878903121561135f578182fd5b863595506020870135945060408701359350606087013592506080870135611386816115c1565b91506113958860a08901611177565b90509295509295509295565b600160a060020a03969096168652602086019490945260408501929092526060840152608083015260a082015260c00190565b602080825282518282018190526000919060409081850190868401855b8281101561144a5781518051855286810151600160a060020a03168786015285810151151586860152606080820151908601526080808201519086015260a0908101519085015260c090930192908501906001016113f1565b5091979650505050505050565b901515815260200190565b9115158252602082015260400190565b6020808252601f908201527f756e617574686f72697a65642061636365737320746f20636f6e747261637400604082015260600190565b6020808252601b908201527f536166654d6174683a206164646974696f6e206f766572666c6f770000000000604082015260600190565b6020808252601a908201527f6465706f7369746f72207265636f7264206e6f7420666f756e64000000000000604082015260600190565b60208082526017908201527f6d656d626572207265636f7264206e6f7420666f756e64000000000000000000604082015260600190565b6020808252601f908201527f6465706f7369746f72207265636f726420616c72656164792065786973747300604082015260600190565b90815260200190565b958652600160a060020a03949094166020860152604085019290925260608401526080830152151560a082015260c00190565b600160a060020a0381168114610ff957600080fd5b8015158114610ff957600080fdfea26469706673582212207ebe60884cbb487c5db139ee5d3f0e889101750fe23dd0b3559f41ddcdb6ff7264736f6c63430006060033",
  "immutableReferences": {},
  "source": "pragma solidity 0.6.6;\n\n\nimport \"./IClientRecordShema.sol\";\nimport \"./StorageOwners.sol\";\nimport \"./SafeMath.sol\";\npragma experimental ABIEncoderV2;\n\ncontract ClientRecord is IClientRecordSchema, StorageOwners {\n\n    uint DepositRecordId = 0;\n\n    using SafeMath for uint256;\n    \n    FixedDepositRecord[] fixedDepositRecords;\n    \n    mapping(uint => FixedDepositRecord) DepositRecordMapping;\n    \n    \n    mapping (address => mapping(uint => FixedDepositRecord)) DepositRecordToDepositorMapping; //depositor address to depositor cycle mapping\n    \n     mapping(address=>uint) DepositorToDepositorRecordIndexMapping; //  This tracks the number of records by index created by a depositor\n\n    mapping(address=>mapping(uint=>uint)) DepositorToRecordIndexToRecordIDMapping; //  This maps the depositor to the record index and then to the record ID\n\n    // list of CLient Records\n    ClientRecord[] ClientRecords;\n    //Mapping that enables ease of traversal of the Client Records\n    mapping(address => RecordIndex) public ClientRecordIndexer;\n\n    function doesClientRecordExist(address depositor)\n        external\n        view\n        returns (bool)\n    {\n       return ClientRecordIndexer[depositor].exists;\n        \n    }\n\n    function getRecordIndex(address depositor) external view returns (uint256) {\n        RecordIndex memory recordIndex = ClientRecordIndexer[depositor];\n        require(recordIndex.exists, \"member record not found\");\n        return recordIndex.index;\n    }\n\n    function createClientRecord(\n        address payable _address,\n        uint256 underlyingTotalDeposits,\n        uint256 underlyingTotalWithdrawn,\n        uint256 derivativeBalance,\n        uint256 derivativeTotalDeposits,\n        uint256 derivativeTotalWithdrawn\n    ) external onlyStorageOracle {\n        RecordIndex memory recordIndex = ClientRecordIndexer[_address];\n        require(\n            !recordIndex.exists,\n            \"depositor record already exists\"\n        );\n        ClientRecord memory clientRecord = ClientRecord(\n            true,\n            _address,\n            underlyingTotalDeposits,\n            underlyingTotalWithdrawn,\n            derivativeBalance,\n            derivativeTotalDeposits,\n            derivativeTotalWithdrawn\n        );\n\n        recordIndex = RecordIndex(true, ClientRecords.length);\n        ClientRecords.push(clientRecord);\n        ClientRecordIndexer[_address] = recordIndex;\n    }\n\n    function updateClientRecord(\n        address payable _address,\n        uint256 underlyingTotalDeposits,\n        uint256 underlyingTotalWithdrawn,\n        uint256 derivativeBalance,\n        uint256 derivativeTotalDeposits,\n        uint256 derivativeTotalWithdrawn\n    ) external onlyStorageOracle {\n        RecordIndex memory recordIndex = ClientRecordIndexer[_address];\n        require(recordIndex.exists, \"depositor record not found\");\n        ClientRecord memory clientRecord = ClientRecord(\n            true,\n            _address,\n            underlyingTotalDeposits,\n            underlyingTotalWithdrawn,\n            derivativeBalance,\n            derivativeTotalDeposits,\n            derivativeTotalWithdrawn\n        );\nclientRecord.underlyingTotalDeposits = underlyingTotalDeposits;\nclientRecord.underlyingTotalWithdrawn = underlyingTotalWithdrawn;\nclientRecord.derivativeBalance = derivativeBalance;\nclientRecord.derivativeTotalDeposits = derivativeTotalDeposits;\nclientRecord.derivativeTotalWithdrawn = derivativeTotalWithdrawn;\n    }\n\n    function getLengthOfClientRecords() external returns (uint256) {\n        return ClientRecords.length;\n    }\n\n    function getClientRecordByIndex(uint256 index)\n        external\n        view\n        returns (\n            address payable _address,\n            uint256 underlyingTotalDeposits,\n            uint256 underlyingTotalWithdrawn,\n            uint256 derivativeBalance,\n            uint256 derivativeTotalDeposits,\n            uint256 derivativeTotalWithdrawn\n        )\n    {\n        ClientRecord memory clientRecord = ClientRecords[index];\n        return (\n            clientRecord._address,\n            clientRecord.underlyingTotalDeposits,\n            clientRecord.underlyingTotalWithdrawn,\n            clientRecord.derivativeBalance,\n            clientRecord.derivativeTotalDeposits,\n            clientRecord.derivativeTotalWithdrawn\n        );\n    }\n\n    function getClientRecordByAddress(address depositor)\n        external\n        view\n        returns (\n            address payable _address,\n            uint256 underlyingTotalDeposits,\n            uint256 underlyingTotalWithdrawn,\n            uint256 derivativeBalance,\n            uint256 derivativeTotalDeposits,\n            uint256 derivativeTotalWithdrawn\n        )\n    {\n        RecordIndex memory recordIndex = ClientRecordIndexer[depositor];\n        require(recordIndex.exists, \"depositor record not found\");\n        uint256 index = recordIndex.index;\n\n        ClientRecord memory clientRecord = ClientRecords[index];\n        return (\n            clientRecord._address,\n            clientRecord.underlyingTotalDeposits,\n            clientRecord.underlyingTotalWithdrawn,\n            clientRecord.derivativeBalance,\n            clientRecord.derivativeTotalDeposits,\n            clientRecord.derivativeTotalWithdrawn\n        );\n    }\n\n      function GetRecordIndexFromDepositor(address member) external view returns(uint){\n\n        return DepositorToDepositorRecordIndexMapping[member];\n    }\n    \n     function GetRecordIdFromRecordIndexAndDepositorRecord(uint recordIndex, address depositor) external view returns(uint){\n\n      mapping(uint=>uint) storage depositorCreatedRecordIndexToRecordId = DepositorToRecordIndexToRecordIDMapping[depositor];\n\n      return depositorCreatedRecordIndexToRecordId[recordIndex];\n    }\n    \n     function CreateDepositRecordMapping(uint amount, uint lockPeriodInSeconds,uint depositDateInSeconds, address payable depositor, bool hasWithdrawn) external   onlyStorageOracle returns (uint)  {\n          \n          DepositRecordId += 1;\n\n         FixedDepositRecord storage _fixedDeposit = DepositRecordMapping[DepositRecordId];\n\n        _fixedDeposit.recordId = DepositRecordId;\n        _fixedDeposit.amount = amount;\n        _fixedDeposit.lockPeriodInSeconds = lockPeriodInSeconds;\n        _fixedDeposit.depositDateInSeconds = depositDateInSeconds;\n        _fixedDeposit.hasWithdrawn = hasWithdrawn;\n        _fixedDeposit.depositorId = depositor;\n        \n        fixedDepositRecords.push(_fixedDeposit);\nreturn DepositRecordId;\n\n    }\n\n     function UpdateDepositRecordMapping(uint DepositRecordId, uint amount, uint lockPeriodInSeconds,uint depositDateInSeconds, address payable depositor, bool hasWithdrawn) external  onlyStorageOracle  {\n         \n         \n         FixedDepositRecord storage _fixedDeposit = DepositRecordMapping[DepositRecordId];\n\n        _fixedDeposit.recordId = DepositRecordId;\n        _fixedDeposit.amount = amount;\n        _fixedDeposit.lockPeriodInSeconds = lockPeriodInSeconds;\n        _fixedDeposit.depositDateInSeconds = depositDateInSeconds;\n        _fixedDeposit.hasWithdrawn = hasWithdrawn;\n        _fixedDeposit.depositorId = depositor;\n        \n        fixedDepositRecords.push(_fixedDeposit);\n\n\n    }\n    \n   function GetRecordId() external view returns (uint){\n        return DepositRecordId;\n    }\n    \n    function GetRecordById(uint depositRecordId) external view returns(uint recordId, address payable depositorId, uint amount, uint depositDateInSeconds, uint lockPeriodInSeconds, bool hasWithdrawn) {\n        \n        FixedDepositRecord memory records = DepositRecordMapping[depositRecordId];\n        \n        return(records.recordId, records.depositorId, records.amount, records.depositDateInSeconds, records.lockPeriodInSeconds, records.hasWithdrawn);\n    }\n    \n    function GetRecords() external view returns (FixedDepositRecord [] memory) {\n        return fixedDepositRecords;\n    }\n    \n     function CreateDepositorToDepositRecordIndexToRecordIDMapping(address payable depositor, uint recordId) external onlyStorageOracle {\n      \n      DepositorToDepositorRecordIndexMapping[depositor] = DepositorToDepositorRecordIndexMapping[depositor].add(1);\n\n      uint DepositorCreatedRecordIndex = DepositorToDepositorRecordIndexMapping[depositor];\n      mapping(uint=>uint) storage depositorCreatedRecordIndexToRecordId = DepositorToRecordIndexToRecordIDMapping[depositor];\n      depositorCreatedRecordIndexToRecordId[DepositorCreatedRecordIndex] = recordId;\n    }\n    \n    function CreateDepositorAddressToDepositRecordMapping (address payable depositor, uint recordId, uint amountDeposited, uint lockPeriodInSeconds, uint depositDateInSeconds, bool hasWithdrawn) external onlyStorageOracle {\n        mapping(uint => FixedDepositRecord) storage depositorAddressMapping = DepositRecordToDepositorMapping[depositor];\n        \n        depositorAddressMapping[recordId].recordId = recordId;\n        depositorAddressMapping[recordId].depositorId = depositor;\n        depositorAddressMapping[recordId].amount = amountDeposited;\n        depositorAddressMapping[recordId].depositDateInSeconds = depositDateInSeconds;\n        depositorAddressMapping[recordId].lockPeriodInSeconds = lockPeriodInSeconds;\n        depositorAddressMapping[recordId].hasWithdrawn = hasWithdrawn;\n        \n    }\n}\n",
  "sourcePath": "/Users/mac/Desktop/BinaryHiils/yearn-savings/Tests/contracts/ClientRecord.sol",
  "compiler": {
    "name": "solc",
    "version": "0.6.6+commit.6c089d02.Emscripten.clang"
  },
  "schemaVersion": "3.3.2",
  "updatedAt": "2021-02-03T15:04:17.042Z",
  "networkType": "ethereum",
  "devdoc": {
    "methods": {}
  },
  "userdoc": {
    "methods": {}
  }
}