{
  "contractName": "ClientRecord",
  "abi": [
    {
      "inputs": [
        {
          "internalType": "address",
          "name": "",
          "type": "address"
        }
      ],
      "name": "ClientRecordIndexer",
      "outputs": [
        {
          "internalType": "bool",
          "name": "exists",
          "type": "bool"
        },
        {
          "internalType": "uint256",
          "name": "index",
          "type": "uint256"
        }
      ],
      "stateMutability": "view",
      "type": "function"
    },
    {
      "inputs": [
        {
          "internalType": "address",
          "name": "oracle",
          "type": "address"
        }
      ],
      "name": "activateStorageOracle",
      "outputs": [],
      "stateMutability": "nonpayable",
      "type": "function"
    },
    {
      "inputs": [
        {
          "internalType": "address",
          "name": "oracle",
          "type": "address"
        }
      ],
      "name": "deactivateStorageOracle",
      "outputs": [],
      "stateMutability": "nonpayable",
      "type": "function"
    },
    {
      "inputs": [
        {
          "internalType": "address",
          "name": "newOracle",
          "type": "address"
        }
      ],
      "name": "reAssignStorageOracle",
      "outputs": [],
      "stateMutability": "nonpayable",
      "type": "function"
    },
    {
      "inputs": [
        {
          "internalType": "address payable",
          "name": "newOwner",
          "type": "address"
        }
      ],
      "name": "transferOwnership",
      "outputs": [],
      "stateMutability": "nonpayable",
      "type": "function"
    },
    {
      "inputs": [
        {
          "internalType": "address",
          "name": "depositor",
          "type": "address"
        }
      ],
      "name": "doesClientRecordExist",
      "outputs": [
        {
          "internalType": "bool",
          "name": "",
          "type": "bool"
        }
      ],
      "stateMutability": "view",
      "type": "function"
    },
    {
      "inputs": [
        {
          "internalType": "address",
          "name": "depositor",
          "type": "address"
        }
      ],
      "name": "getRecordIndex",
      "outputs": [
        {
          "internalType": "uint256",
          "name": "",
          "type": "uint256"
        }
      ],
      "stateMutability": "view",
      "type": "function"
    },
    {
      "inputs": [
        {
          "internalType": "address payable",
          "name": "_address",
          "type": "address"
        },
        {
          "internalType": "uint256",
          "name": "underlyingTotalDeposits",
          "type": "uint256"
        },
        {
          "internalType": "uint256",
          "name": "underlyingTotalWithdrawn",
          "type": "uint256"
        },
        {
          "internalType": "uint256",
          "name": "derivativeBalance",
          "type": "uint256"
        },
        {
          "internalType": "uint256",
          "name": "derivativeTotalDeposits",
          "type": "uint256"
        },
        {
          "internalType": "uint256",
          "name": "derivativeTotalWithdrawn",
          "type": "uint256"
        }
      ],
      "name": "createClientRecord",
      "outputs": [],
      "stateMutability": "nonpayable",
      "type": "function"
    },
    {
      "inputs": [
        {
          "internalType": "address payable",
          "name": "_address",
          "type": "address"
        },
        {
          "internalType": "uint256",
          "name": "underlyingTotalDeposits",
          "type": "uint256"
        },
        {
          "internalType": "uint256",
          "name": "underlyingTotalWithdrawn",
          "type": "uint256"
        },
        {
          "internalType": "uint256",
          "name": "derivativeBalance",
          "type": "uint256"
        },
        {
          "internalType": "uint256",
          "name": "derivativeTotalDeposits",
          "type": "uint256"
        },
        {
          "internalType": "uint256",
          "name": "derivativeTotalWithdrawn",
          "type": "uint256"
        }
      ],
      "name": "updateClientRecord",
      "outputs": [],
      "stateMutability": "nonpayable",
      "type": "function"
    },
    {
      "inputs": [],
      "name": "getLengthOfClientRecords",
      "outputs": [
        {
          "internalType": "uint256",
          "name": "",
          "type": "uint256"
        }
      ],
      "stateMutability": "nonpayable",
      "type": "function"
    },
    {
      "inputs": [
        {
          "internalType": "uint256",
          "name": "index",
          "type": "uint256"
        }
      ],
      "name": "getClientRecordByIndex",
      "outputs": [
        {
          "internalType": "address payable",
          "name": "_address",
          "type": "address"
        },
        {
          "internalType": "uint256",
          "name": "underlyingTotalDeposits",
          "type": "uint256"
        },
        {
          "internalType": "uint256",
          "name": "underlyingTotalWithdrawn",
          "type": "uint256"
        },
        {
          "internalType": "uint256",
          "name": "derivativeBalance",
          "type": "uint256"
        },
        {
          "internalType": "uint256",
          "name": "derivativeTotalDeposits",
          "type": "uint256"
        },
        {
          "internalType": "uint256",
          "name": "derivativeTotalWithdrawn",
          "type": "uint256"
        }
      ],
      "stateMutability": "view",
      "type": "function"
    },
    {
      "inputs": [
        {
          "internalType": "address",
          "name": "depositor",
          "type": "address"
        }
      ],
      "name": "getClientRecordByAddress",
      "outputs": [
        {
          "internalType": "address payable",
          "name": "_address",
          "type": "address"
        },
        {
          "internalType": "uint256",
          "name": "underlyingTotalDeposits",
          "type": "uint256"
        },
        {
          "internalType": "uint256",
          "name": "underlyingTotalWithdrawn",
          "type": "uint256"
        },
        {
          "internalType": "uint256",
          "name": "derivativeBalance",
          "type": "uint256"
        },
        {
          "internalType": "uint256",
          "name": "derivativeTotalDeposits",
          "type": "uint256"
        },
        {
          "internalType": "uint256",
          "name": "derivativeTotalWithdrawn",
          "type": "uint256"
        }
      ],
      "stateMutability": "view",
      "type": "function"
    }
  ],
  "bytecode": "0x608060405260008054600160a060020a03191633179055610d53806100256000396000f3fe608060405234801561001057600080fd5b50600436106100d1576000357c0100000000000000000000000000000000000000000000000000000000900480636f583ba61161008e5780636f583ba6146101fd5780637c79ed461461022357806389694be714610286578063e08c694c146102ca578063eac1bbe8146102e7578063f2fde38b1461030d576100d1565b80630fdf80ed146100d65780632a02ab55146100fe5780632adc57a61461011857806331703b5f1461015257806346854aa7146101935780636041fc88146101d7575b600080fd5b6100fc600480360360208110156100ec57600080fd5b5035600160a060020a0316610333565b005b6101066103c2565b60408051918252519081900360200190f35b61013e6004803603602081101561012e57600080fd5b5035600160a060020a03166103c8565b604080519115158252519081900360200190f35b6101786004803603602081101561016857600080fd5b5035600160a060020a0316610412565b60408051921515835260208301919091528051918290030190f35b6100fc600480360360c08110156101a957600080fd5b50600160a060020a038135169060208101359060408101359060608101359060808101359060a00135610431565b6100fc600480360360208110156101ed57600080fd5b5035600160a060020a031661062d565b6100fc6004803603602081101561021357600080fd5b5035600160a060020a031661069e565b6102496004803603602081101561023957600080fd5b5035600160a060020a0316610715565b60408051600160a060020a0390971687526020870195909552858501939093526060850191909152608084015260a0830152519081900360c00190f35b6100fc600480360360c081101561029c57600080fd5b50600160a060020a038135169060208101359060408101359060608101359060808101359060a00135610861565b610249600480360360208110156102e057600080fd5b5035610ac2565b610106600480360360208110156102fd57600080fd5b5035600160a060020a0316610b6e565b6100fc6004803603602081101561032357600080fd5b5035600160a060020a0316610c13565b3360009081526001602052604090205460ff1680610389576040805160e560020a62461bcd02815260206004820152601f6024820152600080516020610cfe833981519152604482015290519081900360640190fd5b50336000908152600160208190526040808320805460ff19908116909155600160a060020a039490941683529091208054909216179055565b60025490565b60006103d2610c9e565b5050600160a060020a03166000908152600360209081526040918290208251808401909352805460ff161515808452600190910154929091019190915290565b6003602052600090815260409020805460019091015460ff9091169082565b3360009081526001602052604090205460ff1680610487576040805160e560020a62461bcd02815260206004820152601f6024820152600080516020610cfe833981519152604482015290519081900360640190fd5b61048f610c9e565b50600160a060020a0387166000908152600360209081526040918290208251808401909352805460ff1615158084526001918201549284019290925214610520576040805160e560020a62461bcd02815260206004820152601a60248201527f6465706f7369746f72207265636f7264206e6f7420666f756e64000000000000604482015290519081900360640190fd5b610528610cb5565b6040518060e001604052806001151581526020018a600160a060020a03168152602001898152602001888152602001878152602001868152602001858152509050600082602001519050886002828154811061058057fe5b90600052602060002090600602016001018190555087600282815481106105a357fe5b90600052602060002090600602016002018190555086600282815481106105c657fe5b90600052602060002090600602016003018190555085600282815481106105e957fe5b906000526020600020906006020160040181905550846002828154811061060c57fe5b90600052602060002090600602016005018190555050505050505050505050565b600054600160a060020a0316331461067d576040805160e560020a62461bcd02815260206004820152601f6024820152600080516020610cfe833981519152604482015290519081900360640190fd5b600160a060020a03166000908152600160205260409020805460ff19169055565b600054600160a060020a031633146106ee576040805160e560020a62461bcd02815260206004820152601f6024820152600080516020610cfe833981519152604482015290519081900360640190fd5b600160a060020a03166000908152600160208190526040909120805460ff19169091179055565b600080600080600080610726610c9e565b50600160a060020a0387166000908152600360209081526040918290208251808401909352805460ff16151580845260019182015492840192909252146107b7576040805160e560020a62461bcd02815260206004820152601a60248201527f6465706f7369746f72207265636f7264206e6f7420666f756e64000000000000604482015290519081900360640190fd5b60208101516107c4610cb5565b600282815481106107d157fe5b60009182526020918290206040805160e081018252600693909302909101805460ff8116151584526101009004600160a060020a03169383018490526001810154918301829052600281015460608401819052600382015460808501819052600483015460a0860181905260059093015460c0909501859052949f929e509c50929a509198509650945050505050565b3360009081526001602052604090205460ff16806108b7576040805160e560020a62461bcd02815260206004820152601f6024820152600080516020610cfe833981519152604482015290519081900360640190fd5b6108bf610c9e565b50600160a060020a0387166000908152600360209081526040918290208251808401909352805460ff1615801584526001909101549183019190915261094f576040805160e560020a62461bcd02815260206004820181905260248201527f6465706f7369746f72207265636f726420616c72656164647920657869737473604482015290519081900360640190fd5b610957610cb5565b6040518060e001604052806001151581526020018a600160a060020a0316815260200189815260200188815260200187815260200186815260200185815250905060405180604001604052806001151581526020016002805490508152509150600281908060018154018082558091505060019003906000526020600020906006020160009091909190915060008201518160000160006101000a81548160ff02191690831515021790555060208201518160000160016101000a815481600160a060020a030219169083600160a060020a0316021790555060408201518160010155606082015181600201556080820151816003015560a0820151816004015560c08201518160050155505081600360008b600160a060020a0316600160a060020a0316815260200190815260200160002060008201518160000160006101000a81548160ff02191690831515021790555060208201518160010155905050505050505050505050565b600080600080600080610ad3610cb5565b60028881548110610ae057fe5b60009182526020918290206040805160e081018252600693909302909101805460ff8116151584526101009004600160a060020a03169383018490526001810154918301829052600281015460608401819052600382015460808501819052600483015460a0860181905260059093015460c0909501859052949d929c509a50929850919650945092505050565b6000610b78610c9e565b50600160a060020a0382166000908152600360209081526040918290208251808401909352805460ff1615158084526001918201549284019290925214610c09576040805160e560020a62461bcd02815260206004820152601760248201527f6d656d626572207265636f7264206e6f7420666f756e64000000000000000000604482015290519081900360640190fd5b6020015192915050565b600054600160a060020a03163314610c63576040805160e560020a62461bcd02815260206004820152601f6024820152600080516020610cfe833981519152604482015290519081900360640190fd5b600160a060020a03811615610c9b576000805473ffffffffffffffffffffffffffffffffffffffff1916600160a060020a0383161790555b50565b604080518082019091526000808252602082015290565b6040518060e001604052806000151581526020016000600160a060020a031681526020016000815260200160008152602001600081526020016000815260200160008152509056fe756e617574686f72697a65642061636365737320746f20636f6e747261637400a264697066735822122003dc1ae8d36ab409e2ab0a1591e1fe01b51908c5be9111f54597642bc9ba5a3b64736f6c63430006060033",
  "immutableReferences": {},
  "source": "pragma solidity ^0.6.0;\n\n\nimport \"./IClientRecordShema.sol\";\nimport \"./StorageOwners.sol\";\n\ncontract ClientRecord is IClientRecordSchema, StorageOwners {\n    // list of CLient Records\n    ClientRecord[] ClientRecords;\n    //Mapping that enables ease of traversal of the Client Records\n    mapping(address => RecordIndex) public ClientRecordIndexer;\n\n    function doesClientRecordExist(address depositor)\n        external\n        view\n        returns (bool)\n    {\n        RecordIndex memory recordIndex = ClientRecordIndexer[depositor];\n        return recordIndex.exists;\n    }\n\n    function getRecordIndex(address depositor) external view returns (uint256) {\n        RecordIndex memory recordIndex = ClientRecordIndexer[depositor];\n        require(recordIndex.exists == true, \"member record not found\");\n        return recordIndex.index;\n    }\n\n    function createClientRecord(\n        address payable _address,\n        uint256 underlyingTotalDeposits,\n        uint256 underlyingTotalWithdrawn,\n        uint256 derivativeBalance,\n        uint256 derivativeTotalDeposits,\n        uint256 derivativeTotalWithdrawn\n    ) external onlyStorageOracle {\n        RecordIndex memory recordIndex = ClientRecordIndexer[_address];\n        require(\n            recordIndex.exists == false,\n            \"depositor record alreaddy exists\"\n        );\n        ClientRecord memory clientRecord = ClientRecord(\n            true,\n            _address,\n            underlyingTotalDeposits,\n            underlyingTotalWithdrawn,\n            derivativeBalance,\n            derivativeTotalDeposits,\n            derivativeTotalWithdrawn\n        );\n\n        recordIndex = RecordIndex(true, ClientRecords.length);\n        ClientRecords.push(clientRecord);\n        ClientRecordIndexer[_address] = recordIndex;\n    }\n\n    function updateClientRecord(\n        address payable _address,\n        uint256 underlyingTotalDeposits,\n        uint256 underlyingTotalWithdrawn,\n        uint256 derivativeBalance,\n        uint256 derivativeTotalDeposits,\n        uint256 derivativeTotalWithdrawn\n    ) external onlyStorageOracle {\n        RecordIndex memory recordIndex = ClientRecordIndexer[_address];\n        require(recordIndex.exists == true, \"depositor record not found\");\n        ClientRecord memory clientRecord = ClientRecord(\n            true,\n            _address,\n            underlyingTotalDeposits,\n            underlyingTotalWithdrawn,\n            derivativeBalance,\n            derivativeTotalDeposits,\n            derivativeTotalWithdrawn\n        );\n\n        uint256 index = recordIndex.index;\n\n        ClientRecords[index].underlyingTotalDeposits = underlyingTotalDeposits;\n        ClientRecords[index]\n            .underlyingTotalWithdrawn = underlyingTotalWithdrawn;\n        ClientRecords[index].derivativeBalance = derivativeBalance;\n        ClientRecords[index].derivativeTotalDeposits = derivativeTotalDeposits;\n        ClientRecords[index]\n            .derivativeTotalWithdrawn = derivativeTotalWithdrawn;\n    }\n\n    function getLengthOfClientRecords() external returns (uint256) {\n        return ClientRecords.length;\n    }\n\n    function getClientRecordByIndex(uint256 index)\n        external\n        view\n        returns (\n            address payable _address,\n            uint256 underlyingTotalDeposits,\n            uint256 underlyingTotalWithdrawn,\n            uint256 derivativeBalance,\n            uint256 derivativeTotalDeposits,\n            uint256 derivativeTotalWithdrawn\n        )\n    {\n        ClientRecord memory clientRecord = ClientRecords[index];\n        return (\n            clientRecord._address,\n            clientRecord.underlyingTotalDeposits,\n            clientRecord.underlyingTotalWithdrawn,\n            clientRecord.derivativeBalance,\n            clientRecord.derivativeTotalDeposits,\n            clientRecord.derivativeTotalWithdrawn\n        );\n    }\n\n    function getClientRecordByAddress(address depositor)\n        external\n        view\n        returns (\n            address payable _address,\n            uint256 underlyingTotalDeposits,\n            uint256 underlyingTotalWithdrawn,\n            uint256 derivativeBalance,\n            uint256 derivativeTotalDeposits,\n            uint256 derivativeTotalWithdrawn\n        )\n    {\n        RecordIndex memory recordIndex = ClientRecordIndexer[depositor];\n        require(recordIndex.exists == true, \"depositor record not found\");\n        uint256 index = recordIndex.index;\n\n        ClientRecord memory clientRecord = ClientRecords[index];\n        return (\n            clientRecord._address,\n            clientRecord.underlyingTotalDeposits,\n            clientRecord.underlyingTotalWithdrawn,\n            clientRecord.derivativeBalance,\n            clientRecord.derivativeTotalDeposits,\n            clientRecord.derivativeTotalWithdrawn\n        );\n    }\n}\n",
  "sourcePath": "/Users/njokuscript/Desktop/programming/yearn_savings/Tests/contracts/ClientRecord.sol",
  "compiler": {
    "name": "solc",
    "version": "0.6.6+commit.6c089d02.Emscripten.clang"
  },
  "schemaVersion": "3.2.5",
  "updatedAt": "2020-10-27T19:23:52.822Z",
  "devdoc": {
    "methods": {}
  },
  "userdoc": {
    "methods": {}
  }
}