{
  "contractName": "ClientRecord",
  "abi": [
    {
      "inputs": [
        {
          "internalType": "address",
          "name": "",
          "type": "address"
        }
      ],
      "name": "ClientRecordIndexer",
      "outputs": [
        {
          "internalType": "bool",
          "name": "exists",
          "type": "bool"
        },
        {
          "internalType": "uint256",
          "name": "index",
          "type": "uint256"
        }
      ],
      "stateMutability": "view",
      "type": "function"
    },
    {
      "inputs": [
        {
          "internalType": "address",
          "name": "oracle",
          "type": "address"
        }
      ],
      "name": "activateStorageOracle",
      "outputs": [],
      "stateMutability": "nonpayable",
      "type": "function"
    },
    {
      "inputs": [
        {
          "internalType": "address",
          "name": "oracle",
          "type": "address"
        },
        {
          "internalType": "bool",
          "name": "status",
          "type": "bool"
        }
      ],
      "name": "changeStorageOracleStatus",
      "outputs": [],
      "stateMutability": "nonpayable",
      "type": "function"
    },
    {
      "inputs": [
        {
          "internalType": "address",
          "name": "oracle",
          "type": "address"
        }
      ],
      "name": "deactivateStorageOracle",
      "outputs": [],
      "stateMutability": "nonpayable",
      "type": "function"
    },
    {
      "inputs": [
        {
          "internalType": "address",
          "name": "newOracle",
          "type": "address"
        }
      ],
      "name": "reAssignStorageOracle",
      "outputs": [],
      "stateMutability": "nonpayable",
      "type": "function"
    },
    {
      "inputs": [
        {
          "internalType": "address payable",
          "name": "newOwner",
          "type": "address"
        }
      ],
      "name": "transferOwnership",
      "outputs": [],
      "stateMutability": "nonpayable",
      "type": "function"
    },
    {
      "inputs": [
        {
          "internalType": "address",
          "name": "depositor",
          "type": "address"
        }
      ],
      "name": "doesClientRecordExist",
      "outputs": [
        {
          "internalType": "bool",
          "name": "",
          "type": "bool"
        }
      ],
      "stateMutability": "view",
      "type": "function"
    },
    {
      "inputs": [
        {
          "internalType": "address",
          "name": "depositor",
          "type": "address"
        }
      ],
      "name": "getRecordIndex",
      "outputs": [
        {
          "internalType": "uint256",
          "name": "",
          "type": "uint256"
        }
      ],
      "stateMutability": "view",
      "type": "function"
    },
    {
      "inputs": [
        {
          "internalType": "address payable",
          "name": "_address",
          "type": "address"
        },
        {
          "internalType": "uint256",
          "name": "underlyingTotalDeposits",
          "type": "uint256"
        },
        {
          "internalType": "uint256",
          "name": "underlyingTotalWithdrawn",
          "type": "uint256"
        },
        {
          "internalType": "uint256",
          "name": "derivativeBalance",
          "type": "uint256"
        },
        {
          "internalType": "uint256",
          "name": "derivativeTotalDeposits",
          "type": "uint256"
        },
        {
          "internalType": "uint256",
          "name": "derivativeTotalWithdrawn",
          "type": "uint256"
        }
      ],
      "name": "createClientRecord",
      "outputs": [],
      "stateMutability": "nonpayable",
      "type": "function"
    },
    {
      "inputs": [
        {
          "internalType": "address payable",
          "name": "_address",
          "type": "address"
        },
        {
          "internalType": "uint256",
          "name": "underlyingTotalDeposits",
          "type": "uint256"
        },
        {
          "internalType": "uint256",
          "name": "underlyingTotalWithdrawn",
          "type": "uint256"
        },
        {
          "internalType": "uint256",
          "name": "derivativeBalance",
          "type": "uint256"
        },
        {
          "internalType": "uint256",
          "name": "derivativeTotalDeposits",
          "type": "uint256"
        },
        {
          "internalType": "uint256",
          "name": "derivativeTotalWithdrawn",
          "type": "uint256"
        }
      ],
      "name": "updateClientRecord",
      "outputs": [],
      "stateMutability": "nonpayable",
      "type": "function"
    },
    {
      "inputs": [],
      "name": "getLengthOfClientRecords",
      "outputs": [
        {
          "internalType": "uint256",
          "name": "",
          "type": "uint256"
        }
      ],
      "stateMutability": "nonpayable",
      "type": "function"
    },
    {
      "inputs": [
        {
          "internalType": "uint256",
          "name": "index",
          "type": "uint256"
        }
      ],
      "name": "getClientRecordByIndex",
      "outputs": [
        {
          "internalType": "address payable",
          "name": "_address",
          "type": "address"
        },
        {
          "internalType": "uint256",
          "name": "underlyingTotalDeposits",
          "type": "uint256"
        },
        {
          "internalType": "uint256",
          "name": "underlyingTotalWithdrawn",
          "type": "uint256"
        },
        {
          "internalType": "uint256",
          "name": "derivativeBalance",
          "type": "uint256"
        },
        {
          "internalType": "uint256",
          "name": "derivativeTotalDeposits",
          "type": "uint256"
        },
        {
          "internalType": "uint256",
          "name": "derivativeTotalWithdrawn",
          "type": "uint256"
        }
      ],
      "stateMutability": "view",
      "type": "function"
    },
    {
      "inputs": [
        {
          "internalType": "address",
          "name": "depositor",
          "type": "address"
        }
      ],
      "name": "getClientRecordByAddress",
      "outputs": [
        {
          "internalType": "address payable",
          "name": "_address",
          "type": "address"
        },
        {
          "internalType": "uint256",
          "name": "underlyingTotalDeposits",
          "type": "uint256"
        },
        {
          "internalType": "uint256",
          "name": "underlyingTotalWithdrawn",
          "type": "uint256"
        },
        {
          "internalType": "uint256",
          "name": "derivativeBalance",
          "type": "uint256"
        },
        {
          "internalType": "uint256",
          "name": "derivativeTotalDeposits",
          "type": "uint256"
        },
        {
          "internalType": "uint256",
          "name": "derivativeTotalWithdrawn",
          "type": "uint256"
        }
      ],
      "stateMutability": "view",
      "type": "function"
    },
    {
      "inputs": [
        {
          "internalType": "address",
          "name": "member",
          "type": "address"
        }
      ],
      "name": "GetRecordIndexFromDepositor",
      "outputs": [
        {
          "internalType": "uint256",
          "name": "",
          "type": "uint256"
        }
      ],
      "stateMutability": "view",
      "type": "function"
    },
    {
      "inputs": [
        {
          "internalType": "uint256",
          "name": "recordIndex",
          "type": "uint256"
        },
        {
          "internalType": "address",
          "name": "depositor",
          "type": "address"
        }
      ],
      "name": "GetRecordIdFromRecordIndexAndDepositorRecord",
      "outputs": [
        {
          "internalType": "uint256",
          "name": "",
          "type": "uint256"
        }
      ],
      "stateMutability": "view",
      "type": "function"
    },
    {
      "inputs": [
        {
          "internalType": "uint256",
          "name": "amount",
          "type": "uint256"
        },
        {
          "internalType": "uint256",
          "name": "lockPeriodInSeconds",
          "type": "uint256"
        },
        {
          "internalType": "uint256",
          "name": "depositDateInSeconds",
          "type": "uint256"
        },
        {
          "internalType": "address payable",
          "name": "depositor",
          "type": "address"
        },
        {
          "internalType": "bool",
          "name": "hasWithdrawn",
          "type": "bool"
        }
      ],
      "name": "CreateDepositRecordMapping",
      "outputs": [],
      "stateMutability": "nonpayable",
      "type": "function"
    },
    {
      "inputs": [
        {
          "internalType": "uint256",
          "name": "depositRecordId",
          "type": "uint256"
        },
        {
          "internalType": "uint256",
          "name": "amount",
          "type": "uint256"
        },
        {
          "internalType": "uint256",
          "name": "lockPeriodInSeconds",
          "type": "uint256"
        },
        {
          "internalType": "uint256",
          "name": "depositDateInSeconds",
          "type": "uint256"
        },
        {
          "internalType": "address payable",
          "name": "depositor",
          "type": "address"
        },
        {
          "internalType": "bool",
          "name": "hasWithdrawn",
          "type": "bool"
        }
      ],
      "name": "UpdateDepositRecordMapping",
      "outputs": [],
      "stateMutability": "nonpayable",
      "type": "function"
    },
    {
      "inputs": [],
      "name": "GetRecordId",
      "outputs": [
        {
          "internalType": "uint256",
          "name": "",
          "type": "uint256"
        }
      ],
      "stateMutability": "view",
      "type": "function"
    },
    {
      "inputs": [
        {
          "internalType": "uint256",
          "name": "depositRecordId",
          "type": "uint256"
        }
      ],
      "name": "GetRecordById",
      "outputs": [
        {
          "internalType": "uint256",
          "name": "recordId",
          "type": "uint256"
        },
        {
          "internalType": "address payable",
          "name": "depositorId",
          "type": "address"
        },
        {
          "internalType": "uint256",
          "name": "amount",
          "type": "uint256"
        },
        {
          "internalType": "uint256",
          "name": "depositDateInSeconds",
          "type": "uint256"
        },
        {
          "internalType": "uint256",
          "name": "lockPeriodInSeconds",
          "type": "uint256"
        },
        {
          "internalType": "bool",
          "name": "hasWithdrawn",
          "type": "bool"
        }
      ],
      "stateMutability": "view",
      "type": "function"
    },
    {
      "inputs": [],
      "name": "GetRecords",
      "outputs": [
        {
          "components": [
            {
              "internalType": "uint256",
              "name": "recordId",
              "type": "uint256"
            },
            {
              "internalType": "address payable",
              "name": "depositorId",
              "type": "address"
            },
            {
              "internalType": "bool",
              "name": "hasWithdrawn",
              "type": "bool"
            },
            {
              "internalType": "uint256",
              "name": "amount",
              "type": "uint256"
            },
            {
              "internalType": "uint256",
              "name": "depositDateInSeconds",
              "type": "uint256"
            },
            {
              "internalType": "uint256",
              "name": "lockPeriodInSeconds",
              "type": "uint256"
            }
          ],
          "internalType": "struct IClientRecordSchema.FixedDepositRecord[]",
          "name": "",
          "type": "tuple[]"
        }
      ],
      "stateMutability": "view",
      "type": "function"
    },
    {
      "inputs": [
        {
          "internalType": "address payable",
          "name": "depositor",
          "type": "address"
        },
        {
          "internalType": "uint256",
          "name": "recordId",
          "type": "uint256"
        }
      ],
      "name": "CreateDepositorToDepositRecordIndexToRecordIDMapping",
      "outputs": [],
      "stateMutability": "nonpayable",
      "type": "function"
    },
    {
      "inputs": [
        {
          "internalType": "address payable",
          "name": "depositor",
          "type": "address"
        },
        {
          "internalType": "uint256",
          "name": "recordId",
          "type": "uint256"
        },
        {
          "internalType": "uint256",
          "name": "amountDeposited",
          "type": "uint256"
        },
        {
          "internalType": "uint256",
          "name": "lockPeriodInSeconds",
          "type": "uint256"
        },
        {
          "internalType": "uint256",
          "name": "depositDateInSeconds",
          "type": "uint256"
        },
        {
          "internalType": "bool",
          "name": "hasWithdrawn",
          "type": "bool"
        }
      ],
      "name": "CreateDepositorAddressToDepositRecordMapping",
      "outputs": [],
      "stateMutability": "nonpayable",
      "type": "function"
    }
  ],
  "bytecode": "0x608060405260008054600160a060020a03191633179055611610806100256000396000f3fe608060405234801561001057600080fd5b506004361061015f576000357c0100000000000000000000000000000000000000000000000000000000900480637c79ed46116100d5578063d4efcbe811610099578063d4efcbe8146102e0578063e08c694c146102f3578063eac1bbe814610306578063f2fde38b14610319578063fbae33721461032c578063ff1b9e21146103345761015f565b80637c79ed461461026f57806389694be7146102945780638b6297d4146102a75780639ff8325b146102ba578063b103cccf146102cd5761015f565b8063309519361161012757806330951936146101dd57806331703b5f146101f057806335dc275b1461021157806346854aa7146102365780636041fc88146102495780636f583ba61461025c5761015f565b80630fdf80ed14610164578063217d1e93146101795780632848b7d11461018c5780632a02ab551461019f5780632adc57a6146101bd575b600080fd5b61017761017236600461117d565b610349565b005b61017761018736600461126c565b6103be565b61017761019a36600461133d565b610416565b6101a76105bb565b6040516101b4919061157b565b60405180910390f35b6101d06101cb36600461117d565b6105c1565b6040516101b4919061144d565b6101776101eb3660046112e8565b6105df565b6102036101fe36600461117d565b610789565b6040516101b4929190611458565b61022461021f3660046112a1565b6107a8565b6040516101b496959493929190611584565b610177610244366004611221565b610836565b61017761025736600461117d565b61091b565b61017761026a36600461117d565b610969565b61028261027d36600461117d565b6109bd565b6040516101b496959493929190611397565b6101776102a2366004611221565b610ad3565b6101776102b53660046111c4565b610cdc565b6101776102c8366004611199565b610d98565b6101a76102db3660046112b9565b610e29565b6101a76102ee36600461117d565b610e54565b6102826103013660046112a1565b610e6f565b6101a761031436600461117d565b610f1b565b61017761032736600461117d565b610f8a565b6101a7610ff2565b61033c610ff8565b6040516101b491906113ca565b3360009081526001602052604090205460ff16806103855760405160e560020a62461bcd02815260040161037c90611468565b60405180910390fd5b50336000908152600160208190526040808320805460ff19908116909155600160a060020a039490941683529091208054909216179055565b600054600160a060020a031633146103eb5760405160e560020a62461bcd02815260040161037c90611468565b600160a060020a03919091166000908152600160205260409020805460ff1916911515919091179055565b3360009081526001602052604090205460ff16806104495760405160e560020a62461bcd02815260040161037c90611468565b5060008681526004602081905260408220978855600288019687558701948555600380880194855560018089018054600160a060020a0396871673ffffffffffffffffffffffffffffffffffffffff1996151560a060020a90810274ff0000000000000000000000000000000000000000199384161788169190911783558454938401855593909452985460059091027fc2575a0e9e593c00f959f8c92f12db2869c3395a3b0502d05e2516446f71f85b81019190915588547fc2575a0e9e593c00f959f8c92f12db2869c3395a3b0502d05e2516446f71f85c82018054909516951694909417808455975481900460ff1615150296169590951790945591547fc2575a0e9e593c00f959f8c92f12db2869c3395a3b0502d05e2516446f71f85d84015590547fc2575a0e9e593c00f959f8c92f12db2869c3395a3b0502d05e2516446f71f85e830155547fc2575a0e9e593c00f959f8c92f12db2869c3395a3b0502d05e2516446f71f85f90910155565b60085490565b600160a060020a031660009081526009602052604090205460ff1690565b3360009081526001602052604090205460ff16806106125760405160e560020a62461bcd02815260040161037c90611468565b50600280546001908101808355600081815260046020819052604082209283559382019889559281019687556003808201968755818301805474ff00000000000000000000000000000000000000001990811660a060020a97151588021773ffffffffffffffffffffffffffffffffffffffff19908116600160a060020a03998a16178355835495860184559290955291547fc2575a0e9e593c00f959f8c92f12db2869c3395a3b0502d05e2516446f71f85b60059094029384015581547fc2575a0e9e593c00f959f8c92f12db2869c3395a3b0502d05e2516446f71f85c84018054919097169116178086559054921660ff928490049290921615159092021790915592547fc2575a0e9e593c00f959f8c92f12db2869c3395a3b0502d05e2516446f71f85d840155547fc2575a0e9e593c00f959f8c92f12db2869c3395a3b0502d05e2516446f71f85e830155547fc2575a0e9e593c00f959f8c92f12db2869c3395a3b0502d05e2516446f71f85f90910155565b6009602052600090815260409020805460019091015460ff9091169082565b6000806000806000806107b96110cd565b5050506000948552505060046020818152604094859020855160c08101875281548082526001830154600160a060020a03811694830185905260a060020a900460ff161515978201889052600283015460608301819052600384015460808401819052939095015460a09092018290529792969395509093509190565b3360009081526001602052604090205460ff16806108695760405160e560020a62461bcd02815260040161037c90611468565b61087161110e565b50600160a060020a0387166000908152600960209081526040918290208251808401909352805460ff161515808452600190910154918301919091526108cc5760405160e560020a62461bcd02815260040161037c906114d6565b6108d4611125565b50506040805160e08101825260018152600160a060020a0390981660208901528701959095526060860193909352608085019190915260a084015260c09092019190915250565b600054600160a060020a031633146109485760405160e560020a62461bcd02815260040161037c90611468565b600160a060020a03166000908152600160205260409020805460ff19169055565b600054600160a060020a031633146109965760405160e560020a62461bcd02815260040161037c90611468565b600160a060020a03166000908152600160208190526040909120805460ff19169091179055565b6000806000806000806109ce61110e565b50600160a060020a0387166000908152600960209081526040918290208251808401909352805460ff16151580845260019091015491830191909152610a295760405160e560020a62461bcd02815260040161037c906114d6565b6020810151610a36611125565b60088281548110610a4357fe5b60009182526020918290206040805160e081018252600693909302909101805460ff8116151584526101009004600160a060020a03169383018490526001810154918301829052600281015460608401819052600382015460808501819052600483015460a0860181905260059093015460c0909501859052949f929e509c50929a509198509650945050505050565b3360009081526001602052604090205460ff1680610b065760405160e560020a62461bcd02815260040161037c90611468565b610b0e61110e565b50600160a060020a0387166000908152600960209081526040918290208251808401909352805460ff16158015845260019091015491830191909152610b695760405160e560020a62461bcd02815260040161037c90611544565b610b71611125565b6040518060e001604052806001151581526020018a600160a060020a0316815260200189815260200188815260200187815260200186815260200185815250905060405180604001604052806001151581526020016008805490508152509150600881908060018154018082558091505060019003906000526020600020906006020160009091909190915060008201518160000160006101000a81548160ff02191690831515021790555060208201518160000160016101000a815481600160a060020a030219169083600160a060020a0316021790555060408201518160010155606082015181600201556080820151816003015560a0820151816004015560c08201518160050155505081600960008b600160a060020a0316600160a060020a0316815260200190815260200160002060008201518160000160006101000a81548160ff02191690831515021790555060208201518160010155905050505050505050505050565b3360009081526001602052604090205460ff1680610d0f5760405160e560020a62461bcd02815260040161037c90611468565b50600160a060020a03909516600081815260056020908152604080832088845290915290209485556001850180546002870195909555600386019290925560049094019190915592151560a060020a0274ff00000000000000000000000000000000000000001973ffffffffffffffffffffffffffffffffffffffff1990921690921716179055565b3360009081526001602052604090205460ff1680610dcb5760405160e560020a62461bcd02815260040161037c90611468565b600160a060020a038316600090815260066020526040902054610df590600163ffffffff61109e16565b600160a060020a03909316600090815260066020908152604080832086905560078252808320958352949052929092205550565b600160a060020a03811660009081526007602090815260408083208584529091529020545b92915050565b600160a060020a031660009081526006602052604090205490565b600080600080600080610e80611125565b60088881548110610e8d57fe5b60009182526020918290206040805160e081018252600693909302909101805460ff8116151584526101009004600160a060020a03169383018490526001810154918301829052600281015460608401819052600382015460808501819052600483015460a0860181905260059093015460c0909501859052949d929c509a50929850919650945092505050565b6000610f2561110e565b50600160a060020a0382166000908152600960209081526040918290208251808401909352805460ff16151580845260019091015491830191909152610f805760405160e560020a62461bcd02815260040161037c9061150d565b6020015192915050565b600054600160a060020a03163314610fb75760405160e560020a62461bcd02815260040161037c90611468565b600160a060020a03811615610fef576000805473ffffffffffffffffffffffffffffffffffffffff1916600160a060020a0383161790555b50565b60025490565b60606003805480602002602001604051908101604052809291908181526020016000905b828210156110955760008481526020908190206040805160c0810182526005860290920180548352600180820154600160a060020a0381168587015260a060020a900460ff1615159284019290925260028101546060840152600381015460808401526004015460a0830152908352909201910161101c565b50505050905090565b6000828201838110156110c65760405160e560020a62461bcd02815260040161037c9061149f565b9392505050565b6040518060c00160405280600081526020016000600160a060020a031681526020016000151581526020016000815260200160008152602001600081525090565b604080518082019091526000808252602082015290565b6040518060e001604052806000151581526020016000600160a060020a0316815260200160008152602001600081526020016000815260200160008152602001600081525090565b80358015158114610e4e57600080fd5b60006020828403121561118e578081fd5b81356110c6816115b7565b600080604083850312156111ab578081fd5b82356111b6816115b7565b946020939093013593505050565b60008060008060008060c087890312156111dc578182fd5b86356111e7816115b7565b95506020870135945060408701359350606087013592506080870135915060a0870135611213816115cc565b809150509295509295509295565b60008060008060008060c08789031215611239578182fd5b8635611244816115b7565b9860208801359850604088013597606081013597506080810135965060a00135945092505050565b6000806040838503121561127e578182fd5b8235611289816115b7565b9150611298846020850161116d565b90509250929050565b6000602082840312156112b2578081fd5b5035919050565b600080604083850312156112cb578182fd5b8235915060208301356112dd816115b7565b809150509250929050565b600080600080600060a086880312156112ff578081fd5b853594506020860135935060408601359250606086013561131f816115b7565b9150608086013561132f816115cc565b809150509295509295909350565b60008060008060008060c08789031215611355578182fd5b86359550602087013594506040870135935060608701359250608087013561137c816115b7565b915061138b8860a0890161116d565b90509295509295509295565b600160a060020a03969096168652602086019490945260408501929092526060840152608083015260a082015260c00190565b602080825282518282018190526000919060409081850190868401855b828110156114405781518051855286810151600160a060020a03168786015285810151151586860152606080820151908601526080808201519086015260a0908101519085015260c090930192908501906001016113e7565b5091979650505050505050565b901515815260200190565b9115158252602082015260400190565b6020808252601f908201527f756e617574686f72697a65642061636365737320746f20636f6e747261637400604082015260600190565b6020808252601b908201527f536166654d6174683a206164646974696f6e206f766572666c6f770000000000604082015260600190565b6020808252601a908201527f6465706f7369746f72207265636f7264206e6f7420666f756e64000000000000604082015260600190565b60208082526017908201527f6d656d626572207265636f7264206e6f7420666f756e64000000000000000000604082015260600190565b6020808252601f908201527f6465706f7369746f72207265636f726420616c72656164792065786973747300604082015260600190565b90815260200190565b958652600160a060020a03949094166020860152604085019290925260608401526080830152151560a082015260c00190565b600160a060020a0381168114610fef57600080fd5b8015158114610fef57600080fdfea26469706673582212202b669add0bda3c69addae8d8faf96fe2cb142b247c1644cd81d0d49aba07c63664736f6c63430006060033",
  "immutableReferences": {},
  "source": "pragma solidity 0.6.6;\nimport \"./SafeMath.sol\";\nimport \"./IClientRecordShema.sol\";\nimport \"./StorageOwners.sol\";\npragma experimental ABIEncoderV2;\n\ncontract ClientRecord is IClientRecordSchema, StorageOwners {\n\n    uint256 DepositRecordId;\n\n    using SafeMath for uint256;\n    \n    FixedDepositRecord[] fixedDepositRecords;\n    \n    mapping(uint => FixedDepositRecord) DepositRecordMapping;\n    \n    \n    mapping (address => mapping(uint => FixedDepositRecord)) DepositRecordToDepositorMapping; //depositor address to depositor cycle mapping\n    \n     mapping(address=>uint) DepositorToDepositorRecordIndexMapping; //  This tracks the number of records by index created by a depositor\n\n    mapping(address=>mapping(uint=>uint)) DepositorToRecordIndexToRecordIDMapping; //  This maps the depositor to the record index and then to the record ID\n\n    // list of CLient Records\n    ClientRecord[] ClientRecords;\n    //Mapping that enables ease of traversal of the Client Records\n    mapping(address => RecordIndex) public ClientRecordIndexer;\n\n    function doesClientRecordExist(address depositor)\n        external\n        view\n        returns (bool)\n    {\n       return ClientRecordIndexer[depositor].exists;\n        \n    }\n\n    function getRecordIndex(address depositor) external view returns (uint256) {\n        RecordIndex memory recordIndex = ClientRecordIndexer[depositor];\n        require(recordIndex.exists, \"member record not found\");\n        return recordIndex.index;\n    }\n\n    function createClientRecord(\n        address payable _address,\n        uint256 underlyingTotalDeposits,\n        uint256 underlyingTotalWithdrawn,\n        uint256 derivativeBalance,\n        uint256 derivativeTotalDeposits,\n        uint256 derivativeTotalWithdrawn\n    ) external onlyStorageOracle {\n        RecordIndex memory recordIndex = ClientRecordIndexer[_address];\n        require(\n            !recordIndex.exists,\n            \"depositor record already exists\"\n        );\n        ClientRecord memory clientRecord = ClientRecord(\n            true,\n            _address,\n            underlyingTotalDeposits,\n            underlyingTotalWithdrawn,\n            derivativeBalance,\n            derivativeTotalDeposits,\n            derivativeTotalWithdrawn\n        );\n\n        recordIndex = RecordIndex(true, ClientRecords.length);\n        ClientRecords.push(clientRecord);\n        ClientRecordIndexer[_address] = recordIndex;\n    }\n\n    function updateClientRecord(\n        address payable _address,\n        uint256 underlyingTotalDeposits,\n        uint256 underlyingTotalWithdrawn,\n        uint256 derivativeBalance,\n        uint256 derivativeTotalDeposits,\n        uint256 derivativeTotalWithdrawn\n    ) external onlyStorageOracle {\n        RecordIndex memory recordIndex = ClientRecordIndexer[_address];\n        require(recordIndex.exists, \"depositor record not found\");\n        ClientRecord memory clientRecord = ClientRecord(\n            true,\n            _address,\n            underlyingTotalDeposits,\n            underlyingTotalWithdrawn,\n            derivativeBalance,\n            derivativeTotalDeposits,\n            derivativeTotalWithdrawn\n        );\nclientRecord.underlyingTotalDeposits = underlyingTotalDeposits;\nclientRecord.underlyingTotalWithdrawn = underlyingTotalWithdrawn;\nclientRecord.derivativeBalance = derivativeBalance;\nclientRecord.derivativeTotalDeposits = derivativeTotalDeposits;\nclientRecord.derivativeTotalWithdrawn = derivativeTotalWithdrawn;\n    }\n\n    function getLengthOfClientRecords() external returns (uint256) {\n        return ClientRecords.length;\n    }\n\n    function getClientRecordByIndex(uint256 index)\n        external\n        view\n        returns (\n            address payable _address,\n            uint256 underlyingTotalDeposits,\n            uint256 underlyingTotalWithdrawn,\n            uint256 derivativeBalance,\n            uint256 derivativeTotalDeposits,\n            uint256 derivativeTotalWithdrawn\n        )\n    {\n        ClientRecord memory clientRecord = ClientRecords[index];\n        return (\n            clientRecord._address,\n            clientRecord.underlyingTotalDeposits,\n            clientRecord.underlyingTotalWithdrawn,\n            clientRecord.derivativeBalance,\n            clientRecord.derivativeTotalDeposits,\n            clientRecord.derivativeTotalWithdrawn\n        );\n    }\n\n    function getClientRecordByAddress(address depositor)\n        external\n        view\n        returns (\n            address payable _address,\n            uint256 underlyingTotalDeposits,\n            uint256 underlyingTotalWithdrawn,\n            uint256 derivativeBalance,\n            uint256 derivativeTotalDeposits,\n            uint256 derivativeTotalWithdrawn\n        )\n    {\n        RecordIndex memory recordIndex = ClientRecordIndexer[depositor];\n        require(recordIndex.exists, \"depositor record not found\");\n        uint256 index = recordIndex.index;\n\n        ClientRecord memory clientRecord = ClientRecords[index];\n        return (\n            clientRecord._address,\n            clientRecord.underlyingTotalDeposits,\n            clientRecord.underlyingTotalWithdrawn,\n            clientRecord.derivativeBalance,\n            clientRecord.derivativeTotalDeposits,\n            clientRecord.derivativeTotalWithdrawn\n        );\n    }\n\n      function GetRecordIndexFromDepositor(address member) external view returns(uint){\n\n        return DepositorToDepositorRecordIndexMapping[member];\n    }\n    \n     function GetRecordIdFromRecordIndexAndDepositorRecord(uint256 recordIndex, address depositor) external view returns(uint){\n\n      mapping(uint=>uint) storage depositorCreatedRecordIndexToRecordId = DepositorToRecordIndexToRecordIDMapping[depositor];\n\n      return depositorCreatedRecordIndexToRecordId[recordIndex];\n    }\n    \n     function CreateDepositRecordMapping(uint256 amount, uint256 lockPeriodInSeconds,uint256 depositDateInSeconds, address payable depositor, bool hasWithdrawn) external onlyStorageOracle  {\n          \n          DepositRecordId += 1;\n\n         FixedDepositRecord storage _fixedDeposit = DepositRecordMapping[DepositRecordId];\n\n        _fixedDeposit.recordId = DepositRecordId;\n        _fixedDeposit.amount = amount;\n        _fixedDeposit.lockPeriodInSeconds = lockPeriodInSeconds;\n        _fixedDeposit.depositDateInSeconds = depositDateInSeconds;\n        _fixedDeposit.hasWithdrawn = hasWithdrawn;\n        _fixedDeposit.depositorId = depositor;\n        \n        fixedDepositRecords.push(_fixedDeposit);\n\n\n    }\n\n     function UpdateDepositRecordMapping(uint256 depositRecordId, uint256 amount, uint256 lockPeriodInSeconds,uint256 depositDateInSeconds, address payable depositor, bool hasWithdrawn) external onlyStorageOracle  {\n         \n         \n         FixedDepositRecord storage _fixedDeposit = DepositRecordMapping[depositRecordId];\n\n        _fixedDeposit.recordId = depositRecordId;\n        _fixedDeposit.amount = amount;\n        _fixedDeposit.lockPeriodInSeconds = lockPeriodInSeconds;\n        _fixedDeposit.depositDateInSeconds = depositDateInSeconds;\n        _fixedDeposit.hasWithdrawn = hasWithdrawn;\n        _fixedDeposit.depositorId = depositor;\n        \n        fixedDepositRecords.push(_fixedDeposit);\n\n\n    }\n    \n   function GetRecordId() external view returns (uint){\n        return DepositRecordId;\n    }\n    \n    function GetRecordById(uint depositRecordId) external view returns(uint recordId, address payable depositorId, uint amount, uint depositDateInSeconds, uint lockPeriodInSeconds, bool hasWithdrawn) {\n        \n        FixedDepositRecord memory records = DepositRecordMapping[depositRecordId];\n        \n        return(records.recordId, records.depositorId, records.amount, records.depositDateInSeconds, records.lockPeriodInSeconds, records.hasWithdrawn);\n    }\n    \n    function GetRecords() external view returns (FixedDepositRecord [] memory) {\n        return fixedDepositRecords;\n    }\n    \n     function CreateDepositorToDepositRecordIndexToRecordIDMapping(address payable depositor, uint recordId) external onlyStorageOracle {\n      \n      DepositorToDepositorRecordIndexMapping[depositor] = DepositorToDepositorRecordIndexMapping[depositor].add(1);\n\n      uint DepositorCreatedRecordIndex = DepositorToDepositorRecordIndexMapping[depositor];\n      mapping(uint=>uint) storage depositorCreatedRecordIndexToRecordId = DepositorToRecordIndexToRecordIDMapping[depositor];\n      depositorCreatedRecordIndexToRecordId[DepositorCreatedRecordIndex] = recordId;\n    }\n    \n    function CreateDepositorAddressToDepositRecordMapping (address payable depositor, uint recordId, uint amountDeposited, uint lockPeriodInSeconds, uint depositDateInSeconds, bool hasWithdrawn) external onlyStorageOracle {\n        mapping(uint => FixedDepositRecord) storage depositorAddressMapping = DepositRecordToDepositorMapping[depositor];\n        \n        depositorAddressMapping[recordId].recordId = recordId;\n        depositorAddressMapping[recordId].depositorId = depositor;\n        depositorAddressMapping[recordId].amount = amountDeposited;\n        depositorAddressMapping[recordId].depositDateInSeconds = depositDateInSeconds;\n        depositorAddressMapping[recordId].lockPeriodInSeconds = lockPeriodInSeconds;\n        depositorAddressMapping[recordId].hasWithdrawn = hasWithdrawn;\n        \n    }\n}\n",
  "sourcePath": "/Users/mac/Desktop/BinaryHiils/yearn-savings/Tests/contracts/ClientRecord.sol",
  "compiler": {
    "name": "solc",
    "version": "0.6.6+commit.6c089d02.Emscripten.clang"
  },
  "schemaVersion": "3.3.2",
  "updatedAt": "2021-02-11T07:23:30.089Z",
  "devdoc": {
    "methods": {}
  },
  "userdoc": {
    "methods": {}
  }
}