{
  "contractName": "DaiLendingService",
  "abi": [
    {
      "inputs": [
        {
          "internalType": "address",
          "name": "ydaiTokenAddress",
          "type": "address"
        },
        {
          "internalType": "address",
          "name": "daiTokenAddress",
          "type": "address"
        }
      ],
      "stateMutability": "nonpayable",
      "type": "constructor"
    },
    {
      "inputs": [],
      "name": "getPricePerFullShare",
      "outputs": [
        {
          "internalType": "uint256",
          "name": "",
          "type": "uint256"
        }
      ],
      "stateMutability": "pure",
      "type": "function"
    },
    {
      "inputs": [
        {
          "internalType": "uint256",
          "name": "amount",
          "type": "uint256"
        }
      ],
      "name": "save",
      "outputs": [],
      "stateMutability": "nonpayable",
      "type": "function"
    },
    {
      "inputs": [],
      "name": "userShares",
      "outputs": [
        {
          "internalType": "uint256",
          "name": "",
          "type": "uint256"
        }
      ],
      "stateMutability": "view",
      "type": "function"
    },
    {
      "inputs": [
        {
          "internalType": "address",
          "name": "account",
          "type": "address"
        }
      ],
      "name": "getUserShares",
      "outputs": [
        {
          "internalType": "uint256",
          "name": "",
          "type": "uint256"
        }
      ],
      "stateMutability": "view",
      "type": "function"
    },
    {
      "inputs": [],
      "name": "userDaiBalance",
      "outputs": [
        {
          "internalType": "uint256",
          "name": "",
          "type": "uint256"
        }
      ],
      "stateMutability": "view",
      "type": "function"
    },
    {
      "inputs": [],
      "name": "GetUserGrossRevenue",
      "outputs": [
        {
          "internalType": "uint256",
          "name": "",
          "type": "uint256"
        }
      ],
      "stateMutability": "pure",
      "type": "function"
    },
    {
      "inputs": [],
      "name": "GetNetRevenue",
      "outputs": [
        {
          "internalType": "uint256",
          "name": "",
          "type": "uint256"
        }
      ],
      "stateMutability": "pure",
      "type": "function"
    },
    {
      "inputs": [],
      "name": "GetUserDepositedDaiBalance",
      "outputs": [
        {
          "internalType": "uint256",
          "name": "",
          "type": "uint256"
        }
      ],
      "stateMutability": "pure",
      "type": "function"
    },
    {
      "inputs": [
        {
          "internalType": "uint256",
          "name": "amount",
          "type": "uint256"
        }
      ],
      "name": "Withdraw",
      "outputs": [],
      "stateMutability": "nonpayable",
      "type": "function"
    },
    {
      "inputs": [
        {
          "internalType": "uint256",
          "name": "sharesAmount",
          "type": "uint256"
        }
      ],
      "name": "WithdrawBySharesOnly",
      "outputs": [],
      "stateMutability": "nonpayable",
      "type": "function"
    }
  ],
  "bytecode": "0x608060405234801561001057600080fd5b50604051610a37380380610a378339818101604052604081101561003357600080fd5b50805160209091015160008054600160a060020a03938416600160a060020a031991821617909155600180549390921692169190911790556109bd8061007a6000396000f3fe608060405234801561001057600080fd5b50600436106100bb576000357c0100000000000000000000000000000000000000000000000000000000900480636e0d5ff1116100835780636e0d5ff1146100c057806377c7b8fc1461013b57806377f1a4af14610143578063ba0cb22b1461014b578063d1e3de76146100c0576100bb565b80630bbea0d9146100c05780630db8d01e146100da5780631b862027146100e25780635b6b431d146101015780636583d12a1461011e575b600080fd5b6100c8610171565b60408051918252519081900360200190f35b6100c8610176565b6100ff600480360360208110156100f857600080fd5b503561020c565b005b6100ff6004803603602081101561011757600080fd5b50356104f0565b6100ff6004803603602081101561013457600080fd5b50356104f3565b6100c86107d3565b6100c86107e2565b6100c86004803603602081101561016157600080fd5b5035600160a060020a0316610846565b600090565b60008054604080517f70a082310000000000000000000000000000000000000000000000000000000081523360048201529051600160a060020a03909216916370a0823191602480820192602092909190829003018186803b1580156101db57600080fd5b505afa1580156101ef573d6000803e3d6000fd5b505050506040513d602081101561020557600080fd5b5051905090565b600154604080517fdd62ed3e0000000000000000000000000000000000000000000000000000000081523360048201523060248201529051600092600160a060020a03169163dd62ed3e916044808301926020929190829003018186803b15801561027657600080fd5b505afa15801561028a573d6000803e3d6000fd5b505050506040513d60208110156102a057600080fd5b505190508181146102fb576040805160e560020a62461bcd02815260206004820152600f60248201527f616d6f756e74206d69736d617463680000000000000000000000000000000000604482015290519081900360640190fd5b600154604080517f23b872dd000000000000000000000000000000000000000000000000000000008152336004820152306024820152604481018590529051600092600160a060020a0316916323b872dd91606480830192602092919082900301818787803b15801561036d57600080fd5b505af1158015610381573d6000803e3d6000fd5b505050506040513d602081101561039757600080fd5b505190506001811515146103f5576040805160e560020a62461bcd02815260206004820152601960248201527f64616920746f6b656e207472616e73666572206661696c656400000000000000604482015290519081900360640190fd5b60008054604080517fa9059cbb000000000000000000000000000000000000000000000000000000008152336004820152602481018790529051600160a060020a039092169263a9059cbb926044808401936020939083900390910190829087803b15801561046357600080fd5b505af1158015610477573d6000803e3d6000fd5b505050506040513d602081101561048d57600080fd5b505190506001811515146104eb576040805160e560020a62461bcd02815260206004820152601a60248201527f7964616920746f6b656e207472616e73666572206661696c6564000000000000604482015290519081900360640190fd5b505050565b50565b60008054604080517fdd62ed3e0000000000000000000000000000000000000000000000000000000081523360048201523060248201529051600160a060020a039092169163dd62ed3e91604480820192602092909190829003018186803b15801561055e57600080fd5b505afa158015610572573d6000803e3d6000fd5b505050506040513d602081101561058857600080fd5b505190508181146105e3576040805160e560020a62461bcd02815260206004820152600f60248201527f616d6f756e74206d69736d617463680000000000000000000000000000000000604482015290519081900360640190fd5b60008054604080517f23b872dd000000000000000000000000000000000000000000000000000000008152336004820152306024820152604481018590529051600160a060020a03909216916323b872dd9160648082019260209290919082900301818787803b15801561065657600080fd5b505af115801561066a573d6000803e3d6000fd5b505050506040513d602081101561068057600080fd5b505190506001811515146106de576040805160e560020a62461bcd02815260206004820152601a60248201527f7964616920746f6b656e207472616e73666572206661696c6564000000000000604482015290519081900360640190fd5b600154604080517fa9059cbb000000000000000000000000000000000000000000000000000000008152336004820152602481018690529051600160a060020a039092169163a9059cbb916044808201926020929091908290030181600087803b15801561074b57600080fd5b505af115801561075f573d6000803e3d6000fd5b505050506040513d602081101561077557600080fd5b505190506001811515146104eb576040805160e560020a62461bcd02815260206004820152601960248201527f64616920746f6b656e207472616e73666572206661696c656400000000000000604482015290519081900360640190fd5b60006107dd6108df565b905090565b600154604080517f70a082310000000000000000000000000000000000000000000000000000000081523360048201529051600092600160a060020a0316916370a08231916024808301926020929190829003018186803b1580156101db57600080fd5b60008054604080517f70a08231000000000000000000000000000000000000000000000000000000008152600160a060020a038581166004830152915191909216916370a08231916024808301926020929190829003018186803b1580156108ad57600080fd5b505afa1580156108c1573d6000803e3d6000fd5b505050506040513d60208110156108d757600080fd5b505192915050565b600060016108fb81670de0b6b3a764000063ffffffff61090116565b91505090565b60008261091057506000610960565b8282028284828161091d57fe5b041461095d5760405160e560020a62461bcd0281526004018080602001828103825260218152602001806109676021913960400191505060405180910390fd5b90505b9291505056fe536166654d6174683a206d756c7469706c69636174696f6e206f766572666c6f77a264697066735822122009266d1efe3298c1fde2446fb9cfdbf62ede61b65e6d2596106f0aa4b014de9d64736f6c63430006060033",
  "immutableReferences": {},
  "source": "pragma solidity ^0.6.6;\r\nimport \"../../../SafeMath.sol\";\r\nimport \"../XendToken/IERC20.sol\";\r\n\r\ncontract DaiLendingService {\r\n    IERC20 ydaiToken;\r\n    IERC20 daiToken;\r\n\r\n    using SafeMath for uint256;\r\n\r\n    constructor(address ydaiTokenAddress, address daiTokenAddress) public {\r\n        ydaiToken = IERC20(ydaiTokenAddress);\r\n        daiToken = IERC20(daiTokenAddress);\r\n    }\r\n\r\n    function getPricePerFullShare() external pure returns (uint256) {\r\n        return _getPricePerFullShare();\r\n    }\r\n\r\n    function _getPricePerFullShare() internal pure returns (uint256) {\r\n        uint256 base = 1;\r\n        return base.mul(10**uint256(18));\r\n    }\r\n\r\n    function save(uint256 amount) external {\r\n        uint256 allowance = daiToken.allowance(msg.sender, address(this));\r\n        require(amount == allowance, \"amount mismatch\");\r\n\r\n        bool isSuccessful = daiToken.transferFrom(\r\n            msg.sender,\r\n            address(this),\r\n            amount\r\n        );\r\n        require(isSuccessful == true, \"dai token transfer failed\");\r\n        isSuccessful = ydaiToken.transfer(msg.sender, amount);\r\n        require(isSuccessful == true, \"ydai token transfer failed\");\r\n    }\r\n\r\n    function userShares() external view returns (uint256) {\r\n        return ydaiToken.balanceOf(msg.sender);\r\n    }\r\n\r\n    function getUserShares(address account) external view returns (uint256) {\r\n        return ydaiToken.balanceOf(account);\r\n    }\r\n\r\n    function userDaiBalance() external view returns (uint256) {\r\n        return daiToken.balanceOf(msg.sender);\r\n    }\r\n\r\n    function GetUserGrossRevenue() external pure returns (uint256) {\r\n        return 0;\r\n    }\r\n\r\n    function GetNetRevenue() external pure returns (uint256) {\r\n        return 0;\r\n    }\r\n\r\n    function GetUserDepositedDaiBalance() external pure returns (uint256) {\r\n        return 0;\r\n    }\r\n\r\n    function Withdraw(uint256 amount) external {}\r\n\r\n    function WithdrawBySharesOnly(uint256 sharesAmount) external {\r\n        uint256 allowance = ydaiToken.allowance(msg.sender, address(this));\r\n\r\n        require(sharesAmount == allowance, \"amount mismatch\");\r\n\r\n        bool isSuccessful = ydaiToken.transferFrom(\r\n            msg.sender,\r\n            address(this),\r\n            allowance\r\n        );\r\n        require(isSuccessful == true, \"ydai token transfer failed\");\r\n        isSuccessful = daiToken.transfer(msg.sender, sharesAmount);\r\n        require(isSuccessful == true, \"dai token transfer failed\");\r\n    }\r\n}\r\n",
  "sourcePath": "D:/Nweke/WORK/WORK/XendFinance/tests/contracts/MockImplementations/DaiLendingService.sol",
  "compiler": {
    "name": "solc",
    "version": "0.6.6+commit.6c089d02.Emscripten.clang"
  },
  "schemaVersion": "3.3.2",
  "updatedAt": "2020-11-09T11:04:31.338Z",
  "devdoc": {
    "methods": {}
  },
  "userdoc": {
    "methods": {}
  }
}