{
  "contractName": "EsusuService",
  "abi": [
    {
      "inputs": [],
      "stateMutability": "nonpayable",
      "type": "constructor"
    },
    {
      "inputs": [
        {
          "internalType": "address",
          "name": "account",
          "type": "address"
        }
      ],
      "name": "TransferOwnership",
      "outputs": [],
      "stateMutability": "nonpayable",
      "type": "function"
    },
    {
      "inputs": [
        {
          "internalType": "address",
          "name": "adapterAddress",
          "type": "address"
        }
      ],
      "name": "UpdateAdapter",
      "outputs": [],
      "stateMutability": "nonpayable",
      "type": "function"
    },
    {
      "inputs": [
        {
          "internalType": "string",
          "name": "name",
          "type": "string"
        }
      ],
      "name": "GetGroupInformationByName",
      "outputs": [
        {
          "internalType": "uint256",
          "name": "groupId",
          "type": "uint256"
        },
        {
          "internalType": "string",
          "name": "groupName",
          "type": "string"
        },
        {
          "internalType": "string",
          "name": "groupSymbol",
          "type": "string"
        },
        {
          "internalType": "address",
          "name": "groupCreatorAddress",
          "type": "address"
        }
      ],
      "stateMutability": "view",
      "type": "function"
    },
    {
      "inputs": [],
      "name": "GetEsusuAdapterAddress",
      "outputs": [
        {
          "internalType": "address",
          "name": "",
          "type": "address"
        }
      ],
      "stateMutability": "view",
      "type": "function"
    },
    {
      "inputs": [
        {
          "internalType": "string",
          "name": "name",
          "type": "string"
        },
        {
          "internalType": "string",
          "name": "symbol",
          "type": "string"
        }
      ],
      "name": "CreateGroup",
      "outputs": [],
      "stateMutability": "nonpayable",
      "type": "function"
    },
    {
      "inputs": [
        {
          "internalType": "uint256",
          "name": "groupId",
          "type": "uint256"
        },
        {
          "internalType": "uint256",
          "name": "depositAmount",
          "type": "uint256"
        },
        {
          "internalType": "uint256",
          "name": "payoutIntervalSeconds",
          "type": "uint256"
        },
        {
          "internalType": "uint256",
          "name": "startTimeInSeconds",
          "type": "uint256"
        },
        {
          "internalType": "uint256",
          "name": "maxMembers",
          "type": "uint256"
        }
      ],
      "name": "CreateEsusu",
      "outputs": [],
      "stateMutability": "nonpayable",
      "type": "function"
    },
    {
      "inputs": [
        {
          "internalType": "uint256",
          "name": "esusuCycleId",
          "type": "uint256"
        },
        {
          "internalType": "address",
          "name": "member",
          "type": "address"
        }
      ],
      "name": "JoinEsusu",
      "outputs": [],
      "stateMutability": "nonpayable",
      "type": "function"
    },
    {
      "inputs": [
        {
          "internalType": "address",
          "name": "memberAddress",
          "type": "address"
        },
        {
          "internalType": "uint256",
          "name": "esusuCycleId",
          "type": "uint256"
        }
      ],
      "name": "GetMemberCycleInfo",
      "outputs": [
        {
          "internalType": "uint256",
          "name": "CycleId",
          "type": "uint256"
        },
        {
          "internalType": "address",
          "name": "MemberId",
          "type": "address"
        },
        {
          "internalType": "uint256",
          "name": "TotalAmountDepositedInCycle",
          "type": "uint256"
        },
        {
          "internalType": "uint256",
          "name": "TotalPayoutReceivedInCycle",
          "type": "uint256"
        },
        {
          "internalType": "uint256",
          "name": "memberPosition",
          "type": "uint256"
        }
      ],
      "stateMutability": "view",
      "type": "function"
    },
    {
      "inputs": [
        {
          "internalType": "uint256",
          "name": "esusuCycleId",
          "type": "uint256"
        }
      ],
      "name": "GetEsusuCycle",
      "outputs": [
        {
          "internalType": "uint256",
          "name": "CycleId",
          "type": "uint256"
        },
        {
          "internalType": "uint256",
          "name": "DepositAmount",
          "type": "uint256"
        },
        {
          "internalType": "uint256",
          "name": "PayoutIntervalSeconds",
          "type": "uint256"
        },
        {
          "internalType": "uint256",
          "name": "CycleState",
          "type": "uint256"
        },
        {
          "internalType": "uint256",
          "name": "TotalMembers",
          "type": "uint256"
        },
        {
          "internalType": "uint256",
          "name": "TotalAmountDeposited",
          "type": "uint256"
        },
        {
          "internalType": "uint256",
          "name": "TotalShares",
          "type": "uint256"
        },
        {
          "internalType": "uint256",
          "name": "TotalCycleDurationInSeconds",
          "type": "uint256"
        },
        {
          "internalType": "uint256",
          "name": "TotalCapitalWithdrawn",
          "type": "uint256"
        },
        {
          "internalType": "uint256",
          "name": "CycleStartTimeInSeconds",
          "type": "uint256"
        },
        {
          "internalType": "uint256",
          "name": "TotalBeneficiaries",
          "type": "uint256"
        },
        {
          "internalType": "uint256",
          "name": "MaxMembers",
          "type": "uint256"
        }
      ],
      "stateMutability": "view",
      "type": "function"
    },
    {
      "inputs": [
        {
          "internalType": "uint256",
          "name": "esusuCycleId",
          "type": "uint256"
        }
      ],
      "name": "StartEsusuCycle",
      "outputs": [],
      "stateMutability": "nonpayable",
      "type": "function"
    },
    {
      "inputs": [
        {
          "internalType": "uint256",
          "name": "esusuCycleId",
          "type": "uint256"
        }
      ],
      "name": "WithdrawROIFromEsusuCycle",
      "outputs": [],
      "stateMutability": "nonpayable",
      "type": "function"
    },
    {
      "inputs": [
        {
          "internalType": "uint256",
          "name": "esusuCycleId",
          "type": "uint256"
        }
      ],
      "name": "WithdrawCapitalFromEsusuCycle",
      "outputs": [],
      "stateMutability": "nonpayable",
      "type": "function"
    },
    {
      "inputs": [
        {
          "internalType": "uint256",
          "name": "esusuCycleId",
          "type": "uint256"
        },
        {
          "internalType": "address",
          "name": "member",
          "type": "address"
        }
      ],
      "name": "IsMemberEligibleToWithdrawROI",
      "outputs": [
        {
          "internalType": "bool",
          "name": "",
          "type": "bool"
        }
      ],
      "stateMutability": "view",
      "type": "function"
    },
    {
      "inputs": [
        {
          "internalType": "uint256",
          "name": "esusuCycleId",
          "type": "uint256"
        },
        {
          "internalType": "address",
          "name": "member",
          "type": "address"
        }
      ],
      "name": "IsMemberEligibleToWithdrawCapital",
      "outputs": [
        {
          "internalType": "bool",
          "name": "",
          "type": "bool"
        }
      ],
      "stateMutability": "view",
      "type": "function"
    },
    {
      "inputs": [],
      "name": "GetCurrentEsusuCycleId",
      "outputs": [
        {
          "internalType": "uint256",
          "name": "",
          "type": "uint256"
        }
      ],
      "stateMutability": "view",
      "type": "function"
    },
    {
      "inputs": [],
      "name": "GetTotalDeposits",
      "outputs": [
        {
          "internalType": "uint256",
          "name": "",
          "type": "uint256"
        }
      ],
      "stateMutability": "view",
      "type": "function"
    }
  ],
  "bytecode": "0x608060405234801561001057600080fd5b5060008054600160a060020a03191633179055611160806100326000396000f3fe608060405234801561001057600080fd5b506004361061011d576000357c0100000000000000000000000000000000000000000000000000000000900480636a327586116100b4578063cfaaa26611610083578063cfaaa266146103ff578063e1c39f1514610425578063ebd9c46a1461045a578063fc323210146105c85761011d565b80636a327586146102c857806378fe7a51146102e5578063a0bbeb65146103a7578063cea07b13146103d35761011d565b806323caec69116100f057806323caec69146101bf57806324943907146101e55780634e830466146101ed57806357ac7703146102695761011d565b8063011966f9146101225780630590b905146101625780630d0353c9146101815780631f82c5de146101a5575b600080fd5b61014e6004803603604081101561013857600080fd5b5080359060200135600160a060020a03166105e5565b604080519115158252519081900360200190f35b61017f6004803603602081101561017857600080fd5b5035610689565b005b610189610710565b60408051600160a060020a039092168252519081900360200190f35b6101ad61071f565b60408051918252519081900360200190f35b61017f600480360360208110156101d557600080fd5b5035600160a060020a03166107ae565b6101ad610856565b61020a6004803603602081101561020357600080fd5b50356108b4565b604080519c8d5260208d019b909b528b8b019990995260608b019790975260808a019590955260a089019390935260c088019190915260e087015261010086015261012085015261014084015261016083015251908190036101800190f35b6102956004803603604081101561027f57600080fd5b50600160a060020a038135169060200135610a0d565b60408051958652600160a060020a0390941660208601528484019290925260608401526080830152519081900360a00190f35b61017f600480360360208110156102de57600080fd5b5035610ada565b61017f600480360360408110156102fb57600080fd5b81019060208101813564010000000081111561031657600080fd5b82018360208201111561032857600080fd5b8035906020019184600183028401116401000000008311171561034a57600080fd5b91939092909160208101903564010000000081111561036857600080fd5b82018360208201111561037a57600080fd5b8035906020019184600183028401116401000000008311171561039c57600080fd5b509092509050610b46565b61017f600480360360408110156103bd57600080fd5b5080359060200135600160a060020a0316610c2e565b61014e600480360360408110156103e957600080fd5b5080359060200135600160a060020a0316610cb8565b61017f6004803603602081101561041557600080fd5b5035600160a060020a0316610d29565b61017f600480360360a081101561043b57600080fd5b5080359060208101359060408101359060608101359060800135610dd1565b6104ca6004803603602081101561047057600080fd5b81019060208101813564010000000081111561048b57600080fd5b82018360208201111561049d57600080fd5b803590602001918460018302840111640100000000831117156104bf57600080fd5b509092509050610e78565b60405180858152602001806020018060200184600160a060020a0316600160a060020a03168152602001838103835286818151815260200191508051906020019080838360005b83811015610529578181015183820152602001610511565b50505050905090810190601f1680156105565780820380516001836020036101000a031916815260200191505b50838103825285518152855160209182019187019080838360005b83811015610589578181015183820152602001610571565b50505050905090810190601f1680156105b65780820380516001836020036101000a031916815260200191505b50965050505050505060405180910390f35b61017f600480360360208110156105de57600080fd5b50356110c4565b600154604080517f011966f900000000000000000000000000000000000000000000000000000000815260048101859052600160a060020a0384811660248301529151600093929092169163011966f991604480820192602092909190829003018186803b15801561065657600080fd5b505afa15801561066a573d6000803e3d6000fd5b505050506040513d602081101561068057600080fd5b50909392505050565b600154604080517f53a86be5000000000000000000000000000000000000000000000000000000008152600481018490523360248201529051600160a060020a03909216916353a86be59160448082019260009290919082900301818387803b1580156106f557600080fd5b505af1158015610709573d6000803e3d6000fd5b5050505050565b600154600160a060020a031690565b600154604080517f1f82c5de0000000000000000000000000000000000000000000000000000000081529051600092600160a060020a031691631f82c5de916004808301926020929190829003018186803b15801561077d57600080fd5b505afa158015610791573d6000803e3d6000fd5b505050506040513d60208110156107a757600080fd5b5051905090565b600054600160a060020a0316331461082757604080517f08c379a000000000000000000000000000000000000000000000000000000000815260206004820152601d60248201527f4f6e6c79206f776e65722063616e206d616b6520746869732063616c6c000000604482015290519081900360640190fd5b6001805473ffffffffffffffffffffffffffffffffffffffff1916600160a060020a0392909216919091179055565b600154604080517f249439070000000000000000000000000000000000000000000000000000000081529051600092600160a060020a0316916324943907916004808301926020929190829003018186803b15801561077d57600080fd5b600080600080600080600080600080600080600160009054906101000a9004600160a060020a0316600160a060020a0316634e8304668e6040518263ffffffff167c0100000000000000000000000000000000000000000000000000000000028152600401808281526020019150506101806040518083038186803b15801561093c57600080fd5b505afa158015610950573d6000803e3d6000fd5b505050506040513d61018081101561096757600080fd5b810190808051906020019092919080519060200190929190805190602001909291908051906020019092919080519060200190929190805190602001909291908051906020019092919080519060200190929190805190602001909291908051906020019092919080519060200190929190805190602001909291905050509b509b509b509b509b509b509b509b509b509b509b509b5091939597999b5091939597999b565b600154604080517f57ac7703000000000000000000000000000000000000000000000000000000008152600160a060020a038581166004830152602482018590529151600093849384938493849392909216916357ac77039160448082019260a092909190829003018186803b158015610a8657600080fd5b505afa158015610a9a573d6000803e3d6000fd5b505050506040513d60a0811015610ab057600080fd5b508051602082015160408301516060840151608090940151929b919a509850919650945092505050565b600154604080517f958efd1d000000000000000000000000000000000000000000000000000000008152600481018490523360248201529051600160a060020a039092169163958efd1d9160448082019260009290919082900301818387803b1580156106f557600080fd5b6001546040517f7b3a173f000000000000000000000000000000000000000000000000000000008152336044820181905260606004830190815260648301879052600160a060020a0390931692637b3a173f928892889288928892919081906024810190608401888880828437600083820152601f01601f191690910184810383528681526020019050868680828437600081840152601f19601f820116905080830192505050975050505050505050600060405180830381600087803b158015610c1057600080fd5b505af1158015610c24573d6000803e3d6000fd5b5050505050505050565b600154604080517fa0bbeb6500000000000000000000000000000000000000000000000000000000815260048101859052600160a060020a0384811660248301529151919092169163a0bbeb6591604480830192600092919082900301818387803b158015610c9c57600080fd5b505af1158015610cb0573d6000803e3d6000fd5b505050505050565b600154604080517fcea07b1300000000000000000000000000000000000000000000000000000000815260048101859052600160a060020a0384811660248301529151600093929092169163cea07b1391604480820192602092909190829003018186803b15801561065657600080fd5b600054600160a060020a03163314610da257604080517f08c379a000000000000000000000000000000000000000000000000000000000815260206004820152601d60248201527f4f6e6c79206f776e65722063616e206d616b6520746869732063616c6c000000604482015290519081900360640190fd5b6000805473ffffffffffffffffffffffffffffffffffffffff1916600160a060020a0392909216919091179055565b600154604080517fe11ffee50000000000000000000000000000000000000000000000000000000081526004810188905260248101879052604481018690526064810185905233608482015260a481018490529051600160a060020a039092169163e11ffee59160c48082019260009290919082900301818387803b158015610e5957600080fd5b505af1158015610e6d573d6000803e3d6000fd5b505050505050505050565b6001546040517febd9c46a0000000000000000000000000000000000000000000000000000000081526020600482019081526024820184905260009260609283928592600160a060020a03169163ebd9c46a9189918991908190604401848480828437600081840152601f19601f820116905080830192505050935050505060006040518083038186803b158015610f0f57600080fd5b505afa158015610f23573d6000803e3d6000fd5b505050506040513d6000823e601f3d908101601f191682016040526080811015610f4c57600080fd5b815160208301805160405192949293830192919084640100000000821115610f7357600080fd5b908301906020820185811115610f8857600080fd5b8251640100000000811182820188101715610fa257600080fd5b82525081516020918201929091019080838360005b83811015610fcf578181015183820152602001610fb7565b50505050905090810190601f168015610ffc5780820380516001836020036101000a031916815260200191505b506040526020018051604051939291908464010000000082111561101f57600080fd5b90830190602082018581111561103457600080fd5b825164010000000081118282018810171561104e57600080fd5b82525081516020918201929091019080838360005b8381101561107b578181015183820152602001611063565b50505050905090810190601f1680156110a85780820380516001836020036101000a031916815260200191505b5060405260200151949b939a5091985092965090945050505050565b600154604080517ffc323210000000000000000000000000000000000000000000000000000000008152600481018490529051600160a060020a039092169163fc3232109160248082019260009290919082900301818387803b1580156106f557600080fdfea2646970667358221220f55bed97bd6872127e1514f112de798e217a752d98c734a28e13214dd73085a764736f6c63430006060033",
  "immutableReferences": {},
  "source": "pragma solidity ^0.6.6;\n\nimport \"./EsusuAdapter.sol\";\n\n\n\ncontract EsusuService{\n    \n    address _owner;\n    EsusuAdapter _esusuAdapter;\n    \n    \n    mapping(address => uint) userDaiDeposits;   \n\n    constructor() public {\n        _owner = msg.sender;\n    }\n    \n    function TransferOwnership(address account) onlyOwner() external{\n        _owner = account;\n    }\n    \n    function UpdateAdapter(address adapterAddress) onlyOwner() external{\n        _esusuAdapter = EsusuAdapter(adapterAddress);   \n    }\n    \n    function GetGroupInformationByName(string calldata name) external view returns (uint groupId, string memory groupName, string memory groupSymbol, address groupCreatorAddress){\n        \n\n        return _esusuAdapter.GetGroupInformationByName(name);\n    }\n    \n    function GetEsusuAdapterAddress() external view returns (address){\n        return address(_esusuAdapter);\n    }\n    \n    \n    function CreateGroup(string calldata name, string calldata symbol) external {\n        \n           _esusuAdapter.CreateGroup(name,symbol,msg.sender);\n           \n    }\n    \n    function CreateEsusu(uint groupId, uint depositAmount, uint payoutIntervalSeconds,uint startTimeInSeconds,uint maxMembers) external {\n        \n        _esusuAdapter.CreateEsusu(groupId,depositAmount,payoutIntervalSeconds,startTimeInSeconds,msg.sender,maxMembers);\n    }\n    \n    /*\n        NOTE: member must approve _esusuAdapter to transfer deposit amount on his/her behalf\n    */\n    function JoinEsusu(uint esusuCycleId, address member) external {\n        _esusuAdapter.JoinEsusu(esusuCycleId,member);\n    }\n    \n    \n    /*\n        This function returns information about a member in an esusu Cycle \n    */\n    function GetMemberCycleInfo(address memberAddress, uint esusuCycleId) \n                                external view returns(uint CycleId, address MemberId, uint TotalAmountDepositedInCycle, \n                                uint TotalPayoutReceivedInCycle, uint memberPosition){\n        \n        return _esusuAdapter.GetMemberCycleInfo(memberAddress,esusuCycleId);\n    }\n    \n     function GetEsusuCycle(uint esusuCycleId) external view returns(uint CycleId, uint DepositAmount, \n                                                            uint PayoutIntervalSeconds, uint CycleState, \n                                                            uint TotalMembers, uint TotalAmountDeposited, uint TotalShares, \n                                                            uint TotalCycleDurationInSeconds, uint TotalCapitalWithdrawn, uint CycleStartTimeInSeconds,\n                                                            uint TotalBeneficiaries, uint MaxMembers){\n    \n        return _esusuAdapter.GetEsusuCycle(esusuCycleId);                                                        \n    }\n    \n    function StartEsusuCycle(uint esusuCycleId) external {\n        _esusuAdapter.StartEsusuCycle(esusuCycleId);\n    }\n    \n    function WithdrawROIFromEsusuCycle(uint esusuCycleId) external{\n        _esusuAdapter.WithdrawROIFromEsusuCycle(esusuCycleId,msg.sender);\n    }\n    \n    function WithdrawCapitalFromEsusuCycle(uint esusuCycleId) external{\n        _esusuAdapter.WithdrawCapitalFromEsusuCycle(esusuCycleId,msg.sender);\n    }\n    \n    function IsMemberEligibleToWithdrawROI(uint esusuCycleId, address member) external view returns(bool){\n        _esusuAdapter.IsMemberEligibleToWithdrawROI(esusuCycleId,member);\n    }\n    \n    function IsMemberEligibleToWithdrawCapital(uint esusuCycleId, address member) external view returns(bool){\n        _esusuAdapter.IsMemberEligibleToWithdrawCapital(esusuCycleId,member);\n    }\n    \n    function GetCurrentEsusuCycleId() external view returns(uint){\n        return _esusuAdapter.GetCurrentEsusuCycleId();\n    }\n    \n    function GetTotalDeposits() external view returns(uint)  {\n        return _esusuAdapter.GetTotalDeposits();\n    }\n    modifier onlyOwner(){\n        require(_owner == msg.sender, \"Only owner can make this call\");\n        _;\n    }\n    \n    \n}",
  "sourcePath": "/Users/njokuscript/Desktop/programming/yearn-savings/Tests/contracts/Esusu/EsusuService.sol",
  "compiler": {
    "name": "solc",
    "version": "0.6.6+commit.6c089d02.Emscripten.clang"
  },
  "schemaVersion": "3.2.5",
  "updatedAt": "2020-11-15T07:40:03.777Z",
  "devdoc": {
    "methods": {}
  },
  "userdoc": {
    "methods": {}
  }
}