{
  "contractName": "ForTubeBankService",
  "abi": [
    {
      "inputs": [],
      "stateMutability": "nonpayable",
      "type": "constructor"
    },
    {
      "inputs": [
        {
          "internalType": "address",
          "name": "account",
          "type": "address"
        }
      ],
      "name": "transferOwnership",
      "outputs": [],
      "stateMutability": "nonpayable",
      "type": "function"
    },
    {
      "inputs": [
        {
          "internalType": "address",
          "name": "adapterAddress",
          "type": "address"
        }
      ],
      "name": "updateAdapter",
      "outputs": [],
      "stateMutability": "nonpayable",
      "type": "function"
    },
    {
      "inputs": [
        {
          "internalType": "uint256",
          "name": "amount",
          "type": "uint256"
        }
      ],
      "name": "Save",
      "outputs": [],
      "stateMutability": "nonpayable",
      "type": "function"
    },
    {
      "inputs": [
        {
          "internalType": "uint256",
          "name": "amount",
          "type": "uint256"
        }
      ],
      "name": "Withdraw",
      "outputs": [],
      "stateMutability": "nonpayable",
      "type": "function"
    },
    {
      "inputs": [
        {
          "internalType": "uint256",
          "name": "amount",
          "type": "uint256"
        },
        {
          "internalType": "uint256",
          "name": "sharesAmount",
          "type": "uint256"
        }
      ],
      "name": "WithdrawByShares",
      "outputs": [],
      "stateMutability": "nonpayable",
      "type": "function"
    },
    {
      "inputs": [
        {
          "internalType": "uint256",
          "name": "sharesAmount",
          "type": "uint256"
        }
      ],
      "name": "WithdrawBySharesOnly",
      "outputs": [],
      "stateMutability": "nonpayable",
      "type": "function"
    },
    {
      "inputs": [],
      "name": "GetForTubeAdapterAddress",
      "outputs": [
        {
          "internalType": "address",
          "name": "",
          "type": "address"
        }
      ],
      "stateMutability": "view",
      "type": "function",
      "constant": true
    },
    {
      "inputs": [
        {
          "internalType": "address payable",
          "name": "newServiceContract",
          "type": "address"
        }
      ],
      "name": "TransferAdapterContractOwnership",
      "outputs": [],
      "stateMutability": "nonpayable",
      "type": "function"
    },
    {
      "inputs": [],
      "name": "UserBUSDBalance",
      "outputs": [
        {
          "internalType": "uint256",
          "name": "",
          "type": "uint256"
        }
      ],
      "stateMutability": "view",
      "type": "function",
      "constant": true
    },
    {
      "inputs": [],
      "name": "UserShares",
      "outputs": [
        {
          "internalType": "uint256",
          "name": "",
          "type": "uint256"
        }
      ],
      "stateMutability": "view",
      "type": "function",
      "constant": true
    },
    {
      "inputs": [
        {
          "internalType": "address",
          "name": "member",
          "type": "address"
        }
      ],
      "name": "CalculateTotalBUSDEarned",
      "outputs": [
        {
          "internalType": "uint256",
          "name": "exchangeRate",
          "type": "uint256"
        }
      ],
      "stateMutability": "view",
      "type": "function",
      "constant": true
    }
  ],
  "bytecode": "0x608060405234801561001057600080fd5b5060008054600160a060020a0319163317905561082b806100326000396000f3fe608060405234801561001057600080fd5b50600436106100c6576000357c0100000000000000000000000000000000000000000000000000000000900480636583d12a1161008e5780636583d12a146101745780637057f9291461019157806382f9a869146101b4578063ad737613146101da578063e3071f34146101f7578063f2fde38b146101ff576100c6565b80630fcf3b3e146100cb5780632f267914146100f357806333d3afa61461010d578063352c95b7146101335780635b6b431d14610157575b600080fd5b6100f1600480360360208110156100e157600080fd5b5035600160a060020a0316610225565b005b6100fb610320565b60408051918252519081900360200190f35b6100fb6004803603602081101561012357600080fd5b5035600160a060020a03166103b5565b61013b610451565b60408051600160a060020a039092168252519081900360200190f35b6100f16004803603602081101561016d57600080fd5b5035610460565b6100f16004803603602081101561018a57600080fd5b50356104cc565b6100f1600480360360408110156101a757600080fd5b5080359060200135610538565b6100f1600480360360208110156101ca57600080fd5b5035600160a060020a03166105c7565b6100f1600480360360208110156101f057600080fd5b503561066f565b6100fb6106db565b6100f16004803603602081101561021557600080fd5b5035600160a060020a031661073f565b600054600160a060020a0316331461029e57604080517f08c379a000000000000000000000000000000000000000000000000000000000815260206004820152601d60248201527f4f6e6c79206f776e65722063616e206d616b6520746869732063616c6c000000604482015290519081900360640190fd5b600154604080517fa843c51f000000000000000000000000000000000000000000000000000000008152600160a060020a0384811660048301529151919092169163a843c51f91602480830192600092919082900301818387803b15801561030557600080fd5b505af1158015610319573d6000803e3d6000fd5b5050505050565b600154604080517f7bdc9ad40000000000000000000000000000000000000000000000000000000081523360048201529051600092600160a060020a031691637bdc9ad4916024808301926020929190829003018186803b15801561038457600080fd5b505afa158015610398573d6000803e3d6000fd5b505050506040513d60208110156103ae57600080fd5b5051905090565b600154604080517f33d3afa6000000000000000000000000000000000000000000000000000000008152600160a060020a038481166004830152915160009392909216916333d3afa691602480820192602092909190829003018186803b15801561041f57600080fd5b505afa158015610433573d6000803e3d6000fd5b505050506040513d602081101561044957600080fd5b505192915050565b600154600160a060020a031690565b600154604080517f8353ffca000000000000000000000000000000000000000000000000000000008152600481018490523360248201529051600160a060020a0390921691638353ffca9160448082019260009290919082900301818387803b15801561030557600080fd5b600154604080517fef1dff55000000000000000000000000000000000000000000000000000000008152336004820152602481018490529051600160a060020a039092169163ef1dff559160448082019260009290919082900301818387803b15801561030557600080fd5b600154604080517fdfba295400000000000000000000000000000000000000000000000000000000815260048101859052336024820152604481018490529051600160a060020a039092169163dfba29549160648082019260009290919082900301818387803b1580156105ab57600080fd5b505af11580156105bf573d6000803e3d6000fd5b505050505050565b600054600160a060020a0316331461064057604080517f08c379a000000000000000000000000000000000000000000000000000000000815260206004820152601d60248201527f4f6e6c79206f776e65722063616e206d616b6520746869732063616c6c000000604482015290519081900360640190fd5b6001805473ffffffffffffffffffffffffffffffffffffffff1916600160a060020a0392909216919091179055565b600154604080517f330e35c9000000000000000000000000000000000000000000000000000000008152600481018490523360248201529051600160a060020a039092169163330e35c99160448082019260009290919082900301818387803b15801561030557600080fd5b600154604080517f6f547f9e0000000000000000000000000000000000000000000000000000000081523360048201529051600092600160a060020a031691636f547f9e916024808301926020929190829003018186803b15801561038457600080fd5b600054600160a060020a031633146107b857604080517f08c379a000000000000000000000000000000000000000000000000000000000815260206004820152601d60248201527f4f6e6c79206f776e65722063616e206d616b6520746869732063616c6c000000604482015290519081900360640190fd5b600054600160a060020a0316156107f2576000805473ffffffffffffffffffffffffffffffffffffffff1916600160a060020a0383161790555b5056fea26469706673582212201c002b8cd4f23fe18cfd680e06506558c71f4f16dc3ae6b54e05508ab2b6d54664736f6c63430006060033",
  "immutableReferences": {},
  "source": "pragma solidity >=0.6.6;\n\nimport \"./ForTubeBankAdapter.sol\";\n\ncontract ForTubeBankService {\n    address _owner;\n    \n    ForTubeBankAdapter _bankAdapter;\n\n    constructor() public {\n        _owner = msg.sender;\n    }\n\n    function transferOwnership(address account) external onlyOwner() {\n        if (_owner != address(0)) _owner = account;\n    }\n\n    function updateAdapter(address adapterAddress) external onlyOwner() {\n        _bankAdapter = ForTubeBankAdapter(adapterAddress);\n    }\n\n\n    /*\n        -   Before calling this function, ensure that the msg.sender or caller has given this contract address\n            approval to transfer money on its behalf to another address\n    */\n    function Save(uint256 amount) external {\n        _bankAdapter.Save(amount, msg.sender);\n    }\n\n    function Withdraw(uint256 amount) external {\n        _bankAdapter.Withdraw(amount, msg.sender);\n    }\n\n    function WithdrawByShares(uint256 amount, uint256 sharesAmount) external {\n        _bankAdapter.WithdrawByShares(amount, msg.sender, sharesAmount);\n    }\n\n    function WithdrawBySharesOnly(uint256 sharesAmount) external {\n        _bankAdapter.WithdrawBySharesOnly(msg.sender, sharesAmount);\n    }\n\n    function GetForTubeAdapterAddress() external view returns (address) {\n        return address(_bankAdapter);\n    }\n\n    function TransferAdapterContractOwnership(address payable newServiceContract) external onlyOwner {\n        _bankAdapter.transferContractOwnership(newServiceContract);\n    }\n    //get user busd balance\n    function UserBUSDBalance() external view returns (uint256) {\n        return _bankAdapter.GetBUSDBalance(msg.sender);\n    }\n     //  Get the user's shares or the fbusd tokens\n    function UserShares() external view returns (uint256) {\n        return _bankAdapter.GetFBUSDBalance(msg.sender);\n    }\n    \n    function CalculateTotalBUSDEarned(address member) external view returns (uint256 exchangeRate){\n        return _bankAdapter.CalculateTotalBUSDEarned(member);\n    }\n    modifier onlyOwner() {\n        require(_owner == msg.sender, \"Only owner can make this call\");\n        _;\n    }\n}",
  "sourcePath": "/Users/njokuscript/Desktop/programming/yearn-savings/Tests/contracts/Fortube/ForTubeBankService.sol",
  "compiler": {
    "name": "solc",
    "version": "0.6.6+commit.6c089d02.Emscripten.clang"
  },
  "schemaVersion": "3.2.5",
  "updatedAt": "2020-11-21T17:09:41.307Z",
  "networkType": "ethereum",
  "devdoc": {
    "methods": {}
  },
  "userdoc": {
    "methods": {}
  }
}