{
  "contractName": "ForTubeBankAdapter",
  "abi": [
    {
      "inputs": [
        {
          "internalType": "address payable",
          "name": "serviceContract",
          "type": "address"
        }
      ],
      "stateMutability": "nonpayable",
      "type": "constructor"
    },
    {
      "inputs": [
        {
          "internalType": "uint256",
          "name": "a",
          "type": "uint256"
        },
        {
          "internalType": "uint256",
          "name": "b",
          "type": "uint256"
        }
      ],
      "name": "addExp",
      "outputs": [
        {
          "internalType": "uint256",
          "name": "result",
          "type": "uint256"
        }
      ],
      "stateMutability": "pure",
      "type": "function",
      "constant": true
    },
    {
      "inputs": [
        {
          "internalType": "uint256",
          "name": "a",
          "type": "uint256"
        },
        {
          "internalType": "uint256",
          "name": "b",
          "type": "uint256"
        }
      ],
      "name": "divExp",
      "outputs": [
        {
          "internalType": "uint256",
          "name": "",
          "type": "uint256"
        }
      ],
      "stateMutability": "pure",
      "type": "function",
      "constant": true
    },
    {
      "inputs": [
        {
          "internalType": "uint256",
          "name": "a",
          "type": "uint256"
        },
        {
          "internalType": "uint256",
          "name": "scalar",
          "type": "uint256"
        }
      ],
      "name": "divScalar",
      "outputs": [
        {
          "internalType": "uint256",
          "name": "",
          "type": "uint256"
        }
      ],
      "stateMutability": "pure",
      "type": "function",
      "constant": true
    },
    {
      "inputs": [
        {
          "internalType": "uint256",
          "name": "scalar",
          "type": "uint256"
        },
        {
          "internalType": "uint256",
          "name": "divisor",
          "type": "uint256"
        }
      ],
      "name": "divScalarByExp",
      "outputs": [
        {
          "internalType": "uint256",
          "name": "",
          "type": "uint256"
        }
      ],
      "stateMutability": "pure",
      "type": "function",
      "constant": true
    },
    {
      "inputs": [
        {
          "internalType": "uint256",
          "name": "scalar",
          "type": "uint256"
        },
        {
          "internalType": "uint256",
          "name": "divisor",
          "type": "uint256"
        }
      ],
      "name": "divScalarByExpTruncate",
      "outputs": [
        {
          "internalType": "uint256",
          "name": "",
          "type": "uint256"
        }
      ],
      "stateMutability": "pure",
      "type": "function",
      "constant": true
    },
    {
      "inputs": [
        {
          "internalType": "uint256",
          "name": "num",
          "type": "uint256"
        },
        {
          "internalType": "uint256",
          "name": "denom",
          "type": "uint256"
        }
      ],
      "name": "getDiv",
      "outputs": [
        {
          "internalType": "uint256",
          "name": "rational",
          "type": "uint256"
        }
      ],
      "stateMutability": "pure",
      "type": "function",
      "constant": true
    },
    {
      "inputs": [
        {
          "internalType": "uint256",
          "name": "num",
          "type": "uint256"
        },
        {
          "internalType": "uint256",
          "name": "denom",
          "type": "uint256"
        }
      ],
      "name": "getExp",
      "outputs": [
        {
          "internalType": "uint256",
          "name": "rational",
          "type": "uint256"
        }
      ],
      "stateMutability": "pure",
      "type": "function",
      "constant": true
    },
    {
      "inputs": [
        {
          "internalType": "uint256",
          "name": "a",
          "type": "uint256"
        },
        {
          "internalType": "uint256",
          "name": "b",
          "type": "uint256"
        }
      ],
      "name": "mulExp",
      "outputs": [
        {
          "internalType": "uint256",
          "name": "",
          "type": "uint256"
        }
      ],
      "stateMutability": "pure",
      "type": "function",
      "constant": true
    },
    {
      "inputs": [
        {
          "internalType": "uint256",
          "name": "a",
          "type": "uint256"
        },
        {
          "internalType": "uint256",
          "name": "b",
          "type": "uint256"
        },
        {
          "internalType": "uint256",
          "name": "c",
          "type": "uint256"
        }
      ],
      "name": "mulExp3",
      "outputs": [
        {
          "internalType": "uint256",
          "name": "",
          "type": "uint256"
        }
      ],
      "stateMutability": "pure",
      "type": "function",
      "constant": true
    },
    {
      "inputs": [
        {
          "internalType": "uint256",
          "name": "a",
          "type": "uint256"
        },
        {
          "internalType": "uint256",
          "name": "scalar",
          "type": "uint256"
        }
      ],
      "name": "mulScalar",
      "outputs": [
        {
          "internalType": "uint256",
          "name": "scaled",
          "type": "uint256"
        }
      ],
      "stateMutability": "pure",
      "type": "function",
      "constant": true
    },
    {
      "inputs": [
        {
          "internalType": "uint256",
          "name": "a",
          "type": "uint256"
        },
        {
          "internalType": "uint256",
          "name": "scalar",
          "type": "uint256"
        }
      ],
      "name": "mulScalarTruncate",
      "outputs": [
        {
          "internalType": "uint256",
          "name": "",
          "type": "uint256"
        }
      ],
      "stateMutability": "pure",
      "type": "function",
      "constant": true
    },
    {
      "inputs": [
        {
          "internalType": "uint256",
          "name": "a",
          "type": "uint256"
        },
        {
          "internalType": "uint256",
          "name": "scalar",
          "type": "uint256"
        },
        {
          "internalType": "uint256",
          "name": "addend",
          "type": "uint256"
        }
      ],
      "name": "mulScalarTruncateAddUInt",
      "outputs": [
        {
          "internalType": "uint256",
          "name": "",
          "type": "uint256"
        }
      ],
      "stateMutability": "pure",
      "type": "function",
      "constant": true
    },
    {
      "inputs": [],
      "name": "owner",
      "outputs": [
        {
          "internalType": "address payable",
          "name": "",
          "type": "address"
        }
      ],
      "stateMutability": "view",
      "type": "function",
      "constant": true
    },
    {
      "inputs": [],
      "name": "serviceContract",
      "outputs": [
        {
          "internalType": "address payable",
          "name": "",
          "type": "address"
        }
      ],
      "stateMutability": "view",
      "type": "function",
      "constant": true
    },
    {
      "inputs": [
        {
          "internalType": "uint256",
          "name": "a",
          "type": "uint256"
        },
        {
          "internalType": "uint256",
          "name": "b",
          "type": "uint256"
        }
      ],
      "name": "subExp",
      "outputs": [
        {
          "internalType": "uint256",
          "name": "result",
          "type": "uint256"
        }
      ],
      "stateMutability": "pure",
      "type": "function",
      "constant": true
    },
    {
      "inputs": [
        {
          "internalType": "address payable",
          "name": "newServiceContract",
          "type": "address"
        }
      ],
      "name": "transferContractOwnership",
      "outputs": [],
      "stateMutability": "nonpayable",
      "type": "function"
    },
    {
      "inputs": [
        {
          "internalType": "address payable",
          "name": "newOwner",
          "type": "address"
        }
      ],
      "name": "transferOwnership",
      "outputs": [],
      "stateMutability": "nonpayable",
      "type": "function"
    },
    {
      "inputs": [
        {
          "internalType": "uint256",
          "name": "exp",
          "type": "uint256"
        }
      ],
      "name": "truncate",
      "outputs": [
        {
          "internalType": "uint256",
          "name": "",
          "type": "uint256"
        }
      ],
      "stateMutability": "pure",
      "type": "function",
      "constant": true
    },
    {
      "inputs": [
        {
          "internalType": "uint256",
          "name": "amount",
          "type": "uint256"
        },
        {
          "internalType": "address",
          "name": "account",
          "type": "address"
        }
      ],
      "name": "Save",
      "outputs": [],
      "stateMutability": "nonpayable",
      "type": "function"
    },
    {
      "inputs": [
        {
          "internalType": "uint256",
          "name": "amount",
          "type": "uint256"
        },
        {
          "internalType": "address",
          "name": "owner",
          "type": "address"
        }
      ],
      "name": "Withdraw",
      "outputs": [],
      "stateMutability": "nonpayable",
      "type": "function"
    },
    {
      "inputs": [
        {
          "internalType": "address",
          "name": "owner",
          "type": "address"
        },
        {
          "internalType": "uint256",
          "name": "sharesAmount",
          "type": "uint256"
        }
      ],
      "name": "WithdrawBySharesOnly",
      "outputs": [],
      "stateMutability": "nonpayable",
      "type": "function"
    },
    {
      "inputs": [
        {
          "internalType": "uint256",
          "name": "amount",
          "type": "uint256"
        },
        {
          "internalType": "address",
          "name": "owner",
          "type": "address"
        },
        {
          "internalType": "uint256",
          "name": "sharesAmount",
          "type": "uint256"
        }
      ],
      "name": "WithdrawByShares",
      "outputs": [],
      "stateMutability": "nonpayable",
      "type": "function"
    },
    {
      "inputs": [
        {
          "internalType": "address",
          "name": "member",
          "type": "address"
        }
      ],
      "name": "GetBUSDBalance",
      "outputs": [
        {
          "internalType": "uint256",
          "name": "",
          "type": "uint256"
        }
      ],
      "stateMutability": "view",
      "type": "function",
      "constant": true
    },
    {
      "inputs": [
        {
          "internalType": "address",
          "name": "member",
          "type": "address"
        }
      ],
      "name": "GetFBUSDBalance",
      "outputs": [
        {
          "internalType": "uint256",
          "name": "",
          "type": "uint256"
        }
      ],
      "stateMutability": "view",
      "type": "function",
      "constant": true
    },
    {
      "inputs": [
        {
          "internalType": "address",
          "name": "member",
          "type": "address"
        }
      ],
      "name": "CalculateTotalBUSDEarned",
      "outputs": [
        {
          "internalType": "uint256",
          "name": "exchangeRate",
          "type": "uint256"
        }
      ],
      "stateMutability": "view",
      "type": "function",
      "constant": true
    },
    {
      "inputs": [],
      "name": "ExchangeRateCurrentBUSD",
      "outputs": [
        {
          "internalType": "uint256",
          "name": "exchangeRate",
          "type": "uint256"
        }
      ],
      "stateMutability": "view",
      "type": "function",
      "constant": true
    },
    {
      "inputs": [],
      "name": "ExchangeRateStoredBUSD",
      "outputs": [
        {
          "internalType": "uint256",
          "name": "exchangeRate",
          "type": "uint256"
        }
      ],
      "stateMutability": "view",
      "type": "function",
      "constant": true
    }
  ],
  "bytecode": "0x608060405260058054600160a060020a031916733b1f033dd955f3be8649cc9825a2e3e194765a3f17905534801561003657600080fd5b50604051611a05380380611a058339818101604052602081101561005957600080fd5b505160008054600160a060020a0319908116331790915560018054600160a060020a039093169282169290921790915560028054821673bffedf7f10fcd4255f1f622adbc8ccdc9d5bad9e179055600380548216736112a45160b2058c6402a5bfbe3a446c8fd4fb45179055600480549091167392fcf9f805aaf8e97482b86995c4e9ea16d9e2bb179055611912806100f36000396000f3fe608060405234801561001057600080fd5b50600436106101c6576000357c0100000000000000000000000000000000000000000000000000000000900480638353ffca11610116578063ce603aad116100b4578063dec18a751161008e578063dec18a75146104d0578063dfba2954146104d8578063ef1dff551461050a578063f2fde38b14610536576101c6565b8063ce603aad14610467578063d6079cc61461048a578063de32abd1146104ad576101c6565b8063a843c51f116100f0578063a843c51f146103fb578063b4ab15e714610421578063b507f9f914610444578063ba9316b7146102e1576101c6565b80638353ffca1461039e5780638da5cb5b146103ca5780638de46362146103d2576101c6565b80634751b79c116101835780636f547f9e1161015d5780636f547f9e1461032d57806370d27d7f146103535780637b94aaac1461035b5780637bdc9ad414610378576101c6565b80634751b79c146102be5780635293ff31146102e15780636208fc4114610304576101c6565b80632985fa31146101cb578063330e35c91461020057806333d3afa61461022e578063364dab1014610254578063396a98cf146102785780634147da131461029b575b600080fd5b6101ee600480360360408110156101e157600080fd5b508035906020013561055c565b60408051918252519081900360200190f35b61022c6004803603604081101561021657600080fd5b5080359060200135600160a060020a0316610575565b005b6101ee6004803603602081101561024457600080fd5b5035600160a060020a0316610674565b61025c610796565b60408051600160a060020a039092168252519081900360200190f35b6101ee6004803603604081101561028e57600080fd5b50803590602001356107a5565b6101ee600480360360408110156102b157600080fd5b50803590602001356107b7565b6101ee600480360360408110156102d457600080fd5b50803590602001356107c9565b6101ee600480360360408110156102f757600080fd5b50803590602001356107e1565b6101ee6004803603606081101561031a57600080fd5b508035906020810135906040013561080b565b6101ee6004803603602081101561034357600080fd5b5035600160a060020a031661083c565b6101ee6108c2565b6101ee6004803603602081101561037157600080fd5b5035610951565b6101ee6004803603602081101561038e57600080fd5b5035600160a060020a031661096b565b61022c600480360360408110156103b457600080fd5b5080359060200135600160a060020a03166109bf565b61025c610cd1565b6101ee600480360360608110156103e857600080fd5b5080359060208101359060400135610ce0565b61022c6004803603602081101561041157600080fd5b5035600160a060020a0316610cf5565b6101ee6004803603604081101561043757600080fd5b5080359060200135610d95565b6101ee6004803603604081101561045a57600080fd5b5080359060200135610dad565b6101ee6004803603604081101561047d57600080fd5b5080359060200135610db9565b6101ee600480360360408110156104a057600080fd5b5080359060200135610de0565b6101ee600480360360408110156104c357600080fd5b5080359060200135610ded565b6101ee610e30565b61022c600480360360608110156104ee57600080fd5b50803590600160a060020a036020820135169060400135610e8e565b61022c6004803603604081101561052057600080fd5b50600160a060020a038135169060200135611122565b61022c6004803603602081101561054c57600080fd5b5035600160a060020a03166113a7565b600061056e838363ffffffff61143316565b9392505050565b600054600160a060020a03163314806105985750600154600160a060020a031633145b6105da576040805160e560020a62461bcd02815260206004820152601f602482015260008051602061189c833981519152604482015290519081900360640190fd5b6005546040805160e060020a6323b872dd028152600160a060020a03848116600483015230602483015260448201869052915191909216916323b872dd9160648083019260209291908290030181600087803b15801561063957600080fd5b505af115801561064d573d6000803e3d6000fd5b505050506040513d602081101561066357600080fd5b506106709050828261148f565b5050565b6003546040805160e060020a6370a08231028152600160a060020a0384811660048301529151600093849316916370a08231916024808301926020929190829003018186803b1580156106c657600080fd5b505afa1580156106da573d6000803e3d6000fd5b505050506040513d60208110156106f057600080fd5b5051600354604080517f182df0f50000000000000000000000000000000000000000000000000000000081529051929350600092600160a060020a039092169163182df0f591600480820192602092909190829003018186803b15801561075657600080fd5b505afa15801561076a573d6000803e3d6000fd5b505050506040513d602081101561078057600080fd5b5051905061078e8282610d95565b949350505050565b600154600160a060020a031681565b600061056e838363ffffffff6116b816565b600061056e838363ffffffff6116fa16565b600061056e838363ffffffff61175716565b92915050565b600061056e826107ff85670de0b6b3a764000063ffffffff61143316565b9063ffffffff61175716565b600080610818858561055c565b90506108338361082783610951565b9063ffffffff6116fa16565b95945050505050565b6005546040805160e060020a6370a08231028152600160a060020a038481166004830152915160009392909216916370a0823191602480820192602092909190829003018186803b15801561089057600080fd5b505afa1580156108a4573d6000803e3d6000fd5b505050506040513d60208110156108ba57600080fd5b505192915050565b600354604080517f182df0f50000000000000000000000000000000000000000000000000000000081529051600092600160a060020a03169163182df0f5916004808301926020929190829003018186803b15801561092057600080fd5b505afa158015610934573d6000803e3d6000fd5b505050506040513d602081101561094a57600080fd5b5051905090565b60006107db82670de0b6b3a764000063ffffffff61175716565b6003546040805160e060020a6370a08231028152600160a060020a038481166004830152915160009392909216916370a0823191602480820192602092909190829003018186803b15801561089057600080fd5b600054600160a060020a03163314806109e25750600154600160a060020a031633145b610a24576040805160e560020a62461bcd02815260206004820152601f602482015260008051602061189c833981519152604482015290519081900360640190fd5b6003546040805160e060020a6370a08231028152600160a060020a038481166004830152915160009392909216916370a0823191602480820192602092909190829003018186803b158015610a7857600080fd5b505afa158015610a8c573d6000803e3d6000fd5b505050506040513d6020811015610aa257600080fd5b50516003546040805160e060020a6323b872dd028152600160a060020a0386811660048301523060248301526044820185905291519394509116916323b872dd916064808201926020929091908290030181600087803b158015610b0557600080fd5b505af1158015610b19573d6000803e3d6000fd5b505050506040513d6020811015610b2f57600080fd5b5050600254600554604080517ff3fef3a3000000000000000000000000000000000000000000000000000000008152600160a060020a039283166004820152602481018590529051919092169163f3fef3a391604480830192600092919082900301818387803b158015610ba257600080fd5b505af1158015610bb6573d6000803e3d6000fd5b50506005546040805160e060020a63a9059cbb028152600160a060020a03878116600483015260248201899052915191909216935063a9059cbb925060448083019260209291908290030181600087803b158015610c1357600080fd5b505af1158015610c27573d6000803e3d6000fd5b505050506040513d6020811015610c3d57600080fd5b50506005546040805160e060020a6370a082310281523060048201529051600092600160a060020a0316916370a08231916024808301926020929190829003018186803b158015610c8d57600080fd5b505afa158015610ca1573d6000803e3d6000fd5b505050506040513d6020811015610cb757600080fd5b505190508015610ccb57610ccb818461148f565b50505050565b600054600160a060020a031681565b600061078e610cef8585610ded565b83610ded565b600054600160a060020a0316331480610d185750600154600160a060020a031633145b610d5a576040805160e560020a62461bcd02815260206004820152601f602482015260008051602061189c833981519152604482015290519081900360640190fd5b600160a060020a03811615610d92576001805473ffffffffffffffffffffffffffffffffffffffff1916600160a060020a0383161790555b50565b600080610da2848461055c565b905061078e81610951565b600061056e83836107e1565b600080610dd4670de0b6b3a76400008563ffffffff61143316565b905061078e81846107e1565b600080610da28484610db9565b600080610e00848463ffffffff61143316565b90506000610e166706f05b59d3b20000836116fa565b905061083381670de0b6b3a764000063ffffffff61175716565b600354604080517fbd6d894d0000000000000000000000000000000000000000000000000000000081529051600092600160a060020a03169163bd6d894d916004808301926020929190829003018186803b15801561092057600080fd5b600054600160a060020a0316331480610eb15750600154600160a060020a031633145b610ef3576040805160e560020a62461bcd02815260206004820152601f602482015260008051602061189c833981519152604482015290519081900360640190fd5b6003546040805160e060020a6323b872dd028152600160a060020a038581166004830152306024830152604482018590529151849392909216916323b872dd916064808201926020929091908290030181600087803b158015610f5557600080fd5b505af1158015610f69573d6000803e3d6000fd5b505050506040513d6020811015610f7f57600080fd5b5050600254600554604080517ff3fef3a3000000000000000000000000000000000000000000000000000000008152600160a060020a039283166004820152602481018590529051919092169163f3fef3a391604480830192600092919082900301818387803b158015610ff257600080fd5b505af1158015611006573d6000803e3d6000fd5b50506005546040805160e060020a63a9059cbb028152600160a060020a038881166004830152602482018a9052915191909216935063a9059cbb925060448083019260209291908290030181600087803b15801561106357600080fd5b505af1158015611077573d6000803e3d6000fd5b505050506040513d602081101561108d57600080fd5b50506005546040805160e060020a6370a082310281523060048201529051600092600160a060020a0316916370a08231916024808301926020929190829003018186803b1580156110dd57600080fd5b505afa1580156110f1573d6000803e3d6000fd5b505050506040513d602081101561110757600080fd5b50519050801561111b5761111b818561148f565b5050505050565b600054600160a060020a03163314806111455750600154600160a060020a031633145b611187576040805160e560020a62461bcd02815260206004820152601f602482015260008051602061189c833981519152604482015290519081900360640190fd5b6003546040805160e060020a6323b872dd028152600160a060020a038581166004830152306024830152604482018590529151849392909216916323b872dd916064808201926020929091908290030181600087803b1580156111e957600080fd5b505af11580156111fd573d6000803e3d6000fd5b505050506040513d602081101561121357600080fd5b5050600254600554604080517ff3fef3a3000000000000000000000000000000000000000000000000000000008152600160a060020a039283166004820152602481018590529051919092169163f3fef3a391604480830192600092919082900301818387803b15801561128657600080fd5b505af115801561129a573d6000803e3d6000fd5b50506005546040805160e060020a6370a08231028152306004820152905160009450600160a060020a0390921692506370a08231916024808301926020929190829003018186803b1580156112ee57600080fd5b505afa158015611302573d6000803e3d6000fd5b505050506040513d602081101561131857600080fd5b50516005546040805160e060020a63a9059cbb028152600160a060020a03888116600483015260248201859052915193945091169163a9059cbb916044808201926020929091908290030181600087803b15801561137557600080fd5b505af1158015611389573d6000803e3d6000fd5b505050506040513d602081101561139f57600080fd5b505050505050565b600054600160a060020a031633146113f7576040805160e560020a62461bcd02815260206004820152601f602482015260008051602061189c833981519152604482015290519081900360640190fd5b600160a060020a03811615610d925760008054600160a060020a03831673ffffffffffffffffffffffffffffffffffffffff1990911617905550565b600082611442575060006107db565b8282028284828161144f57fe5b041461056e5760405160e560020a62461bcd0281526004018080602001828103825260218152602001806118bc6021913960400191505060405180910390fd5b60055460048054604080517f095ea7b3000000000000000000000000000000000000000000000000000000008152600160a060020a0392831693810193909352602483018690525192169163095ea7b3916044808201926020929091908290030181600087803b15801561150257600080fd5b505af1158015611516573d6000803e3d6000fd5b505050506040513d602081101561152c57600080fd5b5050600254600554604080517f47e7ef24000000000000000000000000000000000000000000000000000000008152600160a060020a03928316600482015260248101869052905191909216916347e7ef2491604480830192600092919082900301818387803b15801561159f57600080fd5b505af11580156115b3573d6000803e3d6000fd5b50506003546040805160e060020a6370a08231028152306004820152905160009450600160a060020a0390921692506370a08231916024808301926020929190829003018186803b15801561160757600080fd5b505afa15801561161b573d6000803e3d6000fd5b505050506040513d602081101561163157600080fd5b50516003546040805160e060020a63a9059cbb028152600160a060020a03868116600483015260248201859052915193945091169163a9059cbb916044808201926020929091908290030181600087803b15801561168e57600080fd5b505af11580156116a2573d6000803e3d6000fd5b505050506040513d602081101561111b57600080fd5b600061056e83836040518060400160405280601e81526020017f536166654d6174683a207375627472616374696f6e206f766572666c6f770000815250611799565b60008282018381101561056e576040805160e560020a62461bcd02815260206004820152601b60248201527f536166654d6174683a206164646974696f6e206f766572666c6f770000000000604482015290519081900360640190fd5b600061056e83836040518060400160405280601a81526020017f536166654d6174683a206469766973696f6e206279207a65726f000000000000815250611833565b6000818484111561182b5760405160e560020a62461bcd0281526004018080602001828103825283818151815260200191508051906020019080838360005b838110156117f05781810151838201526020016117d8565b50505050905090810190601f16801561181d5780820380516001836020036101000a031916815260200191505b509250505060405180910390fd5b505050900390565b600081836118855760405160e560020a62461bcd0281526020600482018181528351602484015283519092839260449091019190850190808383600083156117f05781810151838201526020016117d8565b50600083858161189157fe5b049594505050505056fe556e617574686f72697a65642061636365737320746f20636f6e747261637400536166654d6174683a206d756c7469706c69636174696f6e206f766572666c6f77a2646970667358221220cae17cee4157a7f525b2468d3e060a2fc9b8c4bf730bd1f29711a35789ff891964736f6c63430006060033",
  "immutableReferences": {},
  "source": "pragma solidity >=0.6.6;\n\nimport \"../IBank.sol\";\nimport \"../IFToken.sol\";\nimport \"../IBankController.sol\";\nimport \"../IBEP20.sol\";\nimport \"../SafeMath.sol\";\nimport \"./OwnableService.sol\";\nimport \"./Exponential.sol\";\n\ncontract ForTubeBankAdapter is OwnableService, Exponential {\n    \n    using SafeMath for uint256;\n\n\n    IBank _bank;\n    IFToken _fBUSD;  //  BUSD shares\n    IBankController _bankController;\n    IBEP20 _BUSD = IBEP20(0x3b1F033dD955f3BE8649Cc9825A2e3E194765a3F);  // This is a custom BUSD for ForTube, you will not find it on BSC Faucet\n    \n    \n\n    constructor(address payable serviceContract) public OwnableService(serviceContract){\n        _bank = IBank(0xbFFEdF7F10fcD4255F1F622aDBc8CCDC9D5bAd9e);\n        _fBUSD = IFToken(0x6112a45160b2058C6402a5bfBE3A446c8fD4fb45);\n        _bankController = IBankController(0x92fcF9F805AAF8e97482B86995C4e9EA16D9e2Bb);\n    }\n    \n\n    /*\n        account: this is the owner of the BUSD token\n    */\n    function Save(uint256 amount, address account)\n        public\n        onlyOwnerAndServiceContract\n    {\n\n        //  Ensure the account has given this contract approval to spend on his/her behalf\n        //  Transfer from the account to this contract\n        _BUSD.transferFrom(account, address(this),amount);\n\n        //  This gives the Bank contract approval to invest our BUSD\n        _save(amount, account);\n    }\n\n\n    /**\n        This is an internal function that invests the user's token into ForTube Bank \n    */\n    function _save(uint256 amount, address account) internal {\n        \n        //  Approve Bank Controller Contract to be able to spend BUSD in this contract\n        _BUSD.approve(address(_bankController),amount);\n        \n        //  deposit the BUSD on ForTube's Bank contract\n        _bank.deposit(address(_BUSD),amount);\n\n        //  call balanceOf and get the total balance of fBUSD in this contract\n        uint256 shares = _fBUSD.balanceOf(address(this));\n\n        //  transfer the fBUSD shares to the user's address\n        _fBUSD.transfer(account, shares);\n\n    }\n    \n    \n\n\n    function Withdraw(uint256 amount, address owner) public onlyOwnerAndServiceContract\n    {\n        //  To withdraw our DAI amount, the amount argument is in DAI but the withdraw function of the yDAI expects amount in yDAI token\n        //  So we need to find our balance in yDAI\n\n        uint256 balanceShares = _fBUSD.balanceOf(owner);\n\n        //  Ensure the owner has given this contract approval to spend his/her fBUSD\n        //  transfer fBUSD From owner to this contract address\n        _fBUSD.transferFrom(owner, address(this), balanceShares);\n\n        //  We now call the withdraw function to withdraw the total BUSD based on the fBUSD amount passed. This withdrawal is sent to this smart contract\n        _bank.withdraw(address(_BUSD),balanceShares);\n\n        //  Now all the BUSD we have are in the smart contract wallet, we can now transfer the specified amount to a recipient of our choice\n        _BUSD.transfer(owner, amount);\n\n\n        //  If we have some BUSD left after transferring a specified amount to a recipient, we can re-invest it in ForTube Bank\n        uint256 BUSDBalance = _BUSD.balanceOf(address(this));\n\n        if (BUSDBalance > 0) {\n            //  This gives the yDAI contract approval to invest our DAI\n            _save(BUSDBalance, owner);\n        }\n    }\n   \n       /*\n        this function withdraws all the dai to this contract based on the sharesAmount passed\n    */\n    function WithdrawBySharesOnly(address owner, uint256 sharesAmount)\n        public\n        onlyOwnerAndServiceContract\n    {\n        uint256 balanceShares = sharesAmount;\n\n        //  transfer fBUSD From owner to this contract address\n        _fBUSD.transferFrom(owner, address(this), balanceShares);\n\n        //  We now call the withdraw function to withdraw the total BUSD we have. This withdrawal is sent to this smart contract\n        _bank.withdraw(address(_BUSD),balanceShares);\n\n        uint256 contractBUSDBalance = _BUSD.balanceOf(address(this));\n\n        //  Now all the BUSD we have are in the smart contract wallet, we can now transfer the total amount to the recipient\n        _BUSD.transfer(owner, contractBUSDBalance);\n\n        //  We do not have any dai left in this contract so nothing to re-invest\n\n    }\n   \n    function WithdrawByShares(\n        uint256 amount,\n        address owner,\n        uint256 sharesAmount\n    ) public onlyOwnerAndServiceContract {\n        //  To withdraw our BUSD amount, the amount argument is in BUSD but the withdraw function of the fBUSD expects amount in fBUSD token\n\n        uint256 balanceShares = sharesAmount;\n\n        //  transfer fBUSD From owner to this contract address\n        _fBUSD.transferFrom(owner, address(this), balanceShares);\n\n        //  We now call the withdraw function to withdraw the total BUSD we have. This withdrawal is sent to this smart contract\n        _bank.withdraw(address(_BUSD),balanceShares);\n\n        //  Now all the BUSD we have are in the smart contract wallet, we can now transfer the specified amount to a recipient of our choice\n        _BUSD.transfer(owner, amount);\n\n\n        //  If we have some BUSD left after transferring a specified amount to a recipient, we can re-invest it in ForTube Bank\n        uint256 BUSDBalance = _BUSD.balanceOf(address(this));\n\n        if (BUSDBalance > 0) {\n            //  This gives the yDAI contract approval to invest our DAI\n            _save(BUSDBalance, owner);\n        }\n    }\n    \n    function GetBUSDBalance(address member) external view returns(uint){\n        return _BUSD.balanceOf(member);\n    }\n    \n    function GetFBUSDBalance(address member) external view returns(uint){\n        return _fBUSD.balanceOf(member);\n    }\n    \n    /**\n        Gets the total BUSD the user has earned \n        \n        Total BUSD = price per fBUSD * _fBUSD.balanceOf(address)\n        \n        This gives us the amount we deposited plus interest accrued\n    */\n    function CalculateTotalBUSDEarned(address member) external view returns (uint256 exchangeRate){\n        uint fBUSDBalance = _fBUSD.balanceOf(member);\n        uint currentPricePerFullShareOfFBUSD = _fBUSD.exchangeRateStored();\n        return mulScalarTruncate(fBUSDBalance,currentPricePerFullShareOfFBUSD);\n    }\n       \n    /**\n        Gets the price per full share for the respective fToken \n    */\n    function ExchangeRateCurrentBUSD() external view returns (uint exchangeRate){\n        return _fBUSD.exchangeRateCurrent();\n    }\n\n    function ExchangeRateStoredBUSD() external view returns (uint exchangeRate){\n        return _fBUSD.exchangeRateStored();\n    }\n}",
  "sourcePath": "/Users/njokuscript/Desktop/programming/yearn-savings/Tests/contracts/Fortube/ForTubeBankAdapter.sol",
  "compiler": {
    "name": "solc",
    "version": "0.6.6+commit.6c089d02.Emscripten.clang"
  },
  "schemaVersion": "3.2.5",
  "updatedAt": "2020-11-21T17:09:41.318Z",
  "networkType": "ethereum",
  "devdoc": {
    "methods": {}
  },
  "userdoc": {
    "methods": {
      "CalculateTotalBUSDEarned(address)": {
        "notice": "Gets the total BUSD the user has earned  Total BUSD = price per fBUSD * _fBUSD.balanceOf(address) This gives us the amount we deposited plus interest accrued"
      },
      "ExchangeRateCurrentBUSD()": {
        "notice": "Gets the price per full share for the respective fToken "
      }
    }
  }
}