{
  "contractName": "Groups",
  "abi": [
    {
      "inputs": [
        {
          "internalType": "address",
          "name": "oracle",
          "type": "address"
        }
      ],
      "name": "activateStorageOracle",
      "outputs": [],
      "stateMutability": "nonpayable",
      "type": "function"
    },
    {
      "inputs": [
        {
          "internalType": "address",
          "name": "oracle",
          "type": "address"
        },
        {
          "internalType": "bool",
          "name": "status",
          "type": "bool"
        }
      ],
      "name": "changeStorageOracleStatus",
      "outputs": [],
      "stateMutability": "nonpayable",
      "type": "function"
    },
    {
      "inputs": [
        {
          "internalType": "address",
          "name": "oracle",
          "type": "address"
        }
      ],
      "name": "deactivateStorageOracle",
      "outputs": [],
      "stateMutability": "nonpayable",
      "type": "function"
    },
    {
      "inputs": [
        {
          "internalType": "address",
          "name": "newOracle",
          "type": "address"
        }
      ],
      "name": "reAssignStorageOracle",
      "outputs": [],
      "stateMutability": "nonpayable",
      "type": "function"
    },
    {
      "inputs": [
        {
          "internalType": "address payable",
          "name": "newOwner",
          "type": "address"
        }
      ],
      "name": "transferOwnership",
      "outputs": [],
      "stateMutability": "nonpayable",
      "type": "function"
    },
    {
      "inputs": [
        {
          "internalType": "address payable",
          "name": "receiverAddress",
          "type": "address"
        }
      ],
      "name": "getXendTokensReward",
      "outputs": [
        {
          "internalType": "uint256",
          "name": "",
          "type": "uint256"
        }
      ],
      "stateMutability": "view",
      "type": "function",
      "constant": true
    },
    {
      "inputs": [
        {
          "internalType": "address payable",
          "name": "receiverAddress",
          "type": "address"
        },
        {
          "internalType": "uint256",
          "name": "amount",
          "type": "uint256"
        }
      ],
      "name": "setXendTokensReward",
      "outputs": [],
      "stateMutability": "nonpayable",
      "type": "function"
    },
    {
      "inputs": [],
      "name": "getLengthOfTokenAddressesUsedInDeposit",
      "outputs": [
        {
          "internalType": "uint256",
          "name": "",
          "type": "uint256"
        }
      ],
      "stateMutability": "view",
      "type": "function",
      "constant": true
    },
    {
      "inputs": [
        {
          "internalType": "address",
          "name": "tokenAddress",
          "type": "address"
        },
        {
          "internalType": "uint256",
          "name": "amount",
          "type": "uint256"
        }
      ],
      "name": "incrementTokenDeposit",
      "outputs": [
        {
          "internalType": "uint256",
          "name": "",
          "type": "uint256"
        }
      ],
      "stateMutability": "nonpayable",
      "type": "function"
    },
    {
      "inputs": [
        {
          "internalType": "address",
          "name": "tokenAddress",
          "type": "address"
        },
        {
          "internalType": "uint256",
          "name": "amount",
          "type": "uint256"
        }
      ],
      "name": "decrementTokenDeposit",
      "outputs": [
        {
          "internalType": "uint256",
          "name": "",
          "type": "uint256"
        }
      ],
      "stateMutability": "nonpayable",
      "type": "function"
    },
    {
      "inputs": [
        {
          "internalType": "address",
          "name": "tokenAddress",
          "type": "address"
        }
      ],
      "name": "getTokenDeposit",
      "outputs": [
        {
          "internalType": "uint256",
          "name": "",
          "type": "uint256"
        }
      ],
      "stateMutability": "view",
      "type": "function",
      "constant": true
    },
    {
      "inputs": [
        {
          "internalType": "uint256",
          "name": "amount",
          "type": "uint256"
        }
      ],
      "name": "incrementEtherDeposit",
      "outputs": [
        {
          "internalType": "uint256",
          "name": "",
          "type": "uint256"
        }
      ],
      "stateMutability": "nonpayable",
      "type": "function"
    },
    {
      "inputs": [
        {
          "internalType": "uint256",
          "name": "amount",
          "type": "uint256"
        }
      ],
      "name": "decrementEtherDeposit",
      "outputs": [
        {
          "internalType": "uint256",
          "name": "",
          "type": "uint256"
        }
      ],
      "stateMutability": "nonpayable",
      "type": "function"
    },
    {
      "inputs": [],
      "name": "getEtherDeposit",
      "outputs": [
        {
          "internalType": "uint256",
          "name": "",
          "type": "uint256"
        }
      ],
      "stateMutability": "view",
      "type": "function",
      "constant": true
    },
    {
      "inputs": [
        {
          "internalType": "address payable",
          "name": "depositor",
          "type": "address"
        }
      ],
      "name": "createMember",
      "outputs": [],
      "stateMutability": "nonpayable",
      "type": "function"
    },
    {
      "inputs": [
        {
          "internalType": "address",
          "name": "_address",
          "type": "address"
        }
      ],
      "name": "getMember",
      "outputs": [
        {
          "internalType": "address",
          "name": "",
          "type": "address"
        }
      ],
      "stateMutability": "view",
      "type": "function",
      "constant": true
    },
    {
      "inputs": [
        {
          "internalType": "string",
          "name": "name",
          "type": "string"
        },
        {
          "internalType": "string",
          "name": "symbol",
          "type": "string"
        },
        {
          "internalType": "address",
          "name": "groupCreator",
          "type": "address"
        }
      ],
      "name": "createGroup",
      "outputs": [
        {
          "internalType": "uint256",
          "name": "",
          "type": "uint256"
        }
      ],
      "stateMutability": "nonpayable",
      "type": "function"
    },
    {
      "inputs": [
        {
          "internalType": "uint256",
          "name": "id",
          "type": "uint256"
        },
        {
          "internalType": "string",
          "name": "name",
          "type": "string"
        },
        {
          "internalType": "string",
          "name": "symbol",
          "type": "string"
        },
        {
          "internalType": "address payable",
          "name": "creatorAddress",
          "type": "address"
        }
      ],
      "name": "updateGroup",
      "outputs": [],
      "stateMutability": "nonpayable",
      "type": "function"
    },
    {
      "inputs": [
        {
          "internalType": "string",
          "name": "groupName",
          "type": "string"
        }
      ],
      "name": "doesGroupExist",
      "outputs": [
        {
          "internalType": "bool",
          "name": "",
          "type": "bool"
        }
      ],
      "stateMutability": "view",
      "type": "function",
      "constant": true
    },
    {
      "inputs": [
        {
          "internalType": "uint256",
          "name": "groupId",
          "type": "uint256"
        }
      ],
      "name": "doesGroupExist",
      "outputs": [
        {
          "internalType": "bool",
          "name": "",
          "type": "bool"
        }
      ],
      "stateMutability": "view",
      "type": "function",
      "constant": true
    },
    {
      "inputs": [
        {
          "internalType": "address",
          "name": "depositor",
          "type": "address"
        }
      ],
      "name": "doesMemberExist",
      "outputs": [
        {
          "internalType": "bool",
          "name": "",
          "type": "bool"
        }
      ],
      "stateMutability": "view",
      "type": "function",
      "constant": true
    },
    {
      "inputs": [
        {
          "internalType": "uint256",
          "name": "groupId",
          "type": "uint256"
        },
        {
          "internalType": "address payable",
          "name": "depositor",
          "type": "address"
        }
      ],
      "name": "createGroupMember",
      "outputs": [],
      "stateMutability": "nonpayable",
      "type": "function"
    },
    {
      "inputs": [
        {
          "internalType": "uint256",
          "name": "index",
          "type": "uint256"
        }
      ],
      "name": "getGroupMember",
      "outputs": [
        {
          "internalType": "address payable",
          "name": "_address",
          "type": "address"
        },
        {
          "internalType": "uint256",
          "name": "groupId",
          "type": "uint256"
        }
      ],
      "stateMutability": "view",
      "type": "function",
      "constant": true
    },
    {
      "inputs": [
        {
          "internalType": "uint256",
          "name": "groupId",
          "type": "uint256"
        },
        {
          "internalType": "address",
          "name": "depositor",
          "type": "address"
        }
      ],
      "name": "getGroupMembersDeepIndexer",
      "outputs": [
        {
          "internalType": "bool",
          "name": "exists",
          "type": "bool"
        },
        {
          "internalType": "uint256",
          "name": "index",
          "type": "uint256"
        }
      ],
      "stateMutability": "view",
      "type": "function",
      "constant": true
    },
    {
      "inputs": [
        {
          "internalType": "uint256",
          "name": "groupId",
          "type": "uint256"
        }
      ],
      "name": "getRecordIndexLengthForGroupMembersIndexer",
      "outputs": [
        {
          "internalType": "uint256",
          "name": "",
          "type": "uint256"
        }
      ],
      "stateMutability": "view",
      "type": "function",
      "constant": true
    },
    {
      "inputs": [
        {
          "internalType": "address",
          "name": "depositor",
          "type": "address"
        }
      ],
      "name": "getRecordIndexLengthForGroupMembersIndexerByDepositor",
      "outputs": [
        {
          "internalType": "uint256",
          "name": "",
          "type": "uint256"
        }
      ],
      "stateMutability": "view",
      "type": "function",
      "constant": true
    },
    {
      "inputs": [
        {
          "internalType": "uint256",
          "name": "groupId",
          "type": "uint256"
        },
        {
          "internalType": "uint256",
          "name": "indexerLocation",
          "type": "uint256"
        }
      ],
      "name": "getGroupMembersIndexer",
      "outputs": [
        {
          "internalType": "bool",
          "name": "exist",
          "type": "bool"
        },
        {
          "internalType": "uint256",
          "name": "index",
          "type": "uint256"
        }
      ],
      "stateMutability": "view",
      "type": "function",
      "constant": true
    },
    {
      "inputs": [
        {
          "internalType": "address",
          "name": "depositor",
          "type": "address"
        },
        {
          "internalType": "uint256",
          "name": "indexerLocation",
          "type": "uint256"
        }
      ],
      "name": "getGroupMembersIndexerByDepositor",
      "outputs": [
        {
          "internalType": "bool",
          "name": "exist",
          "type": "bool"
        },
        {
          "internalType": "uint256",
          "name": "index",
          "type": "uint256"
        }
      ],
      "stateMutability": "view",
      "type": "function",
      "constant": true
    },
    {
      "inputs": [
        {
          "internalType": "uint256",
          "name": "groupId",
          "type": "uint256"
        },
        {
          "internalType": "address",
          "name": "depositor",
          "type": "address"
        }
      ],
      "name": "doesGroupMemberExist",
      "outputs": [
        {
          "internalType": "bool",
          "name": "",
          "type": "bool"
        }
      ],
      "stateMutability": "view",
      "type": "function",
      "constant": true
    },
    {
      "inputs": [
        {
          "internalType": "uint256",
          "name": "groupId",
          "type": "uint256"
        }
      ],
      "name": "getGroupIndexer",
      "outputs": [
        {
          "internalType": "bool",
          "name": "exist",
          "type": "bool"
        },
        {
          "internalType": "uint256",
          "name": "index",
          "type": "uint256"
        }
      ],
      "stateMutability": "view",
      "type": "function",
      "constant": true
    },
    {
      "inputs": [
        {
          "internalType": "address",
          "name": "groupCreator",
          "type": "address"
        }
      ],
      "name": "getRecordIndexLengthForCreator",
      "outputs": [
        {
          "internalType": "uint256",
          "name": "",
          "type": "uint256"
        }
      ],
      "stateMutability": "view",
      "type": "function",
      "constant": true
    },
    {
      "inputs": [
        {
          "internalType": "address",
          "name": "groupCreator",
          "type": "address"
        },
        {
          "internalType": "uint256",
          "name": "indexerLocation",
          "type": "uint256"
        }
      ],
      "name": "getGroupForCreatorIndexer",
      "outputs": [
        {
          "internalType": "bool",
          "name": "exist",
          "type": "bool"
        },
        {
          "internalType": "uint256",
          "name": "index",
          "type": "uint256"
        }
      ],
      "stateMutability": "view",
      "type": "function",
      "constant": true
    },
    {
      "inputs": [
        {
          "internalType": "string",
          "name": "groupName",
          "type": "string"
        }
      ],
      "name": "getGroupIndexerByName",
      "outputs": [
        {
          "internalType": "bool",
          "name": "exist",
          "type": "bool"
        },
        {
          "internalType": "uint256",
          "name": "index",
          "type": "uint256"
        }
      ],
      "stateMutability": "view",
      "type": "function",
      "constant": true
    },
    {
      "inputs": [
        {
          "internalType": "uint256",
          "name": "groupId",
          "type": "uint256"
        }
      ],
      "name": "getGroupById",
      "outputs": [
        {
          "internalType": "uint256",
          "name": "",
          "type": "uint256"
        },
        {
          "internalType": "string",
          "name": "",
          "type": "string"
        },
        {
          "internalType": "string",
          "name": "",
          "type": "string"
        },
        {
          "internalType": "address payable",
          "name": "",
          "type": "address"
        }
      ],
      "stateMutability": "view",
      "type": "function",
      "constant": true
    },
    {
      "inputs": [
        {
          "internalType": "uint256",
          "name": "index",
          "type": "uint256"
        }
      ],
      "name": "getGroupByIndex",
      "outputs": [
        {
          "internalType": "uint256",
          "name": "",
          "type": "uint256"
        },
        {
          "internalType": "string",
          "name": "",
          "type": "string"
        },
        {
          "internalType": "string",
          "name": "",
          "type": "string"
        },
        {
          "internalType": "address payable",
          "name": "",
          "type": "address"
        }
      ],
      "stateMutability": "view",
      "type": "function",
      "constant": true
    },
    {
      "inputs": [
        {
          "internalType": "uint256",
          "name": "groupId",
          "type": "uint256"
        }
      ],
      "name": "getGroupIndex",
      "outputs": [
        {
          "internalType": "uint256",
          "name": "",
          "type": "uint256"
        }
      ],
      "stateMutability": "view",
      "type": "function",
      "constant": true
    }
  ],
  "bytecode": "0x608060405260008054600160a060020a0319163317905561253a806100256000396000f3fe608060405234801561001057600080fd5b5060043610610239576000357c01000000000000000000000000000000000000000000000000000000009004806352bc00c4116101425780638edb1a06116100ca578063d73c9de411610099578063d73c9de4146109c2578063daf0cf4314610a02578063e5705a6814610a25578063e824f2b514610a51578063f2fde38b14610a7d57610239565b80638edb1a06146108a35780639a259798146108c9578063c12c8ac214610994578063d1f44278146109ba57610239565b80636cc29ea0116101115780636cc29ea0146108065780636f583ba61461082357806380abc21a1461084957806381ea68fe146108515780638c2248261461087757610239565b806352bc00c4146106d45780635e82c389146106f15780636041fc88146107c35780636b2c46d5146107e957610239565b80632bd10bbc116101c55780633ac179f8116101945780633ac179f8146105e15780634448d5e1146105fe578063458a8c071461062a57806348c889231461069a57806348cf9e5c146106b757610239565b80632bd10bbc146104455780632e367f9f146104745780633037faf1146104a05780633525e9c4146105bb57610239565b80630fdf80ed1161020c5780630fdf80ed14610363578063165301a5146103895780632124d529146103af578063217d1e93146103d55780632ada25961461040357610239565b806308099b5d1461023e57806309080945146102c95780630c202741146102f55780630d15c07d14610323575b600080fd5b6102ae6004803603602081101561025457600080fd5b81019060208101813564010000000081111561026f57600080fd5b82018360208201111561028157600080fd5b803590602001918460018302840111640100000000831117156102a357600080fd5b509092509050610aa3565b60408051921515835260208301919091528051918290030190f35b6102ae600480360360408110156102df57600080fd5b5080359060200135600160a060020a0316610afc565b6103216004803603604081101561030b57600080fd5b5080359060200135600160a060020a0316610b53565b005b61034f6004803603604081101561033957600080fd5b5080359060200135600160a060020a0316610d88565b604080519115158252519081900360200190f35b6103216004803603602081101561037957600080fd5b5035600160a060020a0316610d9b565b61034f6004803603602081101561039f57600080fd5b5035600160a060020a0316610e2a565b610321600480360360208110156103c557600080fd5b5035600160a060020a0316610e3b565b610321600480360360408110156103eb57600080fd5b50600160a060020a0381351690602001351515610fd4565b6104296004803603602081101561041957600080fd5b5035600160a060020a031661104f565b60408051600160a060020a039092168252519081900360200190f35b6104626004803603602081101561045b57600080fd5b50356110ad565b60408051918252519081900360200190f35b6104626004803603604081101561048a57600080fd5b50600160a060020a038135169060200135611166565b6104bd600480360360208110156104b657600080fd5b5035611265565b60405180858152602001806020018060200184600160a060020a0316600160a060020a03168152602001838103835286818151815260200191508051906020019080838360005b8381101561051c578181015183820152602001610504565b50505050905090810190601f1680156105495780820380516001836020036101000a031916815260200191505b50838103825285518152855160209182019187019080838360005b8381101561057c578181015183820152602001610564565b50505050905090810190601f1680156105a95780820380516001836020036101000a031916815260200191505b50965050505050505060405180910390f35b610462600480360360208110156105d157600080fd5b5035600160a060020a03166112db565b610462600480360360208110156105f757600080fd5b50356112f6565b6102ae6004803603604081101561061457600080fd5b50600160a060020a038135169060200135611308565b61034f6004803603602081101561064057600080fd5b81019060208101813564010000000081111561065b57600080fd5b82018360208201111561066d57600080fd5b8035906020019184600183028401116401000000008311171561068f57600080fd5b509092509050611376565b6102ae600480360360208110156106b057600080fd5b50356113b7565b610462600480360360208110156106cd57600080fd5b50356113f9565b610462600480360360208110156106ea57600080fd5b5035611458565b6103216004803603608081101561070757600080fd5b8135919081019060408101602082013564010000000081111561072957600080fd5b82018360208201111561073b57600080fd5b8035906020019184600183028401116401000000008311171561075d57600080fd5b91939092909160208101903564010000000081111561077b57600080fd5b82018360208201111561078d57600080fd5b803590602001918460018302840111640100000000831117156107af57600080fd5b919350915035600160a060020a03166114c1565b610321600480360360208110156107d957600080fd5b5035600160a060020a03166115cd565b61034f600480360360208110156107ff57600080fd5b503561163e565b6104bd6004803603602081101561081c57600080fd5b5035611649565b6103216004803603602081101561083957600080fd5b5035600160a060020a0316611833565b6104626118aa565b6104626004803603602081101561086757600080fd5b5035600160a060020a03166118b1565b6104626004803603604081101561088d57600080fd5b50600160a060020a0381351690602001356118cc565b610462600480360360208110156108b957600080fd5b5035600160a060020a03166119e5565b610462600480360360608110156108df57600080fd5b8101906020810181356401000000008111156108fa57600080fd5b82018360208201111561090c57600080fd5b8035906020019184600183028401116401000000008311171561092e57600080fd5b91939092909160208101903564010000000081111561094c57600080fd5b82018360208201111561095e57600080fd5b8035906020019184600183028401116401000000008311171561098057600080fd5b919350915035600160a060020a0316611a00565b610462600480360360208110156109aa57600080fd5b5035600160a060020a0316611d66565b610462611d81565b6109df600480360360208110156109d857600080fd5b5035611d87565b60408051600160a060020a03909316835260208301919091528051918290030190f35b6102ae60048036036040811015610a1857600080fd5b5080359060200135611def565b61032160048036036040811015610a3b57600080fd5b50600160a060020a038135169060200135611e14565b6102ae60048036036040811015610a6757600080fd5b50600160a060020a038135169060200135611e5d565b61032160048036036020811015610a9357600080fd5b5035600160a060020a0316611e8c565b600080610aae612345565b60058585604051808383808284379190910194855250506040805160209481900385018120818301909252815460ff1615158082526001909201549401849052989297509195505050505050565b600080610b07612345565b5050506000918252600a60209081526040808420600160a060020a03939093168452918152918190208151808301909252805460ff161515808352600190910154919092018190529091565b3360009081526001602052604090205460ff1680610ba9576040805160e560020a62461bcd02815260206004820152601f60248201526000805160206124bd833981519152604482015290519081900360640190fd5b6000610bb58484611f17565b90508015610c0d576040805160e560020a62461bcd02815260206004820152601360248201527f47726f7570206d656d6265722065786973747300000000000000000000000000604482015290519081900360640190fd5b610c15612345565b5060408051808201909152600181526007546020820152610c3461235c565b50604080516060810182526001808252600160a060020a0396871660208084018281528486018b815260008c815260088452878120805480880182559082528482208a516002928302909101805491151560ff199283161781558b87018051918a0191909155878452600987528a84208054808b0182559085528785208d519185020180549115159184169190911781558151908a01559e8352600a865289832096835295909452968720975188549015159085161788559a5196840196909655600780549384018155909452915192027fa66cc928b5edb82af9bd49922954155ab7b0942694bea4ce44661d9a8736c6888101805494519097166101000274ffffffffffffffffffffffffffffffffffffffff001993151594909216939093179190911617909355505090517fa66cc928b5edb82af9bd49922954155ab7b0942694bea4ce44661d9a8736c68990910155565b6000610d948383611f17565b9392505050565b3360009081526001602052604090205460ff1680610df1576040805160e560020a62461bcd02815260206004820152601f60248201526000805160206124bd833981519152604482015290519081900360640190fd5b50336000908152600160208190526040808320805460ff19908116909155600160a060020a039490941683529091208054909216179055565b6000610e3582611f42565b92915050565b3360009081526001602052604090205460ff1680610e91576040805160e560020a62461bcd02815260206004820152601f60248201526000805160206124bd833981519152604482015290519081900360640190fd5b610e99612345565b506040805180820190915260018152600160a060020a03831660208201526000610ec284611f42565b90508015610f1a576040805160e560020a62461bcd02815260206004820152601560248201527f4d656d62657220616c7265616479206578697374730000000000000000000000604482015290519081900360640190fd5b610f22612345565b50506040805180820182526001808252600b805460208085018281528285018455600093845287517f0175b7a638427703f0dbe7bb9bbf987a2551717b34e79f33b5b1008d1fa01db990930180549883015160ff19998a169415159490941774ffffffffffffffffffffffffffffffffffffffff001916610100600160a060020a0395861602179055989091168252600c90529290922090518154909316921515929092178255925192019190915550565b600054600160a060020a03163314611024576040805160e560020a62461bcd02815260206004820152601f60248201526000805160206124bd833981519152604482015290519081900360640190fd5b600160a060020a03919091166000908152600160205260409020805460ff1916911515919091179055565b60008061105b83611f60565b9050611065612345565b600b828154811061107257fe5b60009182526020918290206040805180820190915291015460ff8116151582526101009004600160a060020a03169101819052949350505050565b3360009081526001602052604081205460ff1680611103576040805160e560020a62461bcd02815260206004820152601f60248201526000805160206124bd833981519152604482015290519081900360640190fd5b82600f5410156111475760405160e560020a62461bcd0281526004018080602001828103825260288152602001806124dd6028913960400191505060405180910390fd5b600f5461115a908463ffffffff611ff116565b600f8190559392505050565b3360009081526001602052604081205460ff16806111bc576040805160e560020a62461bcd02815260206004820152601f60248201526000805160206124bd833981519152604482015290519081900360640190fd5b600160a060020a038416600090815260106020526040902054838110156112175760405160e560020a62461bcd0281526004018080602001828103825260288152602001806124dd6028913960400191505060405180910390fd5b600160a060020a038516600090815260106020526040902054611240908563ffffffff611ff116565b600160a060020a03861660009081526010602052604090208190559250505092915050565b336000908152600160205260408120546060908190839060ff16806112c2576040805160e560020a62461bcd02815260206004820152601f60248201526000805160206124bd833981519152604482015290519081900360640190fd5b6112cb86612033565b9450945094509450509193509193565b600160a060020a031660009081526004602052604090205490565b60009081526008602052604090205490565b600080611313612345565b600160a060020a038516600090815260046020526040902080548590811061133757fe5b600091825260209182902060408051808201909152600290920201805460ff161515808352600190910154919092018190529093509150509250929050565b6000610d9483838080601f0160208091040260200160405190810160405280939291908181526020018383808284376000920191909152506120f992505050565b6000806113c2612345565b5050506000908152600360209081526040918290208251808401909352805460ff1615158084526001909101549290910182905291565b3360009081526001602052604081205460ff168061144f576040805160e560020a62461bcd02815260206004820152601f60248201526000805160206124bd833981519152604482015290519081900360640190fd5b610d9483612164565b3360009081526001602052604081205460ff16806114ae576040805160e560020a62461bcd02815260206004820152601f60248201526000805160206124bd833981519152604482015290519081900360640190fd5b600f5461115a908463ffffffff61223916565b3360009081526001602052604090205460ff1680611517576040805160e560020a62461bcd02815260206004820152601f60248201526000805160206124bd833981519152604482015290519081900360640190fd5b600061152288612164565b905086866002838154811061153357fe5b9060005260206000209060040201600101919061155192919061237c565b5084846002838154811061156157fe5b9060005260206000209060040201600201919061157f92919061237c565b50826002828154811061158e57fe5b906000526020600020906004020160030160016101000a815481600160a060020a030219169083600160a060020a031602179055505050505050505050565b600054600160a060020a0316331461161d576040805160e560020a62461bcd02815260206004820152601f60248201526000805160206124bd833981519152604482015290519081900360640190fd5b600160a060020a03166000908152600160205260409020805460ff19169055565b6000610e3582612296565b336000908152600160205260408120546060908190839060ff16806116a6576040805160e560020a62461bcd02815260206004820152601f60248201526000805160206124bd833981519152604482015290519081900360640190fd5b60006116b187612164565b90506000600282815481106116c257fe5b90600052602060002090600402019050806000015481600101826002018360030160019054906101000a9004600160a060020a0316828054600181600116156101000203166002900480601f01602080910402602001604051908101604052809291908181526020018280546001816001161561010002031660029004801561178c5780601f106117615761010080835404028352916020019161178c565b820191906000526020600020905b81548152906001019060200180831161176f57829003601f168201915b5050855460408051602060026001851615610100026000190190941693909304601f81018490048402820184019092528181529598508794509250840190508282801561181a5780601f106117ef5761010080835404028352916020019161181a565b820191906000526020600020905b8154815290600101906020018083116117fd57829003601f168201915b5050505050915096509650965096505050509193509193565b600054600160a060020a03163314611883576040805160e560020a62461bcd02815260206004820152601f60248201526000805160206124bd833981519152604482015290519081900360640190fd5b600160a060020a03166000908152600160208190526040909120805460ff19169091179055565b600e545b90565b600160a060020a031660009081526009602052604090205490565b3360009081526001602052604081205460ff1680611922576040805160e560020a62461bcd02815260206004820152601f60248201526000805160206124bd833981519152604482015290519081900360640190fd5b600160a060020a03841660009081526010602052604090205461199857600e80546001810182556000919091527fbb7b4a454dc3493923482f07822329ed19e8244eff582cc204f8554c3620c3fd01805473ffffffffffffffffffffffffffffffffffffffff1916600160a060020a0386161790555b600160a060020a0384166000908152601060205260409020546119c1908463ffffffff61223916565b600160a060020a038516600090815260106020526040902081905591505092915050565b600160a060020a031660009081526010602052604090205490565b3360009081526001602052604081205460ff1680611a56576040805160e560020a62461bcd02815260206004820152601f60248201526000805160206124bd833981519152604482015290519081900360640190fd5b6000611a9788888080601f0160208091040260200160405190810160405280939291908181526020018383808284376000920191909152506120f992505050565b90508015611aef576040805160e560020a62461bcd02815260206004820181905260248201527f47726f7570206e616d652068617320616c7265616479206265656e2075736564604482015290519081900360640190fd5b600d80546001019055611b006123fa565b6040518060a00160405280600d5481526020018a8a8080601f016020809104026020016040519081016040528093929190818152602001838380828437600092019190915250505090825250604080516020601f8b0181900481028201810190925289815291810191908a908a908190840183828082843760009201919091525050509082525060016020820152600160a060020a038716604090910152600254909150611bac612345565b506040805180820190915260018082526020808301849052600280549283018155600052845160049092027f405787fa12a823e0f2b7631cc41b3ba8828b3321ca811111fa75cd3aa3bb5ace8101928355858201518051879493611c34937f405787fa12a823e0f2b7631cc41b3ba8828b3321ca811111fa75cd3aa3bb5acf01920190612434565b5060408201518051611c50916002840191602090910190612434565b50606082015160039182018054608090940151600160a060020a03166101000274ffffffffffffffffffffffffffffffffffffffff001992151560ff199586161792909216919091179055600d546000908152602091825260409081902084518154901515941693909317835590830151600192909201919091555181906005908d908d908083838082843791909101948552505060408051602094819003850190208551815460ff1990811691151591909117825595850151600191820155600160a060020a039c909c166000908152600485529081208054808e0182559082529084902086516002909202018054909516901515178455505091909101519601959095555050600d54979650505050505050565b600160a060020a031660009081526006602052604090205490565b600f5490565b600080611d9261235c565b60078481548110611d9f57fe5b6000918252602091829020604080516060810182526002909302909101805460ff811615158452600160a060020a0361010090910416938301849052600101549101819052909350915050915091565b600080611dfa612345565b600085815260086020526040902080548590811061133757fe5b600160a060020a038216600090815260066020526040902054611e3d908263ffffffff61223916565b600160a060020a0390921660009081526006602052604090209190915550565b600080611e68612345565b600160a060020a038516600090815260096020526040902080548590811061133757fe5b600054600160a060020a03163314611edc576040805160e560020a62461bcd02815260206004820152601f60248201526000805160206124bd833981519152604482015290519081900360640190fd5b600160a060020a03811615611f14576000805473ffffffffffffffffffffffffffffffffffffffff1916600160a060020a0383161790555b50565b6000918252600a60209081526040808420600160a060020a0393909316845291905290205460ff1690565b600160a060020a03166000908152600c602052604090205460ff1690565b600160a060020a0381166000908152600c602052604081205460ff1680611fd1576040805160e560020a62461bcd02815260206004820152601060248201527f4d656d626572206e6f7420666f756e6400000000000000000000000000000000604482015290519081900360640190fd5b5050600160a060020a03166000908152600c602052604090206001015490565b6000610d9483836040518060400160405280601e81526020017f536166654d6174683a207375627472616374696f6e206f766572666c6f7700008152506122ab565b336000908152600160205260408120546060908190839060ff1680612090576040805160e560020a62461bcd02815260206004820152601f60248201526000805160206124bd833981519152604482015290519081900360640190fd5b6002548681116120ea576040805160e560020a62461bcd02815260206004820152600c60248201527f4f7574206f662072616e67650000000000000000000000000000000000000000604482015290519081900360640190fd5b6000600288815481106116c257fe5b60006005826040518082805190602001908083835b6020831061212d5780518252601f19909201916020918201910161210e565b51815160209384036101000a600019018019909216911617905292019485525060405193849003019092205460ff16949350505050565b3360009081526001602052604081205460ff16806121ba576040805160e560020a62461bcd02815260206004820152601f60248201526000805160206124bd833981519152604482015290519081900360640190fd5b60008381526003602052604090205460ff1680612221576040805160e560020a62461bcd02815260206004820152600f60248201527f47726f7570206e6f7420666f756e640000000000000000000000000000000000604482015290519081900360640190fd5b50505060009081526003602052604090206001015490565b600082820183811015610d94576040805160e560020a62461bcd02815260206004820152601b60248201527f536166654d6174683a206164646974696f6e206f766572666c6f770000000000604482015290519081900360640190fd5b60009081526003602052604090205460ff1690565b6000818484111561233d5760405160e560020a62461bcd0281526004018080602001828103825283818151815260200191508051906020019080838360005b838110156123025781810151838201526020016122ea565b50505050905090810190601f16801561232f5780820380516001836020036101000a031916815260200191505b509250505060405180910390fd5b505050900390565b604080518082019091526000808252602082015290565b604080516060810182526000808252602082018190529181019190915290565b828054600181600116156101000203166002900490600052602060002090601f016020900481019282601f106123bd5782800160ff198235161785556123ea565b828001600101855582156123ea579182015b828111156123ea5782358255916020019190600101906123cf565b506123f69291506124a2565b5090565b6040518060a001604052806000815260200160608152602001606081526020016000151581526020016000600160a060020a031681525090565b828054600181600116156101000203166002900490600052602060002090601f016020900481019282601f1061247557805160ff19168380011785556123ea565b828001600101855582156123ea579182015b828111156123ea578251825591602001919060010190612487565b6118ae91905b808211156123f657600081556001016124a856fe756e617574686f72697a65642061636365737320746f20636f6e7472616374006465706f7369742062616c616e6365206f7665726472616674206973206e6f7420616c6c6f776564a26469706673582212204df71f77e1fe356211efb50c9af7a3928a5b8d6e100e713d1407e6c104d199b464736f6c63430006060033",
  "immutableReferences": {},
  "source": "pragma solidity 0.6.6;\n\nimport \"./IGroupSchema.sol\";\nimport \"./SafeMath.sol\";\nimport \"./StorageOwners.sol\";\n\n\ncontract Groups is IGroupSchema, StorageOwners {\n\n    using SafeMath for uint256;\n\n    // list of group records\n    Group[] private Groups;\n    //Mapping that enables ease of traversal of the group records\n    mapping(uint256 => RecordIndex) private GroupIndexer;\n\n    // Mapping that enables ease of traversal of groups created by an addressor\n    mapping(address => RecordIndex[]) private GroupForCreatorIndexer;\n\n    // indexes a group location using the group name\n    mapping(string => RecordIndex) private GroupIndexerByName;\n\n    mapping(address => uint256) private XendTokensReward;\n\n    GroupMember[] GroupMembers;\n\n    //Mapping of a groups members. Key is the group id,\n    mapping(uint256 => RecordIndex[]) private GroupMembersIndexer;\n\n    mapping(address => RecordIndex[]) private GroupMembersIndexerByDepositor;\n    mapping(uint256 => mapping(address => RecordIndex))\n        private GroupMembersDeepIndexer;\n\n    // list of group records\n    Member[] private Members;\n\n    //Mapping that enables ease of traversal of the member records. key is the member address\n    mapping(address => RecordIndex) private MemberIndexer;\n\n    uint256 lastGroupId;\n\n    address[] tokenAddresses;\n    uint256 totalEthersDeposited;\n    mapping(address => uint256) totalTokensDeposited;\n\n   function getXendTokensReward(address payable receiverAddress)\n        external\n        view\n        returns (uint256)\n    {\n        return XendTokensReward[receiverAddress];\n    }\n\n   function setXendTokensReward(\n        address payable receiverAddress,\n        uint256 amount\n    ) external {\n        XendTokensReward[receiverAddress] = XendTokensReward[receiverAddress]\n            .add(amount);\n    }\n\n    function getLengthOfTokenAddressesUsedInDeposit()\n        external\n        view\n        returns (uint256)\n    {\n        return tokenAddresses.length;\n    }\n\n    function incrementTokenDeposit(address tokenAddress, uint256 amount)\n        external\n        onlyStorageOracle\n        returns (uint256)\n    {\n        if (totalTokensDeposited[tokenAddress] == 0) {\n            tokenAddresses.push(tokenAddress);\n        }\n        totalTokensDeposited[tokenAddress] = totalTokensDeposited[tokenAddress].add(amount);\n        return totalTokensDeposited[tokenAddress];\n    }\n\n    function decrementTokenDeposit(address tokenAddress, uint256 amount)\n        external\n        onlyStorageOracle\n        returns (uint256)\n    {\n        uint256 currentAmount = totalTokensDeposited[tokenAddress];\n        require(\n            currentAmount >= amount,\n            \"deposit balance overdraft is not allowed\"\n        );\n        totalTokensDeposited[tokenAddress] = totalTokensDeposited[tokenAddress].sub(amount);\n        return totalTokensDeposited[tokenAddress];\n    }\n\n    function getTokenDeposit(address tokenAddress)\n        external\n        view\n        returns (uint256)\n    {\n        return totalTokensDeposited[tokenAddress];\n    }\n\n    function incrementEtherDeposit(uint256 amount)\n        external\n        onlyStorageOracle\n        returns (uint256)\n    {\n        totalEthersDeposited = totalEthersDeposited.add(amount);\n        return totalEthersDeposited;\n    }\n\n    function decrementEtherDeposit(uint256 amount)\n        external\n        onlyStorageOracle\n        returns (uint256)\n    {\n        require(\n            totalEthersDeposited >= amount,\n            \"deposit balance overdraft is not allowed\"\n        );\n        totalEthersDeposited = totalEthersDeposited.sub(amount);\n        return totalEthersDeposited;\n    }\n\n    function getEtherDeposit() external view returns (uint256) {\n        return totalEthersDeposited;\n    }\n\n    function createMember(address payable depositor)\n        external\n        onlyStorageOracle\n    {\n        Member memory member = Member(true, depositor);\n\n        bool exist = _doesMemberExist(depositor);\n\n        require(!exist, \"Member already exists\");\n\n        RecordIndex memory recordIndex = RecordIndex(true, Members.length);\n\n        Members.push(member);\n        MemberIndexer[depositor] = recordIndex;\n    }\n\n    function getMember(address _address) external view returns (address) {\n        uint256 index = _getMemberIndex(_address);\n        Member memory member = Members[index];\n\n       return member._address;\n    }\n\n    function _getMemberIndex(address _address) internal view returns (uint256) {\n        bool doesMemberExist = MemberIndexer[_address].exists;\n        require(doesMemberExist, \"Member not found\");\n\n       return MemberIndexer[_address].index;\n      \n    }\n\n    function createGroup(\n        string calldata name,\n        string calldata symbol,\n        address groupCreator\n    ) external onlyStorageOracle returns (uint256) {\n        bool exist = _doesGroupExist(name);\n        require(!exist, \"Group name has already been used\");\n\n        lastGroupId += 1;\n        Group memory group = Group(\n            lastGroupId,\n            name,\n            symbol,\n            true,\n            payable(groupCreator)\n        );\n        uint256 index = Groups.length;\n        RecordIndex memory recordIndex = RecordIndex(true, index);\n        Groups.push(group);\n        GroupIndexer[lastGroupId] = recordIndex;\n        GroupIndexerByName[name] = recordIndex;\n        GroupForCreatorIndexer[groupCreator].push(recordIndex);\n\n        return lastGroupId;\n    }\n\n    function updateGroup(\n        uint256 id,\n        string calldata name,\n        string calldata symbol,\n        address payable creatorAddress\n    ) external onlyStorageOracle {\n        uint256 index = _getGroupIndex(id);\n        Groups[index].name = name;\n        Groups[index].symbol = symbol;\n        Groups[index].creatorAddress = creatorAddress;\n    }\n\n    function doesGroupExist(uint256 groupId) external view returns (bool) {\n        return _doesGroupExist(groupId);\n    }\n\n    function _doesGroupExist(uint256 groupId) internal view returns (bool) {\n       return GroupIndexer[groupId].exists;\n    }\n\n    function doesGroupExist(string calldata groupName)\n        external\n        view\n        returns (bool)\n    {\n        return _doesGroupExist(groupName);\n    }\n\n    function _doesGroupExist(string memory groupName)\n        internal\n        view\n        returns (bool)\n    {\n        return GroupIndexerByName[groupName].exists;\n\n    }\n\n    function doesMemberExist(address depositor) external view returns (bool) {\n        return _doesMemberExist(depositor);\n    }\n\n    function _doesMemberExist(address depositor) internal view returns (bool) {\n        return MemberIndexer[depositor].exists;\n    }\n\n    function createGroupMember(uint256 groupId, address payable depositor)\n        external\n        onlyStorageOracle\n    {\n        bool exist = _doesGroupMemberExist(groupId, depositor);\n        require(!exist, \"Group member exists\");\n\n        RecordIndex memory recordIndex = RecordIndex(true, GroupMembers.length);\n\n        GroupMember memory groupMember = GroupMember(true, depositor, groupId);\n\n        GroupMembersIndexer[groupId].push(recordIndex);\n        GroupMembersIndexerByDepositor[depositor].push(recordIndex);\n        GroupMembersDeepIndexer[groupId][depositor] = recordIndex;\n        GroupMembers.push(groupMember);\n    }\n\n    function getGroupMember(uint256 index)\n        external\n        view\n        returns (address payable _address, uint256 groupId)\n    {\n        GroupMember memory groupMember = GroupMembers[index];\n        return (groupMember._address, groupMember.groupId);\n    }\n\n    function getGroupMembersDeepIndexer(uint256 groupId, address depositor)\n        external\n        view\n        returns (bool exists, uint256 index)\n    {\n\n            RecordIndex memory recordIndex\n         = GroupMembersDeepIndexer[groupId][depositor];\n        return (recordIndex.exists, recordIndex.index);\n    }\n\n    function getRecordIndexLengthForGroupMembersIndexer(uint256 groupId)\n        external\n        view\n        returns (uint256)\n    {\n        return GroupMembersIndexer[groupId].length;\n    }\n\n    function getRecordIndexLengthForGroupMembersIndexerByDepositor(\n        address depositor\n    ) external view returns (uint256) {\n        return GroupMembersIndexerByDepositor[depositor].length;\n    }\n\n    function getGroupMembersIndexer(uint256 groupId, uint256 indexerLocation)\n        external\n        view\n        returns (bool exist, uint256 index)\n    {\n\n            RecordIndex memory recordIndex\n         = GroupMembersIndexer[groupId][indexerLocation];\n        return (recordIndex.exists, recordIndex.index);\n    }\n\n    function getGroupMembersIndexerByDepositor(\n        address depositor,\n        uint256 indexerLocation\n    ) external view returns (bool exist, uint256 index) {\n\n            RecordIndex memory recordIndex\n         = GroupMembersIndexerByDepositor[depositor][indexerLocation];\n        return (recordIndex.exists, recordIndex.index);\n    }\n\n    function doesGroupMemberExist(uint256 groupId, address depositor)\n        external\n        view\n        returns (bool)\n    {\n        return _doesGroupMemberExist(groupId, depositor);\n    }\n\n    function _doesGroupMemberExist(uint256 groupId, address depositor)\n        internal\n        view\n        returns (bool)\n    {\n        return GroupMembersDeepIndexer[groupId][depositor].exists;\n        \n    }\n\n    function getGroupIndexer(uint256 groupId)\n        external\n        view\n        returns (bool exist, uint256 index)\n    {\n        RecordIndex memory recordIndex = GroupIndexer[groupId];\n        return (recordIndex.exists, recordIndex.index);\n    }\n\n    function getRecordIndexLengthForCreator(address groupCreator)\n        external\n        view\n        returns (uint256)\n    {\n        return GroupForCreatorIndexer[groupCreator].length;\n    }\n\n    function getGroupForCreatorIndexer(\n        address groupCreator,\n        uint256 indexerLocation\n    ) external view returns (bool exist, uint256 index) {\n\n            RecordIndex memory recordIndex\n         = GroupForCreatorIndexer[groupCreator][indexerLocation];\n        return (recordIndex.exists, recordIndex.index);\n    }\n\n    function getGroupIndexerByName(string calldata groupName)\n        external\n        view\n        returns (bool exist, uint256 index)\n    {\n        RecordIndex memory recordIndex = GroupIndexerByName[groupName];\n        return (recordIndex.exists, recordIndex.index);\n    }\n\n    function getGroupById(uint256 groupId)\n        external\n        view\n        onlyStorageOracle\n        returns (\n            uint256,\n            string memory,\n            string memory,\n            address payable\n        )\n    {\n        uint256 index = _getGroupIndex(groupId);\n\n        Group storage group = Groups[index];\n        return (group.id, group.name, group.symbol, group.creatorAddress);\n    }\n\n    function getGroupByIndex(uint256 index)\n        external\n        view\n        onlyStorageOracle\n        returns (\n            uint256,\n            string memory,\n            string memory,\n            address payable\n        )\n    {\n        return _getGroupByIndex(index);\n    }\n\n    function _getGroupByIndex(uint256 index)\n        internal\n        view\n        onlyStorageOracle\n        returns (\n            uint256,\n            string memory,\n            string memory,\n            address payable\n        )\n    {\n        uint256 length = Groups.length;\n        require(length > index, \"Out of range\");\n        Group storage group = Groups[index];\n        return (group.id, group.name, group.symbol, group.creatorAddress);\n    }\n\n    function getGroupIndex(uint256 groupId)\n        external\n        view\n        onlyStorageOracle\n        returns (uint256)\n    {\n        return _getGroupIndex(groupId);\n    }\n\n    function _getGroupIndex(uint256 groupId)\n        internal\n        view\n        onlyStorageOracle\n        returns (uint256)\n    {\n        bool doesGroupExist = GroupIndexer[groupId].exists;\n        require(doesGroupExist, \"Group not found\");\n        return GroupIndexer[groupId].index;\n    }\n}\n",
  "sourcePath": "/Users/mac/Desktop/BinaryHiils/yearn-savings/Tests/contracts/Groups.sol",
  "compiler": {
    "name": "solc",
    "version": "0.6.6+commit.6c089d02.Emscripten.clang"
  },
  "schemaVersion": "3.3.2",
  "updatedAt": "2021-02-03T15:04:17.008Z",
  "networkType": "ethereum",
  "devdoc": {
    "methods": {}
  },
  "userdoc": {
    "methods": {}
  }
}