{
  "contractName": "SavingsConfig",
  "abi": [
    {
      "inputs": [
        {
          "internalType": "string",
          "name": "",
          "type": "string"
        }
      ],
      "name": "RuleMapping",
      "outputs": [
        {
          "internalType": "uint256",
          "name": "minimum",
          "type": "uint256"
        },
        {
          "internalType": "uint256",
          "name": "maximum",
          "type": "uint256"
        },
        {
          "internalType": "uint256",
          "name": "exact",
          "type": "uint256"
        },
        {
          "internalType": "bool",
          "name": "applies",
          "type": "bool"
        },
        {
          "internalType": "enum ISavingsConfigSchema.RuleDefinition",
          "name": "ruleDefinition",
          "type": "uint8"
        },
        {
          "internalType": "bool",
          "name": "exists",
          "type": "bool"
        }
      ],
      "stateMutability": "view",
      "type": "function",
      "constant": true
    },
    {
      "inputs": [
        {
          "internalType": "string",
          "name": "",
          "type": "string"
        }
      ],
      "name": "RuleModifier",
      "outputs": [
        {
          "internalType": "address",
          "name": "",
          "type": "address"
        }
      ],
      "stateMutability": "view",
      "type": "function",
      "constant": true
    },
    {
      "inputs": [],
      "name": "owner",
      "outputs": [
        {
          "internalType": "address payable",
          "name": "",
          "type": "address"
        }
      ],
      "stateMutability": "view",
      "type": "function",
      "constant": true
    },
    {
      "inputs": [
        {
          "internalType": "address payable",
          "name": "newOwner",
          "type": "address"
        }
      ],
      "name": "transferOwnership",
      "outputs": [],
      "stateMutability": "nonpayable",
      "type": "function"
    },
    {
      "inputs": [
        {
          "internalType": "string",
          "name": "ruleKey",
          "type": "string"
        }
      ],
      "name": "getRuleSet",
      "outputs": [
        {
          "internalType": "uint256",
          "name": "",
          "type": "uint256"
        },
        {
          "internalType": "uint256",
          "name": "",
          "type": "uint256"
        },
        {
          "internalType": "uint256",
          "name": "",
          "type": "uint256"
        },
        {
          "internalType": "bool",
          "name": "",
          "type": "bool"
        },
        {
          "internalType": "enum ISavingsConfigSchema.RuleDefinition",
          "name": "",
          "type": "uint8"
        }
      ],
      "stateMutability": "nonpayable",
      "type": "function"
    },
    {
      "inputs": [
        {
          "internalType": "string",
          "name": "ruleKey",
          "type": "string"
        }
      ],
      "name": "getRuleManager",
      "outputs": [
        {
          "internalType": "address",
          "name": "",
          "type": "address"
        }
      ],
      "stateMutability": "nonpayable",
      "type": "function"
    },
    {
      "inputs": [
        {
          "internalType": "string",
          "name": "ruleKey",
          "type": "string"
        },
        {
          "internalType": "address",
          "name": "newRuleManager",
          "type": "address"
        }
      ],
      "name": "changeRuleCreator",
      "outputs": [],
      "stateMutability": "nonpayable",
      "type": "function"
    },
    {
      "inputs": [
        {
          "internalType": "string",
          "name": "ruleKey",
          "type": "string"
        },
        {
          "internalType": "uint256",
          "name": "minimum",
          "type": "uint256"
        },
        {
          "internalType": "uint256",
          "name": "maximum",
          "type": "uint256"
        },
        {
          "internalType": "uint256",
          "name": "exact",
          "type": "uint256"
        },
        {
          "internalType": "enum ISavingsConfigSchema.RuleDefinition",
          "name": "ruleDefinition",
          "type": "uint8"
        }
      ],
      "name": "createRule",
      "outputs": [],
      "stateMutability": "nonpayable",
      "type": "function"
    },
    {
      "inputs": [
        {
          "internalType": "string",
          "name": "ruleKey",
          "type": "string"
        },
        {
          "internalType": "uint256",
          "name": "minimum",
          "type": "uint256"
        },
        {
          "internalType": "uint256",
          "name": "maximum",
          "type": "uint256"
        },
        {
          "internalType": "uint256",
          "name": "exact",
          "type": "uint256"
        },
        {
          "internalType": "enum ISavingsConfigSchema.RuleDefinition",
          "name": "ruleDefinition",
          "type": "uint8"
        }
      ],
      "name": "modifyRule",
      "outputs": [],
      "stateMutability": "nonpayable",
      "type": "function"
    },
    {
      "inputs": [
        {
          "internalType": "string",
          "name": "ruleKey",
          "type": "string"
        }
      ],
      "name": "disableRule",
      "outputs": [],
      "stateMutability": "nonpayable",
      "type": "function"
    },
    {
      "inputs": [
        {
          "internalType": "string",
          "name": "ruleKey",
          "type": "string"
        }
      ],
      "name": "enableRule",
      "outputs": [],
      "stateMutability": "nonpayable",
      "type": "function"
    }
  ],
  "bytecode": "0x608060405260008054600160a060020a031916331790556117fb806100256000396000f3fe608060405234801561001057600080fd5b50600436106100c6576000357c01000000000000000000000000000000000000000000000000000000009004806369653f5c1161008e57806369653f5c146103e15780636c021b3b146104665780638da5cb5b14610528578063bb2ab2ee14610530578063e09e630c146105a0578063f2fde38b14610610576100c6565b806333800c62146100cb57806337f2a024146101bd57806340ee684c1461027157806346377439146102e357806364ffd5d61461035c575b600080fd5b610171600480360360208110156100e157600080fd5b8101906020810181356401000000008111156100fc57600080fd5b82018360208201111561010e57600080fd5b8035906020019184600183028401116401000000008311171561013057600080fd5b91908080601f016020809104026020016040519081016040528093929190818152602001838380828437600092019190915250929550610636945050505050565b604051808781526020018681526020018581526020018415151515815260200183600181111561019d57fe5b60ff16815291151560208301525060408051918290030195509350505050f35b61022d600480360360208110156101d357600080fd5b8101906020810181356401000000008111156101ee57600080fd5b82018360208201111561020057600080fd5b8035906020019184600183028401116401000000008311171561022257600080fd5b509092509050610682565b604051808681526020018581526020018481526020018315151515815260200182600181111561025957fe5b60ff1681526020019550505050505060405180910390f35b6102e16004803603602081101561028757600080fd5b8101906020810181356401000000008111156102a257600080fd5b8201836020820111156102b457600080fd5b803590602001918460018302840111640100000000831117156102d657600080fd5b50909250905061079a565b005b6102e1600480360360408110156102f957600080fd5b81019060208101813564010000000081111561031457600080fd5b82018360208201111561032657600080fd5b8035906020019184600183028401116401000000008311171561034857600080fd5b919350915035600160a060020a0316610985565b6102e1600480360360a081101561037257600080fd5b81019060208101813564010000000081111561038d57600080fd5b82018360208201111561039f57600080fd5b803590602001918460018302840111640100000000831117156103c157600080fd5b91935091508035906020810135906040810135906060013560ff16610b25565b6102e1600480360360a08110156103f757600080fd5b81019060208101813564010000000081111561041257600080fd5b82018360208201111561042457600080fd5b8035906020019184600183028401116401000000008311171561044657600080fd5b91935091508035906020810135906040810135906060013560ff16610cac565b61050c6004803603602081101561047c57600080fd5b81019060208101813564010000000081111561049757600080fd5b8201836020820111156104a957600080fd5b803590602001918460018302840111640100000000831117156104cb57600080fd5b91908080601f016020809104026020016040519081016040528093929190818152602001838380828437600092019190915250929550610e76945050505050565b60408051600160a060020a039092168252519081900360200190f35b61050c610e9c565b6102e16004803603602081101561054657600080fd5b81019060208101813564010000000081111561056157600080fd5b82018360208201111561057357600080fd5b8035906020019184600183028401116401000000008311171561059557600080fd5b509092509050610eab565b61050c600480360360208110156105b657600080fd5b8101906020810181356401000000008111156105d157600080fd5b8201836020820111156105e357600080fd5b8035906020019184600183028401116401000000008311171561060557600080fd5b509092509050611090565b6102e16004803603602081101561062657600080fd5b5035600160a060020a03166111b2565b80516020818301810180516001808352938301929094019190912092905281549082015460028301546003909301549192909160ff808216916101008104821691620100009091041686565b6000806000806000610692611667565b6001888860405180838380828437919091019485525050604080516020948190038501812060c0820183528054825260018082015496830196909652600281015492820192909252600382015460ff8082161515606084015291959294506080860193506101009004169081111561070657fe5b600181111561071157fe5b81526003919091015462010000900460ff16151560209091015260a08101519091506107715760405160e560020a62461bcd0281526004018080602001828103825260268152602001806117166026913960400191505060405180910390fd5b8051602082015160408301516060840151608090940151929b919a509850919650945092505050565b81818080601f016020809104026020016040519081016040528093929190818152602001838380828437600092018290525060405185519194506002935085925090819060208401908083835b602083106108065780518252601f1990920191602091820191016107e7565b51815160209384036101000a6000190180199092169116179052920194855250604051938490030190922054600160a060020a03169250503382149050806108585750600054600160a060020a031633145b6108965760405160e560020a62461bcd0281526004018080602001828103825260258152602001806116ab6025913960400191505060405180910390fd5b61089e611667565b6108dd85858080601f01602080910402602001604051908101604052809392919081815260200183838082843760009201919091525061124f92505050565b90508060600151610938576040805160e560020a62461bcd02815260206004820152601c60248201527f52756c652073657420697320616c72656164792064697361626c656400000000604482015290519081900360640190fd5b60006060820152604080516020601f870181900481028201810190925285815261097e9187908790819084018382808284376000920191909152508592506113ff915050565b5050505050565b82828080601f016020809104026020016040519081016040528093929190818152602001838380828437600092018290525060405185519194506002935085925090819060208401908083835b602083106109f15780518252601f1990920191602091820191016109d2565b51815160209384036101000a6000190180199092169116179052920194855250604051938490030190922054600160a060020a0316925050338214905080610a435750600054600160a060020a031633145b610a815760405160e560020a62461bcd0281526004018080602001828103825260258152602001806116ab6025913960400191505060405180910390fd5b600160a060020a038316610ac95760405160e560020a62461bcd02815260040180806020018281038252602b81526020018061179b602b913960400191505060405180910390fd5b826002868660405180838380828437919091019485525050604051928390036020019092208054600160a060020a039490941673ffffffffffffffffffffffffffffffffffffffff199094169390931790925550505050505050565b610b2d611667565b6040518060c00160405280868152602001858152602001848152602001600115158152602001836001811115610b5f57fe5b8152602001600115158152509050610bae87878080601f0160208091040260200160405190810160405280939291908181526020018383808284376000920191909152508592506114e9915050565b80600188886040518083838082843791909101948552505060408051602094819003850190208551815593850151600180860191909155908501516002850155606085015160038501805460ff1916911515919091178082556080870151945090925061ff00191690610100908490811115610c2657fe5b021790555060a08201518160030160026101000a81548160ff021916908315150217905550905050336002888860405180838380828437919091019485525050604051928390036020019092208054600160a060020a039490941673ffffffffffffffffffffffffffffffffffffffff1990941693909317909255505050505050505050565b85858080601f016020809104026020016040519081016040528093929190818152602001838380828437600092018290525060405185519194506002935085925090819060208401908083835b60208310610d185780518252601f199092019160209182019101610cf9565b51815160209384036101000a6000190180199092169116179052920194855250604051938490030190922054600160a060020a0316925050338214905080610d6a5750600054600160a060020a031633145b610da85760405160e560020a62461bcd0281526004018080602001828103825260258152602001806116ab6025913960400191505060405180910390fd5b610db0611667565b610def89898080601f01602080910402602001604051908101604052809392919081815260200183838082843760009201919091525061124f92505050565b8781526020810187905260408101869052600060a0820152905060808101846001811115610e1957fe5b90816001811115610e2657fe5b81525050610e6b89898080601f0160208091040260200160405190810160405280939291908181526020018383808284376000920191909152508592506113ff915050565b505050505050505050565b8051602081830181018051600282529282019190930120915254600160a060020a031681565b600054600160a060020a031681565b81818080601f016020809104026020016040519081016040528093929190818152602001838380828437600092018290525060405185519194506002935085925090819060208401908083835b60208310610f175780518252601f199092019160209182019101610ef8565b51815160209384036101000a6000190180199092169116179052920194855250604051938490030190922054600160a060020a0316925050338214905080610f695750600054600160a060020a031633145b610fa75760405160e560020a62461bcd0281526004018080602001828103825260258152602001806116ab6025913960400191505060405180910390fd5b610faf611667565b610fee85858080601f01602080910402602001604051908101604052809392919081815260200183838082843760009201919091525061124f92505050565b905080606001511561104a576040805160e560020a62461bcd02815260206004820152601b60248201527f52756c652073657420697320616c726561647920656e61626c65640000000000604482015290519081900360640190fd5b60016060820152604080516020601f870181900481028201810190925285815261097e9187908790819084018382808284376000920191909152508592506113ff915050565b600061109a611667565b6001848460405180838380828437919091019485525050604080516020948190038501812060c0820183528054825260018082015496830196909652600281015492820192909252600382015460ff8082161515606084015291959294506080860193506101009004169081111561110e57fe5b600181111561111957fe5b81526003919091015462010000900460ff16151560209091015260a08101519091506111795760405160e560020a62461bcd0281526004018080602001828103825260268152602001806117166026913960400191505060405180910390fd5b60028484604051808383808284379190910194855250506040519283900360200190922054600160a060020a0316935050505092915050565b600054600160a060020a03163314611214576040805160e560020a62461bcd02815260206004820152601f60248201527f556e617574686f72697a65642061636365737320746f20636f6e747261637400604482015290519081900360640190fd5b600160a060020a0381161561124c576000805473ffffffffffffffffffffffffffffffffffffffff1916600160a060020a0383161790555b50565b611257611667565b60006001836040518082805190602001908083835b6020831061128b5780518252601f19909201916020918201910161126c565b51815160209384036101000a600019018019909216911617905292019485525060405193849003019092206003015462010000900460ff16925082915061131e9050576040805160e560020a62461bcd02815260206004820152601360248201527f52756c6520646f6573206e6f7420657869737400000000000000000000000000604482015290519081900360640190fd5b6001836040518082805190602001908083835b602083106113505780518252601f199092019160209182019101611331565b518151602093840361010090810a60001901801990931692909116919091179091529190930195865260408051968790038401872060c0880182528054885260018082015495890195909552600281015491880191909152600381015460ff808216151560608a015291965060808801955091909104169182111590506113d357fe5b60018111156113de57fe5b81526003919091015462010000900460ff1615156020909101529392505050565b806001836040518082805190602001908083835b602083106114325780518252601f199092019160209182019101611413565b518151602093840361010090810a600019018019909316929091169190911790915291909301958652604080519687900384019096208751815592870151600180850191909155958701516002840155606087015160038401805460ff1916911515919091178082556080890151949794965090945061ff0019169290915084908111156114bc57fe5b021790555060a0919091015160039091018054911515620100000262ff0000199092169190911790555050565b60006001836040518082805190602001908083835b6020831061151d5780518252601f1990920191602091820191016114fe565b51815160209384036101000a600019018019909216911617905292019485525060405193849003019092206003015462010000900460ff169250508115905061159a5760405160e560020a62461bcd02815260040180806020018281038252602781526020018061173c6027913960400191505060405180910390fd5b6000826080015160018111156115ac57fe5b14156115fb576040820151156115f65760405160e560020a62461bcd0281526004018080602001828103825260388152602001806117636038913960400191505060405180910390fd5b611662565b60018260800151600181111561160d57fe5b141561166257815115801561162457506020820151155b6116625760405160e560020a62461bcd0281526004018080602001828103825260468152602001806116d06046913960600191505060405180910390fd5b505050565b6040518060c001604052806000815260200160008152602001600081526020016000151581526020016000600181111561169d57fe5b815260006020909101529056fe63616e6e6f74206d6f646966792072756c652c207065726d697373696f6e2064656e69656452756c6520646566696e6974696f6e20666f722076616c75652072657175697265732074686174206d696e696d756d20616e64206d6178696d756d206669656c6420697320304e6f2072756c6520646566696e6974696f6e7320666f756e6420666f722072756c65206b657952756c6520636f6e66696775726174696f6e2068617320616c7265616479206265656e2073657452756c6520646566696e6974696f6e20666f722072616e67652072657175697265732074686174206578616374206669656c642069732030496e76616c696420616464726573732070617373656420666f72206e65772072756c65206d616e61676572a26469706673582212206e407898fa732881c11a3366aa78214089d119d44997eca9168ad09da3489ab764736f6c63430006060033",
  "immutableReferences": {},
  "source": "pragma solidity 0.6.6;\nimport \"./SafeMath.sol\";\nimport \"./Ownable.sol\";\nimport \"./ISavingsConfigSchema.sol\";\n\ncontract SavingsConfig is ISavingsConfigSchema, Ownable {\n    using SafeMath for uint256;\n\n    mapping(string => RuleSet) public RuleMapping;\n    mapping(string => address) public RuleModifier;\n\n    function getRuleSet(string calldata ruleKey)\n        external\n        returns (\n            uint256,\n            uint256,\n            uint256,\n            bool,\n            RuleDefinition\n        )\n    {\n        RuleSet memory ruleSet = RuleMapping[ruleKey];\n\n        require(\n            ruleSet.exists,\n            \"No rule definitions found for rule key\"\n        );\n\n        return (\n            ruleSet.minimum,\n            ruleSet.maximum,\n            ruleSet.exact,\n            ruleSet.applies,\n            ruleSet.ruleDefinition\n        );\n    }\n\n    function getRuleManager(string calldata ruleKey)\n        external\n        returns (address)\n    {\n        RuleSet memory ruleSet = RuleMapping[ruleKey];\n        require(\n            ruleSet.exists,\n            \"No rule definitions found for rule key\"\n        );\n        return  RuleModifier[ruleKey];\n    }\n\n    function changeRuleCreator(string calldata ruleKey, address newRuleManager)\n        external\n        onlyRuleCreatorOrOwner(ruleKey)\n    {\n        require(\n            newRuleManager != address(0),\n            \"Invalid address passed for new rule manager\"\n        );\n        RuleModifier[ruleKey] = newRuleManager;\n    }\n\n    function createRule(\n        string calldata ruleKey,\n        uint256 minimum,\n        uint256 maximum,\n        uint256 exact,\n        RuleDefinition ruleDefinition\n    ) external {\n        RuleSet memory rule = RuleSet(\n           minimum,\n            maximum,\n            exact,\n            true,\n            ruleDefinition,\n             true\n        );\n        _validateRuleCreation(ruleKey, rule);\n        RuleMapping[ruleKey] = rule;\n        RuleModifier[ruleKey] = msg.sender;\n    }\n\n    function modifyRule(\n        string calldata ruleKey,\n        uint256 minimum,\n        uint256 maximum,\n        uint256 exact,\n        RuleDefinition ruleDefinition\n    ) external onlyRuleCreatorOrOwner(ruleKey) {\n        RuleSet memory ruleSet = _getRule(ruleKey);\n        ruleSet.minimum = minimum;\n        ruleSet.maximum = maximum;\n        ruleSet.exact = exact;\n        ruleSet.exists = false;\n        ruleSet.ruleDefinition = ruleDefinition;\n        _saveRule(ruleKey, ruleSet);\n    }\n\n    function disableRule(string calldata ruleKey)\n        external\n        onlyRuleCreatorOrOwner(ruleKey)\n    {\n        RuleSet memory ruleSet = _getRule(ruleKey);\n        require(ruleSet.applies, \"Rule set is already disabled\");\n        ruleSet.applies = false;\n        _saveRule(ruleKey, ruleSet);\n    }\n\n    function enableRule(string calldata ruleKey)\n        external\n        onlyRuleCreatorOrOwner(ruleKey)\n    {\n        RuleSet memory ruleSet = _getRule(ruleKey);\n        require(!ruleSet.applies, \"Rule set is already enabled\");\n        ruleSet.applies = true;\n        _saveRule(ruleKey, ruleSet);\n    }\n\n    function _getRule(string memory ruleKey) internal returns (RuleSet memory) {\n        bool ruleExist = RuleMapping[ruleKey].exists;\n        require(ruleExist, \"Rule does not exist\");\n        return RuleMapping[ruleKey];\n        \n    }\n\n    function _saveRule(string memory ruleKey, RuleSet memory ruleSet) internal {\n        RuleMapping[ruleKey] = ruleSet;\n    }\n\n    function _validateRuleCreation(string memory ruleKey, RuleSet memory rule)\n        internal\n    {\n        bool ruleExist = RuleMapping[ruleKey].exists;\n        require(!ruleExist, \"Rule configuration has already been set\");\n\n        if (rule.ruleDefinition == RuleDefinition.RANGE) {\n            require(\n                rule.exact == 0,\n                \"Rule definition for range requires that exact field is 0\"\n            );\n        } else if (rule.ruleDefinition == RuleDefinition.VALUE) {\n            require(\n                rule.minimum == 0 && rule.maximum == 0,\n                \"Rule definition for value requires that minimum and maximum field is 0\"\n            );\n        }\n    }\n\n    modifier onlyRuleCreatorOrOwner(string memory ruleKey) {\n        address ruleCreator = RuleModifier[ruleKey];\n\n        require(\n            msg.sender == ruleCreator || msg.sender == owner,\n            \"cannot modify rule, permission denied\"\n        );\n        _;\n    }\n}\n",
  "sourcePath": "/Users/mac/Desktop/BinaryHiils/yearn-savings/Tests/contracts/SavingsConfig.sol",
  "compiler": {
    "name": "solc",
    "version": "0.6.6+commit.6c089d02.Emscripten.clang"
  },
  "schemaVersion": "3.3.2",
  "updatedAt": "2021-02-03T15:04:17.050Z",
  "networkType": "ethereum",
  "devdoc": {
    "methods": {}
  },
  "userdoc": {
    "methods": {}
  }
}