{
  "contractName": "StorageOwners",
  "abi": [
    {
      "inputs": [],
      "stateMutability": "nonpayable",
      "type": "constructor"
    },
    {
      "inputs": [
        {
          "internalType": "address",
          "name": "oracle",
          "type": "address"
        },
        {
          "internalType": "bool",
          "name": "status",
          "type": "bool"
        }
      ],
      "name": "changeStorageOracleStatus",
      "outputs": [],
      "stateMutability": "nonpayable",
      "type": "function"
    },
    {
      "inputs": [
        {
          "internalType": "address",
          "name": "oracle",
          "type": "address"
        }
      ],
      "name": "activateStorageOracle",
      "outputs": [],
      "stateMutability": "nonpayable",
      "type": "function"
    },
    {
      "inputs": [
        {
          "internalType": "address",
          "name": "oracle",
          "type": "address"
        }
      ],
      "name": "deactivateStorageOracle",
      "outputs": [],
      "stateMutability": "nonpayable",
      "type": "function"
    },
    {
      "inputs": [
        {
          "internalType": "address",
          "name": "newOracle",
          "type": "address"
        }
      ],
      "name": "reAssignStorageOracle",
      "outputs": [],
      "stateMutability": "nonpayable",
      "type": "function"
    },
    {
      "inputs": [
        {
          "internalType": "address payable",
          "name": "newOwner",
          "type": "address"
        }
      ],
      "name": "transferOwnership",
      "outputs": [],
      "stateMutability": "nonpayable",
      "type": "function"
    }
  ],
  "bytecode": "0x608060405234801561001057600080fd5b5060008054600160a060020a03191633179055610413806100326000396000f3fe608060405234801561001057600080fd5b5060043610610073577c010000000000000000000000000000000000000000000000000000000060003504630fdf80ed8114610078578063217d1e93146100a05780636041fc88146100ce5780636f583ba6146100f4578063f2fde38b1461011a575b600080fd5b61009e6004803603602081101561008e57600080fd5b5035600160a060020a0316610140565b005b61009e600480360360408110156100b657600080fd5b50600160a060020a03813516906020013515156101cf565b61009e600480360360208110156100e457600080fd5b5035600160a060020a031661024a565b61009e6004803603602081101561010a57600080fd5b5035600160a060020a03166102bb565b61009e6004803603602081101561013057600080fd5b5035600160a060020a0316610332565b3360009081526001602052604090205460ff1680610196576040805160e560020a62461bcd02815260206004820152601f60248201526000805160206103be833981519152604482015290519081900360640190fd5b50336000908152600160208190526040808320805460ff19908116909155600160a060020a039490941683529091208054909216179055565b600054600160a060020a0316331461021f576040805160e560020a62461bcd02815260206004820152601f60248201526000805160206103be833981519152604482015290519081900360640190fd5b600160a060020a03919091166000908152600160205260409020805460ff1916911515919091179055565b600054600160a060020a0316331461029a576040805160e560020a62461bcd02815260206004820152601f60248201526000805160206103be833981519152604482015290519081900360640190fd5b600160a060020a03166000908152600160205260409020805460ff19169055565b600054600160a060020a0316331461030b576040805160e560020a62461bcd02815260206004820152601f60248201526000805160206103be833981519152604482015290519081900360640190fd5b600160a060020a03166000908152600160208190526040909120805460ff19169091179055565b600054600160a060020a03163314610382576040805160e560020a62461bcd02815260206004820152601f60248201526000805160206103be833981519152604482015290519081900360640190fd5b600160a060020a038116156103ba576000805473ffffffffffffffffffffffffffffffffffffffff1916600160a060020a0383161790555b5056fe756e617574686f72697a65642061636365737320746f20636f6e747261637400a2646970667358221220901a6e07843b6567d149bc33a05f489b554afbf85a03446a062915bbac618aa564736f6c63430006060033",
  "immutableReferences": {},
  "source": "pragma solidity 0.6.6;\n\ncontract StorageOwners {\n    address owner;\n    mapping(address => bool) private storageOracles;\n\n    constructor() public {\n        owner = msg.sender;\n    }\n\n    function changeStorageOracleStatus(address oracle, bool status) external onlyOwner {\n        storageOracles[oracle] = status;\n}\n  function activateStorageOracle(address oracle) external onlyOwner {\n        storageOracles[oracle] = true;\n    }\n\n    function deactivateStorageOracle(address oracle) external onlyOwner {\n        storageOracles[oracle] = false;\n    }\n\n    function reAssignStorageOracle(address newOracle)\n        external\n        onlyStorageOracle\n    {\n        storageOracles[msg.sender] = false;\n        storageOracles[newOracle] = true;\n    }\n\n    function transferOwnership(address payable newOwner) public onlyOwner {\n        if (newOwner != address(0)) {\n            owner = newOwner;\n        }\n\n        // require(newOwner == address(0), \"new owneru\");\n    }\n\n    modifier onlyOwner() {\n        require(msg.sender == owner, \"unauthorized access to contract\");\n        _;\n    }\n\n    modifier onlyStorageOracle() {\n        bool hasAccess = storageOracles[msg.sender];\n        require(hasAccess, \"unauthorized access to contract\");\n        _;\n    }\n}\n",
  "sourcePath": "/Users/mac/Desktop/BinaryHiils/yearn-savings/Tests/contracts/StorageOwners.sol",
  "compiler": {
    "name": "solc",
    "version": "0.6.6+commit.6c089d02.Emscripten.clang"
  },
  "schemaVersion": "3.3.2",
  "updatedAt": "2021-02-03T07:10:43.782Z",
  "devdoc": {
    "methods": {}
  },
  "userdoc": {
    "methods": {}
  }
}