{
  "contractName": "XendFinanceIndividual_Yearn_V1",
  "abi": [
    {
      "inputs": [
        {
          "internalType": "address",
          "name": "lendingAdapterAddress",
          "type": "address"
        },
        {
          "internalType": "address",
          "name": "lendingServiceAddress",
          "type": "address"
        },
        {
          "internalType": "address",
          "name": "tokenAddress",
          "type": "address"
        },
        {
          "internalType": "address",
          "name": "clientRecordStorageAddress",
          "type": "address"
        },
        {
          "internalType": "address",
          "name": "savingsConfigAddress",
          "type": "address"
        },
        {
          "internalType": "address",
          "name": "derivativeTokenAddress",
          "type": "address"
        },
        {
          "internalType": "address",
          "name": "treasuryAddress",
          "type": "address"
        }
      ],
      "stateMutability": "nonpayable",
      "type": "constructor"
    },
    {
      "anonymous": false,
      "inputs": [
        {
          "indexed": false,
          "internalType": "address payable",
          "name": "user",
          "type": "address"
        },
        {
          "indexed": false,
          "internalType": "uint256",
          "name": "underlyingAmount",
          "type": "uint256"
        },
        {
          "indexed": false,
          "internalType": "uint256",
          "name": "derivativeAmount",
          "type": "uint256"
        },
        {
          "indexed": false,
          "internalType": "uint256",
          "name": "balance",
          "type": "uint256"
        }
      ],
      "name": "DerivativeAssetWithdrawn",
      "type": "event"
    },
    {
      "anonymous": false,
      "inputs": [
        {
          "indexed": false,
          "internalType": "address payable",
          "name": "user",
          "type": "address"
        },
        {
          "indexed": false,
          "internalType": "uint256",
          "name": "underlyingAmount",
          "type": "uint256"
        },
        {
          "indexed": false,
          "internalType": "uint256",
          "name": "derivativeAmount",
          "type": "uint256"
        },
        {
          "indexed": false,
          "internalType": "uint256",
          "name": "balance",
          "type": "uint256"
        }
      ],
      "name": "UnderlyingAssetDeposited",
      "type": "event"
    },
    {
      "inputs": [],
      "name": "owner",
      "outputs": [
        {
          "internalType": "address payable",
          "name": "",
          "type": "address"
        }
      ],
      "stateMutability": "view",
      "type": "function"
    },
    {
      "inputs": [
        {
          "internalType": "address payable",
          "name": "newOwner",
          "type": "address"
        }
      ],
      "name": "transferOwnership",
      "outputs": [],
      "stateMutability": "nonpayable",
      "type": "function"
    },
    {
      "inputs": [
        {
          "internalType": "address",
          "name": "newServiceAddress",
          "type": "address"
        }
      ],
      "name": "deprecateContract",
      "outputs": [],
      "stateMutability": "nonpayable",
      "type": "function"
    },
    {
      "inputs": [
        {
          "internalType": "address",
          "name": "depositor",
          "type": "address"
        }
      ],
      "name": "doesClientRecordExist",
      "outputs": [
        {
          "internalType": "bool",
          "name": "",
          "type": "bool"
        }
      ],
      "stateMutability": "view",
      "type": "function"
    },
    {
      "inputs": [
        {
          "internalType": "address",
          "name": "depositor",
          "type": "address"
        }
      ],
      "name": "getClientRecord",
      "outputs": [
        {
          "internalType": "address payable",
          "name": "_address",
          "type": "address"
        },
        {
          "internalType": "uint256",
          "name": "underlyingTotalDeposits",
          "type": "uint256"
        },
        {
          "internalType": "uint256",
          "name": "underlyingTotalWithdrawn",
          "type": "uint256"
        },
        {
          "internalType": "uint256",
          "name": "derivativeBalance",
          "type": "uint256"
        },
        {
          "internalType": "uint256",
          "name": "derivativeTotalDeposits",
          "type": "uint256"
        },
        {
          "internalType": "uint256",
          "name": "derivativeTotalWithdrawn",
          "type": "uint256"
        }
      ],
      "stateMutability": "nonpayable",
      "type": "function"
    },
    {
      "inputs": [],
      "name": "getClientRecord",
      "outputs": [
        {
          "internalType": "address payable",
          "name": "_address",
          "type": "address"
        },
        {
          "internalType": "uint256",
          "name": "underlyingTotalDeposits",
          "type": "uint256"
        },
        {
          "internalType": "uint256",
          "name": "underlyingTotalWithdrawn",
          "type": "uint256"
        },
        {
          "internalType": "uint256",
          "name": "derivativeBalance",
          "type": "uint256"
        },
        {
          "internalType": "uint256",
          "name": "derivativeTotalDeposits",
          "type": "uint256"
        },
        {
          "internalType": "uint256",
          "name": "derivativeTotalWithdrawn",
          "type": "uint256"
        }
      ],
      "stateMutability": "nonpayable",
      "type": "function"
    },
    {
      "inputs": [
        {
          "internalType": "uint256",
          "name": "index",
          "type": "uint256"
        }
      ],
      "name": "getClientRecordByIndex",
      "outputs": [
        {
          "internalType": "address payable",
          "name": "_address",
          "type": "address"
        },
        {
          "internalType": "uint256",
          "name": "underlyingTotalDeposits",
          "type": "uint256"
        },
        {
          "internalType": "uint256",
          "name": "underlyingTotalWithdrawn",
          "type": "uint256"
        },
        {
          "internalType": "uint256",
          "name": "derivativeBalance",
          "type": "uint256"
        },
        {
          "internalType": "uint256",
          "name": "derivativeTotalDeposits",
          "type": "uint256"
        },
        {
          "internalType": "uint256",
          "name": "derivativeTotalWithdrawn",
          "type": "uint256"
        }
      ],
      "stateMutability": "nonpayable",
      "type": "function"
    },
    {
      "inputs": [
        {
          "internalType": "uint256",
          "name": "derivativeAmount",
          "type": "uint256"
        }
      ],
      "name": "withdraw",
      "outputs": [],
      "stateMutability": "nonpayable",
      "type": "function"
    },
    {
      "inputs": [
        {
          "internalType": "address payable",
          "name": "recipient",
          "type": "address"
        },
        {
          "internalType": "uint256",
          "name": "derivativeAmount",
          "type": "uint256"
        }
      ],
      "name": "withdrawDelegate",
      "outputs": [],
      "stateMutability": "nonpayable",
      "type": "function"
    },
    {
      "inputs": [],
      "name": "deposit",
      "outputs": [],
      "stateMutability": "nonpayable",
      "type": "function"
    },
    {
      "inputs": [
        {
          "internalType": "address payable",
          "name": "depositorAddress",
          "type": "address"
        }
      ],
      "name": "depositDelegate",
      "outputs": [],
      "stateMutability": "nonpayable",
      "type": "function"
    }
  ],
  "bytecode": "0x60806040526006805460a060020a60ff021916905534801561002057600080fd5b50604051612158380380612158833981810160405260e081101561004357600080fd5b508051602082015160408301516060840151608085015160a086015160c0909601516000805433600160a060020a0319918216178255600180548216600160a060020a0398891617905560028054821696881696871790556003805482169588169590951790945560078054851697871697909717909655600480548416928616929092179091556005805483169685169690961790955560068054821693909516928317909455600880548516909217909155600980549093161790915561204690819061011290396000f3fe608060405234801561001057600080fd5b50600436106100ad5760003560e060020a90048063a53b0a0a11610075578063a53b0a0a14610181578063d0e30db0146101e4578063da26ec22146101ec578063e08c694c14610212578063e6a71e611461022f578063f2fde38b14610237576100ad565b8063242222e0146100b25780632adc57a6146100da5780632e1a7d4d146101145780637d6633d0146101315780638da5cb5b1461015d575b600080fd5b6100d8600480360360208110156100c857600080fd5b5035600160a060020a031661025d565b005b610100600480360360208110156100f057600080fd5b5035600160a060020a03166104cf565b604080519115158252519081900360200190f35b6100d86004803603602081101561012a57600080fd5b50356105b6565b6100d86004803603604081101561014757600080fd5b50600160a060020a038135169060200135610611565b6101656106b7565b60408051600160a060020a039092168252519081900360200190f35b6101a76004803603602081101561019757600080fd5b5035600160a060020a03166106c6565b60408051600160a060020a0390971687526020870195909552858501939093526060850191909152608084015260a0830152519081900360c00190f35b6100d8610764565b6100d86004803603602081101561020257600080fd5b5035600160a060020a03166107bd565b6101a76004803603602081101561022857600080fd5b5035610862565b6101a76108cc565b6100d86004803603602081101561024d57600080fd5b5035600160a060020a0316610969565b600054600160a060020a031633146102ad576040805160e560020a62461bcd02815260206004820152601f6024820152600080516020611ee9833981519152604482015290519081900360640190fd5b60065460a060020a900460ff16156102f95760405160e560020a62461bcd028152600401808060200182810382526024815260200180611f2f6024913960400191505060405180910390fd5b6006805474ff0000000000000000000000000000000000000000191660a060020a179055600354604080517f0fdf80ed000000000000000000000000000000000000000000000000000000008152600160a060020a03848116600483015291519190921691630fdf80ed91602480830192600092919082900301818387803b15801561038457600080fd5b505af1158015610398573d6000803e3d6000fd5b5050600554604080517f70a08231000000000000000000000000000000000000000000000000000000008152306004820152905160009450600160a060020a0390921692506370a08231916024808301926020929190829003018186803b15801561040257600080fd5b505afa158015610416573d6000803e3d6000fd5b505050506040513d602081101561042c57600080fd5b5051600554604080517fa9059cbb000000000000000000000000000000000000000000000000000000008152600160a060020a03868116600483015260248201859052915193945091169163a9059cbb916044808201926020929091908290030181600087803b15801561049f57600080fd5b505af11580156104b3573d6000803e3d6000fd5b505050506040513d60208110156104c957600080fd5b50505050565b60065460009060a060020a900460ff161561051e5760405160e560020a62461bcd028152600401808060200182810382526024815260200180611f2f6024913960400191505060405180910390fd5b600354604080517f2adc57a6000000000000000000000000000000000000000000000000000000008152600160a060020a03858116600483015291519190921691632adc57a6916024808301926020929190829003018186803b15801561058457600080fd5b505afa158015610598573d6000803e3d6000fd5b505050506040513d60208110156105ae57600080fd5b505192915050565b60065460a060020a900460ff16156106025760405160e560020a62461bcd028152600401808060200182810382526024815260200180611f2f6024913960400191505060405180910390fd5b3361060d81836109f5565b5050565b60065460a060020a900460ff161561065d5760405160e560020a62461bcd028152600401808060200182810382526024815260200180611f2f6024913960400191505060405180910390fd5b600054600160a060020a031633146106ad576040805160e560020a62461bcd02815260206004820152601f6024820152600080516020611ee9833981519152604482015290519081900360640190fd5b61060d82826109f5565b600054600160a060020a031681565b6006546000908190819081908190819060a060020a900460ff161561071f5760405160e560020a62461bcd028152600401808060200182810382526024815260200180611f2f6024913960400191505060405180910390fd5b610727611e39565b61073088610e62565b602081015160408201516060830151608084015160a085015160c090950151939d929c50909a509850919650945092505050565b60065460a060020a900460ff16156107b05760405160e560020a62461bcd028152600401808060200182810382526024815260200180611f2f6024913960400191505060405180910390fd5b336107ba81610f73565b50565b60065460a060020a900460ff16156108095760405160e560020a62461bcd028152600401808060200182810382526024815260200180611f2f6024913960400191505060405180910390fd5b600054600160a060020a03163314610859576040805160e560020a62461bcd02815260206004820152601f6024820152600080516020611ee9833981519152604482015290519081900360640190fd5b6107ba81610f73565b6006546000908190819081908190819060a060020a900460ff16156108bb5760405160e560020a62461bcd028152600401808060200182810382526024815260200180611f2f6024913960400191505060405180910390fd5b6108c3611e39565b6107308861155d565b6006546000908190819081908190819060a060020a900460ff16156109255760405160e560020a62461bcd028152600401808060200182810382526024815260200180611f2f6024913960400191505060405180910390fd5b61092d611e39565b61093633610e62565b602081015160408201516060830151608084015160a085015160c090950151939c929b5090995097509195509350915050565b600054600160a060020a031633146109b9576040805160e560020a62461bcd02815260206004820152601f6024820152600080516020611ee9833981519152604482015290519081900360640190fd5b600160a060020a038116156107ba5760008054600160a060020a03831673ffffffffffffffffffffffffffffffffffffffff1990911617905550565b6109ff82826115ca565b50600154604080517f77f1a4af0000000000000000000000000000000000000000000000000000000081529051600092600160a060020a0316916377f1a4af916004808301926020929190829003018186803b158015610a5e57600080fd5b505afa158015610a72573d6000803e3d6000fd5b505050506040513d6020811015610a8857600080fd5b5051600154604080517f6583d12a000000000000000000000000000000000000000000000000000000008152600481018690529051929350600160a060020a0390911691636583d12a9160248082019260009290919082900301818387803b158015610af357600080fd5b505af1158015610b07573d6000803e3d6000fd5b505050506000600160009054906101000a9004600160a060020a0316600160a060020a03166377f1a4af6040518163ffffffff1660e060020a02815260040160206040518083038186803b158015610b5e57600080fd5b505afa158015610b72573d6000803e3d6000fd5b505050506040513d6020811015610b8857600080fd5b505190506000610b9e838363ffffffff61162f16565b90506000610bab8261167a565b90506000610bbf838363ffffffff61162f16565b600254604080517fa9059cbb000000000000000000000000000000000000000000000000000000008152600160a060020a038b81166004830152602482018590529151939450600093919092169163a9059cbb91604480830192602092919082900301818787803b158015610c3357600080fd5b505af1158015610c47573d6000803e3d6000fd5b505050506040513d6020811015610c5d57600080fd5b50519050600181151514610cbb576040805160e560020a62461bcd02815260206004820152601d60248201527f436f756c64206e6f7420636f6d706c657465207769746864726177616c000000604482015290519081900360640190fd5b8215610de257600254600854604080517f095ea7b3000000000000000000000000000000000000000000000000000000008152600160a060020a039283166004820152602481018790529051919092169163095ea7b39160448083019260209291908290030181600087803b158015610d3357600080fd5b505af1158015610d47573d6000803e3d6000fd5b505050506040513d6020811015610d5d57600080fd5b5050600654600954604080517f2fd55265000000000000000000000000000000000000000000000000000000008152600160a060020a03928316600482015290519190921691632fd5526591602480830192600092919082900301818387803b158015610dc957600080fd5b505af1158015610ddd573d6000803e3d6000fd5b505050505b610dea611e39565b610df589868a611700565b9050610e0081611774565b60808082015160408051600160a060020a038d168152602081018990528082018c90526060810192909252517fd5468dee606e30ba003497bfa4b158e7a8b1134f21a820a3d72e4b3d8af8514f929181900390910190a1505050505050505050565b610e6a611e39565b600354604080517f7c79ed46000000000000000000000000000000000000000000000000000000008152600160a060020a0385811660048301529151600093849384938493849384931691637c79ed469160248083019260c0929190829003018186803b158015610eda57600080fd5b505afa158015610eee573d6000803e3d6000fd5b505050506040513d60c0811015610f0457600080fd5b50805160208083015160408085015160608087015160808089015160a0998a0151865160e08101885260018152600160a060020a03909a16988a01989098529488019590955290860191909152918401919091529282019290925260c081019190915298975050505050505050565b600254604080517fdd62ed3e000000000000000000000000000000000000000000000000000000008152600160a060020a03848116600483015230602483018190529251929360009391169163dd62ed3e916044808301926020929190829003018186803b158015610fe457600080fd5b505afa158015610ff8573d6000803e3d6000fd5b505050506040513d602081101561100e57600080fd5b50519050806110515760405160e560020a62461bcd028152600401808060200182810382526031815260200180611e826031913960400191505060405180910390fd5b600254604080517f23b872dd000000000000000000000000000000000000000000000000000000008152600160a060020a038681166004830152858116602483015260448201859052915160009392909216916323b872dd9160648082019260209290919082900301818787803b1580156110cb57600080fd5b505af11580156110df573d6000803e3d6000fd5b505050506040513d60208110156110f557600080fd5b5051905060018115151461113d5760405160e560020a62461bcd028152600401808060200182810382526036815260200180611eb36036913960400191505060405180910390fd5b600254600754604080517f095ea7b3000000000000000000000000000000000000000000000000000000008152600160a060020a039283166004820152602481018690529051919092169163095ea7b39160448083019260209291908290030181600087803b1580156111af57600080fd5b505af11580156111c3573d6000803e3d6000fd5b505050506040513d60208110156111d957600080fd5b5050600154604080517f0db8d01e0000000000000000000000000000000000000000000000000000000081529051600092600160a060020a031691630db8d01e916004808301926020929190829003018186803b15801561123957600080fd5b505afa15801561124d573d6000803e3d6000fd5b505050506040513d602081101561126357600080fd5b5051600154604080517f1b862027000000000000000000000000000000000000000000000000000000008152600481018790529051929350600160a060020a0390911691631b8620279160248082019260009290919082900301818387803b1580156112ce57600080fd5b505af11580156112e2573d6000803e3d6000fd5b505050506000600160009054906101000a9004600160a060020a0316600160a060020a0316630db8d01e6040518163ffffffff1660e060020a02815260040160206040518083038186803b15801561133957600080fd5b505afa15801561134d573d6000803e3d6000fd5b505050506040513d602081101561136357600080fd5b505190506000611379828463ffffffff61162f16565b9050611383611e39565b61138e888784611835565b600354604080517f2adc57a6000000000000000000000000000000000000000000000000000000008152600160a060020a038c8116600483015291519394506000939190921691632adc57a6916024808301926020929190829003018186803b1580156113fa57600080fd5b505afa15801561140e573d6000803e3d6000fd5b505050506040513d602081101561142457600080fd5b50519050801561143c5761143782611774565b6114fb565b60035460208301516040808501516060860151608087015160a088015160c089015185517f89694be7000000000000000000000000000000000000000000000000000000008152600160a060020a039788166004820152602481019590955260448501939093526064840191909152608483015260a4820152905191909216916389694be79160c480830192600092919082900301818387803b1580156114e257600080fd5b505af11580156114f6573d6000803e3d6000fd5b505050505b60808083015160408051600160a060020a038d168152602081018b90528082018790526060810192909252517f86a9dc3904ee8065112f9a0b8fa88e50a3d11fde7dd6d983619db7e3176bd045929181900390910190a1505050505050505050565b611565611e39565b600080600080600080600360009054906101000a9004600160a060020a0316600160a060020a031663e08c694c896040518263ffffffff1660e060020a0281526004018082815260200191505060c06040518083038186803b158015610eda57600080fd5b60006115d4611e39565b6115dd84610e62565b6080810151909150838110156116275760405160e560020a62461bcd02815260040180806020018281038252603c815260200180611f9b603c913960400191505060405180910390fd5b505092915050565b600061167183836040518060400160405280601e81526020017f536166654d6174683a207375627472616374696f6e206f766572666c6f77000081525061199d565b90505b92915050565b600080611685611a37565b90506000611691611c23565b9050600084116116d55760405160e560020a62461bcd028152600401808060200182810382526026815260200180611f096026913960400191505060405180910390fd5b6116f860646116ec8381888763ffffffff611cd616565b9063ffffffff611d3216565b949350505050565b611708611e39565b611710611e39565b61171985610e62565b6060810151909150611731908563ffffffff611d7416565b606082015260a081015161174b908463ffffffff611d7416565b60a08201526080810151611765908463ffffffff611d7416565b608082015290505b9392505050565b60035460208201516040808401516060850151608086015160a087015160c088015185517f46854aa7000000000000000000000000000000000000000000000000000000008152600160a060020a039788166004820152602481019590955260448501939093526064840191909152608483015260a4820152905191909216916346854aa79160c480830192600092919082900301818387803b15801561181a57600080fd5b505af115801561182e573d6000803e3d6000fd5b5050505050565b61183d611e39565b600354604080517f2adc57a6000000000000000000000000000000000000000000000000000000008152600160a060020a03878116600483015291516000939290921691632adc57a691602480820192602092909190829003018186803b1580156118a757600080fd5b505afa1580156118bb573d6000803e3d6000fd5b505050506040513d60208110156118d157600080fd5b5051905080611974576118e2611e39565b506040805160e08101825260018152600160a060020a0387166020820152908101859052606081018590526080810184905260a08101849052600060c0820152611932858063ffffffff611d7416565b604082015260a081015161194c908563ffffffff611d7416565b60a08201526080810151611966908563ffffffff611d7416565b6080820152915061176d9050565b61197c611e39565b61198586610e62565b6040810151909150611932908663ffffffff611d7416565b60008184841115611a2f5760405160e560020a62461bcd0281526004018080602001828103825283818151815260200191508051906020019080838360005b838110156119f45781810151838201526020016119dc565b50505050905090810190601f168015611a215780820380516001836020036101000a031916815260200191505b509250505060405180910390fd5b505050900390565b60048054604080518082018252601f81527f58454e445f46494e414e43455f434f4d4d4953494f4e5f4449564944454e4400602080830191825292517f37f2a02400000000000000000000000000000000000000000000000000000000815294850192835281516024860152815160009586958695869586958695600160a060020a03909416946337f2a024949293928392604490920191908083838b5b83811015611aed578181015183820152602001611ad5565b50505050905090810190601f168015611b1a5780820380516001836020036101000a031916815260200191505b509250505060a060405180830381600087803b158015611b3957600080fd5b505af1158015611b4d573d6000803e3d6000fd5b505050506040513d60a0811015611b6357600080fd5b50805160208201516040830151606084015160809094015192985090965094509092509050600182151514611bcc5760405160e560020a62461bcd028152600401808060200182810382526027815260200180611f746027913960400191505060405180910390fd5b6001816001811115611bda57fe5b14611c195760405160e560020a62461bcd02815260040180806020018281038252603a815260200180611fd7603a913960400191505060405180910390fd5b5090935050505090565b60048054604080518082018252601e81527f58454e445f46494e414e43455f434f4d4d4953494f4e5f44495649534f520000602080830191825292517f37f2a02400000000000000000000000000000000000000000000000000000000815294850192835281516024860152815160009586958695869586958695600160a060020a03909416946337f2a024949293928392604490920191908083838b8315611aed578181015183820152602001611ad5565b600082611ce557506000611674565b82820282848281611cf257fe5b04146116715760405160e560020a62461bcd028152600401808060200182810382526021815260200180611f536021913960400191505060405180910390fd5b600061167183836040518060400160405280601a81526020017f536166654d6174683a206469766973696f6e206279207a65726f000000000000815250611dd1565b600082820183811015611671576040805160e560020a62461bcd02815260206004820152601b60248201527f536166654d6174683a206164646974696f6e206f766572666c6f770000000000604482015290519081900360640190fd5b60008183611e235760405160e560020a62461bcd0281526020600482018181528351602484015283519092839260449091019190850190808383600083156119f45781810151838201526020016119dc565b506000838581611e2f57fe5b0495945050505050565b6040518060e001604052806000151581526020016000600160a060020a031681526020016000815260200160008152602001600081526020016000815260200160008152509056fe417070726f766520616e20616d6f756e74203e203020666f7220746f6b656e206265666f72652070726f63656564696e67436f756c64206e6f7420636f6d706c657465206465706f7369742070726f636573732066726f6d20746f6b656e20636f6e7472616374556e617574686f72697a65642061636365737320746f20636f6e7472616374006d656d626572206465706f736974207265616c6c792069736e277420776f727468206d7563685365727669636520636f6e747261637420686173206265656e2064657072656361746564536166654d6174683a206d756c7469706c69636174696f6e206f766572666c6f77756e737570706f727465642072756c6520646566696e74696f6e20666f722072756c65207365745769746864726177616c2063616e6e6f742062652070726f6365737365732c20726561736f6e3a20496e73756666696369656e742042616c616e6365756e737570706f727465642072756c6520646566696e74696f6e20666f722070656e616c74792070657263656e746167652072756c6520736574a2646970667358221220a019df0a3b4ef16390c276ff6833842e7ea7391493b0e6ba3dc345144396e96664736f6c63430006060033",
  "immutableReferences": {},
  "source": "// SPDX-License-Identifier: MIT\r\n\r\npragma solidity ^0.6.0;\r\n\r\nimport \"./IClientRecordShema.sol\";\r\nimport \"./IGroupSchema.sol\";\r\nimport \"./SafeMath.sol\";\r\nimport \"./Ownable.sol\";\r\nimport \"./IDaiLendingService.sol\";\r\nimport \"./IClientRecord.sol\";\r\nimport \"./IERC20.sol\";\r\nimport \"./Address.sol\";\r\nimport \"./ISavingsConfig.sol\";\r\nimport \"./ISavingsConfigSchema.sol\";\r\nimport \"./ITreasury.sol\";\r\n\r\ncontract XendFinanceIndividual_Yearn_V1 is\r\n    Ownable,\r\n    IClientRecordSchema,\r\n    ISavingsConfigSchema\r\n{\r\n    using SafeMath for uint256;\r\n\r\n    using Address for address payable;\r\n\r\n    event UnderlyingAssetDeposited(\r\n        address payable user,\r\n        uint256 underlyingAmount,\r\n        uint256 derivativeAmount,\r\n        uint256 balance\r\n    );\r\n\r\n    event DerivativeAssetWithdrawn(\r\n        address payable user,\r\n        uint256 underlyingAmount,\r\n        uint256 derivativeAmount,\r\n        uint256 balance\r\n    );\r\n\r\n    IDaiLendingService lendingService;\r\n    IERC20 daiToken;\r\n    IClientRecord clientRecordStorage;\r\n    ISavingsConfig savingsConfig;\r\n    IERC20 derivativeToken;\r\n    ITreasury treasury;\r\n\r\n    bool isDeprecated = false;\r\n\r\n    address LendingAdapterAddress;\r\n    address TreasuryAddress;\r\n    address TokenAddress;\r\n\r\n    string constant XEND_FINANCE_COMMISION_DIVISOR = \"XEND_FINANCE_COMMISION_DIVISOR\";\r\n    string constant XEND_FINANCE_COMMISION_DIVIDEND = \"XEND_FINANCE_COMMISION_DIVIDEND\";\r\n\r\n    constructor(\r\n        address lendingAdapterAddress,\r\n        address lendingServiceAddress,\r\n        address tokenAddress,\r\n        address clientRecordStorageAddress,\r\n        address savingsConfigAddress,\r\n        address derivativeTokenAddress,\r\n        address treasuryAddress\r\n    ) public {\r\n        lendingService = IDaiLendingService(lendingServiceAddress);\r\n        daiToken = IERC20(tokenAddress);\r\n        clientRecordStorage = IClientRecord(clientRecordStorageAddress);\r\n        LendingAdapterAddress = lendingAdapterAddress;\r\n        savingsConfig = ISavingsConfig(savingsConfigAddress);\r\n        derivativeToken = IERC20(derivativeTokenAddress);\r\n        treasury = ITreasury(treasuryAddress);\r\n        TreasuryAddress = treasuryAddress;\r\n        TokenAddress = tokenAddress;\r\n    }\r\n\r\n    function deprecateContract(address newServiceAddress)\r\n        external\r\n        onlyOwner\r\n        onlyNonDeprecatedCalls\r\n    {\r\n        isDeprecated = true;\r\n        clientRecordStorage.reAssignStorageOracle(newServiceAddress);\r\n        uint256 derivativeTokenBalance = derivativeToken.balanceOf(\r\n            address(this)\r\n        );\r\n        derivativeToken.transfer(newServiceAddress, derivativeTokenBalance);\r\n    }\r\n\r\n    function doesClientRecordExist(address depositor)\r\n        external\r\n        view\r\n        onlyNonDeprecatedCalls\r\n        returns (bool)\r\n    {\r\n        return clientRecordStorage.doesClientRecordExist(depositor);\r\n    }\r\n\r\n    function getClientRecord(address depositor)\r\n        external\r\n        onlyNonDeprecatedCalls\r\n        returns (\r\n            address payable _address,\r\n            uint256 underlyingTotalDeposits,\r\n            uint256 underlyingTotalWithdrawn,\r\n            uint256 derivativeBalance,\r\n            uint256 derivativeTotalDeposits,\r\n            uint256 derivativeTotalWithdrawn\r\n        )\r\n    {\r\n        ClientRecord memory clientRecord = _getClientRecordByAddress(depositor);\r\n        return (\r\n            clientRecord._address,\r\n            clientRecord.underlyingTotalDeposits,\r\n            clientRecord.underlyingTotalWithdrawn,\r\n            clientRecord.derivativeBalance,\r\n            clientRecord.derivativeTotalDeposits,\r\n            clientRecord.derivativeTotalWithdrawn\r\n        );\r\n    }\r\n\r\n    function getClientRecord()\r\n        external\r\n        onlyNonDeprecatedCalls\r\n        returns (\r\n            address payable _address,\r\n            uint256 underlyingTotalDeposits,\r\n            uint256 underlyingTotalWithdrawn,\r\n            uint256 derivativeBalance,\r\n            uint256 derivativeTotalDeposits,\r\n            uint256 derivativeTotalWithdrawn\r\n        )\r\n    {\r\n        ClientRecord memory clientRecord = _getClientRecordByAddress(\r\n            msg.sender\r\n        );\r\n\r\n        return (\r\n            clientRecord._address,\r\n            clientRecord.underlyingTotalDeposits,\r\n            clientRecord.underlyingTotalWithdrawn,\r\n            clientRecord.derivativeBalance,\r\n            clientRecord.derivativeTotalDeposits,\r\n            clientRecord.derivativeTotalWithdrawn\r\n        );\r\n    }\r\n\r\n    function getClientRecordByIndex(uint256 index)\r\n        external\r\n        onlyNonDeprecatedCalls\r\n        returns (\r\n            address payable _address,\r\n            uint256 underlyingTotalDeposits,\r\n            uint256 underlyingTotalWithdrawn,\r\n            uint256 derivativeBalance,\r\n            uint256 derivativeTotalDeposits,\r\n            uint256 derivativeTotalWithdrawn\r\n        )\r\n    {\r\n        ClientRecord memory clientRecord = _getClientRecordByIndex(index);\r\n        return (\r\n            clientRecord._address,\r\n            clientRecord.underlyingTotalDeposits,\r\n            clientRecord.underlyingTotalWithdrawn,\r\n            clientRecord.derivativeBalance,\r\n            clientRecord.derivativeTotalDeposits,\r\n            clientRecord.derivativeTotalWithdrawn\r\n        );\r\n    }\r\n\r\n    function _getClientRecordByIndex(uint256 index)\r\n        internal\r\n        returns (ClientRecord memory)\r\n    {\r\n        (\r\n            address payable _address,\r\n            uint256 underlyingTotalDeposits,\r\n            uint256 underlyingTotalWithdrawn,\r\n            uint256 derivativeBalance,\r\n            uint256 derivativeTotalDeposits,\r\n            uint256 derivativeTotalWithdrawn\r\n        ) = clientRecordStorage.getClientRecordByIndex(index);\r\n        return\r\n            ClientRecord(\r\n                true,\r\n                _address,\r\n                underlyingTotalDeposits,\r\n                underlyingTotalWithdrawn,\r\n                derivativeBalance,\r\n                derivativeTotalDeposits,\r\n                derivativeTotalWithdrawn\r\n            );\r\n    }\r\n\r\n    function _getClientRecordByAddress(address member)\r\n        internal\r\n        view\r\n        returns (ClientRecord memory)\r\n    {\r\n        (\r\n            address payable _address,\r\n            uint256 underlyingTotalDeposits,\r\n            uint256 underlyingTotalWithdrawn,\r\n            uint256 derivativeBalance,\r\n            uint256 derivativeTotalDeposits,\r\n            uint256 derivativeTotalWithdrawn\r\n        ) = clientRecordStorage.getClientRecordByAddress(member);\r\n\r\n        return\r\n            ClientRecord(\r\n                true,\r\n                _address,\r\n                underlyingTotalDeposits,\r\n                underlyingTotalWithdrawn,\r\n                derivativeBalance,\r\n                derivativeTotalDeposits,\r\n                derivativeTotalWithdrawn\r\n            );\r\n    }\r\n\r\n    function withdraw(uint256 derivativeAmount)\r\n        external\r\n        onlyNonDeprecatedCalls\r\n    {\r\n        address payable recipient = msg.sender;\r\n        _withdraw(recipient, derivativeAmount);\r\n    }\r\n\r\n    function withdrawDelegate(\r\n        address payable recipient,\r\n        uint256 derivativeAmount\r\n    ) external onlyNonDeprecatedCalls onlyOwner {\r\n        _withdraw(recipient, derivativeAmount);\r\n    }\r\n\r\n    function _withdraw(address payable recipient, uint256 derivativeAmount)\r\n        internal\r\n    {\r\n        _validateUserBalanceIsSufficient(recipient, derivativeAmount);\r\n\r\n        uint256 balanceBeforeWithdraw = lendingService.userDaiBalance();\r\n\r\n        lendingService.WithdrawBySharesOnly(derivativeAmount);\r\n\r\n        uint256 balanceAfterWithdraw = lendingService.userDaiBalance();\r\n\r\n        uint256 amountOfUnderlyingAssetWithdrawn = balanceBeforeWithdraw.sub(\r\n            balanceAfterWithdraw\r\n        );\r\n\r\n        uint256 commissionFees = _computeXendFinanceCommisions(\r\n            amountOfUnderlyingAssetWithdrawn\r\n        );\r\n\r\n        uint256 amountToSendToDepositor = amountOfUnderlyingAssetWithdrawn.sub(\r\n            commissionFees\r\n        );\r\n\r\n        bool isSuccessful = daiToken.transfer(\r\n            recipient,\r\n            amountToSendToDepositor\r\n        );\r\n\r\n        require(isSuccessful == true, \"Could not complete withdrawal\");\r\n\r\n        if (commissionFees > 0) {\r\n            daiToken.approve(TreasuryAddress, commissionFees);\r\n            treasury.depositToken(TokenAddress);\r\n        }\r\n\r\n        ClientRecord memory clientRecord = _updateClientRecordAfterWithdrawal(\r\n            recipient,\r\n            amountOfUnderlyingAssetWithdrawn,\r\n            derivativeAmount\r\n        );\r\n        _updateClientRecord(clientRecord);\r\n\r\n        emit DerivativeAssetWithdrawn(\r\n            recipient,\r\n            amountOfUnderlyingAssetWithdrawn,\r\n            derivativeAmount,\r\n            clientRecord.derivativeBalance\r\n        );\r\n    }\r\n\r\n    function _validateUserBalanceIsSufficient(\r\n        address payable recipient,\r\n        uint256 derivativeAmount\r\n    ) internal view returns (uint256) {\r\n        ClientRecord memory clientRecord = _getClientRecordByAddress(recipient);\r\n\r\n        uint256 derivativeBalance = clientRecord.derivativeBalance;\r\n\r\n        require(\r\n            derivativeBalance >= derivativeAmount,\r\n            \"Withdrawal cannot be processes, reason: Insufficient Balance\"\r\n        );\r\n    }\r\n\r\n    function _computeXendFinanceCommisions(uint256 worthOfMemberDepositNow)\r\n        internal\r\n        returns (uint256)\r\n    {\r\n        uint256 dividend = _getDividend();\r\n        uint256 divisor = _getDivisor();\r\n\r\n        require(\r\n            worthOfMemberDepositNow > 0,\r\n            \"member deposit really isn't worth much\"\r\n        );\r\n\r\n        return worthOfMemberDepositNow.mul(dividend).div(divisor).div(100);\r\n    }\r\n\r\n    function _getDivisor() internal returns (uint256) {\r\n        (\r\n            uint256 minimumDivisor,\r\n            uint256 maximumDivisor,\r\n            uint256 exactDivisor,\r\n            bool appliesDivisor,\r\n            RuleDefinition ruleDefinitionDivisor\r\n        ) = savingsConfig.getRuleSet(XEND_FINANCE_COMMISION_DIVISOR);\r\n\r\n        require(\r\n            appliesDivisor == true,\r\n            \"unsupported rule defintion for rule set\"\r\n        );\r\n\r\n        require(\r\n            ruleDefinitionDivisor == RuleDefinition.VALUE,\r\n            \"unsupported rule defintion for penalty percentage rule set\"\r\n        );\r\n        return exactDivisor;\r\n    }\r\n\r\n    function _getDividend() internal returns (uint256) {\r\n        (\r\n            uint256 minimumDividend,\r\n            uint256 maximumDividend,\r\n            uint256 exactDividend,\r\n            bool appliesDividend,\r\n            RuleDefinition ruleDefinitionDividend\r\n        ) = savingsConfig.getRuleSet(XEND_FINANCE_COMMISION_DIVIDEND);\r\n\r\n        require(\r\n            appliesDividend == true,\r\n            \"unsupported rule defintion for rule set\"\r\n        );\r\n\r\n        require(\r\n            ruleDefinitionDividend == RuleDefinition.VALUE,\r\n            \"unsupported rule defintion for penalty percentage rule set\"\r\n        );\r\n        return exactDividend;\r\n    }\r\n\r\n    function deposit() external onlyNonDeprecatedCalls {\r\n        address payable depositor = msg.sender;\r\n        _deposit(depositor);\r\n    }\r\n\r\n    function depositDelegate(address payable depositorAddress)\r\n        external\r\n        onlyNonDeprecatedCalls\r\n        onlyOwner\r\n    {\r\n        _deposit(depositorAddress);\r\n    }\r\n\r\n    function _deposit(address payable depositorAddress) internal {\r\n        address recipient = address(this);\r\n        uint256 amountTransferrable = daiToken.allowance(\r\n            depositorAddress,\r\n            recipient\r\n        );\r\n\r\n        require(\r\n            amountTransferrable > 0,\r\n            \"Approve an amount > 0 for token before proceeding\"\r\n        );\r\n        bool isSuccessful = daiToken.transferFrom(\r\n            depositorAddress,\r\n            recipient,\r\n            amountTransferrable\r\n        );\r\n        require(\r\n            isSuccessful == true,\r\n            \"Could not complete deposit process from token contract\"\r\n        );\r\n\r\n        daiToken.approve(LendingAdapterAddress, amountTransferrable);\r\n\r\n        uint256 balanceBeforeDeposit = lendingService.userShares();\r\n\r\n        lendingService.save(amountTransferrable);\r\n\r\n        uint256 balanceAfterDeposit = lendingService.userShares();\r\n\r\n        uint256 amountOfyDai = balanceAfterDeposit.sub(balanceBeforeDeposit);\r\n        ClientRecord memory clientRecord = _updateClientRecordAfterDeposit(\r\n            depositorAddress,\r\n            amountTransferrable,\r\n            amountOfyDai\r\n        );\r\n\r\n        bool exists = clientRecordStorage.doesClientRecordExist(\r\n            depositorAddress\r\n        );\r\n\r\n        if (exists) _updateClientRecord(clientRecord);\r\n        else {\r\n            clientRecordStorage.createClientRecord(\r\n                clientRecord._address,\r\n                clientRecord.underlyingTotalDeposits,\r\n                clientRecord.underlyingTotalWithdrawn,\r\n                clientRecord.derivativeBalance,\r\n                clientRecord.derivativeTotalDeposits,\r\n                clientRecord.derivativeTotalWithdrawn\r\n            );\r\n        }\r\n\r\n        emit UnderlyingAssetDeposited(\r\n            depositorAddress,\r\n            amountTransferrable,\r\n            amountOfyDai,\r\n            clientRecord.derivativeBalance\r\n        );\r\n    }\r\n\r\n    function _updateClientRecordAfterDeposit(\r\n        address payable client,\r\n        uint256 underlyingAmountDeposited,\r\n        uint256 derivativeAmountDeposited\r\n    ) internal returns (ClientRecord memory) {\r\n        bool exists = clientRecordStorage.doesClientRecordExist(client);\r\n        if (!exists) {\r\n            ClientRecord memory record = ClientRecord(\r\n                true,\r\n                client,\r\n                underlyingAmountDeposited,\r\n                underlyingAmountDeposited,\r\n                derivativeAmountDeposited,\r\n                derivativeAmountDeposited,\r\n                0\r\n            );\r\n\r\n            record.underlyingTotalDeposits = record.underlyingTotalDeposits.add(\r\n                underlyingAmountDeposited\r\n            );\r\n\r\n            record.derivativeTotalDeposits = record.derivativeTotalDeposits.add(\r\n                derivativeAmountDeposited\r\n            );\r\n            record.derivativeBalance = record.derivativeBalance.add(\r\n                derivativeAmountDeposited\r\n            );\r\n\r\n            return record;\r\n        } else {\r\n            ClientRecord memory record = _getClientRecordByAddress(client);\r\n\r\n            record.underlyingTotalDeposits = record.underlyingTotalDeposits.add(\r\n                underlyingAmountDeposited\r\n            );\r\n            record.derivativeTotalDeposits = record.derivativeTotalDeposits.add(\r\n                derivativeAmountDeposited\r\n            );\r\n            record.derivativeBalance = record.derivativeBalance.add(\r\n                derivativeAmountDeposited\r\n            );\r\n\r\n            return record;\r\n        }\r\n    }\r\n\r\n    function _updateClientRecordAfterWithdrawal(\r\n        address payable client,\r\n        uint256 underlyingAmountWithdrawn,\r\n        uint256 derivativeAmountWithdrawn\r\n    ) internal returns (ClientRecord memory) {\r\n        ClientRecord memory record = _getClientRecordByAddress(client);\r\n\r\n        record.underlyingTotalWithdrawn = record.underlyingTotalWithdrawn.add(\r\n            underlyingAmountWithdrawn\r\n        );\r\n\r\n        record.derivativeTotalDeposits = record.derivativeTotalDeposits.add(\r\n            derivativeAmountWithdrawn\r\n        );\r\n        record.derivativeBalance = record.derivativeBalance.add(\r\n            derivativeAmountWithdrawn\r\n        );\r\n\r\n        return record;\r\n    }\r\n\r\n    function _updateClientRecord(ClientRecord memory clientRecord) internal {\r\n        clientRecordStorage.updateClientRecord(\r\n            clientRecord._address,\r\n            clientRecord.underlyingTotalDeposits,\r\n            clientRecord.underlyingTotalWithdrawn,\r\n            clientRecord.derivativeBalance,\r\n            clientRecord.derivativeTotalDeposits,\r\n            clientRecord.derivativeTotalWithdrawn\r\n        );\r\n    }\r\n\r\n    modifier onlyNonDeprecatedCalls() {\r\n        require(isDeprecated == false, \"Service contract has been deprecated\");\r\n        _;\r\n    }\r\n}\r\n",
  "sourcePath": "D:/Nweke/WORK/WORK/XendFinance/Tests/contracts/XendFinanceIndividual_Yearn_V1.sol",
  "compiler": {
    "name": "solc",
    "version": "0.6.6+commit.6c089d02.Emscripten.clang"
  },
  "schemaVersion": "3.3.2",
  "updatedAt": "2020-11-09T18:30:31.566Z",
  "devdoc": {
    "methods": {}
  },
  "userdoc": {
    "methods": {}
  }
}