{
  "contractName": "XendFinanceIndividual_Yearn_V1",
  "abi": [
    {
      "inputs": [
        {
          "internalType": "address",
          "name": "lendingAdapterAddress",
          "type": "address"
        },
        {
          "internalType": "address",
          "name": "lendingServiceAddress",
          "type": "address"
        },
        {
          "internalType": "address",
          "name": "tokenAddress",
          "type": "address"
        },
        {
          "internalType": "address",
          "name": "clientRecordStorageAddress",
          "type": "address"
        },
        {
          "internalType": "address",
          "name": "savingsConfigAddress",
          "type": "address"
        },
        {
          "internalType": "address",
          "name": "derivativeTokenAddress",
          "type": "address"
        },
        {
          "internalType": "address",
          "name": "treasuryAddress",
          "type": "address"
        }
      ],
      "stateMutability": "nonpayable",
      "type": "constructor"
    },
    {
      "anonymous": false,
      "inputs": [
        {
          "indexed": false,
          "internalType": "address payable",
          "name": "user",
          "type": "address"
        },
        {
          "indexed": false,
          "internalType": "uint256",
          "name": "underlyingAmount",
          "type": "uint256"
        },
        {
          "indexed": false,
          "internalType": "uint256",
          "name": "derivativeAmount",
          "type": "uint256"
        },
        {
          "indexed": false,
          "internalType": "uint256",
          "name": "balance",
          "type": "uint256"
        }
      ],
      "name": "DerivativeAssetWithdrawn",
      "type": "event"
    },
    {
      "anonymous": false,
      "inputs": [
        {
          "indexed": false,
          "internalType": "address payable",
          "name": "user",
          "type": "address"
        },
        {
          "indexed": false,
          "internalType": "uint256",
          "name": "underlyingAmount",
          "type": "uint256"
        },
        {
          "indexed": false,
          "internalType": "uint256",
          "name": "derivativeAmount",
          "type": "uint256"
        },
        {
          "indexed": false,
          "internalType": "uint256",
          "name": "balance",
          "type": "uint256"
        }
      ],
      "name": "UnderlyingAssetDeposited",
      "type": "event"
    },
    {
      "inputs": [],
      "name": "owner",
      "outputs": [
        {
          "internalType": "address payable",
          "name": "",
          "type": "address"
        }
      ],
      "stateMutability": "view",
      "type": "function",
      "constant": true
    },
    {
      "inputs": [
        {
          "internalType": "address payable",
          "name": "newOwner",
          "type": "address"
        }
      ],
      "name": "transferOwnership",
      "outputs": [],
      "stateMutability": "nonpayable",
      "type": "function"
    },
    {
      "inputs": [
        {
          "internalType": "address",
          "name": "newServiceAddress",
          "type": "address"
        }
      ],
      "name": "deprecateContract",
      "outputs": [],
      "stateMutability": "nonpayable",
      "type": "function"
    },
    {
      "inputs": [
        {
          "internalType": "address",
          "name": "depositor",
          "type": "address"
        }
      ],
      "name": "doesClientRecordExist",
      "outputs": [
        {
          "internalType": "bool",
          "name": "",
          "type": "bool"
        }
      ],
      "stateMutability": "view",
      "type": "function",
      "constant": true
    },
    {
      "inputs": [
        {
          "internalType": "address",
          "name": "depositor",
          "type": "address"
        }
      ],
      "name": "getClientRecord",
      "outputs": [
        {
          "internalType": "address payable",
          "name": "_address",
          "type": "address"
        },
        {
          "internalType": "uint256",
          "name": "underlyingTotalDeposits",
          "type": "uint256"
        },
        {
          "internalType": "uint256",
          "name": "underlyingTotalWithdrawn",
          "type": "uint256"
        },
        {
          "internalType": "uint256",
          "name": "derivativeBalance",
          "type": "uint256"
        },
        {
          "internalType": "uint256",
          "name": "derivativeTotalDeposits",
          "type": "uint256"
        },
        {
          "internalType": "uint256",
          "name": "derivativeTotalWithdrawn",
          "type": "uint256"
        }
      ],
      "stateMutability": "view",
      "type": "function",
      "constant": true
    },
    {
      "inputs": [],
      "name": "getClientRecord",
      "outputs": [
        {
          "internalType": "address payable",
          "name": "_address",
          "type": "address"
        },
        {
          "internalType": "uint256",
          "name": "underlyingTotalDeposits",
          "type": "uint256"
        },
        {
          "internalType": "uint256",
          "name": "underlyingTotalWithdrawn",
          "type": "uint256"
        },
        {
          "internalType": "uint256",
          "name": "derivativeBalance",
          "type": "uint256"
        },
        {
          "internalType": "uint256",
          "name": "derivativeTotalDeposits",
          "type": "uint256"
        },
        {
          "internalType": "uint256",
          "name": "derivativeTotalWithdrawn",
          "type": "uint256"
        }
      ],
      "stateMutability": "view",
      "type": "function",
      "constant": true
    },
    {
      "inputs": [
        {
          "internalType": "uint256",
          "name": "index",
          "type": "uint256"
        }
      ],
      "name": "getClientRecordByIndex",
      "outputs": [
        {
          "internalType": "address payable",
          "name": "_address",
          "type": "address"
        },
        {
          "internalType": "uint256",
          "name": "underlyingTotalDeposits",
          "type": "uint256"
        },
        {
          "internalType": "uint256",
          "name": "underlyingTotalWithdrawn",
          "type": "uint256"
        },
        {
          "internalType": "uint256",
          "name": "derivativeBalance",
          "type": "uint256"
        },
        {
          "internalType": "uint256",
          "name": "derivativeTotalDeposits",
          "type": "uint256"
        },
        {
          "internalType": "uint256",
          "name": "derivativeTotalWithdrawn",
          "type": "uint256"
        }
      ],
      "stateMutability": "view",
      "type": "function",
      "constant": true
    },
    {
      "inputs": [
        {
          "internalType": "uint256",
          "name": "derivativeAmount",
          "type": "uint256"
        }
      ],
      "name": "withdraw",
      "outputs": [],
      "stateMutability": "nonpayable",
      "type": "function"
    },
    {
      "inputs": [
        {
          "internalType": "address payable",
          "name": "recipient",
          "type": "address"
        },
        {
          "internalType": "uint256",
          "name": "derivativeAmount",
          "type": "uint256"
        }
      ],
      "name": "withdrawDelegate",
      "outputs": [],
      "stateMutability": "nonpayable",
      "type": "function"
    },
    {
      "inputs": [],
      "name": "deposit",
      "outputs": [],
      "stateMutability": "nonpayable",
      "type": "function"
    },
    {
      "inputs": [
        {
          "internalType": "address payable",
          "name": "depositorAddress",
          "type": "address"
        }
      ],
      "name": "depositDelegate",
      "outputs": [],
      "stateMutability": "nonpayable",
      "type": "function"
    }
  ],
  "bytecode": "0x60806040526006805460a060020a60ff021916905534801561002057600080fd5b5060405161222d38038061222d833981810160405260e081101561004357600080fd5b508051602082015160408301516060840151608085015160a086015160c0909601516000805433600160a060020a0319918216178255600180548216600160a060020a0398891617905560028054821696881696871790556003805482169588169590951790945560078054851697871697909717909655600480548416928616929092179091556005805483169685169690961790955560068054821693909516928317909455600880548516909217909155600980549093161790915561211b90819061011290396000f3fe608060405234801561001057600080fd5b50600436106100ad5760003560e060020a90048063a53b0a0a11610075578063a53b0a0a14610181578063d0e30db0146101e4578063da26ec22146101ec578063e08c694c14610212578063e6a71e611461022f578063f2fde38b14610237576100ad565b8063242222e0146100b25780632adc57a6146100da5780632e1a7d4d146101145780637d6633d0146101315780638da5cb5b1461015d575b600080fd5b6100d8600480360360208110156100c857600080fd5b5035600160a060020a031661025d565b005b610100600480360360208110156100f057600080fd5b5035600160a060020a03166104cf565b604080519115158252519081900360200190f35b6100d86004803603602081101561012a57600080fd5b50356105b6565b6100d86004803603604081101561014757600080fd5b50600160a060020a038135169060200135610611565b6101656106b7565b60408051600160a060020a039092168252519081900360200190f35b6101a76004803603602081101561019757600080fd5b5035600160a060020a03166106c6565b60408051600160a060020a0390971687526020870195909552858501939093526060850191909152608084015260a0830152519081900360c00190f35b6100d8610764565b6100d86004803603602081101561020257600080fd5b5035600160a060020a03166107bd565b6101a76004803603602081101561022857600080fd5b5035610862565b6101a76108cc565b6100d86004803603602081101561024d57600080fd5b5035600160a060020a0316610969565b600054600160a060020a031633146102ad576040805160e560020a62461bcd02815260206004820152601f6024820152600080516020611fbe833981519152604482015290519081900360640190fd5b60065460a060020a900460ff16156102f95760405160e560020a62461bcd0281526004018080602001828103825260248152602001806120046024913960400191505060405180910390fd5b6006805474ff0000000000000000000000000000000000000000191660a060020a179055600354604080517f0fdf80ed000000000000000000000000000000000000000000000000000000008152600160a060020a03848116600483015291519190921691630fdf80ed91602480830192600092919082900301818387803b15801561038457600080fd5b505af1158015610398573d6000803e3d6000fd5b5050600554604080517f70a08231000000000000000000000000000000000000000000000000000000008152306004820152905160009450600160a060020a0390921692506370a08231916024808301926020929190829003018186803b15801561040257600080fd5b505afa158015610416573d6000803e3d6000fd5b505050506040513d602081101561042c57600080fd5b5051600554604080517fa9059cbb000000000000000000000000000000000000000000000000000000008152600160a060020a03868116600483015260248201859052915193945091169163a9059cbb916044808201926020929091908290030181600087803b15801561049f57600080fd5b505af11580156104b3573d6000803e3d6000fd5b505050506040513d60208110156104c957600080fd5b50505050565b60065460009060a060020a900460ff161561051e5760405160e560020a62461bcd0281526004018080602001828103825260248152602001806120046024913960400191505060405180910390fd5b600354604080517f2adc57a6000000000000000000000000000000000000000000000000000000008152600160a060020a03858116600483015291519190921691632adc57a6916024808301926020929190829003018186803b15801561058457600080fd5b505afa158015610598573d6000803e3d6000fd5b505050506040513d60208110156105ae57600080fd5b505192915050565b60065460a060020a900460ff16156106025760405160e560020a62461bcd0281526004018080602001828103825260248152602001806120046024913960400191505060405180910390fd5b3361060d81836109f5565b5050565b60065460a060020a900460ff161561065d5760405160e560020a62461bcd0281526004018080602001828103825260248152602001806120046024913960400191505060405180910390fd5b600054600160a060020a031633146106ad576040805160e560020a62461bcd02815260206004820152601f6024820152600080516020611fbe833981519152604482015290519081900360640190fd5b61060d82826109f5565b600054600160a060020a031681565b6006546000908190819081908190819060a060020a900460ff161561071f5760405160e560020a62461bcd0281526004018080602001828103825260248152602001806120046024913960400191505060405180910390fd5b610727611f0e565b61073088610f58565b602081015160408201516060830151608084015160a085015160c090950151939d929c50909a509850919650945092505050565b60065460a060020a900460ff16156107b05760405160e560020a62461bcd0281526004018080602001828103825260248152602001806120046024913960400191505060405180910390fd5b336107ba81611069565b50565b60065460a060020a900460ff16156108095760405160e560020a62461bcd0281526004018080602001828103825260248152602001806120046024913960400191505060405180910390fd5b600054600160a060020a03163314610859576040805160e560020a62461bcd02815260206004820152601f6024820152600080516020611fbe833981519152604482015290519081900360640190fd5b6107ba81611069565b6006546000908190819081908190819060a060020a900460ff16156108bb5760405160e560020a62461bcd0281526004018080602001828103825260248152602001806120046024913960400191505060405180910390fd5b6108c3611f0e565b6107308861163d565b6006546000908190819081908190819060a060020a900460ff16156109255760405160e560020a62461bcd0281526004018080602001828103825260248152602001806120046024913960400191505060405180910390fd5b61092d611f0e565b61093633610f58565b602081015160408201516060830151608084015160a085015160c090950151939c929b5090995097509195509350915050565b600054600160a060020a031633146109b9576040805160e560020a62461bcd02815260206004820152601f6024820152600080516020611fbe833981519152604482015290519081900360640190fd5b600160a060020a038116156107ba5760008054600160a060020a03831673ffffffffffffffffffffffffffffffffffffffff1990911617905550565b6109ff82826116aa565b50600154604080517f77f1a4af0000000000000000000000000000000000000000000000000000000081529051600092600160a060020a0316916377f1a4af916004808301926020929190829003018186803b158015610a5e57600080fd5b505afa158015610a72573d6000803e3d6000fd5b505050506040513d6020811015610a8857600080fd5b50516005546007546040805160e060020a63095ea7b3028152600160a060020a03928316600482015260248101879052905193945091169163095ea7b3916044808201926020929091908290030181600087803b158015610ae857600080fd5b505af1158015610afc573d6000803e3d6000fd5b505050506040513d6020811015610b1257600080fd5b5050600154604080517f6583d12a000000000000000000000000000000000000000000000000000000008152600481018590529051600160a060020a0390921691636583d12a9160248082019260009290919082900301818387803b158015610b7a57600080fd5b505af1158015610b8e573d6000803e3d6000fd5b505050506000600160009054906101000a9004600160a060020a0316600160a060020a03166377f1a4af6040518163ffffffff1660e060020a02815260040160206040518083038186803b158015610be557600080fd5b505afa158015610bf9573d6000803e3d6000fd5b505050506040513d6020811015610c0f57600080fd5b505190506000610c25828463ffffffff61170f16565b90506000610c328261175a565b90506000610c46838363ffffffff61170f16565b6002546040805160e060020a63095ea7b3028152600160a060020a038b8116600483015260248201859052915193945091169163095ea7b3916044808201926020929091908290030181600087803b158015610ca157600080fd5b505af1158015610cb5573d6000803e3d6000fd5b505050506040513d6020811015610ccb57600080fd5b5050600254604080517fa9059cbb000000000000000000000000000000000000000000000000000000008152600160a060020a038a81166004830152602482018590529151600093929092169163a9059cbb9160448082019260209290919082900301818787803b158015610d3f57600080fd5b505af1158015610d53573d6000803e3d6000fd5b505050506040513d6020811015610d6957600080fd5b50519050600181151514610dc7576040805160e560020a62461bcd02815260206004820152601d60248201527f436f756c64206e6f7420636f6d706c657465207769746864726177616c000000604482015290519081900360640190fd5b8215610ed8576002546008546040805160e060020a63095ea7b3028152600160a060020a039283166004820152602481018790529051919092169163095ea7b39160448083019260209291908290030181600087803b158015610e2957600080fd5b505af1158015610e3d573d6000803e3d6000fd5b505050506040513d6020811015610e5357600080fd5b5050600654600954604080517f2fd55265000000000000000000000000000000000000000000000000000000008152600160a060020a03928316600482015290519190921691632fd5526591602480830192600092919082900301818387803b158015610ebf57600080fd5b505af1158015610ed3573d6000803e3d6000fd5b505050505b610ee0611f0e565b610eeb89868a6117dd565b9050610ef681611851565b60808082015160408051600160a060020a038d168152602081018990528082018c90526060810192909252517fd5468dee606e30ba003497bfa4b158e7a8b1134f21a820a3d72e4b3d8af8514f929181900390910190a1505050505050505050565b610f60611f0e565b600354604080517f7c79ed46000000000000000000000000000000000000000000000000000000008152600160a060020a0385811660048301529151600093849384938493849384931691637c79ed469160248083019260c0929190829003018186803b158015610fd057600080fd5b505afa158015610fe4573d6000803e3d6000fd5b505050506040513d60c0811015610ffa57600080fd5b50805160208083015160408085015160608087015160808089015160a0998a0151865160e08101885260018152600160a060020a03909a16988a01989098529488019590955290860191909152918401919091529282019290925260c081019190915298975050505050505050565b600254604080517fdd62ed3e000000000000000000000000000000000000000000000000000000008152600160a060020a03848116600483015230602483018190529251929360009391169163dd62ed3e916044808301926020929190829003018186803b1580156110da57600080fd5b505afa1580156110ee573d6000803e3d6000fd5b505050506040513d602081101561110457600080fd5b50519050806111475760405160e560020a62461bcd028152600401808060200182810382526031815260200180611f576031913960400191505060405180910390fd5b600254604080517f23b872dd000000000000000000000000000000000000000000000000000000008152600160a060020a038681166004830152858116602483015260448201859052915160009392909216916323b872dd9160648082019260209290919082900301818787803b1580156111c157600080fd5b505af11580156111d5573d6000803e3d6000fd5b505050506040513d60208110156111eb57600080fd5b505190506001811515146112335760405160e560020a62461bcd028152600401808060200182810382526036815260200180611f886036913960400191505060405180910390fd5b6002546007546040805160e060020a63095ea7b3028152600160a060020a039283166004820152602481018690529051919092169163095ea7b39160448083019260209291908290030181600087803b15801561128f57600080fd5b505af11580156112a3573d6000803e3d6000fd5b505050506040513d60208110156112b957600080fd5b5050600154604080517f0db8d01e0000000000000000000000000000000000000000000000000000000081529051600092600160a060020a031691630db8d01e916004808301926020929190829003018186803b15801561131957600080fd5b505afa15801561132d573d6000803e3d6000fd5b505050506040513d602081101561134357600080fd5b5051600154604080517f1b862027000000000000000000000000000000000000000000000000000000008152600481018790529051929350600160a060020a0390911691631b8620279160248082019260009290919082900301818387803b1580156113ae57600080fd5b505af11580156113c2573d6000803e3d6000fd5b505050506000600160009054906101000a9004600160a060020a0316600160a060020a0316630db8d01e6040518163ffffffff1660e060020a02815260040160206040518083038186803b15801561141957600080fd5b505afa15801561142d573d6000803e3d6000fd5b505050506040513d602081101561144357600080fd5b505190506000611459828463ffffffff61170f16565b9050611463611f0e565b61146e888784611912565b600354604080517f2adc57a6000000000000000000000000000000000000000000000000000000008152600160a060020a038c8116600483015291519394506000939190921691632adc57a6916024808301926020929190829003018186803b1580156114da57600080fd5b505afa1580156114ee573d6000803e3d6000fd5b505050506040513d602081101561150457600080fd5b50519050801561151c5761151782611851565b6115db565b60035460208301516040808501516060860151608087015160a088015160c089015185517f89694be7000000000000000000000000000000000000000000000000000000008152600160a060020a039788166004820152602481019590955260448501939093526064840191909152608483015260a4820152905191909216916389694be79160c480830192600092919082900301818387803b1580156115c257600080fd5b505af11580156115d6573d6000803e3d6000fd5b505050505b60808083015160408051600160a060020a038d168152602081018b90528082018790526060810192909252517f86a9dc3904ee8065112f9a0b8fa88e50a3d11fde7dd6d983619db7e3176bd045929181900390910190a1505050505050505050565b611645611f0e565b600080600080600080600360009054906101000a9004600160a060020a0316600160a060020a031663e08c694c896040518263ffffffff1660e060020a0281526004018082815260200191505060c06040518083038186803b158015610fd057600080fd5b60006116b4611f0e565b6116bd84610f58565b6080810151909150838110156117075760405160e560020a62461bcd02815260040180806020018281038252603c815260200180612070603c913960400191505060405180910390fd5b505092915050565b600061175183836040518060400160405280601e81526020017f536166654d6174683a207375627472616374696f6e206f766572666c6f770000815250611a72565b90505b92915050565b600080611765611b0c565b90506000611771611cf8565b9050600084116117b55760405160e560020a62461bcd028152600401808060200182810382526026815260200180611fde6026913960400191505060405180910390fd5b6117d5816117c9868563ffffffff611dab16565b9063ffffffff611e0716565b949350505050565b6117e5611f0e565b6117ed611f0e565b6117f685610f58565b606081015190915061180e908563ffffffff611e4916565b606082015260c0810151611828908463ffffffff611e4916565b60c08201526080810151611842908463ffffffff61170f16565b608082015290505b9392505050565b60035460208201516040808401516060850151608086015160a087015160c088015185517f46854aa7000000000000000000000000000000000000000000000000000000008152600160a060020a039788166004820152602481019590955260448501939093526064840191909152608483015260a4820152905191909216916346854aa79160c480830192600092919082900301818387803b1580156118f757600080fd5b505af115801561190b573d6000803e3d6000fd5b5050505050565b61191a611f0e565b600354604080517f2adc57a6000000000000000000000000000000000000000000000000000000008152600160a060020a03878116600483015291516000939290921691632adc57a691602480820192602092909190829003018186803b15801561198457600080fd5b505afa158015611998573d6000803e3d6000fd5b505050506040513d60208110156119ae57600080fd5b5051905080611a07576119bf611f0e565b50506040805160e08101825260018152600160a060020a03861660208201529081018490526000606082018190526080820184905260a0820184905260c0820152905061184a565b611a0f611f0e565b611a1886610f58565b6040810151909150611a30908663ffffffff611e4916565b604082015260a0810151611a4a908563ffffffff611e4916565b60a08201526080810151611a64908563ffffffff611e4916565b6080820152915061184a9050565b60008184841115611b045760405160e560020a62461bcd0281526004018080602001828103825283818151815260200191508051906020019080838360005b83811015611ac9578181015183820152602001611ab1565b50505050905090810190601f168015611af65780820380516001836020036101000a031916815260200191505b509250505060405180910390fd5b505050900390565b60048054604080518082018252601f81527f58454e445f46494e414e43455f434f4d4d4953494f4e5f4449564944454e4400602080830191825292517f37f2a02400000000000000000000000000000000000000000000000000000000815294850192835281516024860152815160009586958695869586958695600160a060020a03909416946337f2a024949293928392604490920191908083838b5b83811015611bc2578181015183820152602001611baa565b50505050905090810190601f168015611bef5780820380516001836020036101000a031916815260200191505b509250505060a060405180830381600087803b158015611c0e57600080fd5b505af1158015611c22573d6000803e3d6000fd5b505050506040513d60a0811015611c3857600080fd5b50805160208201516040830151606084015160809094015192985090965094509092509050600182151514611ca15760405160e560020a62461bcd0281526004018080602001828103825260278152602001806120496027913960400191505060405180910390fd5b6001816001811115611caf57fe5b14611cee5760405160e560020a62461bcd02815260040180806020018281038252603a8152602001806120ac603a913960400191505060405180910390fd5b5090935050505090565b60048054604080518082018252601e81527f58454e445f46494e414e43455f434f4d4d4953494f4e5f44495649534f520000602080830191825292517f37f2a02400000000000000000000000000000000000000000000000000000000815294850192835281516024860152815160009586958695869586958695600160a060020a03909416946337f2a024949293928392604490920191908083838b8315611bc2578181015183820152602001611baa565b600082611dba57506000611754565b82820282848281611dc757fe5b04146117515760405160e560020a62461bcd0281526004018080602001828103825260218152602001806120286021913960400191505060405180910390fd5b600061175183836040518060400160405280601a81526020017f536166654d6174683a206469766973696f6e206279207a65726f000000000000815250611ea6565b600082820183811015611751576040805160e560020a62461bcd02815260206004820152601b60248201527f536166654d6174683a206164646974696f6e206f766572666c6f770000000000604482015290519081900360640190fd5b60008183611ef85760405160e560020a62461bcd028152602060048201818152835160248401528351909283926044909101919085019080838360008315611ac9578181015183820152602001611ab1565b506000838581611f0457fe5b0495945050505050565b6040518060e001604052806000151581526020016000600160a060020a031681526020016000815260200160008152602001600081526020016000815260200160008152509056fe417070726f766520616e20616d6f756e74203e203020666f7220746f6b656e206265666f72652070726f63656564696e67436f756c64206e6f7420636f6d706c657465206465706f7369742070726f636573732066726f6d20746f6b656e20636f6e7472616374556e617574686f72697a65642061636365737320746f20636f6e7472616374006d656d626572206465706f736974207265616c6c792069736e277420776f727468206d7563685365727669636520636f6e747261637420686173206265656e2064657072656361746564536166654d6174683a206d756c7469706c69636174696f6e206f766572666c6f77756e737570706f727465642072756c6520646566696e74696f6e20666f722072756c65207365745769746864726177616c2063616e6e6f742062652070726f6365737365732c20726561736f6e3a20496e73756666696369656e742042616c616e6365756e737570706f727465642072756c6520646566696e74696f6e20666f722070656e616c74792070657263656e746167652072756c6520736574a26469706673582212209a77e69f7e6763ccea6ce7cefe74a6bc571cee72e3622e6db0e671909651070264736f6c63430006060033",
  "immutableReferences": {},
  "source": "// SPDX-License-Identifier: MIT\n\npragma solidity ^0.6.0;\n\nimport \"./IClientRecordShema.sol\";\nimport \"./IGroupSchema.sol\";\nimport \"./SafeMath.sol\";\nimport \"./Ownable.sol\";\nimport \"./IDaiLendingService.sol\";\nimport \"./IClientRecord.sol\";\nimport \"./IERC20.sol\";\nimport \"./Address.sol\";\nimport \"./ISavingsConfig.sol\";\nimport \"./ISavingsConfigSchema.sol\";\nimport \"./ITreasury.sol\";\n\ncontract XendFinanceIndividual_Yearn_V1 is\n    Ownable,\n    IClientRecordSchema,\n    ISavingsConfigSchema\n{\n    using SafeMath for uint256;\n\n    using Address for address payable;\n\n    event UnderlyingAssetDeposited(\n        address payable user,\n        uint256 underlyingAmount,\n        uint256 derivativeAmount,\n        uint256 balance\n    );\n\n    event DerivativeAssetWithdrawn(\n        address payable user,\n        uint256 underlyingAmount,\n        uint256 derivativeAmount,\n        uint256 balance\n    );\n\n    IDaiLendingService lendingService;\n    IERC20 daiToken;\n    IClientRecord clientRecordStorage;\n    ISavingsConfig savingsConfig;\n    IERC20 derivativeToken;\n    ITreasury treasury;\n\n    bool isDeprecated = false;\n\n    address LendingAdapterAddress;\n    address TreasuryAddress;\n    address TokenAddress;\n\n    string constant XEND_FINANCE_COMMISION_DIVISOR = \"XEND_FINANCE_COMMISION_DIVISOR\";\n    string constant XEND_FINANCE_COMMISION_DIVIDEND = \"XEND_FINANCE_COMMISION_DIVIDEND\";\n\n    constructor(\n        address lendingAdapterAddress,\n        address lendingServiceAddress,\n        address tokenAddress,\n        address clientRecordStorageAddress,\n        address savingsConfigAddress,\n        address derivativeTokenAddress,\n        address treasuryAddress\n    ) public {\n        lendingService = IDaiLendingService(lendingServiceAddress);\n        daiToken = IERC20(tokenAddress);\n        clientRecordStorage = IClientRecord(clientRecordStorageAddress);\n        LendingAdapterAddress = lendingAdapterAddress;\n        savingsConfig = ISavingsConfig(savingsConfigAddress);\n        derivativeToken = IERC20(derivativeTokenAddress);\n        treasury = ITreasury(treasuryAddress);\n        TreasuryAddress = treasuryAddress;\n        TokenAddress = tokenAddress;\n    }\n\n    function deprecateContract(address newServiceAddress)\n        external\n        onlyOwner\n        onlyNonDeprecatedCalls\n    {\n        isDeprecated = true;\n        clientRecordStorage.reAssignStorageOracle(newServiceAddress);\n        uint256 derivativeTokenBalance = derivativeToken.balanceOf(\n            address(this)\n        );\n        derivativeToken.transfer(newServiceAddress, derivativeTokenBalance);\n    }\n\n    function doesClientRecordExist(address depositor)\n        external\n        view\n        onlyNonDeprecatedCalls\n        returns (bool)\n    {\n        return clientRecordStorage.doesClientRecordExist(depositor);\n    }\n\n    function getClientRecord(address depositor)\n        external\n        view\n        onlyNonDeprecatedCalls\n        returns (\n            address payable _address,\n            uint256 underlyingTotalDeposits,\n            uint256 underlyingTotalWithdrawn,\n            uint256 derivativeBalance,\n            uint256 derivativeTotalDeposits,\n            uint256 derivativeTotalWithdrawn\n        )\n    {\n        ClientRecord memory clientRecord = _getClientRecordByAddress(depositor);\n        return (\n            clientRecord._address,\n            clientRecord.underlyingTotalDeposits,\n            clientRecord.underlyingTotalWithdrawn,\n            clientRecord.derivativeBalance,\n            clientRecord.derivativeTotalDeposits,\n            clientRecord.derivativeTotalWithdrawn\n        );\n    }\n\n    function getClientRecord()\n        external\n        view\n        onlyNonDeprecatedCalls\n        returns (\n            address payable _address,\n            uint256 underlyingTotalDeposits,\n            uint256 underlyingTotalWithdrawn,\n            uint256 derivativeBalance,\n            uint256 derivativeTotalDeposits,\n            uint256 derivativeTotalWithdrawn\n        )\n    {\n        ClientRecord memory clientRecord = _getClientRecordByAddress(\n            msg.sender\n        );\n\n        return (\n            clientRecord._address,\n            clientRecord.underlyingTotalDeposits,\n            clientRecord.underlyingTotalWithdrawn,\n            clientRecord.derivativeBalance,\n            clientRecord.derivativeTotalDeposits,\n            clientRecord.derivativeTotalWithdrawn\n        );\n    }\n\n    function getClientRecordByIndex(uint256 index)\n        external\n        view\n        onlyNonDeprecatedCalls\n        returns (\n            address payable _address,\n            uint256 underlyingTotalDeposits,\n            uint256 underlyingTotalWithdrawn,\n            uint256 derivativeBalance,\n            uint256 derivativeTotalDeposits,\n            uint256 derivativeTotalWithdrawn\n        )\n    {\n        ClientRecord memory clientRecord = _getClientRecordByIndex(index);\n        return (\n            clientRecord._address,\n            clientRecord.underlyingTotalDeposits,\n            clientRecord.underlyingTotalWithdrawn,\n            clientRecord.derivativeBalance,\n            clientRecord.derivativeTotalDeposits,\n            clientRecord.derivativeTotalWithdrawn\n        );\n    }\n\n    function _getClientRecordByIndex(uint256 index)\n        internal\n        view\n        returns (ClientRecord memory)\n    {\n        (\n            address payable _address,\n            uint256 underlyingTotalDeposits,\n            uint256 underlyingTotalWithdrawn,\n            uint256 derivativeBalance,\n            uint256 derivativeTotalDeposits,\n            uint256 derivativeTotalWithdrawn\n        ) = clientRecordStorage.getClientRecordByIndex(index);\n        return\n            ClientRecord(\n                true,\n                _address,\n                underlyingTotalDeposits,\n                underlyingTotalWithdrawn,\n                derivativeBalance,\n                derivativeTotalDeposits,\n                derivativeTotalWithdrawn\n            );\n    }\n\n    function _getClientRecordByAddress(address member)\n        internal\n        view\n        returns (ClientRecord memory)\n    {\n        (\n            address payable _address,\n            uint256 underlyingTotalDeposits,\n            uint256 underlyingTotalWithdrawn,\n            uint256 derivativeBalance,\n            uint256 derivativeTotalDeposits,\n            uint256 derivativeTotalWithdrawn\n        ) = clientRecordStorage.getClientRecordByAddress(member);\n\n        return\n            ClientRecord(\n                true,\n                _address,\n                underlyingTotalDeposits,\n                underlyingTotalWithdrawn,\n                derivativeBalance,\n                derivativeTotalDeposits,\n                derivativeTotalWithdrawn\n            );\n    }\n\n    function withdraw(uint256 derivativeAmount)\n        external\n        onlyNonDeprecatedCalls\n    {\n        address payable recipient = msg.sender;\n        _withdraw(recipient, derivativeAmount);\n    }\n\n    function withdrawDelegate(\n        address payable recipient,\n        uint256 derivativeAmount\n    ) external onlyNonDeprecatedCalls onlyOwner {\n        _withdraw(recipient, derivativeAmount);\n    }\n\n    function _withdraw(address payable recipient, uint256 derivativeAmount)\n        internal\n    {\n        _validateUserBalanceIsSufficient(recipient, derivativeAmount);\n\n        uint256 balanceBeforeWithdraw = lendingService.userDaiBalance();\n\n        derivativeToken.approve(LendingAdapterAddress,derivativeAmount);\n        lendingService.WithdrawBySharesOnly(derivativeAmount);\n\n        uint256 balanceAfterWithdraw = lendingService.userDaiBalance();\n\n        uint256 amountOfUnderlyingAssetWithdrawn =  balanceAfterWithdraw.sub(\n            balanceBeforeWithdraw\n        );\n        \n\n        uint256 commissionFees = _computeXendFinanceCommisions(\n            amountOfUnderlyingAssetWithdrawn\n        );\n\n        uint256 amountToSendToDepositor = amountOfUnderlyingAssetWithdrawn.sub(\n            commissionFees\n        );\n            daiToken.approve(recipient, amountToSendToDepositor);\n\n        bool isSuccessful = daiToken.transfer(\n            recipient,\n            amountToSendToDepositor\n        );\n\n        require(isSuccessful == true, \"Could not complete withdrawal\");\n\n        if (commissionFees > 0) {\n            daiToken.approve(TreasuryAddress, commissionFees);\n            treasury.depositToken(TokenAddress);\n        }\n\n        ClientRecord memory clientRecord = _updateClientRecordAfterWithdrawal(\n            recipient,\n            amountOfUnderlyingAssetWithdrawn,\n            derivativeAmount\n        );\n        _updateClientRecord(clientRecord);\n\n        emit DerivativeAssetWithdrawn(\n            recipient,\n            amountOfUnderlyingAssetWithdrawn,\n            derivativeAmount,\n            clientRecord.derivativeBalance\n        );\n    }\n\n    function _validateUserBalanceIsSufficient(\n        address payable recipient,\n        uint256 derivativeAmount\n    ) internal view returns (uint256) {\n        ClientRecord memory clientRecord = _getClientRecordByAddress(recipient);\n\n        uint256 derivativeBalance = clientRecord.derivativeBalance;\n\n        require(\n            derivativeBalance >= derivativeAmount,\n            \"Withdrawal cannot be processes, reason: Insufficient Balance\"\n        );\n    }\n\n    function _computeXendFinanceCommisions(uint256 worthOfMemberDepositNow)\n        internal\n        returns (uint256)\n    {\n        uint256 dividend = _getDividend();\n        uint256 divisor = _getDivisor();\n\n        require(\n            worthOfMemberDepositNow > 0,\n            \"member deposit really isn't worth much\"\n        );\n\n        return worthOfMemberDepositNow.mul(dividend).div(divisor);\n    }\n\n    function _getDivisor() internal returns (uint256) {\n        (\n            uint256 minimumDivisor,\n            uint256 maximumDivisor,\n            uint256 exactDivisor,\n            bool appliesDivisor,\n            RuleDefinition ruleDefinitionDivisor\n        ) = savingsConfig.getRuleSet(XEND_FINANCE_COMMISION_DIVISOR);\n\n        require(\n            appliesDivisor == true,\n            \"unsupported rule defintion for rule set\"\n        );\n\n        require(\n            ruleDefinitionDivisor == RuleDefinition.VALUE,\n            \"unsupported rule defintion for penalty percentage rule set\"\n        );\n        return exactDivisor;\n    }\n\n    function _getDividend() internal returns (uint256) {\n        (\n            uint256 minimumDividend,\n            uint256 maximumDividend,\n            uint256 exactDividend,\n            bool appliesDividend,\n            RuleDefinition ruleDefinitionDividend\n        ) = savingsConfig.getRuleSet(XEND_FINANCE_COMMISION_DIVIDEND);\n\n        require(\n            appliesDividend == true,\n            \"unsupported rule defintion for rule set\"\n        );\n\n        require(\n            ruleDefinitionDividend == RuleDefinition.VALUE,\n            \"unsupported rule defintion for penalty percentage rule set\"\n        );\n        return exactDividend;\n    }\n\n    function deposit() external onlyNonDeprecatedCalls {\n        address payable depositor = msg.sender;\n        _deposit(depositor);\n    }\n\n    function depositDelegate(address payable depositorAddress)\n        external\n        onlyNonDeprecatedCalls\n        onlyOwner\n    {\n        _deposit(depositorAddress);\n    }\n\n    function _deposit(address payable depositorAddress) internal {\n        address recipient = address(this);\n        uint256 amountTransferrable = daiToken.allowance(\n            depositorAddress,\n            recipient\n        );\n\n        require(\n            amountTransferrable > 0,\n            \"Approve an amount > 0 for token before proceeding\"\n        );\n        bool isSuccessful = daiToken.transferFrom(\n            depositorAddress,\n            recipient,\n            amountTransferrable\n        );\n        require(\n            isSuccessful == true,\n            \"Could not complete deposit process from token contract\"\n        );\n\n        daiToken.approve(LendingAdapterAddress, amountTransferrable);\n\n        uint256 balanceBeforeDeposit = lendingService.userShares();\n\n        lendingService.save(amountTransferrable);\n\n        uint256 balanceAfterDeposit = lendingService.userShares();\n\n        uint256 amountOfyDai = balanceAfterDeposit.sub(balanceBeforeDeposit);\n        ClientRecord memory clientRecord = _updateClientRecordAfterDeposit(\n            depositorAddress,\n            amountTransferrable,\n            amountOfyDai\n        );\n\n        bool exists = clientRecordStorage.doesClientRecordExist(\n            depositorAddress\n        );\n\n        if (exists) _updateClientRecord(clientRecord);\n        else {\n            clientRecordStorage.createClientRecord(\n                clientRecord._address,\n                clientRecord.underlyingTotalDeposits,\n                clientRecord.underlyingTotalWithdrawn,\n                clientRecord.derivativeBalance,\n                clientRecord.derivativeTotalDeposits,\n                clientRecord.derivativeTotalWithdrawn\n            );\n        }\n\n        emit UnderlyingAssetDeposited(\n            depositorAddress,\n            amountTransferrable,\n            amountOfyDai,\n            clientRecord.derivativeBalance\n        );\n    }\n\n    function _updateClientRecordAfterDeposit(\n        address payable client,\n        uint256 underlyingAmountDeposited,\n        uint256 derivativeAmountDeposited\n    ) internal returns (ClientRecord memory) {\n        bool exists = clientRecordStorage.doesClientRecordExist(client);\n        if (!exists) {\n            ClientRecord memory record = ClientRecord(\n                true,\n                client,\n                underlyingAmountDeposited,\n                0,\n                derivativeAmountDeposited,\n                derivativeAmountDeposited,\n                0\n            );\n\n           \n            return record;\n        } else {\n            ClientRecord memory record = _getClientRecordByAddress(client);\n\n            record.underlyingTotalDeposits = record.underlyingTotalDeposits.add(\n                underlyingAmountDeposited\n            );\n            record.derivativeTotalDeposits = record.derivativeTotalDeposits.add(\n                derivativeAmountDeposited\n            );\n            record.derivativeBalance = record.derivativeBalance.add(\n                derivativeAmountDeposited\n            );\n\n            return record;\n        }\n    }\n\n    function _updateClientRecordAfterWithdrawal(\n        address payable client,\n        uint256 underlyingAmountWithdrawn,\n        uint256 derivativeAmountWithdrawn\n    ) internal returns (ClientRecord memory) {\n        ClientRecord memory record = _getClientRecordByAddress(client);\n\n        record.underlyingTotalWithdrawn = record.underlyingTotalWithdrawn.add(\n            underlyingAmountWithdrawn\n        );\n\n        record.derivativeTotalWithdrawn = record.derivativeTotalWithdrawn.add(\n            derivativeAmountWithdrawn\n        );\n        record.derivativeBalance = record.derivativeBalance.sub(\n            derivativeAmountWithdrawn\n        );\n\n        return record;\n    }\n\n    function _updateClientRecord(ClientRecord memory clientRecord) internal {\n        clientRecordStorage.updateClientRecord(\n            clientRecord._address,\n            clientRecord.underlyingTotalDeposits,\n            clientRecord.underlyingTotalWithdrawn,\n            clientRecord.derivativeBalance,\n            clientRecord.derivativeTotalDeposits,\n            clientRecord.derivativeTotalWithdrawn\n        );\n    }\n\n    modifier onlyNonDeprecatedCalls() {\n        require(isDeprecated == false, \"Service contract has been deprecated\");\n        _;\n    }\n}",
  "sourcePath": "/Users/njokuscript/Desktop/programming/yearn-savings/Tests/contracts/XendFinanceIndividual_Yearn_V1.sol",
  "compiler": {
    "name": "solc",
    "version": "0.6.6+commit.6c089d02.Emscripten.clang"
  },
  "schemaVersion": "3.2.5",
  "updatedAt": "2020-11-19T12:35:56.395Z",
  "networkType": "ethereum",
  "devdoc": {
    "methods": {}
  },
  "userdoc": {
    "methods": {}
  }
}