{
  "contractName": "XendFinanceGroup_Yearn_V1",
  "abi": [
    {
      "inputs": [
        {
          "internalType": "address",
          "name": "lendingAdapterAddress",
          "type": "address"
        },
        {
          "internalType": "address",
          "name": "lendingServiceAddress",
          "type": "address"
        },
        {
          "internalType": "address",
          "name": "tokenAddress",
          "type": "address"
        },
        {
          "internalType": "address",
          "name": "groupStorageAddress",
          "type": "address"
        },
        {
          "internalType": "address",
          "name": "cycleStorageAddress",
          "type": "address"
        },
        {
          "internalType": "address",
          "name": "treasuryAddress",
          "type": "address"
        },
        {
          "internalType": "address",
          "name": "savingsConfigAddress",
          "type": "address"
        },
        {
          "internalType": "address",
          "name": "rewardConfigAddress",
          "type": "address"
        },
        {
          "internalType": "address",
          "name": "xendTokenAddress",
          "type": "address"
        },
        {
          "internalType": "address",
          "name": "derivativeTokenAddress",
          "type": "address"
        }
      ],
      "stateMutability": "nonpayable",
      "type": "constructor"
    },
    {
      "anonymous": false,
      "inputs": [
        {
          "indexed": true,
          "internalType": "uint256",
          "name": "cycleId",
          "type": "uint256"
        },
        {
          "indexed": false,
          "internalType": "uint256",
          "name": "maximumSlots",
          "type": "uint256"
        },
        {
          "indexed": false,
          "internalType": "bool",
          "name": "hasMaximumSlots",
          "type": "bool"
        },
        {
          "indexed": false,
          "internalType": "uint256",
          "name": "stakeAmount",
          "type": "uint256"
        },
        {
          "indexed": false,
          "internalType": "uint256",
          "name": "expectedCycleStartTimeStamp",
          "type": "uint256"
        },
        {
          "indexed": false,
          "internalType": "uint256",
          "name": "cycleDuration",
          "type": "uint256"
        }
      ],
      "name": "CycleCreated",
      "type": "event"
    },
    {
      "anonymous": false,
      "inputs": [
        {
          "indexed": true,
          "internalType": "uint256",
          "name": "cycleId",
          "type": "uint256"
        },
        {
          "indexed": true,
          "internalType": "uint256",
          "name": "blockTimeStamp",
          "type": "uint256"
        },
        {
          "indexed": false,
          "internalType": "uint256",
          "name": "blockNumber",
          "type": "uint256"
        },
        {
          "indexed": false,
          "internalType": "uint256",
          "name": "totalDerivativeAmount",
          "type": "uint256"
        },
        {
          "indexed": false,
          "internalType": "uint256",
          "name": "totalUnderlyingAmount",
          "type": "uint256"
        }
      ],
      "name": "CycleStartedEvent",
      "type": "event"
    },
    {
      "anonymous": false,
      "inputs": [
        {
          "indexed": true,
          "internalType": "uint256",
          "name": "cycleId",
          "type": "uint256"
        },
        {
          "indexed": true,
          "internalType": "address payable",
          "name": "memberAddress",
          "type": "address"
        },
        {
          "indexed": false,
          "internalType": "uint256",
          "name": "underlyingAmount",
          "type": "uint256"
        },
        {
          "indexed": false,
          "internalType": "address",
          "name": "tokenAddress",
          "type": "address"
        }
      ],
      "name": "DerivativeAssetWithdrawn",
      "type": "event"
    },
    {
      "anonymous": false,
      "inputs": [
        {
          "indexed": true,
          "internalType": "uint256",
          "name": "groupId",
          "type": "uint256"
        },
        {
          "indexed": true,
          "internalType": "address payable",
          "name": "groupCreator",
          "type": "address"
        }
      ],
      "name": "GroupCreated",
      "type": "event"
    },
    {
      "anonymous": false,
      "inputs": [
        {
          "indexed": true,
          "internalType": "uint256",
          "name": "cycleId",
          "type": "uint256"
        },
        {
          "indexed": true,
          "internalType": "address payable",
          "name": "memberAddress",
          "type": "address"
        },
        {
          "indexed": false,
          "internalType": "uint256",
          "name": "groupId",
          "type": "uint256"
        }
      ],
      "name": "MemberJoinedCycle",
      "type": "event"
    },
    {
      "anonymous": false,
      "inputs": [
        {
          "indexed": false,
          "internalType": "address payable",
          "name": "memberAddress",
          "type": "address"
        },
        {
          "indexed": false,
          "internalType": "uint256",
          "name": "groupId",
          "type": "uint256"
        }
      ],
      "name": "MemberJoinedGroup",
      "type": "event"
    },
    {
      "anonymous": false,
      "inputs": [
        {
          "indexed": true,
          "internalType": "uint256",
          "name": "cycleId",
          "type": "uint256"
        },
        {
          "indexed": true,
          "internalType": "address payable",
          "name": "memberAddress",
          "type": "address"
        },
        {
          "indexed": false,
          "internalType": "uint256",
          "name": "groupId",
          "type": "uint256"
        },
        {
          "indexed": false,
          "internalType": "uint256",
          "name": "underlyingAmount",
          "type": "uint256"
        },
        {
          "indexed": true,
          "internalType": "address",
          "name": "tokenAddress",
          "type": "address"
        }
      ],
      "name": "UnderlyingAssetDeposited",
      "type": "event"
    },
    {
      "inputs": [
        {
          "internalType": "uint256",
          "name": "_groupId",
          "type": "uint256"
        },
        {
          "internalType": "uint256",
          "name": "indexerRecordLocation",
          "type": "uint256"
        }
      ],
      "name": "getCycleByGroup",
      "outputs": [
        {
          "internalType": "uint256",
          "name": "id",
          "type": "uint256"
        },
        {
          "internalType": "uint256",
          "name": "groupId",
          "type": "uint256"
        },
        {
          "internalType": "uint256",
          "name": "numberOfDepositors",
          "type": "uint256"
        },
        {
          "internalType": "uint256",
          "name": "cycleStartTimeStamp",
          "type": "uint256"
        },
        {
          "internalType": "uint256",
          "name": "cycleDuration",
          "type": "uint256"
        },
        {
          "internalType": "uint256",
          "name": "maximumSlots",
          "type": "uint256"
        },
        {
          "internalType": "bool",
          "name": "hasMaximumSlots",
          "type": "bool"
        },
        {
          "internalType": "uint256",
          "name": "cycleStakeAmount",
          "type": "uint256"
        },
        {
          "internalType": "uint256",
          "name": "totalStakes",
          "type": "uint256"
        },
        {
          "internalType": "uint256",
          "name": "stakesClaimed",
          "type": "uint256"
        },
        {
          "internalType": "enum IGroupSchema.CycleStatus",
          "name": "cycleStatus",
          "type": "uint8"
        },
        {
          "internalType": "uint256",
          "name": "stakesClaimedBeforeMaturity",
          "type": "uint256"
        }
      ],
      "stateMutability": "view",
      "type": "function"
    },
    {
      "inputs": [
        {
          "internalType": "uint256",
          "name": "index",
          "type": "uint256"
        }
      ],
      "name": "getCycleMember",
      "outputs": [
        {
          "internalType": "uint256",
          "name": "cycleId",
          "type": "uint256"
        },
        {
          "internalType": "uint256",
          "name": "groupId",
          "type": "uint256"
        },
        {
          "internalType": "address payable",
          "name": "_address",
          "type": "address"
        },
        {
          "internalType": "uint256",
          "name": "totalLiquidityAsPenalty",
          "type": "uint256"
        },
        {
          "internalType": "uint256",
          "name": "numberOfCycleStakes",
          "type": "uint256"
        },
        {
          "internalType": "uint256",
          "name": "stakesClaimed",
          "type": "uint256"
        },
        {
          "internalType": "bool",
          "name": "hasWithdrawn",
          "type": "bool"
        }
      ],
      "stateMutability": "view",
      "type": "function"
    },
    {
      "inputs": [
        {
          "internalType": "address payable",
          "name": "_depositorAddress",
          "type": "address"
        },
        {
          "internalType": "uint256",
          "name": "_cycleId",
          "type": "uint256"
        }
      ],
      "name": "getCycleMember",
      "outputs": [
        {
          "internalType": "uint256",
          "name": "cycleId",
          "type": "uint256"
        },
        {
          "internalType": "uint256",
          "name": "groupId",
          "type": "uint256"
        },
        {
          "internalType": "address payable",
          "name": "_address",
          "type": "address"
        },
        {
          "internalType": "uint256",
          "name": "totalLiquidityAsPenalty",
          "type": "uint256"
        },
        {
          "internalType": "uint256",
          "name": "numberOfCycleStakes",
          "type": "uint256"
        },
        {
          "internalType": "uint256",
          "name": "stakesClaimed",
          "type": "uint256"
        },
        {
          "internalType": "bool",
          "name": "hasWithdrawn",
          "type": "bool"
        }
      ],
      "stateMutability": "view",
      "type": "function"
    },
    {
      "inputs": [
        {
          "internalType": "uint256",
          "name": "_cycleId",
          "type": "uint256"
        },
        {
          "internalType": "uint256",
          "name": "indexerRecordLocation",
          "type": "uint256"
        }
      ],
      "name": "getCycleMemberByCycleId",
      "outputs": [
        {
          "internalType": "uint256",
          "name": "cycleId",
          "type": "uint256"
        },
        {
          "internalType": "uint256",
          "name": "groupId",
          "type": "uint256"
        },
        {
          "internalType": "address payable",
          "name": "_address",
          "type": "address"
        },
        {
          "internalType": "uint256",
          "name": "totalLiquidityAsPenalty",
          "type": "uint256"
        },
        {
          "internalType": "uint256",
          "name": "numberOfCycleStakes",
          "type": "uint256"
        },
        {
          "internalType": "uint256",
          "name": "stakesClaimed",
          "type": "uint256"
        },
        {
          "internalType": "bool",
          "name": "hasWithdrawn",
          "type": "bool"
        }
      ],
      "stateMutability": "view",
      "type": "function"
    },
    {
      "inputs": [
        {
          "internalType": "address",
          "name": "groupCreator",
          "type": "address"
        },
        {
          "internalType": "uint256",
          "name": "indexRecordPosition",
          "type": "uint256"
        }
      ],
      "name": "getGroupsByCreator",
      "outputs": [
        {
          "internalType": "uint256",
          "name": "groupId",
          "type": "uint256"
        },
        {
          "internalType": "string",
          "name": "name",
          "type": "string"
        },
        {
          "internalType": "string",
          "name": "symbol",
          "type": "string"
        },
        {
          "internalType": "address payable",
          "name": "creatorAddress",
          "type": "address"
        }
      ],
      "stateMutability": "view",
      "type": "function"
    },
    {
      "inputs": [],
      "name": "owner",
      "outputs": [
        {
          "internalType": "address payable",
          "name": "",
          "type": "address"
        }
      ],
      "stateMutability": "view",
      "type": "function"
    },
    {
      "inputs": [
        {
          "internalType": "address payable",
          "name": "newOwner",
          "type": "address"
        }
      ],
      "name": "transferOwnership",
      "outputs": [],
      "stateMutability": "nonpayable",
      "type": "function"
    },
    {
      "inputs": [
        {
          "internalType": "uint256",
          "name": "cycleId",
          "type": "uint256"
        }
      ],
      "name": "withdrawFromCycleWhileItIsOngoing",
      "outputs": [],
      "stateMutability": "nonpayable",
      "type": "function"
    },
    {
      "inputs": [
        {
          "internalType": "uint256",
          "name": "cycleId",
          "type": "uint256"
        },
        {
          "internalType": "address payable",
          "name": "memberAddress",
          "type": "address"
        }
      ],
      "name": "getDerivativeAmountForUserStake",
      "outputs": [
        {
          "internalType": "uint256",
          "name": "",
          "type": "uint256"
        }
      ],
      "stateMutability": "view",
      "type": "function"
    },
    {
      "inputs": [
        {
          "internalType": "uint256",
          "name": "cycleId",
          "type": "uint256"
        },
        {
          "internalType": "address payable",
          "name": "memberAddress",
          "type": "address"
        }
      ],
      "name": "withdrawFromCycle",
      "outputs": [],
      "stateMutability": "nonpayable",
      "type": "function"
    },
    {
      "inputs": [
        {
          "internalType": "uint256",
          "name": "cycleId",
          "type": "uint256"
        }
      ],
      "name": "withdrawFromCycle",
      "outputs": [],
      "stateMutability": "nonpayable",
      "type": "function"
    },
    {
      "inputs": [
        {
          "internalType": "address",
          "name": "newServiceAddress",
          "type": "address"
        }
      ],
      "name": "deprecateContract",
      "outputs": [],
      "stateMutability": "nonpayable",
      "type": "function"
    },
    {
      "inputs": [
        {
          "internalType": "uint256",
          "name": "cycleId",
          "type": "uint256"
        }
      ],
      "name": "getRecordIndexLengthForCycleMembers",
      "outputs": [
        {
          "internalType": "uint256",
          "name": "",
          "type": "uint256"
        }
      ],
      "stateMutability": "view",
      "type": "function"
    },
    {
      "inputs": [
        {
          "internalType": "address",
          "name": "depositorAddress",
          "type": "address"
        }
      ],
      "name": "getRecordIndexLengthForCycleMembersByDepositor",
      "outputs": [
        {
          "internalType": "uint256",
          "name": "",
          "type": "uint256"
        }
      ],
      "stateMutability": "view",
      "type": "function"
    },
    {
      "inputs": [
        {
          "internalType": "uint256",
          "name": "groupId",
          "type": "uint256"
        }
      ],
      "name": "getRecordIndexLengthForGroupMembers",
      "outputs": [
        {
          "internalType": "uint256",
          "name": "",
          "type": "uint256"
        }
      ],
      "stateMutability": "view",
      "type": "function"
    },
    {
      "inputs": [
        {
          "internalType": "address",
          "name": "depositorAddress",
          "type": "address"
        }
      ],
      "name": "getRecordIndexLengthForGroupMembersByDepositor",
      "outputs": [
        {
          "internalType": "uint256",
          "name": "",
          "type": "uint256"
        }
      ],
      "stateMutability": "view",
      "type": "function"
    },
    {
      "inputs": [
        {
          "internalType": "uint256",
          "name": "groupId",
          "type": "uint256"
        }
      ],
      "name": "getRecordIndexLengthForGroupCycles",
      "outputs": [
        {
          "internalType": "uint256",
          "name": "",
          "type": "uint256"
        }
      ],
      "stateMutability": "view",
      "type": "function"
    },
    {
      "inputs": [
        {
          "internalType": "address",
          "name": "groupCreator",
          "type": "address"
        }
      ],
      "name": "getRecordIndexLengthForCreator",
      "outputs": [
        {
          "internalType": "uint256",
          "name": "",
          "type": "uint256"
        }
      ],
      "stateMutability": "view",
      "type": "function"
    },
    {
      "inputs": [
        {
          "internalType": "uint256",
          "name": "cycleId",
          "type": "uint256"
        }
      ],
      "name": "getSecondsLeftForCycleToEnd",
      "outputs": [
        {
          "internalType": "uint256",
          "name": "",
          "type": "uint256"
        }
      ],
      "stateMutability": "view",
      "type": "function"
    },
    {
      "inputs": [
        {
          "internalType": "uint256",
          "name": "cycleId",
          "type": "uint256"
        }
      ],
      "name": "getSecondsLeftForCycleToStart",
      "outputs": [
        {
          "internalType": "uint256",
          "name": "",
          "type": "uint256"
        }
      ],
      "stateMutability": "view",
      "type": "function"
    },
    {
      "inputs": [
        {
          "internalType": "uint256",
          "name": "cycleId",
          "type": "uint256"
        }
      ],
      "name": "activateCycle",
      "outputs": [],
      "stateMutability": "nonpayable",
      "type": "function"
    },
    {
      "inputs": [
        {
          "internalType": "uint256",
          "name": "cycleId",
          "type": "uint256"
        }
      ],
      "name": "endCycle",
      "outputs": [],
      "stateMutability": "nonpayable",
      "type": "function"
    },
    {
      "inputs": [
        {
          "internalType": "string",
          "name": "name",
          "type": "string"
        },
        {
          "internalType": "string",
          "name": "symbol",
          "type": "string"
        }
      ],
      "name": "createGroup",
      "outputs": [],
      "stateMutability": "nonpayable",
      "type": "function"
    },
    {
      "inputs": [
        {
          "internalType": "uint256",
          "name": "groupId",
          "type": "uint256"
        },
        {
          "internalType": "uint256",
          "name": "startTimeStamp",
          "type": "uint256"
        },
        {
          "internalType": "uint256",
          "name": "duration",
          "type": "uint256"
        },
        {
          "internalType": "uint256",
          "name": "maximumSlots",
          "type": "uint256"
        },
        {
          "internalType": "bool",
          "name": "hasMaximumSlots",
          "type": "bool"
        },
        {
          "internalType": "uint256",
          "name": "cycleStakeAmount",
          "type": "uint256"
        }
      ],
      "name": "createCycle",
      "outputs": [],
      "stateMutability": "nonpayable",
      "type": "function"
    },
    {
      "inputs": [
        {
          "internalType": "uint256",
          "name": "cycleId",
          "type": "uint256"
        },
        {
          "internalType": "uint256",
          "name": "numberOfStakes",
          "type": "uint256"
        }
      ],
      "name": "joinCycle",
      "outputs": [],
      "stateMutability": "nonpayable",
      "type": "function"
    },
    {
      "inputs": [
        {
          "internalType": "uint256",
          "name": "cycleId",
          "type": "uint256"
        },
        {
          "internalType": "uint256",
          "name": "numberOfStakes",
          "type": "uint256"
        },
        {
          "internalType": "address payable",
          "name": "depositorAddress",
          "type": "address"
        }
      ],
      "name": "joinCycleDelegate",
      "outputs": [],
      "stateMutability": "nonpayable",
      "type": "function"
    }
  ],
  "bytecode": "0x6080604052600b805460a060020a60ff02191690553480156200002157600080fd5b50604051620061983803806200619883398181016040526101408110156200004857600080fd5b508051602082015160408301516060840151608085015160a086015160c087015160e088015161010089015161012090990151600c805433600160a060020a031991821617909155600080548216600160a060020a039a8b16178155600180548316998b16998a179055600280548316988b1698909817909755600380548216968a169690961790955560048054861694891694851790556005805486169389169390931790925560068054851691881691909117905560078054841698871698909817909755600880548316978616979097179096556009805482169490951693909317909355600a805483169091179055600b805490911690921790915561603f9081906200015990396000f3fe608060405234801561001057600080fd5b50600436106101925760003560e060020a90048063703b98aa116100e2578063c10d97271161009b578063dd162e8311610075578063dd162e8314610624578063f1a42ec01461074e578063f2fde38b1461076b578063f5d658911461079157610192565b8063c10d9727146105a7578063c735f1f7146105e4578063d8cfbd2f1461060757610192565b8063703b98aa146104dd57806388bec787146105005780638da5cb5b1461051d578063b1b5537c14610541578063bcb252ad1461055e578063c09ca5dd1461058a57610192565b80633691fc891161014f5780634dd5a973116101295780634dd5a973146103945780635ce38d8c146103c0578063607d64581461041f578063615ff7f81461044557610192565b80633691fc891461033d5780633c44940d1461035a578063432b162e1461037757610192565b80631735b300146101975780631e4a97dd146101cf578063242222e01461029357806327205736146102b957806329602dc2146102eb5780633525e9c414610317575b600080fd5b6101bd600480360360208110156101ad57600080fd5b5035600160a060020a03166107ae565b60408051918252519081900360200190f35b610291600480360360408110156101e557600080fd5b81019060208101813564010000000081111561020057600080fd5b82018360208201111561021257600080fd5b8035906020019184600183028401116401000000008311171561023457600080fd5b91939092909160208101903564010000000081111561025257600080fd5b82018360208201111561026457600080fd5b8035906020019184600183028401116401000000008311171561028657600080fd5b509092509050610897565b005b610291600480360360208110156102a957600080fd5b5035600160a060020a0316610a84565b610291600480360360608110156102cf57600080fd5b5080359060208101359060400135600160a060020a0316610d87565b6101bd6004803603604081101561030157600080fd5b5080359060200135600160a060020a0316610de3565b6101bd6004803603602081101561032d57600080fd5b5035600160a060020a0316610f49565b6102916004803603602081101561035357600080fd5b5035610ffe565b6101bd6004803603602081101561037057600080fd5b5035611053565b6101bd6004803603602081101561038d57600080fd5b5035611107565b610291600480360360408110156103aa57600080fd5b5080359060200135600160a060020a03166111bb565b6103dd600480360360208110156103d657600080fd5b5035611266565b604080519788526020880196909652600160a060020a03909416868601526060860192909252608085015260a0840152151560c0830152519081900360e00190f35b6101bd6004803603602081101561043557600080fd5b5035600160a060020a031661132f565b6104686004803603604081101561045b57600080fd5b50803590602001356113e4565b604051808d81526020018c81526020018b81526020018a8152602001898152602001888152602001871515151581526020018681526020018581526020018481526020018360028111156104b857fe5b60ff1681526020018281526020019c5050505050505050505050505060405180910390f35b6103dd600480360360408110156104f357600080fd5b508035906020013561153e565b6101bd6004803603602081101561051657600080fd5b5035611703565b6105256117a5565b60408051600160a060020a039092168252519081900360200190f35b6102916004803603602081101561055757600080fd5b50356117b4565b6103dd6004803603604081101561057457600080fd5b50600160a060020a038135169060200135611a5b565b610291600480360360208110156105a057600080fd5b5035611ab8565b610291600480360360c08110156105bd57600080fd5b50803590602081013590604081013590606081013590608081013515159060a00135611b11565b610291600480360360408110156105fa57600080fd5b5080359060200135611de8565b6101bd6004803603602081101561061d57600080fd5b5035611e40565b6106506004803603604081101561063a57600080fd5b50600160a060020a038135169060200135611ee8565b60405180858152602001806020018060200184600160a060020a0316600160a060020a03168152602001838103835286818151815260200191508051906020019080838360005b838110156106af578181015183820152602001610697565b50505050905090810190601f1680156106dc5780820380516001836020036101000a031916815260200191505b50838103825285518152855160209182019187019080838360005b8381101561070f5781810151838201526020016106f7565b50505050905090810190601f16801561073c5780820380516001836020036101000a031916815260200191505b50965050505050505060405180910390f35b6101bd6004803603602081101561076457600080fd5b50356121f7565b6102916004803603602081101561078157600080fd5b5035600160a060020a03166122ab565b610291600480360360208110156107a757600080fd5b5035612348565b600b5460009060a060020a900460ff16156107fd5760405160e560020a62461bcd028152600401808060200182810382526024815260200180615eda6024913960400191505060405180910390fd5b600354604080517f1735b300000000000000000000000000000000000000000000000000000000008152600160a060020a03858116600483015291519190921691631735b300916024808301926020929190829003018186803b15801561086357600080fd5b505afa158015610877573d6000803e3d6000fd5b505050506040513d602081101561088d57600080fd5b505190505b919050565b600b5460a060020a900460ff16156108e35760405160e560020a62461bcd028152600401808060200182810382526024815260200180615eda6024913960400191505060405180910390fd5b61095684848080601f01602080910402602001604051908101604052809392919081815260200183838082843760009201919091525050604080516020601f880181900481028201810190925286815292508691508590819084018382808284376000920191909152506123a392505050565b6002546040517f9a259798000000000000000000000000000000000000000000000000000000008152336044820181905260606004830190815260648301879052600093600160a060020a031692639a259798928992899289928992909181906024810190608401888880828437600083820152601f01601f191690910184810383528681526020019050868680828437600081840152601f19601f820116905080830192505050975050505050505050602060405180830381600087803b158015610a2157600080fd5b505af1158015610a35573d6000803e3d6000fd5b505050506040513d6020811015610a4b57600080fd5b5051604051909150339082907f6958b51b54d963fa8eeeea5b61b83a9ad28f9ee9d5a2f1b8495e6866cb534bb190600090a35050505050565b600c54600160a060020a03163314610ae6576040805160e560020a62461bcd02815260206004820152601f60248201527f556e617574686f72697a65642061636365737320746f20636f6e747261637400604482015290519081900360640190fd5b600b5460a060020a900460ff1615610b325760405160e560020a62461bcd028152600401808060200182810382526024815260200180615eda6024913960400191505060405180910390fd5b600b805474ff0000000000000000000000000000000000000000191660a060020a179055600254604080517f0fdf80ed000000000000000000000000000000000000000000000000000000008152600160a060020a03848116600483015291519190921691630fdf80ed91602480830192600092919082900301818387803b158015610bbd57600080fd5b505af1158015610bd1573d6000803e3d6000fd5b5050600354604080517f0fdf80ed000000000000000000000000000000000000000000000000000000008152600160a060020a0386811660048301529151919092169350630fdf80ed9250602480830192600092919082900301818387803b158015610c3c57600080fd5b505af1158015610c50573d6000803e3d6000fd5b5050600854604080517f70a08231000000000000000000000000000000000000000000000000000000008152306004820152905160009450600160a060020a0390921692506370a08231916024808301926020929190829003018186803b158015610cba57600080fd5b505afa158015610cce573d6000803e3d6000fd5b505050506040513d6020811015610ce457600080fd5b5051600854604080517fa9059cbb000000000000000000000000000000000000000000000000000000008152600160a060020a03868116600483015260248201859052915193945091169163a9059cbb916044808201926020929091908290030181600087803b158015610d5757600080fd5b505af1158015610d6b573d6000803e3d6000fd5b505050506040513d6020811015610d8157600080fd5b50505050565b600b5460a060020a900460ff1615610dd35760405160e560020a62461bcd028152600401808060200182810382526024815260200180615eda6024913960400191505060405180910390fd5b610dde8383836125a2565b505050565b6000610ded615a62565b610df6846128a4565b9050610e00615ad9565b610e0985612a5f565b6003546040805160e060020a63955974a702815260048101899052600160a060020a0388811660248301529151939450600093919092169163955974a7916044808301926020929190829003018186803b158015610e6657600080fd5b505afa158015610e7a573d6000803e3d6000fd5b505050506040513d6020811015610e9057600080fd5b50519050600181151514610ed85760405160e560020a62461bcd028152600401808060200182810382526022815260200180615d0d6022913960400191505060405180910390fd5b6000610ee8846020015187612b8f565b9050610ef2615b20565b610efb82612c33565b905060008160a0015190506000610f248761012001518760a00151612d4690919063ffffffff16565b90506000610f38828463ffffffff612d8f16565b985050505050505050505b92915050565b600b5460009060a060020a900460ff1615610f985760405160e560020a62461bcd028152600401808060200182810382526024815260200180615eda6024913960400191505060405180910390fd5b600254604080517f3525e9c4000000000000000000000000000000000000000000000000000000008152600160a060020a03858116600483015291519190921691633525e9c4916024808301926020929190829003018186803b15801561086357600080fd5b600b5460a060020a900460ff161561104a5760405160e560020a62461bcd028152600401808060200182810382526024815260200180615eda6024913960400191505060405180910390fd5b610dde81612deb565b600b5460009060a060020a900460ff16156110a25760405160e560020a62461bcd028152600401808060200182810382526024815260200180615eda6024913960400191505060405180910390fd5b600354604080517f6e27034d000000000000000000000000000000000000000000000000000000008152600481018590529051600160a060020a0390921691636e27034d91602480820192602092909190829003018186803b15801561086357600080fd5b600b5460009060a060020a900460ff16156111565760405160e560020a62461bcd028152600401808060200182810382526024815260200180615eda6024913960400191505060405180910390fd5b600254604080517f3ac179f8000000000000000000000000000000000000000000000000000000008152600481018590529051600160a060020a0390921691633ac179f891602480820192602092909190829003018186803b15801561086357600080fd5b600b5460a060020a900460ff16156112075760405160e560020a62461bcd028152600401808060200182810382526024815260200180615eda6024913960400191505060405180910390fd5b60006112138383612f5d565b600a5460408051838152600160a060020a03928316602082015281519394509185169286927f9666952144a70d28b8d3b8782b5f9f8808d718e1608c7358491f4d4a0b1aea7992908290030190a3505050565b6000806000806000806000600360009054906101000a9004600160a060020a0316600160a060020a0316635ce38d8c896040518263ffffffff1660e060020a0281526004018082815260200191505060e06040518083038186803b1580156112cd57600080fd5b505afa1580156112e1573d6000803e3d6000fd5b505050506040513d60e08110156112f757600080fd5b508051602082015160408301516060840151608085015160a086015160c090960151949e939d50919b50995097509195509350915050565b600b5460009060a060020a900460ff161561137e5760405160e560020a62461bcd028152600401808060200182810382526024815260200180615eda6024913960400191505060405180910390fd5b600254604080517f81ea68fe000000000000000000000000000000000000000000000000000000008152600160a060020a038581166004830152915191909216916381ea68fe916024808301926020929190829003018186803b15801561086357600080fd5b60008060008060008060008060008060008060006114028f8f6133d6565b600354604080517f1fbbff04000000000000000000000000000000000000000000000000000000008152600481018490529051929350600160a060020a0390911691631fbbff049160248082019261018092909190829003018186803b15801561146b57600080fd5b505afa15801561147f573d6000803e3d6000fd5b505050506040513d61018081101561149657600080fd5b810190808051906020019092919080519060200190929190805190602001909291908051906020019092919080519060200190929190805190602001909291908051906020019092919080519060200190929190805190602001909291908051906020019092919080519060200190929190805190602001909291905050509c509c509c509c509c509c509c509c509c509c509c509c50509295989b509295989b509295989b565b600354604080517f0248d4180000000000000000000000000000000000000000000000000000000081526004810185905260248101849052815160009384938493849384938493849384938493600160a060020a031692630248d4189260448082019391829003018186803b1580156115b657600080fd5b505afa1580156115ca573d6000803e3d6000fd5b505050506040513d60408110156115e057600080fd5b50805160209091015190925090506001821515146116325760405160e560020a62461bcd028152600401808060200182810382526024815260200180615fac6024913960400191505060405180910390fd5b600354604080517f5ce38d8c000000000000000000000000000000000000000000000000000000008152600481018490529051600160a060020a0390921691635ce38d8c9160248082019260e092909190829003018186803b15801561169757600080fd5b505afa1580156116ab573d6000803e3d6000fd5b505050506040513d60e08110156116c157600080fd5b508051602082015160408301516060840151608085015160a086015160c090960151949e50929c50909a50985096509094509250505092959891949750929550565b600b5460009060a060020a900460ff16156117525760405160e560020a62461bcd028152600401808060200182810382526024815260200180615eda6024913960400191505060405180910390fd5b61175a615a62565b611763836128a4565b90506000816101600151600281111561177857fe5b1461178257600080fd5b4281608001511061179b57608001514290039050610892565b6000915050610892565b600c54600160a060020a031681565b600b5460a060020a900460ff16156118005760405160e560020a62461bcd028152600401808060200182810382526024815260200180615eda6024913960400191505060405180910390fd5b80611809615b72565b611812826134c9565b6080810151909150600160a060020a031633148061185d5760006118368433612b8f565b9050611840615b20565b61184982612c33565b60600151600160a060020a03163314925050505b6001811515146118b7576040805160e560020a62461bcd02815260206004820152601f60248201527f756e617574686f72697a65642061636365737320746f20636f6e747261637400604482015290519081900360640190fd5b6118bf615a62565b6118c8856128a4565b90506118d2615ad9565b6118db86612a5f565b905042600083610160015160028111156118f157fe5b146119305760405160e560020a62461bcd028152600401808060200182810382526036815260200180615cd76036913960400191505060405180910390fd5b60008360600151116119765760405160e560020a62461bcd02815260040180806020018281038252602c815260200180615f46602c913960400191505060405180910390fd5b80836080015111156119bc5760405160e560020a62461bcd028152600401808060200182810382526025815260200180615c8d6025913960400191505060405180910390fd5b60006119cb83604001516134f1565b60a08401519091506119e3908263ffffffff61372116565b60a0840152608084018290526119f88461377e565b611a018361378f565b604080840151815143808252602082018590528184019290925291519091849182918c917fe887e888ebc2708eec778295ebb2b590f4befddcdb123d575b0efd4c78f28dfa9181900360600190a350505050505050505050565b6000806000806000806000611a6e615b20565b611a788a8a613852565b905080602001518160400151826060015183608001518460a001518560c001518660e0015197509750975097509750975097505092959891949750929550565b600b5460a060020a900460ff1615611b045760405160e560020a62461bcd028152600401808060200182810382526024815260200180615eda6024913960400191505060405180910390fd5b3360006112138383612f5d565b600b5460a060020a900460ff1615611b5d5760405160e560020a62461bcd028152600401808060200182810382526024815260200180615eda6024913960400191505060405180910390fd5b85611b66615b72565b611b6f82613966565b90508060800151600160a060020a031633600160a060020a031614611bde576040805160e560020a62461bcd02815260206004820152601f60248201527f756e617574686f72697a65642061636365737320746f20636f6e747261637400604482015290519081900360640190fd5b611be9888686613977565b6000600360009054906101000a9004600160a060020a0316600160a060020a031663dd1d17338a60008b8b8b8b8b6000806000806040518c63ffffffff1660e060020a028152600401808c81526020018b81526020018a815260200189815260200188815260200187151515158152602001868152602001858152602001848152602001836002811115611c7957fe5b60ff1681526020018281526020019b505050505050505050505050602060405180830381600087803b158015611cae57600080fd5b505af1158015611cc2573d6000803e3d6000fd5b505050506040513d6020811015611cd857600080fd5b5051600354604080517fa144944900000000000000000000000000000000000000000000000000000000815260048101849052602481018d9052600060448201819052606482018190526084820181905260a4820181905260c4820181905260e482018190529151939450600160a060020a039092169263a14494499261010480820193929182900301818387803b158015611d7357600080fd5b505af1158015611d87573d6000803e3d6000fd5b5050604080518981528815156020820152808201889052606081018c9052608081018b905290518493507ff96edfc25affd2688d73aadf915306e068d058da76d34014ee2a20ec51c3db6b92509081900360a00190a2505050505050505050565b600b5460a060020a900460ff1615611e345760405160e560020a62461bcd028152600401808060200182810382526024815260200180615eda6024913960400191505060405180910390fd5b33610dde8383836125a2565b600b5460009060a060020a900460ff1615611e8f5760405160e560020a62461bcd028152600401808060200182810382526024815260200180615eda6024913960400191505060405180910390fd5b611e97615a62565b611ea0836128a4565b905060018161016001516002811115611eb557fe5b14611ebf57600080fd5b60a0810151608082015101428110611edd5742810392505050610892565b600092505050610892565b600254604080517f4448d5e1000000000000000000000000000000000000000000000000000000008152600160a060020a03858116600483015260248201859052825160009460609485948794859485949190911692634448d5e19260448082019391829003018186803b158015611f5f57600080fd5b505afa158015611f73573d6000803e3d6000fd5b505050506040513d6040811015611f8957600080fd5b5080516020909101519092509050600182151514611fdb5760405160e560020a62461bcd028152600401808060200182810382526024815260200180615c386024913960400191505060405180910390fd5b600254604080517f3037faf1000000000000000000000000000000000000000000000000000000008152600481018490529051600160a060020a0390921691633037faf191602480820192600092909190829003018186803b15801561204057600080fd5b505afa158015612054573d6000803e3d6000fd5b505050506040513d6000823e601f3d908101601f19168201604052608081101561207d57600080fd5b8151602083018051604051929492938301929190846401000000008211156120a457600080fd5b9083019060208201858111156120b957600080fd5b82516401000000008111828201881017156120d357600080fd5b82525081516020918201929091019080838360005b838110156121005781810151838201526020016120e8565b50505050905090810190601f16801561212d5780820380516001836020036101000a031916815260200191505b506040526020018051604051939291908464010000000082111561215057600080fd5b90830190602082018581111561216557600080fd5b825164010000000081118282018810171561217f57600080fd5b82525081516020918201929091019080838360005b838110156121ac578181015183820152602001612194565b50505050905090810190601f1680156121d95780820380516001836020036101000a031916815260200191505b5060405260200151949d939c50919a50929850909650505050505050565b600b5460009060a060020a900460ff16156122465760405160e560020a62461bcd028152600401808060200182810382526024815260200180615eda6024913960400191505060405180910390fd5b600354604080517ff1a42ec0000000000000000000000000000000000000000000000000000000008152600481018590529051600160a060020a039092169163f1a42ec091602480820192602092909190829003018186803b15801561086357600080fd5b600c54600160a060020a0316331461230d576040805160e560020a62461bcd02815260206004820152601f60248201527f556e617574686f72697a65642061636365737320746f20636f6e747261637400604482015290519081900360640190fd5b600160a060020a0381161561234557600c805473ffffffffffffffffffffffffffffffffffffffff1916600160a060020a0383161790555b50565b600b5460a060020a900460ff16156123945760405160e560020a62461bcd028152600401808060200182810382526024815260200180615eda6024913960400191505060405180910390fd5b3361239f8282613ab1565b5050565b8151829082906123fd576040805160e560020a62461bcd02815260206004820152601a60248201527f47726f7570206e616d652063616e6e6f7420626520656d707479000000000000604482015290519081900360640190fd5b6000815111612456576040805160e560020a62461bcd02815260206004820152601d60248201527f47726f7570207379736d626f6c2063616e6e6f7420626520656d707479000000604482015290519081900360640190fd5b6002546040517f458a8c07000000000000000000000000000000000000000000000000000000008152602060048201818152875160248401528751600094600160a060020a03169363458a8c07938a93928392604401918501908083838b5b838110156124cd5781810151838201526020016124b5565b50505050905090810190601f1680156124fa5780820380516001836020036101000a031916815260200191505b509250505060206040518083038186803b15801561251757600080fd5b505afa15801561252b573d6000803e3d6000fd5b505050506040513d602081101561254157600080fd5b50519050801561259b576040805160e560020a62461bcd02815260206004820181905260248201527f47726f7570206e616d652068617320616c7265616479206265656e2075736564604482015290519081900360640190fd5b5050505050565b600082116125e45760405160e560020a62461bcd028152600401808060200182810382526028815260200180615d8c6028913960400191505060405180910390fd5b6125ec615b72565b6125f5846134c9565b90506125ff615a62565b612608856128a4565b9050612612615ad9565b61261b86612a5f565b6003546040805160e060020a63955974a7028152600481018a9052600160a060020a0388811660248301529151939450600093919092169163955974a7916044808301926020929190829003018186803b15801561267857600080fd5b505afa15801561268c573d6000803e3d6000fd5b505050506040513d60208110156126a257600080fd5b5051600254602086810151604080517f0d15c07d0000000000000000000000000000000000000000000000000000000081526004810192909252600160a060020a038a811660248401529051949550600094931692630d15c07d92604480840193919291829003018186803b15801561271a57600080fd5b505afa15801561272e573d6000803e3d6000fd5b505050506040513d602081101561274457600080fd5b505190506127528483614037565b61275a615bac565b61276b898661010001518a8a6140ec565b905061277885858a61427d565b600a546020808301518451820151608086015160408051928352938201528251949950600160a060020a0393841694938c169391927f73014dadeb0d9bbfd9194b642967fb7b82f3d73d8f0824c97a8675e0268735c992918290030190a48261283f5760608501516127f190600163ffffffff61372116565b606086015280516020908101516040805191825251600160a060020a038a16928c927f73c61e3d5495248b5207cdd6c573ae2a3329308bff6ee898880fc5c7a8052137929081900390910190a35b8161289057805160209081015160408051600160a060020a038b1681529283019190915280517f5196901f8282c65403cbc45564c1af0364bfd00ab36b7a1f2cb0d4790c8c6b1c9281900390910190a15b612899856142f2565b505050505050505050565b6128ac615a62565b600080600080600080600080600080600080600360009054906101000a9004600160a060020a0316600160a060020a03166314e2584f8f6040518263ffffffff1660e060020a028152600401808281526020019150506101806040518083038186803b15801561291b57600080fd5b505afa15801561292f573d6000803e3d6000fd5b505050506040513d61018081101561294657600080fd5b810190808051906020019092919080519060200190929190805190602001909291908051906020019092919080519060200190929190805190602001909291908051906020019092919080519060200190929190805190602001909291908051906020019092919080519060200190929190805190602001909291905050509b509b509b509b509b509b509b509b509b509b509b509b506129e5615a62565b604051806101a001604052806001151581526020018e81526020018d81526020018c81526020018b81526020018a81526020018981526020018815158152602001878152602001868152602001858152602001846002811115612a4457fe5b815260200192909252509d9c50505050505050505050505050565b612a67615ad9565b600080600080600080600360009054906101000a9004600160a060020a0316600160a060020a031663af1b6acd896040518263ffffffff1660e060020a0281526004018082815260200191505060c06040518083038186803b158015612acc57600080fd5b505afa158015612ae0573d6000803e3d6000fd5b505050506040513d60c0811015612af657600080fd5b81019080805190602001909291908051906020019092919080519060200190929190805190602001909291908051906020019092919080519060200190929190505050955095509550955095509550604051806101000160405280600115158152602001898152602001878152602001868152602001858152602001848152602001838152602001828152509650505050505050919050565b600354604080517fe22eb1c900000000000000000000000000000000000000000000000000000000815260048101859052600160a060020a0384811660248301529151600093929092169163e22eb1c991604480820192602092909190829003018186803b158015612c0057600080fd5b505afa158015612c14573d6000803e3d6000fd5b505050506040513d6020811015612c2a57600080fd5b50519392505050565b612c3b615b20565b6000806000806000806000600360009054906101000a9004600160a060020a0316600160a060020a0316635ce38d8c8a6040518263ffffffff1660e060020a0281526004018082815260200191505060e06040518083038186803b158015612ca257600080fd5b505afa158015612cb6573d6000803e3d6000fd5b505050506040513d60e0811015612ccc57600080fd5b50805160208083015160408085015160608087015160808089015160a0808b015160c09b8c0151885161010081018a52600181529a8b019b909b5296890197909752600160a060020a0390941692870192909252908501529183019190915292810192909252151560e08201529998505050505050505050565b6000612d8883836040518060400160405280601a81526020017f536166654d6174683a206469766973696f6e206279207a65726f0000000000008152506143e3565b9392505050565b600082612d9e57506000610f43565b82820282848281612dab57fe5b0414612d885760405160e560020a62461bcd028152600401808060200182810382526021815260200180615efe6021913960400191505060405180910390fd5b612df3615a62565b612dfb615ad9565b6000612e0684614488565b9050600181151514612e62576040805160e560020a62461bcd02815260206004820152601660248201527f4379636c65206973207374696c6c206f6e676f696e6700000000000000000000604482015290519081900360640190fd5b612e6a615a62565b612e73856128a4565b9050612e7d615ad9565b612e8686612a5f565b60e081015160a08201516008546009546040805160e060020a63095ea7b3028152600160a060020a03928316600482015294909303602485018190529251949550919391169163095ea7b39160448083019260209291908290030181600087803b158015612ef357600080fd5b505af1158015612f07573d6000803e3d6000fd5b505050506040513d6020811015612f1d57600080fd5b5060009050612f2b826144eb565b6080840151909150612f43908263ffffffff61372116565b608084015250506002610160830152909590945092505050565b6000612f67615a62565b612f6f615ad9565b612f7885614488565b15612f9057612f8685612deb565b9092509050612fa7565b612f99856128a4565b9150612fa485612a5f565b90505b6003546040805160e060020a63955974a702815260048101889052600160a060020a0387811660248301529151600093929092169163955974a791604480820192602092909190829003018186803b15801561300257600080fd5b505afa158015613016573d6000803e3d6000fd5b505050506040513d602081101561302c57600080fd5b505190506001811515146130745760405160e560020a62461bcd028152600401808060200182810382526022815260200180615d0d6022913960400191505060405180910390fd5b60006130808787612b8f565b905061308a615b20565b61309382612c33565b60e0810151909150156130da5760405160e560020a62461bcd028152600401808060200182810382526021815260200180615eb96021913960400191505060405180910390fd5b60a0810151610180860151610120870151608087015191900390600090613107908363ffffffff612d4616565b9050600061311b828563ffffffff612d8f16565b905060006131378a610100015186612d8f90919063ffffffff16565b9050600061314483614646565b9050613156838263ffffffff6146c416565b9250613160615be6565b61316a8385614706565b6020810151909150613182908363ffffffff61372116565b602082018190521561329b57600154600b546020808401516040805160e060020a63095ea7b3028152600160a060020a039485166004820152602481019290925251929093169263095ea7b392604480830193928290030181600087803b1580156131ec57600080fd5b505af1158015613200573d6000803e3d6000fd5b505050506040513d602081101561321657600080fd5b505060048054600a54604080517f2fd55265000000000000000000000000000000000000000000000000000000008152600160a060020a039283169481019490945251911691632fd5526591602480830192600092919082900301818387803b15801561328257600080fd5b505af1158015613296573d6000803e3d6000fd5b505050505b8051156133455760015460608901518251604080517fa9059cbb000000000000000000000000000000000000000000000000000000008152600160a060020a039384166004820152602481019290925251919092169163a9059cbb9160448083019260209291908290030181600087803b15801561331857600080fd5b505af115801561332c573d6000803e3d6000fd5b505050506040513d602081101561334257600080fd5b50505b805160208201516101408e0180518a01905260608d01805191909201908101909152600160e08a015260c089018051890190526101008d0151600090613391908a63ffffffff612d8f16565b90506133a68e60a00151828c6060015161496b565b6133af8e6142f2565b6133b88d61378f565b6133c18a614a97565b5050519e9d5050505050505050505050505050565b600354604080517f5096a77b0000000000000000000000000000000000000000000000000000000081526004810185905260248101849052815160009384938493600160a060020a0390921692635096a77b926044808201939291829003018186803b15801561344557600080fd5b505afa158015613459573d6000803e3d6000fd5b505050506040513d604081101561346f57600080fd5b50805160209091015190925090506001821515146134c15760405160e560020a62461bcd028152600401808060200182810382526024815260200180615fac6024913960400191505060405180910390fd5b949350505050565b6134d1615b72565b6134d9615a62565b6134e2836128a4565b9050612d888160400151614b61565b6001546009546040805160e060020a63095ea7b3028152600160a060020a039283166004820152602481018590529051600093929092169163095ea7b39160448082019260209290919082900301818787803b15801561355057600080fd5b505af1158015613564573d6000803e3d6000fd5b505050506040513d602081101561357a57600080fd5b505060008054604080517f0db8d01e0000000000000000000000000000000000000000000000000000000081529051600160a060020a0390921691630db8d01e91600480820192602092909190829003018186803b1580156135db57600080fd5b505afa1580156135ef573d6000803e3d6000fd5b505050506040513d602081101561360557600080fd5b505160008054604080517f1b862027000000000000000000000000000000000000000000000000000000008152600481018890529051939450600160a060020a0390911692631b8620279260248084019391929182900301818387803b15801561366e57600080fd5b505af1158015613682573d6000803e3d6000fd5b5050505060008060009054906101000a9004600160a060020a0316600160a060020a0316630db8d01e6040518163ffffffff1660e060020a02815260040160206040518083038186803b1580156136d857600080fd5b505afa1580156136ec573d6000803e3d6000fd5b505050506040513d602081101561370257600080fd5b505190506000613718828463ffffffff6146c416565b95945050505050565b600082820183811015612d88576040805160e560020a62461bcd02815260206004820152601b60248201527f536166654d6174683a206164646974696f6e206f766572666c6f770000000000604482015290519081900360640190fd5b6001610160820152612345816142f2565b60035460208201516040808401516060850151608086015160a087015160c088015160e089015186517f16e1e5190000000000000000000000000000000000000000000000000000000081526004810198909852602488019590955260448701939093526064860191909152608485015260a484015260c483015251600160a060020a03909216916316e1e5199160e48082019260009290919082900301818387803b15801561383e57600080fd5b505af115801561259b573d6000803e3d6000fd5b61385a615b20565b6003546040805160e060020a63955974a702815260048101859052600160a060020a0386811660248301529151600093929092169163955974a791604480820192602092909190829003018186803b1580156138b557600080fd5b505afa1580156138c9573d6000803e3d6000fd5b505050506040513d60208110156138df57600080fd5b5051905060018115151461393d576040805160e560020a62461bcd02815260206004820152601660248201527f4379636c65204d656d626572206e6f7420666f756e6400000000000000000000604482015290519081900360640190fd5b60006139498486612b8f565b9050613953615b20565b61395c82612c33565b9695505050505050565b61396e615b72565b610f4382614b61565b600254604080517f6b2c46d5000000000000000000000000000000000000000000000000000000008152600481018690529051600092600160a060020a031691636b2c46d5916024808301926020929190829003018186803b1580156139dc57600080fd5b505afa1580156139f0573d6000803e3d6000fd5b505050506040513d6020811015613a0657600080fd5b50519050600181151514613a64576040805160e560020a62461bcd02815260206004820152600f60248201527f47726f7570206e6f7420666f756e640000000000000000000000000000000000604482015290519081900360640190fd5b60018215151415610d815760008311610d815760405160e560020a62461bcd028152600401808060200182810382526025815260200180615cb26025913960400191505060405180910390fd5b6000613abc83614488565b90508015613afe5760405160e560020a62461bcd028152600401808060200182810382526033815260200180615d2f6033913960400191505060405180910390fd5b613b06615a62565b613b0f846128a4565b9050613b19615ad9565b613b2285612a5f565b6003546040805160e060020a63955974a702815260048101899052600160a060020a0388811660248301529151939450600093919092169163955974a7916044808301926020929190829003018186803b158015613b7f57600080fd5b505afa158015613b93573d6000803e3d6000fd5b505050506040513d6020811015613ba957600080fd5b50519050600181151514613bf15760405160e560020a62461bcd028152600401808060200182810382526022815260200180615d0d6022913960400191505060405180910390fd5b6000613c01846020015187612b8f565b9050613c0b615b20565b613c1482612c33565b60e081015190915015613c5b5760405160e560020a62461bcd028152600401808060200182810382526021815260200180615eb96021913960400191505060405180910390fd5b60a080820151610120870151918601519091600091613c7f9163ffffffff612d4616565b90506000613c93828463ffffffff612d8f16565b6008546009546040805160e060020a63095ea7b3028152600160a060020a03928316600482015260248101859052905193945091169163095ea7b3916044808201926020929091908290030181600087803b158015613cf157600080fd5b505af1158015613d05573d6000803e3d6000fd5b505050506040513d6020811015613d1b57600080fd5b5060009050613d29826144eb565b90506000613d458a610100015186612d8f90919063ffffffff16565b90506000613d5283614dc3565b90506000613d5f84614646565b90506000613d73838363ffffffff61372116565b90508085039450613d82615be6565b613d8c8587614706565b6020810151909150613da4908363ffffffff61372116565b6020820181905215613ebd57600154600b546020808401516040805160e060020a63095ea7b3028152600160a060020a039485166004820152602481019290925251929093169263095ea7b392604480830193928290030181600087803b158015613e0e57600080fd5b505af1158015613e22573d6000803e3d6000fd5b505050506040513d6020811015613e3857600080fd5b505060048054600a54604080517f2fd55265000000000000000000000000000000000000000000000000000000008152600160a060020a039283169481019490945251911691632fd5526591602480830192600092919082900301818387803b158015613ea457600080fd5b505af1158015613eb8573d6000803e3d6000fd5b505050505b8051613efd5760405160e560020a62461bcd028152600401808060200182810382526051815260200180615e166051913960600191505060405180910390fd5b805115613fa75760015460608b01518251604080517fa9059cbb000000000000000000000000000000000000000000000000000000008152600160a060020a039384166004820152602481019290925251919092169163a9059cbb9160448083019260209291908290030181600087803b158015613f7a57600080fd5b505af1158015613f8e573d6000803e3d6000fd5b505050506040513d6020811015613fa457600080fd5b50505b600081600001518260200151019050898f610180018181510191508181525050808e60c0018181510191508181525050878e60e001818151019150818152505060018b60e0019015159081151581525050898b60c00181815101915081815250506140118f6142f2565b61401a8b614a97565b6140238e61378f565b505050505050505050505050505050505050565b60e0820151600181151514801561404c575081155b1561409a578260c0015183606001511061409a5760405160e560020a62461bcd02815260040180806020018281038252602c815260200180615e67602c913960400191505060405180910390fd5b600083610160015160028111156140ad57fe5b14610dde5760405160e560020a62461bcd02815260040180806020018281038252602c815260200180615db4602c913960400191505060405180910390fd5b6140f4615bac565b6140fc615b72565b614105866134c9565b905061410f615c00565b61411884614fef565b9050614122615c17565b61413085846020015161500a565b6003546040805160e060020a63955974a7028152600481018c9052600160a060020a0389811660248301529151939450600093919092169163955974a7916044808301926020929190829003018186803b15801561418d57600080fd5b505afa1580156141a1573d6000803e3d6000fd5b505050506040513d60208110156141b757600080fd5b505190506141c3615b20565b6040518061010001604052806001151581526020018b81526020018660200151815260200188600160a060020a03168152602001600081526020016000815260200160008152602001600015158152509050811561422857614225878b613852565b90505b6000614235898b8a615026565b905061424283838b615257565b915061424c615bac565b506040805160a081018252968752602087019590955293850192909252506060830152608082015295945050505050565b614285615a62565b61012084015161429b908363ffffffff61372116565b6101208501526101008401516000906142ba908463ffffffff612d8f16565b60408501519091506142d2908263ffffffff61372116565b60408501526142e08461378f565b6142e9816152a5565b50929392505050565b600360009054906101000a9004600160a060020a0316600160a060020a031663798d7db38260200151836060015184608001518560a001518660c001518760e001518861010001518961012001518a61014001518b61016001518c61018001516040518c63ffffffff1660e060020a028152600401808c81526020018b81526020018a8152602001898152602001888152602001871515151581526020018681526020018581526020018481526020018360028111156143ae57fe5b60ff1681526020018281526020019b505050505050505050505050600060405180830381600087803b15801561383e57600080fd5b600081836144725760405160e560020a62461bcd0281526004018080602001828103825283818151815260200191508051906020019080838360005b8381101561443757818101518382015260200161441f565b50505050905090810190601f1680156144645780820380516001836020036101000a031916815260200191505b509250505060405180910390fd5b50600083858161447e57fe5b0495945050505050565b6000614492615a62565b61449b836128a4565b9050600181610160015160028111156144b057fe5b146144bf576000915050610892565b60a081015160808201514291018082106144df5760019350505050610892565b60009350505050610892565b60008054604080517f77f1a4af00000000000000000000000000000000000000000000000000000000815290518392600160a060020a0316916377f1a4af916004808301926020929190829003018186803b15801561454957600080fd5b505afa15801561455d573d6000803e3d6000fd5b505050506040513d602081101561457357600080fd5b505160008054604080517f6583d12a000000000000000000000000000000000000000000000000000000008152600481018890529051939450600160a060020a0390911692636583d12a9260248084019391929182900301818387803b1580156145dc57600080fd5b505af11580156145f0573d6000803e3d6000fd5b5050505060008060009054906101000a9004600160a060020a0316600160a060020a03166377f1a4af6040518163ffffffff1660e060020a02815260040160206040518083038186803b1580156136d857600080fd5b600080614651615341565b9050600061465d615512565b9050600084116146a15760405160e560020a62461bcd028152600401808060200182810382526026815260200180615e936026913960400191505060405180910390fd5b6134c160646146b88381888763ffffffff612d8f16565b9063ffffffff612d4616565b6000612d8883836040518060400160405280601e81526020017f536166654d6174683a207375627472616374696f6e206f766572666c6f7700008152506155aa565b61470e615be6565b600554604080518082018252601a81527f50455243454e544147455f5041594f55545f544f5f55534552530000000000006020808301918252925160e260020a630dfca809028152600481019384528251602482015282516000958695869586958695600160a060020a03909416946337f2a0249492939283926044909101918083838b5b838110156147ab578181015183820152602001614793565b50505050905090810190601f1680156147d85780820380516001836020036101000a031916815260200191505b509250505060a060405180830381600087803b1580156147f757600080fd5b505af115801561480b573d6000803e3d6000fd5b505050506040513d60a081101561482157600080fd5b5080516020820151604083015160608401516080909401519298509096509450909250905060018215151461488a5760405160e560020a62461bcd028152600401808060200182810382526027815260200180615f1f6027913960400191505060405180910390fd5b600181600181111561489857fe5b146148d75760405160e560020a62461bcd02815260040180806020018281038252603a815260200180615f72603a913960400191505060405180910390fd5b868810614900576040518060400160405280888152602001600081525095505050505050610f43565b600061490c848a615607565b905080881115614948576000614928898363ffffffff6146c416565b604080518082019091529283526020830152509550610f43945050505050565b604051806040016040528089815260200160008152509650505050505050610f43565b600654604080517f81a045af00000000000000000000000000000000000000000000000000000000815260048101869052602481018590529051600092600160a060020a0316916381a045af916044808301926020929190829003018186803b1580156149d757600080fd5b505afa1580156149eb573d6000803e3d6000fd5b505050506040513d6020811015614a0157600080fd5b505190508015610d8157600754604080517f40c10f19000000000000000000000000000000000000000000000000000000008152600160a060020a03858116600483015260248201859052915191909216916340c10f1991604480830192600092919082900301818387803b158015614a7957600080fd5b505af1158015614a8d573d6000803e3d6000fd5b5050505050505050565b60208101516060820151608083015160a084015160c085015160e0860151600354604080517fe509827900000000000000000000000000000000000000000000000000000000815260048101899052600160a060020a03808916602483015260448201889052606482018790526084820186905284151560a48301529151919092169163e50982799160c480830192600092919082900301818387803b158015614b4057600080fd5b505af1158015614b54573d6000803e3d6000fd5b5050505050505050505050565b614b69615b72565b600254604080517f6cc29ea000000000000000000000000000000000000000000000000000000000815260048101859052905160009260609283928592600160a060020a031691636cc29ea09160248083019286929190829003018186803b158015614bd457600080fd5b505afa158015614be8573d6000803e3d6000fd5b505050506040513d6000823e601f3d908101601f191682016040526080811015614c1157600080fd5b815160208301805160405192949293830192919084640100000000821115614c3857600080fd5b908301906020820185811115614c4d57600080fd5b8251640100000000811182820188101715614c6757600080fd5b82525081516020918201929091019080838360005b83811015614c94578181015183820152602001614c7c565b50505050905090810190601f168015614cc15780820380516001836020036101000a031916815260200191505b5060405260200180516040519392919084640100000000821115614ce457600080fd5b908301906020820185811115614cf957600080fd5b8251640100000000811182820188101715614d1357600080fd5b82525081516020918201929091019080838360005b83811015614d40578181015183820152602001614d28565b50505050905090810190601f168015614d6d5780820380516001836020036101000a031916815260200191505b5060405260200151949850929650909450919250614d8d9150615b729050565b506040805160a0810182526001815260208101959095528401929092526060830152600160a060020a0316608082015292915050565b600554604080518082018252601581527f50455243454e544147455f41535f50454e414c545900000000000000000000006020808301918252925160e260020a630dfca8090281526004810193845282516024820152825160009586958695869586958695600160a060020a03909516946337f2a02494928392604401918083838b5b83811015614e5e578181015183820152602001614e46565b50505050905090810190601f168015614e8b5780820380516001836020036101000a031916815260200191505b509250505060a060405180830381600087803b158015614eaa57600080fd5b505af1158015614ebe573d6000803e3d6000fd5b505050506040513d60a0811015614ed457600080fd5b50805160208201516040830151606084015160809094015192985090965094509092509050600182151514614f3d5760405160e560020a62461bcd028152600401808060200182810382526027815260200180615f1f6027913960400191505060405180910390fd5b6001816001811115614f4b57fe5b14614f8a5760405160e560020a62461bcd02815260040180806020018281038252603a815260200180615fd0603a913960400191505060405180910390fd5b60008711614fcc5760405160e560020a62461bcd028152600401808060200182810382526026815260200180615e936026913960400191505060405180910390fd5b6000614fe360646146b88a8763ffffffff612d8f16565b98975050505050505050565b614ff7615c00565b614fff615c00565b612d88836000615623565b615012615c17565b61501a615c17565b6134c1848460006157cd565b600080615039858563ffffffff612d8f16565b600154604080517fdd62ed3e000000000000000000000000000000000000000000000000000000008152600160a060020a038781166004830152306024830181905292519495509193600093929092169163dd62ed3e91604480820192602092909190829003018186803b1580156150b057600080fd5b505afa1580156150c4573d6000803e3d6000fd5b505050506040513d60208110156150da57600080fd5b505190508061511d5760405160e560020a62461bcd028152600401808060200182810382526031815260200180615c5c6031913960400191505060405180910390fd5b8281101561515f5760405160e560020a62461bcd02815260040180806020018281038252602a815260200180615d62602a913960400191505060405180910390fd5b600154604080517f23b872dd000000000000000000000000000000000000000000000000000000008152600160a060020a038881166004830152858116602483015260448201879052915160009392909216916323b872dd9160648082019260209290919082900301818787803b1580156151d957600080fd5b505af11580156151ed573d6000803e3d6000fd5b505050506040513d602081101561520357600080fd5b5051905060018115151461524b5760405160e560020a62461bcd028152600401808060200182810382526036815260200180615de06036913960400191505060405180910390fd5b50919695505050505050565b61525f615b20565b60a0830151615274908363ffffffff61372116565b60a0840152600184151514156152925761528d83614a97565b61529d565b61529b8361598b565b505b509092915050565b600254600a54604080517f8c224826000000000000000000000000000000000000000000000000000000008152600160a060020a0392831660048201526024810185905290519190921691638c2248269160448083019260209291908290030181600087803b15801561531757600080fd5b505af115801561532b573d6000803e3d6000fd5b505050506040513d6020811015610dde57600080fd5b600554604080518082018252601f81527f58454e445f46494e414e43455f434f4d4d4953494f4e5f4449564944454e44006020808301918252925160e260020a630dfca8090281526004810193845282516024820152825160009586958695869586958695600160a060020a03909516946337f2a02494928392604401918083838b5b838110156153dc5781810151838201526020016153c4565b50505050905090810190601f1680156154095780820380516001836020036101000a031916815260200191505b509250505060a060405180830381600087803b15801561542857600080fd5b505af115801561543c573d6000803e3d6000fd5b505050506040513d60a081101561545257600080fd5b508051602082015160408301516060840151608090940151929850909650945090925090506001821515146154bb5760405160e560020a62461bcd028152600401808060200182810382526027815260200180615f1f6027913960400191505060405180910390fd5b60018160018111156154c957fe5b146155085760405160e560020a62461bcd02815260040180806020018281038252603a815260200180615fd0603a913960400191505060405180910390fd5b5090935050505090565b600554604080518082018252601e81527f58454e445f46494e414e43455f434f4d4d4953494f4e5f44495649534f5200006020808301918252925160e260020a630dfca8090281526004810193845282516024820152825160009586958695869586958695600160a060020a03909516946337f2a02494928392604401918083838b83156153dc5781810151838201526020016153c4565b600081848411156155ff5760405160e560020a62461bcd02815260206004820181815283516024840152835190928392604490910191908501908083836000831561443757818101518382015260200161441f565b505050900390565b60006064808401906134c1906146b8858463ffffffff612d8f16565b61562b615c00565b600254604080517f165301a5000000000000000000000000000000000000000000000000000000008152600160a060020a0386811660048301529151600093929092169163165301a591602480820192602092909190829003018186803b15801561569557600080fd5b505afa1580156156a9573d6000803e3d6000fd5b505050506040513d60208110156156bf57600080fd5b50519050821561572357600181151514615723576040805160e560020a62461bcd02815260206004820152601060248201527f4d656d626572206e6f7420666f756e6400000000000000000000000000000000604482015290519081900360640190fd5b806157a857600254604080517f2124d529000000000000000000000000000000000000000000000000000000008152600160a060020a03878116600483015291519190921691632124d52991602480830192600092919082900301818387803b15801561578f57600080fd5b505af11580156157a3573d6000803e3d6000fd5b505050505b50506040805180820190915260018152600160a060020a038316602082015292915050565b6157d5615c17565b600254604080517f0d15c07d00000000000000000000000000000000000000000000000000000000815260048101869052600160a060020a03878116602483015291516000939290921691630d15c07d91604480820192602092909190829003018186803b15801561584657600080fd5b505afa15801561585a573d6000803e3d6000fd5b505050506040513d602081101561587057600080fd5b5051905082156158d4576001811515146158d4576040805160e560020a62461bcd02815260206004820152601060248201527f4d656d626572206e6f7420666f756e6400000000000000000000000000000000604482015290519081900360640190fd5b8061596057600254604080517f0c20274100000000000000000000000000000000000000000000000000000000815260048101879052600160a060020a03888116602483015291519190921691630c20274191604480830192600092919082900301818387803b15801561594757600080fd5b505af115801561595b573d6000803e3d6000fd5b505050505b50506040805160608101825260018152600160a060020a039490941660208501528301919091525090565b615993615b20565b60035460208301516040808501516060860151608087015160a088015160c089015160e08a015186517f8e3c6b2d00000000000000000000000000000000000000000000000000000000815260048101989098526024880195909552600160a060020a0393841660448801526064870192909252608486015260a485015290151560c48401529051921691638e3c6b2d9160e48082019260009290919082900301818387803b158015615a4557600080fd5b505af1158015615a59573d6000803e3d6000fd5b50505050919050565b604051806101a0016040528060001515815260200160008152602001600081526020016000815260200160008152602001600081526020016000815260200160001515815260200160008152602001600081526020016000815260200160006002811115615acc57fe5b8152602001600081525090565b604051806101000160405280600015158152602001600081526020016000815260200160008152602001600081526020016000815260200160008152602001600081525090565b60405180610100016040528060001515815260200160008152602001600081526020016000600160a060020a031681526020016000815260200160008152602001600081526020016000151581525090565b6040518060a001604052806000151581526020016000815260200160608152602001606081526020016000600160a060020a031681525090565b6040518060a00160405280615bbf615b72565b8152602001615bcc615c00565b8152602001615bd9615c17565b8152602001615acc615b20565b604051806040016040528060008152602001600081525090565b604080518082019091526000808252602082015290565b60408051606081018252600080825260208201819052918101919091529056fe496e646578207265636f7264206c6f636174696f6e20646f6573206e6f74206578697374417070726f766520616e20616d6f756e74203e203020666f7220746f6b656e206265666f72652070726f63656564696e674379636c652073746172742074696d6520686173206e6f74206265656e20726561636865644d6178696d756d20736c6f742073657474696e67732063616e6e6f7420626520656d70747943616e6e6f742061637469766174652061206379636c65206e6f7420696e2074686520274e4f545f5354415254454427207374617465596f7520617265206e6f742061206d656d626572206f662074686973206379636c654379636c652068617320616c726561647920656e6465642c20757365206e6f726d616c2077697468647261776c20726f757465546f6b656e20616c6c6f77616e636520646f6573206e6f7420636f766572207374616b6520636c61696d4d696e696d756d207374616b657320746861742063616e206265206163717569726564206973203154686973206379636c65206973206e6f7420616363657074696e67206465706f7369747320616e796d6f7265436f756c64206e6f7420636f6d706c657465206465706f7369742070726f636573732066726f6d20746f6b656e20636f6e7472616374416674657220646564756374696e67206561726c79207769746864726177616c2070656e616c7469657320616e6420666565732c2074686572652773206e6f7468696e67206c65667420666f7220796f754d6178696d756d20736c6f7420666f72206465706f7369746f727320686173206265656e20726561636865646d656d626572206465706f736974207265616c6c792069736e277420776f727468206d75636846756e6473206861766520616c7265616479206265656e2077697468647261776e5365727669636520636f6e747261637420686173206265656e2064657072656361746564536166654d6174683a206d756c7469706c69636174696f6e206f766572666c6f77756e737570706f727465642072756c6520646566696e74696f6e20666f722072756c652073657443616e6e6f74206163746976617465206379636c65207468617420686173206e6f206465706f7369746f7273756e737570706f727465642072756c6520646566696e74696f6e20666f72207061796f7574202070657263656e746167652072756c6520736574496e646578206c6f636174696f6e207265636f726420646f6573206e6f74206578697374756e737570706f727465642072756c6520646566696e74696f6e20666f722070656e616c74792070657263656e746167652072756c6520736574a2646970667358221220791b280688222a77cefec6be4abd8bc1caf167e3b00d4103a4436c9fe7e82efc64736f6c63430006060033",
  "immutableReferences": {},
  "source": "// SPDX-License-Identifier: MIT\n\npragma solidity ^0.6.6;\nimport \"./ISavingsConfig.sol\";\nimport \"./ITreasury.sol\";\nimport \"./Ownable.sol\";\nimport \"./IGroups.sol\";\nimport \"./ICycle.sol\";\nimport \"./IGroupSchema.sol\";\nimport \"./IDaiLendingService.sol\";\nimport \"./Address.sol\";\nimport \"./IRewardConfig.sol\";\nimport \"./SafeMath.sol\";\nimport \"./IXendToken.sol\";\n\ncontract XendFinanceGroupContainer_Yearn_V1 is IGroupSchema {\n    struct CycleDepositResult {\n        Group group;\n        Member member;\n        GroupMember groupMember;\n        CycleMember cycleMember;\n        uint256 underlyingAmountDeposited;\n    }\n\n    struct WithdrawalResolution {\n        uint256 amountToSendToMember;\n        uint256 amountToSendToTreasury;\n    }\n\n    event UnderlyingAssetDeposited(\n        uint256 indexed cycleId,\n        address payable indexed memberAddress,\n        uint256 groupId,\n        uint256 underlyingAmount,\n        address indexed tokenAddress\n    );\n\n    event DerivativeAssetWithdrawn(\n        uint256 indexed cycleId,\n        address payable indexed memberAddress,\n        uint256 underlyingAmount,\n        address tokenAddress\n    );\n\n    event GroupCreated(\n        uint256 indexed groupId,\n        address payable indexed groupCreator\n    );\n\n    event CycleCreated(\n        uint256 indexed cycleId,\n        uint256 maximumSlots,\n        bool hasMaximumSlots,\n        uint256 stakeAmount,\n        uint256 expectedCycleStartTimeStamp,\n        uint256 cycleDuration\n    );\n\n    event MemberJoinedCycle(\n        uint256 indexed cycleId,\n        address payable indexed memberAddress,\n        uint256 groupId\n    );\n\n    event MemberJoinedGroup(address payable memberAddress, uint256 groupId);\n\n    event CycleStartedEvent(\n        uint256 indexed cycleId,\n        uint256 indexed blockTimeStamp,\n        uint256 blockNumber,\n        uint256 totalDerivativeAmount,\n        uint256 totalUnderlyingAmount\n    );\n\n    IDaiLendingService lendingService;\n    IERC20 daiToken;\n    IGroups groupStorage;\n    ICycles cycleStorage;\n    ITreasury treasury;\n    ISavingsConfig savingsConfig;\n    IRewardConfig rewardConfig;\n    IXendToken xendToken;\n    IERC20 derivativeToken;\n\n    address LendingAdapterAddress;\n    address TokenAddress;\n    address TreasuryAddress;\n\n    string constant PERCENTAGE_PAYOUT_TO_USERS = \"PERCENTAGE_PAYOUT_TO_USERS\";\n    string constant PERCENTAGE_AS_PENALTY = \"PERCENTAGE_AS_PENALTY\";\n\n    string constant XEND_FINANCE_COMMISION_DIVISOR = \"XEND_FINANCE_COMMISION_DIVISOR\";\n    string constant XEND_FINANCE_COMMISION_DIVIDEND = \"XEND_FINANCE_COMMISION_DIVIDEND\";\n\n    bool isDeprecated = false;\n\n    modifier onlyNonDeprecatedCalls() {\n        require(isDeprecated == false, \"Service contract has been deprecated\");\n        _;\n    }\n}\n\ncontract XendFinanceCycleExternalClientHelpers is\n    XendFinanceGroupContainer_Yearn_V1\n{\n    function getCycleMemberByCycleId(\n        uint256 _cycleId,\n        uint256 indexerRecordLocation\n    )\n        external\n        view\n        returns (\n            uint256 cycleId,\n            uint256 groupId,\n            address payable _address,\n            uint256 totalLiquidityAsPenalty,\n            uint256 numberOfCycleStakes,\n            uint256 stakesClaimed,\n            bool hasWithdrawn\n        )\n    {\n        (bool exists, uint256 index) = cycleStorage\n            .getRecordIndexForCycleMembersIndexerByDepositor(\n            _cycleId,\n            indexerRecordLocation\n        );\n        require(exists == true, \"Index location record does not exist\");\n        return cycleStorage.getCycleMember(index);\n    }\n\n    function getCycleByGroup(uint256 _groupId, uint256 indexerRecordLocation)\n        external\n        view\n        returns (\n            uint256 id,\n            uint256 groupId,\n            uint256 numberOfDepositors,\n            uint256 cycleStartTimeStamp,\n            uint256 cycleDuration,\n            uint256 maximumSlots,\n            bool hasMaximumSlots,\n            uint256 cycleStakeAmount,\n            uint256 totalStakes,\n            uint256 stakesClaimed,\n            CycleStatus cycleStatus,\n            uint256 stakesClaimedBeforeMaturity\n        )\n    {\n        uint256 index = _getIndexLocation(_groupId, indexerRecordLocation);\n        return cycleStorage.getCycleInfoByIndex(index);\n    }\n\n    function _getIndexLocation(uint256 _groupId, uint256 indexerRecordLocation)\n        internal\n        view\n        returns (uint256)\n    {\n        (bool exists, uint256 index) = cycleStorage.getRecordIndexForGroupCycle(\n            _groupId,\n            indexerRecordLocation\n        );\n        require(exists == true, \"Index location record does not exist\");\n        return index;\n    }\n}\n\ncontract XendFinanceGroupExternalClientHelpers is\n    XendFinanceGroupContainer_Yearn_V1\n{\n    function getGroupsByCreator(\n        address groupCreator,\n        uint256 indexRecordPosition\n    )\n        external\n        view\n        returns (\n            uint256 groupId,\n            string memory name,\n            string memory symbol,\n            address payable creatorAddress\n        )\n    {\n        (bool exists, uint256 index) = groupStorage.getGroupForCreatorIndexer(\n            groupCreator,\n            indexRecordPosition\n        );\n        require(exists == true, \"Index record location does not exist\");\n        return groupStorage.getGroupByIndex(index);\n    }\n}\n\ncontract XendFinanceGroupHelpers is XendFinanceGroupContainer_Yearn_V1 {\n    function _updateGroup(Group memory group) internal {\n        (\n            uint256 id,\n            string memory name,\n            string memory symbol,\n            address payable groupCreator\n        ) = (group.id, group.name, group.symbol, group.creatorAddress);\n\n        groupStorage.updateGroup(id, name, symbol, groupCreator);\n    }\n\n    function _getGroupById(uint256 _groupId)\n        internal\n        view\n        returns (Group memory)\n    {\n        (\n            uint256 groupId,\n            string memory name,\n            string memory symbol,\n            address payable creatorAddress\n        ) = groupStorage.getGroupById(_groupId);\n\n        Group memory group = Group(true, groupId, name, symbol, creatorAddress);\n        return group;\n    }\n\n    function _getGroupByIndex(uint256 index)\n        internal\n        view\n        returns (Group memory)\n    {\n        (\n            uint256 groupId,\n            string memory name,\n            string memory symbol,\n            address payable creatorAddress\n        ) = groupStorage.getGroupByIndex(index);\n\n        Group memory group = Group(true, groupId, name, symbol, creatorAddress);\n        return group;\n    }\n\n    function _getGroupIndex(uint256 groupId) internal view returns (uint256) {\n        return groupStorage.getGroupIndex(groupId);\n    }\n\n    function _createMemberIfNotExist(address payable depositor)\n        internal\n        returns (Member memory)\n    {\n        Member memory member = _getMember(depositor, false);\n        return member;\n    }\n\n    function _createGroupMemberIfNotExist(\n        address payable depositor,\n        uint256 groupId\n    ) internal returns (GroupMember memory) {\n        GroupMember memory groupMember = _getGroupMember(\n            depositor,\n            groupId,\n            false\n        );\n        return groupMember;\n    }\n\n    function _getMember(address payable depositor, bool throwOnNotFound)\n        internal\n        returns (Member memory)\n    {\n        bool memberExists = groupStorage.doesMemberExist(depositor);\n        if (throwOnNotFound) require(memberExists == true, \"Member not found\");\n\n        if (!memberExists) {\n            groupStorage.createMember(depositor);\n        }\n\n        return Member(true, depositor);\n    }\n\n    function _getGroupMember(\n        address payable depositor,\n        uint256 groupId,\n        bool throwOnNotFound\n    ) internal returns (GroupMember memory) {\n        bool groupMemberExists = groupStorage.doesGroupMemberExist(\n            groupId,\n            depositor\n        );\n\n        if (throwOnNotFound)\n            require(groupMemberExists == true, \"Member not found\");\n\n        if (!groupMemberExists) {\n            groupStorage.createGroupMember(groupId, depositor);\n        }\n\n        return GroupMember(true, depositor, groupId);\n    }\n\n    function _getGroup(uint256 groupId) internal view returns (Group memory) {\n        return _getGroupById(groupId);\n    }\n\n    modifier onlyGroupCreator(uint256 groupId) {\n        Group memory group = _getGroup(groupId);\n\n        require(\n            msg.sender == group.creatorAddress,\n            \"unauthorized access to contract\"\n        );\n        _;\n    }\n}\n\ncontract XendFinanceCycleHelpers is XendFinanceGroupHelpers {\n    using SafeMath for uint256;\n\n    function _updateCycleMember(CycleMember memory cycleMember) internal {\n        (\n            uint256 cycleId,\n            address payable depositor,\n            uint256 totalLiquidityAsPenalty,\n            uint256 numberOfCycleStakes,\n            uint256 stakesClaimed,\n            bool hasWithdrawn\n        ) = (\n            cycleMember.cycleId,\n            cycleMember._address,\n            cycleMember.totalLiquidityAsPenalty,\n            cycleMember.numberOfCycleStakes,\n            cycleMember.stakesClaimed,\n            cycleMember.hasWithdrawn\n        );\n        cycleStorage.updateCycleMember(\n            cycleId,\n            depositor,\n            totalLiquidityAsPenalty,\n            numberOfCycleStakes,\n            stakesClaimed,\n            hasWithdrawn\n        );\n    }\n\n    function _validateCycleCreationActionValid(\n        uint256 groupId,\n        uint256 maximumsSlots,\n        bool hasMaximumSlots\n    ) internal {\n        bool doesGroupExist = groupStorage.doesGroupExist(groupId);\n\n        require(doesGroupExist == true, \"Group not found\");\n\n        if (hasMaximumSlots == true) {\n            require(maximumsSlots > 0, \"Maximum slot settings cannot be empty\");\n        }\n    }\n\n    function _getCycleGroup(uint256 cycleId)\n        internal\n        view\n        returns (Group memory)\n    {\n        Cycle memory cycle = _getCycleById(cycleId);\n\n        return _getGroupById(cycle.groupId);\n    }\n\n    function _getCycleById(uint256 cycleId)\n        internal\n        view\n        returns (Cycle memory)\n    {\n        (\n            uint256 id,\n            uint256 groupId,\n            uint256 numberOfDepositors,\n            uint256 cycleStartTimeStamp,\n            uint256 cycleDuration,\n            uint256 maximumSlots,\n            bool hasMaximumSlots,\n            uint256 cycleStakeAmount,\n            uint256 totalStakes,\n            uint256 stakesClaimed,\n            CycleStatus cycleStatus,\n            uint256 stakesClaimedBeforeMaturity\n        ) = cycleStorage.getCycleInfoById(cycleId);\n\n        Cycle memory cycleInfo = Cycle(\n            true,\n            id,\n            groupId,\n            numberOfDepositors,\n            cycleStartTimeStamp,\n            cycleDuration,\n            maximumSlots,\n            hasMaximumSlots,\n            cycleStakeAmount,\n            totalStakes,\n            stakesClaimed,\n            cycleStatus,\n            stakesClaimedBeforeMaturity\n        );\n\n        return cycleInfo;\n    }\n\n    function _getCycleByIndex(uint256 index)\n        internal\n        view\n        returns (Cycle memory)\n    {\n        (\n            uint256 id,\n            uint256 groupId,\n            uint256 numberOfDepositors,\n            uint256 cycleStartTimeStamp,\n            uint256 cycleDuration,\n            uint256 maximumSlots,\n            bool hasMaximumSlots,\n            uint256 cycleStakeAmount,\n            uint256 totalStakes,\n            uint256 stakesClaimed,\n            CycleStatus cycleStatus,\n            uint256 stakesClaimedBeforeMaturity\n        ) = cycleStorage.getCycleInfoByIndex(index);\n\n        Cycle memory cycleInfo = Cycle(\n            true,\n            id,\n            groupId,\n            numberOfDepositors,\n            cycleStartTimeStamp,\n            cycleDuration,\n            maximumSlots,\n            hasMaximumSlots,\n            cycleStakeAmount,\n            totalStakes,\n            stakesClaimed,\n            cycleStatus,\n            stakesClaimedBeforeMaturity\n        );\n\n        return cycleInfo;\n    }\n\n    function _getCycleFinancialByCycleId(uint256 cycleId)\n        internal\n        view\n        returns (CycleFinancial memory)\n    {\n        (\n            uint256 underlyingTotalDeposits,\n            uint256 underlyingTotalWithdrawn,\n            uint256 underlyingBalance,\n            uint256 derivativeBalance,\n            uint256 underylingBalanceClaimedBeforeMaturity,\n            uint256 derivativeBalanceClaimedBeforeMaturity\n        ) = cycleStorage.getCycleFinancialsByCycleId(cycleId);\n\n        return\n            CycleFinancial(\n                true,\n                cycleId,\n                underlyingTotalDeposits,\n                underlyingTotalWithdrawn,\n                underlyingBalance,\n                derivativeBalance,\n                underylingBalanceClaimedBeforeMaturity,\n                derivativeBalanceClaimedBeforeMaturity\n            );\n    }\n\n    function _getCycleIndex(uint256 cycleId) internal view returns (uint256) {\n        return cycleStorage.getCycleIndex(cycleId);\n    }\n\n    function _getCycleMemberIndex(\n        uint256 cycleId,\n        address payable memberAddress\n    ) internal view returns (uint256) {\n        return cycleStorage.getCycleMemberIndex(cycleId, memberAddress);\n    }\n\n    function _getCycleMember(address payable depositor, uint256 _cycleId)\n        internal\n        view\n        returns (CycleMember memory)\n    {\n        bool cycleMemberExists = cycleStorage.doesCycleMemberExist(\n            _cycleId,\n            depositor\n        );\n\n        require(cycleMemberExists == true, \"Cycle Member not found\");\n\n        uint256 index = _getCycleMemberIndex(_cycleId, depositor);\n\n        CycleMember memory cycleMember = _getCycleMember(index);\n        return cycleMember;\n    }\n\n    function _CreateCycleMember(CycleMember memory cycleMember)\n        internal\n        returns (CycleMember memory)\n    {\n        cycleStorage.createCycleMember(\n            cycleMember.cycleId,\n            cycleMember.groupId,\n            cycleMember._address,\n            cycleMember.totalLiquidityAsPenalty,\n            cycleMember.numberOfCycleStakes,\n            cycleMember.stakesClaimed,\n            cycleMember.hasWithdrawn\n        );\n    }\n\n    function getCycleMember(address payable _depositorAddress, uint256 _cycleId)\n        external\n        view\n        returns (\n            uint256 cycleId,\n            uint256 groupId,\n            address payable _address,\n            uint256 totalLiquidityAsPenalty,\n            uint256 numberOfCycleStakes,\n            uint256 stakesClaimed,\n            bool hasWithdrawn\n        )\n    {\n        CycleMember memory cycleMember = _getCycleMember(\n            _depositorAddress,\n            _cycleId\n        );\n        return (\n            cycleMember.cycleId,\n            cycleMember.groupId,\n            cycleMember._address,\n            cycleMember.totalLiquidityAsPenalty,\n            cycleMember.numberOfCycleStakes,\n            cycleMember.stakesClaimed,\n            cycleMember.hasWithdrawn\n        );\n    }\n\n    function getCycleMember(uint256 index)\n        external\n        view\n        returns (\n            uint256 cycleId,\n            uint256 groupId,\n            address payable _address,\n            uint256 totalLiquidityAsPenalty,\n            uint256 numberOfCycleStakes,\n            uint256 stakesClaimed,\n            bool hasWithdrawn\n        )\n    {\n        return cycleStorage.getCycleMember(index);\n    }\n\n    function _getCycleMember(uint256 index)\n        internal\n        view\n        returns (CycleMember memory)\n    {\n        (\n            uint256 cycleId,\n            uint256 groupId,\n            address payable _address,\n            uint256 totalLiquidityAsPenalty,\n            uint256 numberOfCycleStakes,\n            uint256 stakesClaimed,\n            bool hasWithdrawn\n        ) = cycleStorage.getCycleMember(index);\n\n        return\n            CycleMember(\n                true,\n                cycleId,\n                groupId,\n                _address,\n                totalLiquidityAsPenalty,\n                numberOfCycleStakes,\n                stakesClaimed,\n                hasWithdrawn\n            );\n    }\n\n    function _startCycle(Cycle memory cycle) internal {\n        cycle.cycleStatus = CycleStatus.ONGOING;\n        _updateCycle(cycle);\n    }\n\n    function _endCycle(Cycle memory cycle) internal {\n        cycle.cycleStatus = CycleStatus.ENDED;\n        _updateCycle(cycle);\n    }\n\n    function _updateCycle(Cycle memory cycle) internal {\n        cycleStorage.updateCycle(\n            cycle.id,\n            cycle.numberOfDepositors,\n            cycle.cycleStartTimeStamp,\n            cycle.cycleDuration,\n            cycle.maximumSlots,\n            cycle.hasMaximumSlots,\n            cycle.cycleStakeAmount,\n            cycle.totalStakes,\n            cycle.stakesClaimed,\n            cycle.cycleStatus,\n            cycle.stakesClaimedBeforeMaturity\n        );\n    }\n\n    function _updateCycleFinancials(CycleFinancial memory cycleFinancial)\n        internal\n    {\n        cycleStorage.updateCycleFinancials(\n            cycleFinancial.cycleId,\n            cycleFinancial.underlyingTotalDeposits,\n            cycleFinancial.underlyingTotalWithdrawn,\n            cycleFinancial.underlyingBalance,\n            cycleFinancial.derivativeBalance,\n            cycleFinancial.underylingBalanceClaimedBeforeMaturity,\n            cycleFinancial.derivativeBalanceClaimedBeforeMaturity\n        );\n    }\n\n    function _joinCycle(\n        uint256 cycleId,\n        uint256 numberOfStakes,\n        address payable depositorAddress\n    ) internal {\n        require(numberOfStakes > 0, \"Minimum stakes that can be acquired is 1\");\n\n        Group memory group = _getCycleGroup(cycleId);\n        Cycle memory cycle = _getCycleById(cycleId);\n        CycleFinancial memory cycleFinancial = _getCycleFinancialByCycleId(\n            cycleId\n        );\n\n        bool didCycleMemberExistBeforeNow = cycleStorage.doesCycleMemberExist(\n            cycleId,\n            depositorAddress\n        );\n        bool didGroupMemberExistBeforeNow = groupStorage.doesGroupMemberExist(\n            group.id,\n            depositorAddress\n        );\n\n        _validateCycleDepositCriteriaAreMet(\n            cycle,\n            didCycleMemberExistBeforeNow\n        );\n\n        CycleDepositResult memory result = _addDepositorToCycle(\n            cycleId,\n            cycle.cycleStakeAmount,\n            numberOfStakes,\n            depositorAddress\n        );\n\n        cycle = _updateCycleStakeDeposit(cycle, cycleFinancial, numberOfStakes);\n\n        emit UnderlyingAssetDeposited(\n            cycle.id,\n            depositorAddress,\n            result.group.id,\n            result.underlyingAmountDeposited,\n            TokenAddress\n        );\n\n        if (!didCycleMemberExistBeforeNow) {\n            cycle.numberOfDepositors = cycle.numberOfDepositors.add(1);\n\n            emit MemberJoinedCycle(cycleId, depositorAddress, result.group.id);\n        }\n\n        if (!didGroupMemberExistBeforeNow) {\n            emit MemberJoinedGroup(depositorAddress, result.group.id);\n        }\n\n        _updateCycle(cycle);\n    }\n\n    function _updateCycleStakeDeposit(\n        Cycle memory cycle,\n        CycleFinancial memory cycleFinancial,\n        uint256 numberOfCycleStakes\n    ) internal returns (Cycle memory) {\n        cycle.totalStakes = cycle.totalStakes.add(numberOfCycleStakes);\n\n        uint256 depositAmount = cycle.cycleStakeAmount.mul(numberOfCycleStakes);\n        cycleFinancial.underlyingTotalDeposits = cycleFinancial\n            .underlyingTotalDeposits\n            .add(depositAmount);\n        _updateCycleFinancials(cycleFinancial);\n        _updateTotalTokenDepositAmount(depositAmount);\n        return cycle;\n    }\n\n    function _updateTotalTokenDepositAmount(uint256 amount) internal {\n        groupStorage.incrementTokenDeposit(TokenAddress, amount);\n    }\n\n    function _validateCycleDepositCriteriaAreMet(\n        Cycle memory cycle,\n        bool didCycleMemberExistBeforeNow\n    ) internal view {\n        bool hasMaximumSlots = cycle.hasMaximumSlots;\n        if (hasMaximumSlots == true && didCycleMemberExistBeforeNow == false) {\n            require(\n                cycle.numberOfDepositors < cycle.maximumSlots,\n                \"Maximum slot for depositors has been reached\"\n            );\n        }\n\n        require(\n            cycle.cycleStatus == CycleStatus.NOT_STARTED,\n            \"This cycle is not accepting deposits anymore\"\n        );\n    }\n\n    function _addDepositorToCycle(\n        uint256 cycleId,\n        uint256 cycleAmountForStake,\n        uint256 numberOfStakes,\n        address payable depositorAddress\n    ) internal returns (CycleDepositResult memory) {\n        Group memory group = _getCycleGroup(cycleId);\n\n        Member memory member = _createMemberIfNotExist(depositorAddress);\n        GroupMember memory groupMember = _createGroupMemberIfNotExist(\n            depositorAddress,\n            group.id\n        );\n\n        bool doesCycleMemberExist = cycleStorage.doesCycleMemberExist(\n            cycleId,\n            depositorAddress\n        );\n\n        CycleMember memory cycleMember = CycleMember(\n            true,\n            cycleId,\n            group.id,\n            depositorAddress,\n            0,\n            0,\n            0,\n            false\n        );\n\n        if (doesCycleMemberExist) {\n            cycleMember = _getCycleMember(depositorAddress, cycleId);\n        }\n\n        uint256 underlyingAmount = _processMemberDeposit(\n            numberOfStakes,\n            cycleAmountForStake,\n            depositorAddress\n        );\n\n        cycleMember = _saveMemberDeposit(\n            doesCycleMemberExist,\n            cycleMember,\n            numberOfStakes\n        );\n\n        CycleDepositResult memory result = CycleDepositResult(\n            group,\n            member,\n            groupMember,\n            cycleMember,\n            underlyingAmount\n        );\n\n        return result;\n    }\n\n    function _saveMemberDeposit(\n        bool didCycleMemberExistBeforeNow,\n        CycleMember memory cycleMember,\n        uint256 numberOfCycleStakes\n    ) internal returns (CycleMember memory) {\n        cycleMember.numberOfCycleStakes = cycleMember.numberOfCycleStakes.add(\n            numberOfCycleStakes\n        );\n\n        if (didCycleMemberExistBeforeNow == true)\n            _updateCycleMember(cycleMember);\n        else _CreateCycleMember(cycleMember);\n\n        return cycleMember;\n    }\n\n    function _processMemberDeposit(\n        uint256 numberOfStakes,\n        uint256 amountForStake,\n        address payable depositorAddress\n    ) internal returns (uint256 underlyingAmount) {\n        uint256 expectedAmount = numberOfStakes.mul(amountForStake);\n\n        address recipient = address(this);\n        uint256 amountTransferrable = daiToken.allowance(\n            depositorAddress,\n            recipient\n        );\n\n        require(\n            amountTransferrable > 0,\n            \"Approve an amount > 0 for token before proceeding\"\n        );\n        require(\n            amountTransferrable >= expectedAmount,\n            \"Token allowance does not cover stake claim\"\n        );\n\n        bool isSuccessful = daiToken.transferFrom(\n            depositorAddress,\n            recipient,\n            expectedAmount\n        );\n        require(\n            isSuccessful == true,\n            \"Could not complete deposit process from token contract\"\n        );\n\n        return expectedAmount;\n    }\n\n    function _endCycle(uint256 cycleId)\n        internal\n        returns (Cycle memory, CycleFinancial memory)\n    {\n        bool isCycleReadyToBeEnded = _isCycleReadyToBeEnded(cycleId);\n        require(isCycleReadyToBeEnded == true, \"Cycle is still ongoing\");\n\n        Cycle memory cycle = _getCycleById(cycleId);\n        CycleFinancial memory cycleFinancial = _getCycleFinancialByCycleId(\n            cycleId\n        );\n\n        uint256 derivativeBalanceToWithdraw = cycleFinancial.derivativeBalance -\n            cycleFinancial.derivativeBalanceClaimedBeforeMaturity;\n\n        derivativeToken.approve(\n            LendingAdapterAddress,\n            derivativeBalanceToWithdraw\n        );\n\n        uint256 underlyingAmount = _redeemLending(derivativeBalanceToWithdraw);\n\n        cycleFinancial.underlyingBalance = cycleFinancial.underlyingBalance.add(\n            underlyingAmount\n        );\n\n        cycle.cycleStatus = CycleStatus.ENDED;\n\n        return (cycle, cycleFinancial);\n    }\n\n    function _isCycleReadyToBeEnded(uint256 cycleId)\n        internal\n        view\n        returns (bool)\n    {\n        Cycle memory cycle = _getCycleById(cycleId);\n\n        if (cycle.cycleStatus != CycleStatus.ONGOING) return false;\n\n        uint256 currentTimeStamp = now;\n        uint256 cycleEndTimeStamp = cycle.cycleStartTimeStamp +\n            cycle.cycleDuration;\n\n        if (currentTimeStamp >= cycleEndTimeStamp) return true;\n        else return false;\n    }\n\n    function _redeemLending(uint256 derivativeBalance)\n        internal\n        returns (uint256)\n    {\n        uint256 balanceBeforeWithdraw = lendingService.userDaiBalance();\n\n        lendingService.WithdrawBySharesOnly(derivativeBalance);\n\n        uint256 balanceAfterWithdraw = lendingService.userDaiBalance();\n\n        uint256 amountOfUnderlyingAssetWithdrawn = balanceAfterWithdraw.sub(\n            balanceBeforeWithdraw\n        );\n\n        return amountOfUnderlyingAssetWithdrawn;\n    }\n\n    modifier onlyCycleCreator(uint256 cycleId) {\n        Group memory group = _getCycleGroup(cycleId);\n\n        bool isCreatorOrMember = (msg.sender == group.creatorAddress);\n\n        if (isCreatorOrMember == false) {\n            uint256 index = _getCycleMemberIndex(cycleId, msg.sender);\n            CycleMember memory cycleMember = _getCycleMember(index);\n\n            isCreatorOrMember = (cycleMember._address == msg.sender);\n        }\n\n        require(isCreatorOrMember == true, \"unauthorized access to contract\");\n        _;\n    }\n}\n\ncontract XendFinanceGroup_Yearn_V1 is\n    XendFinanceGroupExternalClientHelpers,\n    XendFinanceCycleExternalClientHelpers,\n    XendFinanceCycleHelpers,\n    ISavingsConfigSchema,\n    Ownable\n{\n    using SafeMath for uint256;\n\n    using Address for address payable;\n\n    constructor(\n        address lendingAdapterAddress,\n        address lendingServiceAddress,\n        address tokenAddress,\n        address groupStorageAddress,\n        address cycleStorageAddress,\n        address treasuryAddress,\n        address savingsConfigAddress,\n        address rewardConfigAddress,\n        address xendTokenAddress,\n        address derivativeTokenAddress\n    ) public {\n        lendingService = IDaiLendingService(lendingServiceAddress);\n        daiToken = IERC20(tokenAddress);\n        groupStorage = IGroups(groupStorageAddress);\n        cycleStorage = ICycles(cycleStorageAddress);\n        treasury = ITreasury(treasuryAddress);\n        savingsConfig = ISavingsConfig(savingsConfigAddress);\n        rewardConfig = IRewardConfig(rewardConfigAddress);\n        xendToken = IXendToken(xendTokenAddress);\n        derivativeToken = IERC20(derivativeTokenAddress);\n        LendingAdapterAddress = lendingAdapterAddress;\n        TokenAddress = tokenAddress;\n        TreasuryAddress = treasuryAddress;\n    }\n\n    function withdrawFromCycleWhileItIsOngoing(uint256 cycleId)\n        external\n        onlyNonDeprecatedCalls\n    {\n        address payable memberAddress = msg.sender;\n        _withdrawFromCycleWhileItIsOngoing(cycleId, memberAddress);\n    }\n\n    function _withdrawFromCycleWhileItIsOngoing(\n        uint256 cycleId,\n        address payable memberAddress\n    ) internal {\n        bool isCycleReadyToBeEnded = _isCycleReadyToBeEnded(cycleId);\n\n        require(\n            isCycleReadyToBeEnded == false,\n            \"Cycle has already ended, use normal withdrawl route\"\n        );\n\n        Cycle memory cycle = _getCycleById(cycleId);\n        CycleFinancial memory cycleFinancial = _getCycleFinancialByCycleId(\n            cycleId\n        );\n        bool memberExistInCycle = cycleStorage.doesCycleMemberExist(\n            cycleId,\n            memberAddress\n        );\n\n        require(\n            memberExistInCycle == true,\n            \"You are not a member of this cycle\"\n        );\n\n        uint256 index = _getCycleMemberIndex(cycle.id, memberAddress);\n\n        CycleMember memory cycleMember = _getCycleMember(index);\n\n        require(\n            cycleMember.hasWithdrawn == false,\n            \"Funds have already been withdrawn\"\n        );\n\n        uint256 numberOfStakesByMember = cycleMember.numberOfCycleStakes;\n        //uint256 pricePerFullShare = lendingService.getPricePerFullShare();\n\n        // get's the worth of one stake of the cycle in the derivative amount e.g yDAI\n        uint256 derivativeAmountForStake = cycleFinancial.derivativeBalance.div(\n            cycle.totalStakes\n        );\n\n        //get's how much of a crypto asset the user has deposited. e.g yDAI\n        uint256 derivativeBalanceForMember = derivativeAmountForStake.mul(\n            numberOfStakesByMember\n        );\n\n        derivativeToken.approve(\n            LendingAdapterAddress,\n            derivativeBalanceForMember\n        );\n\n        //get's the crypto equivalent of a members derivative balance. Crytpo here refers to DAI. this is gotten after the user's ydai balance has been converted to dai\n        uint256 underlyingAmountThatMemberDepositIsWorth = _redeemLending(\n            derivativeBalanceForMember\n        );\n\n        uint256 initialUnderlyingDepositByMember = numberOfStakesByMember.mul(\n            cycle.cycleStakeAmount\n        );\n\n        //deduct charges for early withdrawal\n        uint256 amountToChargeAsPenalites = _computeAmountToChargeAsPenalites(\n            underlyingAmountThatMemberDepositIsWorth\n        );\n\n        //deduct xend finance fees\n        uint256 amountToChargeAsFees = _computeXendFinanceCommisions(\n            underlyingAmountThatMemberDepositIsWorth\n        );\n\n        uint256 totalDeductible = amountToChargeAsPenalites.add(\n            amountToChargeAsFees\n        );\n\n        underlyingAmountThatMemberDepositIsWorth -= totalDeductible;\n\n\n            WithdrawalResolution memory withdrawalResolution\n         = _computeAmountToSendToParties(\n            initialUnderlyingDepositByMember,\n            underlyingAmountThatMemberDepositIsWorth\n        );\n\n        withdrawalResolution.amountToSendToTreasury = withdrawalResolution\n            .amountToSendToTreasury\n            .add(totalDeductible);\n\n        if (withdrawalResolution.amountToSendToTreasury > 0) {\n            daiToken.approve(\n                TreasuryAddress,\n                withdrawalResolution.amountToSendToTreasury\n            );\n            treasury.depositToken(TokenAddress);\n        }\n\n        require(\n            withdrawalResolution.amountToSendToMember > 0,\n            \"After deducting early withdrawal penalties and fees, there's nothing left for you\"\n        );\n        if (withdrawalResolution.amountToSendToMember > 0) {\n            daiToken.transfer(\n                cycleMember._address,\n                withdrawalResolution.amountToSendToMember\n            );\n        }\n\n        uint256 totalUnderlyingAmountSentOut = withdrawalResolution\n            .amountToSendToTreasury + withdrawalResolution.amountToSendToMember;\n\n        cycle.stakesClaimedBeforeMaturity += numberOfStakesByMember;\n        cycleFinancial\n            .underylingBalanceClaimedBeforeMaturity += totalUnderlyingAmountSentOut;\n        cycleFinancial\n            .derivativeBalanceClaimedBeforeMaturity += derivativeBalanceForMember;\n\n        cycleMember.hasWithdrawn = true;\n        cycleMember.stakesClaimed += numberOfStakesByMember;\n\n        _updateCycle(cycle);\n        _updateCycleMember(cycleMember);\n        _updateCycleFinancials(cycleFinancial);\n    }\n\n    function getDerivativeAmountForUserStake(\n        uint256 cycleId,\n        address payable memberAddress\n    ) external view returns (uint256) {\n        Cycle memory cycle = _getCycleById(cycleId);\n        CycleFinancial memory cycleFinancial = _getCycleFinancialByCycleId(\n            cycleId\n        );\n        bool memberExistInCycle = cycleStorage.doesCycleMemberExist(\n            cycleId,\n            memberAddress\n        );\n\n        require(\n            memberExistInCycle == true,\n            \"You are not a member of this cycle\"\n        );\n\n        uint256 index = _getCycleMemberIndex(cycle.id, memberAddress);\n\n        CycleMember memory cycleMember = _getCycleMember(index);\n\n        uint256 numberOfStakesByMember = cycleMember.numberOfCycleStakes;\n\n        // get's the worth of one stake of the cycle in the derivative amount e.g yDAI\n        uint256 derivativeAmountForStake = cycleFinancial.derivativeBalance.div(\n            cycle.totalStakes\n        );\n\n        //get's how much of a crypto asset the user has deposited. e.g yDAI\n        uint256 derivativeBalanceForMember = derivativeAmountForStake.mul(\n            numberOfStakesByMember\n        );\n        return derivativeBalanceForMember;\n    }\n\n    function withdrawFromCycle(uint256 cycleId)\n        external\n        onlyNonDeprecatedCalls\n    {\n        address payable memberAddress = msg.sender;\n        uint256 amountToSendToMember = _withdrawFromCycle(\n            cycleId,\n            memberAddress\n        );\n        emit DerivativeAssetWithdrawn(\n            cycleId,\n            memberAddress,\n            amountToSendToMember,\n            TokenAddress\n        );\n    }\n\n    function withdrawFromCycle(uint256 cycleId, address payable memberAddress)\n        external\n        onlyNonDeprecatedCalls\n    {\n        uint256 amountToSendToMember = _withdrawFromCycle(\n            cycleId,\n            memberAddress\n        );\n\n        emit DerivativeAssetWithdrawn(\n            cycleId,\n            memberAddress,\n            amountToSendToMember,\n            TokenAddress\n        );\n    }\n\n    function _withdrawFromCycle(uint256 cycleId, address payable memberAddress)\n        internal\n        returns (uint256 amountToSendToMember)\n    {\n        Cycle memory cycle;\n        CycleFinancial memory cycleFinancial;\n\n        if (_isCycleReadyToBeEnded(cycleId)) {\n            (cycle, cycleFinancial) = _endCycle(cycleId);\n        } else {\n            cycle = _getCycleById(cycleId);\n            cycleFinancial = _getCycleFinancialByCycleId(cycleId);\n        }\n\n        bool memberExistInCycle = cycleStorage.doesCycleMemberExist(\n            cycleId,\n            memberAddress\n        );\n\n        require(\n            memberExistInCycle == true,\n            \"You are not a member of this cycle\"\n        );\n\n        uint256 index = _getCycleMemberIndex(cycleId, memberAddress);\n        CycleMember memory cycleMember = _getCycleMember(index);\n\n        require(\n            cycleMember.hasWithdrawn == false,\n            \"Funds have already been withdrawn\"\n        );\n\n        //how many stakes a cycle member has\n        uint256 stakesHoldings = cycleMember.numberOfCycleStakes;\n\n        //getting the underlying asset amount that backs 1 stake amount\n        uint256 totalStakesLeftWhenTheCycleEnded = cycle.totalStakes -\n            cycle.stakesClaimedBeforeMaturity;\n        uint256 underlyingAssetForStake = cycleFinancial.underlyingBalance.div(\n            totalStakesLeftWhenTheCycleEnded\n        );\n\n        //cycle members stake amount current worth\n\n\n            uint256 underlyingAmountThatMemberDepositIsWorth\n         = underlyingAssetForStake.mul(stakesHoldings);\n\n        uint256 initialUnderlyingDepositByMember = stakesHoldings.mul(\n            cycle.cycleStakeAmount\n        );\n\n        //deduct xend finance fees\n        uint256 amountToChargeAsFees = _computeXendFinanceCommisions(\n            underlyingAmountThatMemberDepositIsWorth\n        );\n\n        underlyingAmountThatMemberDepositIsWorth = underlyingAmountThatMemberDepositIsWorth\n            .sub(amountToChargeAsFees);\n\n\n            WithdrawalResolution memory withdrawalResolution\n         = _computeAmountToSendToParties(\n            initialUnderlyingDepositByMember,\n            underlyingAmountThatMemberDepositIsWorth\n        );\n\n        withdrawalResolution.amountToSendToTreasury = withdrawalResolution\n            .amountToSendToTreasury\n            .add(amountToChargeAsFees);\n\n        if (withdrawalResolution.amountToSendToTreasury > 0) {\n            daiToken.approve(\n                TreasuryAddress,\n                withdrawalResolution.amountToSendToTreasury\n            );\n            treasury.depositToken(TokenAddress);\n        }\n\n        if (withdrawalResolution.amountToSendToMember > 0) {\n            daiToken.transfer(\n                cycleMember._address,\n                withdrawalResolution.amountToSendToMember\n            );\n        }\n\n        uint256 totalUnderlyingAmountSentOut = withdrawalResolution\n            .amountToSendToTreasury + withdrawalResolution.amountToSendToMember;\n\n        cycle.stakesClaimed += stakesHoldings;\n        cycleFinancial.underlyingTotalWithdrawn += totalUnderlyingAmountSentOut;\n\n        cycleMember.hasWithdrawn = true;\n        cycleMember.stakesClaimed += stakesHoldings;\n        uint256 amountDeposited = cycle.cycleStakeAmount.mul(stakesHoldings);\n        _rewardUserWithTokens(\n            cycle.cycleDuration,\n            amountDeposited,\n            cycleMember._address\n        );\n\n        _updateCycle(cycle);\n        _updateCycleFinancials(cycleFinancial);\n        _updateCycleMember(cycleMember);\n\n        return withdrawalResolution.amountToSendToMember;\n    }\n\n    function deprecateContract(address newServiceAddress)\n        external\n        onlyOwner\n        onlyNonDeprecatedCalls\n    {\n        isDeprecated = true;\n        groupStorage.reAssignStorageOracle(newServiceAddress);\n        cycleStorage.reAssignStorageOracle(newServiceAddress);\n        uint256 derivativeTokenBalance = derivativeToken.balanceOf(\n            address(this)\n        );\n        derivativeToken.transfer(newServiceAddress, derivativeTokenBalance);\n    }\n\n    function _rewardUserWithTokens(\n        uint256 totalCycleTimeInSeconds,\n        uint256 amountDeposited,\n        address payable cycleMemberAddress\n    ) internal {\n        uint256 numberOfRewardTokens = rewardConfig\n            .CalculateCooperativeSavingsReward(\n            totalCycleTimeInSeconds,\n            amountDeposited\n        );\n\n        if (numberOfRewardTokens > 0) {\n            xendToken.mint(cycleMemberAddress, numberOfRewardTokens);\n        }\n    }\n\n    function _computeAmountToChargeAsPenalites(uint256 worthOfMemberDepositNow)\n        internal\n        returns (uint256)\n    {\n        (\n            uint256 minimum,\n            uint256 maximum,\n            uint256 exact,\n            bool applies,\n            RuleDefinition ruleDefinition\n        ) = savingsConfig.getRuleSet(PERCENTAGE_AS_PENALTY);\n\n        require(applies == true, \"unsupported rule defintion for rule set\");\n\n        require(\n            ruleDefinition == RuleDefinition.VALUE,\n            \"unsupported rule defintion for penalty percentage rule set\"\n        );\n\n        require(\n            worthOfMemberDepositNow > 0,\n            \"member deposit really isn't worth much\"\n        );\n\n        uint256 amountToChargeAsPenalites = worthOfMemberDepositNow\n            .mul(exact)\n            .div(100);\n        return amountToChargeAsPenalites;\n    }\n\n    function _computeXendFinanceCommisions(uint256 worthOfMemberDepositNow)\n        internal\n        returns (uint256)\n    {\n        uint256 dividend = _getDividend();\n        uint256 divisor = _getDivisor();\n\n        require(\n            worthOfMemberDepositNow > 0,\n            \"member deposit really isn't worth much\"\n        );\n\n        return worthOfMemberDepositNow.mul(dividend).div(divisor).div(100);\n    }\n\n    function _getDivisor() internal returns (uint256) {\n        (\n            uint256 minimumDivisor,\n            uint256 maximumDivisor,\n            uint256 exactDivisor,\n            bool appliesDivisor,\n            RuleDefinition ruleDefinitionDivisor\n        ) = savingsConfig.getRuleSet(XEND_FINANCE_COMMISION_DIVISOR);\n\n        require(\n            appliesDivisor == true,\n            \"unsupported rule defintion for rule set\"\n        );\n\n        require(\n            ruleDefinitionDivisor == RuleDefinition.VALUE,\n            \"unsupported rule defintion for penalty percentage rule set\"\n        );\n        return exactDivisor;\n    }\n\n    function _getDividend() internal returns (uint256) {\n        (\n            uint256 minimumDividend,\n            uint256 maximumDividend,\n            uint256 exactDividend,\n            bool appliesDividend,\n            RuleDefinition ruleDefinitionDividend\n        ) = savingsConfig.getRuleSet(XEND_FINANCE_COMMISION_DIVIDEND);\n\n        require(\n            appliesDividend == true,\n            \"unsupported rule defintion for rule set\"\n        );\n\n        require(\n            ruleDefinitionDividend == RuleDefinition.VALUE,\n            \"unsupported rule defintion for penalty percentage rule set\"\n        );\n        return exactDividend;\n    }\n\n    //Determines how much we send to the treasury and how much we send to the member\n    function _computeAmountToSendToParties(\n        uint256 totalUnderlyingAmountMemberDeposited,\n        uint256 worthOfMemberDepositNow\n    ) internal returns (WithdrawalResolution memory) {\n        (\n            uint256 minimum,\n            uint256 maximum,\n            uint256 exact,\n            bool applies,\n            RuleDefinition ruleDefinition\n        ) = savingsConfig.getRuleSet(PERCENTAGE_PAYOUT_TO_USERS);\n\n        require(applies == true, \"unsupported rule defintion for rule set\");\n\n        require(\n            ruleDefinition == RuleDefinition.VALUE,\n            \"unsupported rule defintion for payout  percentage rule set\"\n        );\n\n        //ensures we send what the user's investment is currently worth when his original deposit did not appreciate in value\n        if (totalUnderlyingAmountMemberDeposited >= worthOfMemberDepositNow) {\n            return WithdrawalResolution(worthOfMemberDepositNow, 0);\n        } else {\n\n                uint256 maxAmountUserCanBePaid\n             = _getMaxAmountUserCanBePaidConsideringInterestLimit(\n                exact,\n                totalUnderlyingAmountMemberDeposited\n            );\n\n            if (worthOfMemberDepositNow > maxAmountUserCanBePaid) {\n                uint256 amountToSendToTreasury = worthOfMemberDepositNow.sub(\n                    maxAmountUserCanBePaid\n                );\n                return\n                    WithdrawalResolution(\n                        maxAmountUserCanBePaid,\n                        amountToSendToTreasury\n                    );\n            } else {\n                return WithdrawalResolution(worthOfMemberDepositNow, 0);\n            }\n        }\n    }\n\n    function _getMaxAmountUserCanBePaidConsideringInterestLimit(\n        uint256 maxPayoutPercentage,\n        uint256 totalUnderlyingAmountMemberDeposited\n    ) internal returns (uint256) {\n        uint256 percentageConsideration = 100 + maxPayoutPercentage;\n        return\n            totalUnderlyingAmountMemberDeposited\n                .mul(percentageConsideration)\n                .div(100);\n    }\n\n    function getRecordIndexLengthForCycleMembers(uint256 cycleId)\n        external\n        view\n        onlyNonDeprecatedCalls\n        returns (uint256)\n    {\n        return cycleStorage.getRecordIndexLengthForCycleMembers(cycleId);\n    }\n\n    function getRecordIndexLengthForCycleMembersByDepositor(\n        address depositorAddress\n    ) external view onlyNonDeprecatedCalls returns (uint256) {\n        return\n            cycleStorage.getRecordIndexLengthForCycleMembersByDepositor(\n                depositorAddress\n            );\n    }\n\n    function getRecordIndexLengthForGroupMembers(uint256 groupId)\n        external\n        view\n        onlyNonDeprecatedCalls\n        returns (uint256)\n    {\n        return groupStorage.getRecordIndexLengthForGroupMembersIndexer(groupId);\n    }\n\n    function getRecordIndexLengthForGroupMembersByDepositor(\n        address depositorAddress\n    ) external view onlyNonDeprecatedCalls returns (uint256) {\n        return\n            groupStorage.getRecordIndexLengthForGroupMembersIndexerByDepositor(\n                depositorAddress\n            );\n    }\n\n    function getRecordIndexLengthForGroupCycles(uint256 groupId)\n        external\n        view\n        onlyNonDeprecatedCalls\n        returns (uint256)\n    {\n        return cycleStorage.getRecordIndexLengthForGroupCycleIndexer(groupId);\n    }\n\n    function getRecordIndexLengthForCreator(address groupCreator)\n        external\n        view\n        onlyNonDeprecatedCalls\n        returns (uint256)\n    {\n        return groupStorage.getRecordIndexLengthForCreator(groupCreator);\n    }\n\n    function getSecondsLeftForCycleToEnd(uint256 cycleId)\n        external\n        view\n        onlyNonDeprecatedCalls\n        returns (uint256)\n    {\n        Cycle memory cycle = _getCycleById(cycleId);\n        require(cycle.cycleStatus == CycleStatus.ONGOING);\n        uint256 cycleEndTimeStamp = cycle.cycleStartTimeStamp +\n            cycle.cycleDuration;\n\n        if (cycleEndTimeStamp >= now) return cycleEndTimeStamp - now;\n        else return 0;\n    }\n\n    function getSecondsLeftForCycleToStart(uint256 cycleId)\n        external\n        view\n        onlyNonDeprecatedCalls\n        returns (uint256)\n    {\n        Cycle memory cycle = _getCycleById(cycleId);\n        require(cycle.cycleStatus == CycleStatus.NOT_STARTED);\n\n        if (cycle.cycleStartTimeStamp >= now)\n            return cycle.cycleStartTimeStamp - now;\n        else return 0;\n    }\n\n    function activateCycle(uint256 cycleId)\n        external\n        onlyNonDeprecatedCalls\n        onlyCycleCreator(cycleId)\n    {\n        Cycle memory cycle = _getCycleById(cycleId);\n        CycleFinancial memory cycleFinancial = _getCycleFinancialByCycleId(\n            cycleId\n        );\n\n        uint256 currentTimeStamp = now;\n        require(\n            cycle.cycleStatus == CycleStatus.NOT_STARTED,\n            \"Cannot activate a cycle not in the 'NOT_STARTED' state\"\n        );\n        require(\n            cycle.numberOfDepositors > 0,\n            \"Cannot activate cycle that has no depositors\"\n        );\n\n        require(\n            cycle.cycleStartTimeStamp <= currentTimeStamp,\n            \"Cycle start time has not been reached\"\n        );\n\n        uint256 derivativeAmount = _lendCycleDeposit(\n            cycleFinancial.underlyingTotalDeposits\n        );\n\n        cycleFinancial.derivativeBalance = cycleFinancial.derivativeBalance.add(\n            derivativeAmount\n        );\n\n        cycle.cycleStartTimeStamp = currentTimeStamp;\n        _startCycle(cycle);\n        _updateCycleFinancials(cycleFinancial);\n\n        uint256 blockNumber = block.number;\n        uint256 blockTimestamp = currentTimeStamp;\n\n        emit CycleStartedEvent(\n            cycleId,\n            blockTimestamp,\n            blockNumber,\n            derivativeAmount,\n            cycleFinancial.underlyingTotalDeposits\n        );\n    }\n\n    function endCycle(uint256 cycleId) external onlyNonDeprecatedCalls {\n        _endCycle(cycleId);\n    }\n\n    function _lendCycleDeposit(uint256 underlyingTotalDeposits)\n        internal\n        returns (uint256)\n    {\n        daiToken.approve(LendingAdapterAddress, underlyingTotalDeposits);\n\n        uint256 balanceBeforeDeposit = lendingService.userShares();\n\n        lendingService.save(underlyingTotalDeposits);\n\n        uint256 balanceAfterDeposit = lendingService.userShares();\n\n        uint256 amountOfyDai = balanceAfterDeposit.sub(balanceBeforeDeposit);\n        return amountOfyDai;\n    }\n\n    function createGroup(string calldata name, string calldata symbol)\n        external\n        onlyNonDeprecatedCalls\n    {\n        _validateGroupNameAndSymbolIsAvailable(name, symbol);\n\n        uint256 groupId = groupStorage.createGroup(name, symbol, msg.sender);\n\n        emit GroupCreated(groupId, msg.sender);\n    }\n\n    function _validateGroupNameAndSymbolIsAvailable(\n        string memory name,\n        string memory symbol\n    ) internal {\n        bytes memory nameInBytes = bytes(name); // Uses memory\n        bytes memory symbolInBytes = bytes(symbol); // Uses memory\n\n        require(nameInBytes.length > 0, \"Group name cannot be empty\");\n        require(symbolInBytes.length > 0, \"Group sysmbol cannot be empty\");\n\n        bool nameExist = groupStorage.doesGroupExist(name);\n\n        require(nameExist == false, \"Group name has already been used\");\n    }\n\n    function createCycle(\n        uint256 groupId,\n        uint256 startTimeStamp,\n        uint256 duration,\n        uint256 maximumSlots,\n        bool hasMaximumSlots,\n        uint256 cycleStakeAmount\n    ) external onlyNonDeprecatedCalls onlyGroupCreator(groupId) {\n        _validateCycleCreationActionValid(\n            groupId,\n            maximumSlots,\n            hasMaximumSlots\n        );\n\n        uint256 cycleId = cycleStorage.createCycle(\n            groupId,\n            0,\n            startTimeStamp,\n            duration,\n            maximumSlots,\n            hasMaximumSlots,\n            cycleStakeAmount,\n            0,\n            0,\n            CycleStatus.NOT_STARTED,\n            0\n        );\n\n        cycleStorage.createCycleFinancials(cycleId, groupId, 0, 0, 0, 0, 0, 0);\n\n        emit CycleCreated(\n            cycleId,\n            maximumSlots,\n            hasMaximumSlots,\n            cycleStakeAmount,\n            startTimeStamp,\n            duration\n        );\n    }\n\n    function joinCycle(uint256 cycleId, uint256 numberOfStakes)\n        external\n        onlyNonDeprecatedCalls\n    {\n        address payable depositorAddress = msg.sender;\n        _joinCycle(cycleId, numberOfStakes, depositorAddress);\n    }\n\n    function joinCycleDelegate(\n        uint256 cycleId,\n        uint256 numberOfStakes,\n        address payable depositorAddress\n    ) external onlyNonDeprecatedCalls {\n        _joinCycle(cycleId, numberOfStakes, depositorAddress);\n    }\n}\n",
  "sourcePath": "/Users/njokuscript/Desktop/programming/yearn-savings/Tests/contracts/XendFinanceGroup_Yearn_V1.sol",
  "compiler": {
    "name": "solc",
    "version": "0.6.6+commit.6c089d02.Emscripten.clang"
  },
  "schemaVersion": "3.2.5",
  "updatedAt": "2020-11-17T22:03:39.708Z",
  "devdoc": {
    "methods": {}
  },
  "userdoc": {
    "methods": {}
  }
}