{
  "contractName": "ClientRecord",
  "abi": [
    {
      "inputs": [
        {
          "internalType": "address",
          "name": "",
          "type": "address"
        }
      ],
      "name": "ClientRecordIndexer",
      "outputs": [
        {
          "internalType": "bool",
          "name": "exists",
          "type": "bool"
        },
        {
          "internalType": "uint256",
          "name": "index",
          "type": "uint256"
        }
      ],
      "stateMutability": "view",
      "type": "function"
    },
    {
      "inputs": [
        {
          "internalType": "address",
          "name": "oracle",
          "type": "address"
        }
      ],
      "name": "activateStorageOracle",
      "outputs": [],
      "stateMutability": "nonpayable",
      "type": "function"
    },
    {
      "inputs": [
        {
          "internalType": "address",
          "name": "oracle",
          "type": "address"
        }
      ],
      "name": "deactivateStorageOracle",
      "outputs": [],
      "stateMutability": "nonpayable",
      "type": "function"
    },
    {
      "inputs": [
        {
          "internalType": "address",
          "name": "newOracle",
          "type": "address"
        }
      ],
      "name": "reAssignStorageOracle",
      "outputs": [],
      "stateMutability": "nonpayable",
      "type": "function"
    },
    {
      "inputs": [
        {
          "internalType": "address payable",
          "name": "newOwner",
          "type": "address"
        }
      ],
      "name": "transferOwnership",
      "outputs": [],
      "stateMutability": "nonpayable",
      "type": "function"
    },
    {
      "inputs": [
        {
          "internalType": "address",
          "name": "depositor",
          "type": "address"
        }
      ],
      "name": "doesClientRecordExist",
      "outputs": [
        {
          "internalType": "bool",
          "name": "",
          "type": "bool"
        }
      ],
      "stateMutability": "view",
      "type": "function"
    },
    {
      "inputs": [
        {
          "internalType": "address",
          "name": "depositor",
          "type": "address"
        }
      ],
      "name": "getRecordIndex",
      "outputs": [
        {
          "internalType": "uint256",
          "name": "",
          "type": "uint256"
        }
      ],
      "stateMutability": "view",
      "type": "function"
    },
    {
      "inputs": [
        {
          "internalType": "address payable",
          "name": "_address",
          "type": "address"
        },
        {
          "internalType": "uint256",
          "name": "underlyingTotalDeposits",
          "type": "uint256"
        },
        {
          "internalType": "uint256",
          "name": "underlyingTotalWithdrawn",
          "type": "uint256"
        },
        {
          "internalType": "uint256",
          "name": "derivativeBalance",
          "type": "uint256"
        },
        {
          "internalType": "uint256",
          "name": "derivativeTotalDeposits",
          "type": "uint256"
        },
        {
          "internalType": "uint256",
          "name": "derivativeTotalWithdrawn",
          "type": "uint256"
        }
      ],
      "name": "createClientRecord",
      "outputs": [],
      "stateMutability": "nonpayable",
      "type": "function"
    },
    {
      "inputs": [
        {
          "internalType": "address payable",
          "name": "_address",
          "type": "address"
        },
        {
          "internalType": "uint256",
          "name": "underlyingTotalDeposits",
          "type": "uint256"
        },
        {
          "internalType": "uint256",
          "name": "underlyingTotalWithdrawn",
          "type": "uint256"
        },
        {
          "internalType": "uint256",
          "name": "derivativeBalance",
          "type": "uint256"
        },
        {
          "internalType": "uint256",
          "name": "derivativeTotalDeposits",
          "type": "uint256"
        },
        {
          "internalType": "uint256",
          "name": "derivativeTotalWithdrawn",
          "type": "uint256"
        }
      ],
      "name": "updateClientRecord",
      "outputs": [],
      "stateMutability": "nonpayable",
      "type": "function"
    },
    {
      "inputs": [],
      "name": "getLengthOfClientRecords",
      "outputs": [
        {
          "internalType": "uint256",
          "name": "",
          "type": "uint256"
        }
      ],
      "stateMutability": "view",
      "type": "function"
    },
    {
      "inputs": [
        {
          "internalType": "uint256",
          "name": "index",
          "type": "uint256"
        }
      ],
      "name": "getClientRecordByIndex",
      "outputs": [
        {
          "internalType": "address payable",
          "name": "_address",
          "type": "address"
        },
        {
          "internalType": "uint256",
          "name": "underlyingTotalDeposits",
          "type": "uint256"
        },
        {
          "internalType": "uint256",
          "name": "underlyingTotalWithdrawn",
          "type": "uint256"
        },
        {
          "internalType": "uint256",
          "name": "derivativeBalance",
          "type": "uint256"
        },
        {
          "internalType": "uint256",
          "name": "derivativeTotalDeposits",
          "type": "uint256"
        },
        {
          "internalType": "uint256",
          "name": "derivativeTotalWithdrawn",
          "type": "uint256"
        }
      ],
      "stateMutability": "view",
      "type": "function"
    },
    {
      "inputs": [
        {
          "internalType": "address",
          "name": "depositor",
          "type": "address"
        }
      ],
      "name": "getClientRecordByAddress",
      "outputs": [
        {
          "internalType": "address payable",
          "name": "_address",
          "type": "address"
        },
        {
          "internalType": "uint256",
          "name": "underlyingTotalDeposits",
          "type": "uint256"
        },
        {
          "internalType": "uint256",
          "name": "underlyingTotalWithdrawn",
          "type": "uint256"
        },
        {
          "internalType": "uint256",
          "name": "derivativeBalance",
          "type": "uint256"
        },
        {
          "internalType": "uint256",
          "name": "derivativeTotalDeposits",
          "type": "uint256"
        },
        {
          "internalType": "uint256",
          "name": "derivativeTotalWithdrawn",
          "type": "uint256"
        }
      ],
      "stateMutability": "view",
      "type": "function"
    },
    {
      "inputs": [
        {
          "internalType": "address",
          "name": "member",
          "type": "address"
        }
      ],
      "name": "GetRecordIndexFromDepositor",
      "outputs": [
        {
          "internalType": "uint256",
          "name": "",
          "type": "uint256"
        }
      ],
      "stateMutability": "view",
      "type": "function"
    },
    {
      "inputs": [
        {
          "internalType": "uint256",
          "name": "recordIndex",
          "type": "uint256"
        },
        {
          "internalType": "address",
          "name": "depositor",
          "type": "address"
        }
      ],
      "name": "GetRecordIdFromRecordIndexAndDepositorRecord",
      "outputs": [
        {
          "internalType": "uint256",
          "name": "",
          "type": "uint256"
        }
      ],
      "stateMutability": "view",
      "type": "function"
    },
    {
      "inputs": [
        {
          "internalType": "uint256",
          "name": "amount",
          "type": "uint256"
        },
        {
          "internalType": "uint256",
          "name": "derivativeBalance",
          "type": "uint256"
        },
        {
          "internalType": "uint256",
          "name": "lockPeriodInSeconds",
          "type": "uint256"
        },
        {
          "internalType": "uint256",
          "name": "depositDateInSeconds",
          "type": "uint256"
        },
        {
          "internalType": "address payable",
          "name": "depositor",
          "type": "address"
        },
        {
          "internalType": "bool",
          "name": "hasWithdrawn",
          "type": "bool"
        }
      ],
      "name": "CreateDepositRecordMapping",
      "outputs": [
        {
          "internalType": "uint256",
          "name": "",
          "type": "uint256"
        }
      ],
      "stateMutability": "nonpayable",
      "type": "function"
    },
    {
      "inputs": [
        {
          "internalType": "uint256",
          "name": "depositRecordId",
          "type": "uint256"
        },
        {
          "internalType": "uint256",
          "name": "amount",
          "type": "uint256"
        },
        {
          "internalType": "uint256",
          "name": "derivativeBalance",
          "type": "uint256"
        },
        {
          "internalType": "uint256",
          "name": "lockPeriodInSeconds",
          "type": "uint256"
        },
        {
          "internalType": "uint256",
          "name": "depositDateInSeconds",
          "type": "uint256"
        },
        {
          "internalType": "address payable",
          "name": "depositor",
          "type": "address"
        },
        {
          "internalType": "bool",
          "name": "hasWithdrawn",
          "type": "bool"
        }
      ],
      "name": "UpdateDepositRecordMapping",
      "outputs": [],
      "stateMutability": "nonpayable",
      "type": "function"
    },
    {
      "inputs": [
        {
          "internalType": "uint256",
          "name": "depositRecordId",
          "type": "uint256"
        }
      ],
      "name": "GetRecordById",
      "outputs": [
        {
          "internalType": "uint256",
          "name": "recordId",
          "type": "uint256"
        },
        {
          "internalType": "address payable",
          "name": "depositorId",
          "type": "address"
        },
        {
          "internalType": "uint256",
          "name": "amount",
          "type": "uint256"
        },
        {
          "internalType": "uint256",
          "name": "depositDateInSeconds",
          "type": "uint256"
        },
        {
          "internalType": "uint256",
          "name": "lockPeriodInSeconds",
          "type": "uint256"
        },
        {
          "internalType": "bool",
          "name": "hasWithdrawn",
          "type": "bool"
        }
      ],
      "stateMutability": "view",
      "type": "function"
    },
    {
      "inputs": [],
      "name": "GetRecords",
      "outputs": [
        {
          "components": [
            {
              "internalType": "uint256",
              "name": "recordId",
              "type": "uint256"
            },
            {
              "internalType": "address payable",
              "name": "depositorId",
              "type": "address"
            },
            {
              "internalType": "bool",
              "name": "hasWithdrawn",
              "type": "bool"
            },
            {
              "internalType": "uint256",
              "name": "amount",
              "type": "uint256"
            },
            {
              "internalType": "uint256",
              "name": "depositDateInSeconds",
              "type": "uint256"
            },
            {
              "internalType": "uint256",
              "name": "lockPeriodInSeconds",
              "type": "uint256"
            },
            {
              "internalType": "uint256",
              "name": "derivativeBalance",
              "type": "uint256"
            }
          ],
          "internalType": "struct IClientRecordSchema.FixedDepositRecord[]",
          "name": "",
          "type": "tuple[]"
        }
      ],
      "stateMutability": "view",
      "type": "function"
    },
    {
      "inputs": [],
      "name": "GetRecordId",
      "outputs": [
        {
          "internalType": "uint256",
          "name": "",
          "type": "uint256"
        }
      ],
      "stateMutability": "view",
      "type": "function"
    },
    {
      "inputs": [
        {
          "internalType": "address payable",
          "name": "depositor",
          "type": "address"
        },
        {
          "internalType": "uint256",
          "name": "recordId",
          "type": "uint256"
        }
      ],
      "name": "CreateDepositorToDepositRecordIndexToRecordIDMapping",
      "outputs": [],
      "stateMutability": "nonpayable",
      "type": "function"
    },
    {
      "inputs": [
        {
          "internalType": "address payable",
          "name": "depositor",
          "type": "address"
        },
        {
          "internalType": "uint256",
          "name": "recordId",
          "type": "uint256"
        },
        {
          "internalType": "uint256",
          "name": "amountDeposited",
          "type": "uint256"
        },
        {
          "internalType": "uint256",
          "name": "derivativeBalance",
          "type": "uint256"
        },
        {
          "internalType": "uint256",
          "name": "lockPeriodInSeconds",
          "type": "uint256"
        },
        {
          "internalType": "uint256",
          "name": "depositDateInSeconds",
          "type": "uint256"
        },
        {
          "internalType": "bool",
          "name": "hasWithdrawn",
          "type": "bool"
        }
      ],
      "name": "CreateDepositorAddressToDepositRecordMapping",
      "outputs": [],
      "stateMutability": "nonpayable",
      "type": "function"
    }
  ],
  "bytecode": "0x608060405260008054600160a060020a031916331790556116e6806100256000396000f3fe608060405234801561001057600080fd5b5060043610610154576000357c0100000000000000000000000000000000000000000000000000000000900480637c79ed46116100d5578063d4efcbe811610099578063d4efcbe8146102c2578063e08c694c146102d5578063eac1bbe8146102e8578063f2fde38b146102fb578063fbae33721461030e578063ff1b9e211461031657610154565b80637c79ed461461025157806389694be7146102765780639ff8325b14610289578063b103cccf1461029c578063b91e1e22146102af57610154565b806346854aa71161011c57806346854aa7146101f25780635898d883146102055780636041fc88146102185780636f583ba61461022b5780637a3f449a1461023e57610154565b80630fdf80ed146101595780632a02ab551461016e5780632adc57a61461018c57806331703b5f146101ac57806335dc275b146101cd575b600080fd5b61016c61016736600461126b565b61032b565b005b6101766103a0565b6040516101839190611651565b60405180910390f35b61019f61019a36600461126b565b6103a6565b6040516101839190611525565b6101bf6101ba36600461126b565b6103f0565b604051610183929190611530565b6101e06101db366004611365565b61040f565b6040516101839695949392919061165a565b61016c6102003660046112b2565b6104aa565b61016c61021336600461140d565b61064e565b61016c61022636600461126b565b610820565b61016c61023936600461126b565b61086e565b61017661024c3660046113ac565b6108c2565b61026461025f36600461126b565b610aa4565b60405161018396959493929190611465565b61016c6102843660046112b2565b610bbb565b61016c610297366004611287565b610dc4565b6101766102aa36600461137d565b610e55565b61016c6102bd3660046112fd565b610e7a565b6101766102d036600461126b565b610f40565b6102646102e3366004611365565b610f5b565b6101766102f636600461126b565b611007565b61016c61030936600461126b565b611077565b6101766110df565b61031e6110e5565b6040516101839190611498565b3360009081526001602052604090205460ff16806103675760405160e560020a62461bcd02815260040161035e90611540565b60405180910390fd5b50336000908152600160208190526040808320805460ff19908116909155600160a060020a039490941683529091208054909216179055565b60085490565b60006103b06111c4565b5050600160a060020a03166000908152600960209081526040918290208251808401909352805460ff161515808452600190910154929091019190915290565b6009602052600090815260409020805460019091015460ff9091169082565b6000806000806000806104206111db565b5050506000948552505060046020818152604094859020855160e08101875281548082526001830154600160a060020a03811694830185905260a060020a900460ff1615159782018890526002830154606083018190526003840154608084018190529584015460a0840181905260059094015460c0909301929092529792969095509293509190565b3360009081526001602052604090205460ff16806104dd5760405160e560020a62461bcd02815260040161035e90611540565b6104e56111c4565b50600160a060020a0387166000908152600960209081526040918290208251808401909352805460ff16151580845260019182015492840192909252146105415760405160e560020a62461bcd02815260040161035e906115e3565b610549611223565b6040518060e001604052806001151581526020018a600160a060020a0316815260200189815260200188815260200187815260200186815260200185815250905060008260200151905088600882815481106105a157fe5b90600052602060002090600602016001018190555087600882815481106105c457fe5b90600052602060002090600602016002018190555086600882815481106105e757fe5b906000526020600020906006020160030181905550856008828154811061060a57fe5b906000526020600020906006020160040181905550846008828154811061062d57fe5b90600052602060002090600602016005018190555050505050505050505050565b3360009081526001602052604090205460ff16806106815760405160e560020a62461bcd02815260040161035e90611540565b506000878152600460208190526040822098895560028901978855880194855560038089019485556001808a018054600160a060020a0396871673ffffffffffffffffffffffffffffffffffffffff1996151560a060020a90810274ff00000000000000000000000000000000000000001993841617881691909117835560058d019a8b558454938401855593909452995460069091027fc2575a0e9e593c00f959f8c92f12db2869c3395a3b0502d05e2516446f71f85b81019190915589547fc2575a0e9e593c00f959f8c92f12db2869c3395a3b0502d05e2516446f71f85c82018054909516951694909417808455985481900460ff1615150297169690961790955592547fc2575a0e9e593c00f959f8c92f12db2869c3395a3b0502d05e2516446f71f85d85015591547fc2575a0e9e593c00f959f8c92f12db2869c3395a3b0502d05e2516446f71f85e84015590547fc2575a0e9e593c00f959f8c92f12db2869c3395a3b0502d05e2516446f71f85f830155547fc2575a0e9e593c00f959f8c92f12db2869c3395a3b0502d05e2516446f71f86090910155565b600054600160a060020a0316331461084d5760405160e560020a62461bcd02815260040161035e90611540565b600160a060020a03166000908152600160205260409020805460ff19169055565b600054600160a060020a0316331461089b5760405160e560020a62461bcd02815260040161035e90611540565b600160a060020a03166000908152600160208190526040909120805460ff19169091179055565b3360009081526001602052604081205460ff16806108f55760405160e560020a62461bcd02815260040161035e90611540565b505060028054600190810180835560008181526004602081905260408220928355938201998a5592810196875560038082019687558183018054600160a060020a0397881673ffffffffffffffffffffffffffffffffffffffff1997151560a060020a90810274ff000000000000000000000000000000000000000019938416178916919091178355600585019b8c558354958601845592909552825460069094027fc2575a0e9e593c00f959f8c92f12db2869c3395a3b0502d05e2516446f71f85b81019490945580547fc2575a0e9e593c00f959f8c92f12db2869c3395a3b0502d05e2516446f71f85c85018054909716971696909617808655955481900460ff16151502949092169390931790915594547fc2575a0e9e593c00f959f8c92f12db2869c3395a3b0502d05e2516446f71f85d82015590547fc2575a0e9e593c00f959f8c92f12db2869c3395a3b0502d05e2516446f71f85e82015590547fc2575a0e9e593c00f959f8c92f12db2869c3395a3b0502d05e2516446f71f85f82015590547fc2575a0e9e593c00f959f8c92f12db2869c3395a3b0502d05e2516446f71f860909101555490565b600080600080600080610ab56111c4565b50600160a060020a0387166000908152600960209081526040918290208251808401909352805460ff1615158084526001918201549284019290925214610b115760405160e560020a62461bcd02815260040161035e906115e3565b6020810151610b1e611223565b60088281548110610b2b57fe5b60009182526020918290206040805160e081018252600693909302909101805460ff8116151584526101009004600160a060020a03169383018490526001810154918301829052600281015460608401819052600382015460808501819052600483015460a0860181905260059093015460c0909501859052949f929e509c50929a509198509650945050505050565b3360009081526001602052604090205460ff1680610bee5760405160e560020a62461bcd02815260040161035e90611540565b610bf66111c4565b50600160a060020a0387166000908152600960209081526040918290208251808401909352805460ff16158015845260019091015491830191909152610c515760405160e560020a62461bcd02815260040161035e906115ae565b610c59611223565b6040518060e001604052806001151581526020018a600160a060020a0316815260200189815260200188815260200187815260200186815260200185815250905060405180604001604052806001151581526020016008805490508152509150600881908060018154018082558091505060019003906000526020600020906006020160009091909190915060008201518160000160006101000a81548160ff02191690831515021790555060208201518160000160016101000a815481600160a060020a030219169083600160a060020a0316021790555060408201518160010155606082015181600201556080820151816003015560a0820151816004015560c08201518160050155505081600960008b600160a060020a0316600160a060020a0316815260200190815260200160002060008201518160000160006101000a81548160ff02191690831515021790555060208201518160010155905050505050505050505050565b3360009081526001602052604090205460ff1680610df75760405160e560020a62461bcd02815260040161035e90611540565b600160a060020a038316600090815260066020526040902054610e2190600163ffffffff61119516565b600160a060020a03909316600090815260066020908152604080832086905560078252808320958352949052929092205550565b600160a060020a03166000908152600760209081526040808320938352929052205490565b3360009081526001602052604090205460ff1680610ead5760405160e560020a62461bcd02815260040161035e90611540565b50600160a060020a0390961660008181526005602081815260408084208a855290915290912096875560018701805460028901979097556003880193909355600487019390935595151560a060020a0274ff00000000000000000000000000000000000000001973ffffffffffffffffffffffffffffffffffffffff199095169096179390931694909417909155910155565b600160a060020a031660009081526006602052604090205490565b600080600080600080610f6c611223565b60088881548110610f7957fe5b60009182526020918290206040805160e081018252600693909302909101805460ff8116151584526101009004600160a060020a03169383018490526001810154918301829052600281015460608401819052600382015460808501819052600483015460a0860181905260059093015460c0909501859052949d929c509a50929850919650945092505050565b60006110116111c4565b50600160a060020a0382166000908152600960209081526040918290208251808401909352805460ff161515808452600191820154928401929092521461106d5760405160e560020a62461bcd02815260040161035e9061161a565b6020015192915050565b600054600160a060020a031633146110a45760405160e560020a62461bcd02815260040161035e90611540565b600160a060020a038116156110dc576000805473ffffffffffffffffffffffffffffffffffffffff1916600160a060020a0383161790555b50565b60025490565b60606003805480602002602001604051908101604052809291908181526020016000905b8282101561118c5760008481526020908190206040805160e0810182526006860290920180548352600180820154600160a060020a0381168587015260a060020a900460ff161515928401929092526002810154606084015260038101546080840152600481015460a08401526005015460c08301529083529092019101611109565b50505050905090565b6000828201838110156111bd5760405160e560020a62461bcd02815260040161035e90611577565b9392505050565b604080518082019091526000808252602082015290565b6040518060e00160405280600081526020016000600160a060020a03168152602001600015158152602001600081526020016000815260200160008152602001600081525090565b6040518060e001604052806000151581526020016000600160a060020a0316815260200160008152602001600081526020016000815260200160008152602001600081525090565b60006020828403121561127c578081fd5b81356111bd8161168d565b60008060408385031215611299578081fd5b82356112a48161168d565b946020939093013593505050565b60008060008060008060c087890312156112ca578182fd5b86356112d58161168d565b9860208801359850604088013597606081013597506080810135965060a00135945092505050565b600080600080600080600060e0888a031215611317578081fd5b87356113228161168d565b96506020880135955060408801359450606088013593506080880135925060a0880135915060c0880135611355816116a2565b8091505092959891949750929550565b600060208284031215611376578081fd5b5035919050565b6000806040838503121561138f578182fd5b8235915060208301356113a18161168d565b809150509250929050565b60008060008060008060c087890312156113c4578182fd5b8635955060208701359450604087013593506060870135925060808701356113eb8161168d565b915060a087013580151581146113ff578182fd5b809150509295509295509295565b600080600080600080600060e0888a031215611427578283fd5b873596506020880135955060408801359450606088013593506080880135925060a08801356114558161168d565b915060c0880135611355816116a2565b600160a060020a03969096168652602086019490945260408501929092526060840152608083015260a082015260c00190565b602080825282518282018190526000919060409081850190868401855b828110156115185781518051855286810151600160a060020a03168786015285810151151586860152606080820151908601526080808201519086015260a0808201519086015260c0908101519085015260e090930192908501906001016114b5565b5091979650505050505050565b901515815260200190565b9115158252602082015260400190565b6020808252601f908201527f756e617574686f72697a65642061636365737320746f20636f6e747261637400604082015260600190565b6020808252601b908201527f536166654d6174683a206164646974696f6e206f766572666c6f770000000000604082015260600190565b6020808252818101527f6465706f7369746f72207265636f726420616c72656164647920657869737473604082015260600190565b6020808252601a908201527f6465706f7369746f72207265636f7264206e6f7420666f756e64000000000000604082015260600190565b60208082526017908201527f6d656d626572207265636f7264206e6f7420666f756e64000000000000000000604082015260600190565b90815260200190565b958652600160a060020a03949094166020860152604085019290925260608401526080830152151560a082015260c00190565b600160a060020a03811681146110dc57600080fd5b80151581146110dc57600080fdfea26469706673582212203b0787dfa9fbbdb13f6f109353d0809b16f74d235b568ce8e945f2fae180ebd264736f6c63430006060033",
  "immutableReferences": {},
  "source": "pragma solidity ^0.6.0;\r\n\r\n\r\nimport \"./IClientRecordSchema.sol\";\r\nimport \"./SafeMath.sol\";\r\nimport \"./StorageOwners.sol\";\r\npragma experimental ABIEncoderV2;\r\n\r\ncontract ClientRecord is IClientRecordSchema, StorageOwners {\r\n    \r\n    using SafeMath for uint256;\r\n    \r\n    uint DepositRecordId;\r\n    \r\n    FixedDepositRecord[] fixedDepositRecords;\r\n    \r\n    mapping(uint => FixedDepositRecord) DepositRecordMapping;\r\n    \r\n    \r\n    mapping (address => mapping(uint => FixedDepositRecord)) DepositRecordToDepositorMapping; //depositor address to depositor cycle mapping\r\n    \r\n     mapping(address=>uint) DepositorToDepositorRecordIndexMapping; //  This tracks the number of records by index created by a depositor\r\n\r\n    mapping(address=>mapping(uint=>uint)) DepositorToRecordIndexToRecordIDMapping; //  This maps the depositor to the record index and then to the record ID\r\n    // list of CLient Records\r\n    ClientRecord[] ClientRecords;\r\n    //Mapping that enables ease of traversal of the Client Records\r\n    mapping(address => RecordIndex) public ClientRecordIndexer;\r\n\r\n    function doesClientRecordExist(address depositor)\r\n        external \r\n        view\r\n        returns (bool)\r\n    {\r\n        RecordIndex memory recordIndex = ClientRecordIndexer[depositor];\r\n        return recordIndex.exists;\r\n    }\r\n\r\n    function getRecordIndex(address depositor) external  view returns (uint256) {\r\n        RecordIndex memory recordIndex = ClientRecordIndexer[depositor];\r\n        require(recordIndex.exists == true, \"member record not found\");\r\n        return recordIndex.index;\r\n    }\r\n\r\n    \r\n\r\n    function createClientRecord(\r\n        address payable _address,\r\n        uint256 underlyingTotalDeposits,\r\n        uint256 underlyingTotalWithdrawn,\r\n        uint256 derivativeBalance,\r\n        uint256 derivativeTotalDeposits,\r\n        uint256 derivativeTotalWithdrawn\r\n    ) external  onlyStorageOracle {\r\n        RecordIndex memory recordIndex = ClientRecordIndexer[_address];\r\n        require(\r\n            recordIndex.exists == false,\r\n            \"depositor record alreaddy exists\"\r\n        );\r\n        ClientRecord memory clientRecord = ClientRecord(\r\n            true,\r\n            _address,\r\n            underlyingTotalDeposits,\r\n            underlyingTotalWithdrawn,\r\n            derivativeBalance,\r\n            derivativeTotalDeposits,\r\n            derivativeTotalWithdrawn\r\n        );\r\n\r\n        recordIndex = RecordIndex(true, ClientRecords.length);\r\n        ClientRecords.push(clientRecord);\r\n        ClientRecordIndexer[_address] = recordIndex;\r\n    }\r\n\r\n    function updateClientRecord(\r\n        address payable _address,\r\n        uint256 underlyingTotalDeposits,\r\n        uint256 underlyingTotalWithdrawn,\r\n        uint256 derivativeBalance,\r\n        uint256 derivativeTotalDeposits,\r\n        uint256 derivativeTotalWithdrawn\r\n    ) external  onlyStorageOracle {\r\n        RecordIndex memory recordIndex = ClientRecordIndexer[_address];\r\n        require(recordIndex.exists == true, \"depositor record not found\");\r\n        ClientRecord memory clientRecord = ClientRecord(\r\n            true,\r\n            _address,\r\n            underlyingTotalDeposits,\r\n            underlyingTotalWithdrawn,\r\n            derivativeBalance,\r\n            derivativeTotalDeposits,\r\n            derivativeTotalWithdrawn\r\n        );\r\n\r\n        uint256 index = recordIndex.index;\r\n\r\n        ClientRecords[index].underlyingTotalDeposits = underlyingTotalDeposits;\r\n        ClientRecords[index]\r\n            .underlyingTotalWithdrawn = underlyingTotalWithdrawn;\r\n        ClientRecords[index].derivativeBalance = derivativeBalance;\r\n        ClientRecords[index].derivativeTotalDeposits = derivativeTotalDeposits;\r\n        ClientRecords[index]\r\n            .derivativeTotalWithdrawn = derivativeTotalWithdrawn;\r\n    }\r\n\r\n    function getLengthOfClientRecords() external  view returns (uint256) {\r\n        return ClientRecords.length;\r\n    }\r\n\r\n    function getClientRecordByIndex(uint256 index)\r\n        external \r\n        view\r\n        returns (\r\n            address payable _address,\r\n            uint256 underlyingTotalDeposits,\r\n            uint256 underlyingTotalWithdrawn,\r\n            uint256 derivativeBalance,\r\n            uint256 derivativeTotalDeposits,\r\n            uint256 derivativeTotalWithdrawn\r\n        )\r\n    {\r\n        ClientRecord memory clientRecord = ClientRecords[index];\r\n        return (\r\n            clientRecord._address,\r\n            clientRecord.underlyingTotalDeposits,\r\n            clientRecord.underlyingTotalWithdrawn,\r\n            clientRecord.derivativeBalance,\r\n            clientRecord.derivativeTotalDeposits,\r\n            clientRecord.derivativeTotalWithdrawn\r\n        );\r\n    }\r\n\r\n    function getClientRecordByAddress(address depositor)\r\n        external \r\n        view\r\n        returns (\r\n            address payable _address,\r\n            uint256 underlyingTotalDeposits,\r\n            uint256 underlyingTotalWithdrawn,\r\n            uint256 derivativeBalance,\r\n            uint256 derivativeTotalDeposits,\r\n            uint256 derivativeTotalWithdrawn\r\n        )\r\n    {\r\n        RecordIndex memory recordIndex = ClientRecordIndexer[depositor];\r\n        require(recordIndex.exists == true, \"depositor record not found\");\r\n        uint256 index = recordIndex.index;\r\n\r\n        ClientRecord memory clientRecord = ClientRecords[index];\r\n        return (\r\n            clientRecord._address,\r\n            clientRecord.underlyingTotalDeposits,\r\n            clientRecord.underlyingTotalWithdrawn,\r\n            clientRecord.derivativeBalance,\r\n            clientRecord.derivativeTotalDeposits,\r\n            clientRecord.derivativeTotalWithdrawn\r\n        );\r\n    }\r\n    \r\n     function GetRecordIndexFromDepositor(address member) external  view returns(uint){\r\n\r\n        return DepositorToDepositorRecordIndexMapping[member];\r\n    }\r\n    \r\n     function GetRecordIdFromRecordIndexAndDepositorRecord(uint recordIndex, address depositor) external  view returns(uint){\r\n\r\n      mapping(uint=>uint) storage depositorCreatedRecordIndexToRecordId = DepositorToRecordIndexToRecordIDMapping[depositor];\r\n\r\n      return depositorCreatedRecordIndexToRecordId[recordIndex];\r\n    }\r\n    \r\n    function CreateDepositRecordMapping(uint256 amount, uint256 derivativeBalance,uint256 lockPeriodInSeconds,uint256 depositDateInSeconds, address payable depositor, bool hasWithdrawn) external  onlyStorageOracle returns(uint)   {\r\n          \r\n          DepositRecordId += 1;\r\n\r\n         FixedDepositRecord storage _fixedDeposit = DepositRecordMapping[DepositRecordId];\r\n\r\n        _fixedDeposit.recordId = DepositRecordId;\r\n        _fixedDeposit.amount = amount;\r\n        _fixedDeposit.lockPeriodInSeconds = lockPeriodInSeconds;\r\n        _fixedDeposit.depositDateInSeconds = depositDateInSeconds;\r\n        _fixedDeposit.hasWithdrawn = hasWithdrawn;\r\n        _fixedDeposit.depositorId = depositor;\r\n        _fixedDeposit.derivativeBalance = derivativeBalance;\r\n        \r\n        fixedDepositRecords.push(_fixedDeposit);\r\n\r\n    return _fixedDeposit.recordId;\r\n    }\r\n\r\n     function UpdateDepositRecordMapping(uint256 depositRecordId, uint256 amount, uint256 derivativeBalance,uint256 lockPeriodInSeconds,uint256 depositDateInSeconds, address payable depositor, bool hasWithdrawn) external  onlyStorageOracle  {\r\n         \r\n         \r\n         FixedDepositRecord storage _fixedDeposit = DepositRecordMapping[depositRecordId];\r\n\r\n        _fixedDeposit.recordId = depositRecordId;\r\n        _fixedDeposit.amount = amount;\r\n        _fixedDeposit.lockPeriodInSeconds = lockPeriodInSeconds;\r\n        _fixedDeposit.depositDateInSeconds = depositDateInSeconds;\r\n        _fixedDeposit.hasWithdrawn = hasWithdrawn;\r\n        _fixedDeposit.depositorId = depositor;\r\n        _fixedDeposit.derivativeBalance = derivativeBalance;\r\n        fixedDepositRecords.push(_fixedDeposit);\r\n\r\n\r\n    }\r\n    \r\n    \r\n    function GetRecordById(uint depositRecordId) external  view returns(uint recordId, address payable depositorId, uint amount, uint depositDateInSeconds, uint lockPeriodInSeconds, bool hasWithdrawn)  {\r\n        \r\n        FixedDepositRecord memory records = DepositRecordMapping[depositRecordId];\r\n        \r\n        return(records.recordId, records.depositorId, records.amount, records.depositDateInSeconds, records.lockPeriodInSeconds, records.hasWithdrawn);\r\n    }\r\n    \r\n    function GetRecords() external  view returns (FixedDepositRecord [] memory) {\r\n        return fixedDepositRecords;\r\n    }\r\n    \r\n    function GetRecordId() external  view returns (uint){\r\n        return DepositRecordId;\r\n    }\r\n    \r\n    function _getRecordId() internal view returns (uint) {\r\n        return DepositRecordId;\r\n    }\r\n    \r\n     function CreateDepositorToDepositRecordIndexToRecordIDMapping(address payable depositor, uint recordId) external  onlyStorageOracle {\r\n      \r\n      DepositorToDepositorRecordIndexMapping[depositor] = DepositorToDepositorRecordIndexMapping[depositor].add(1);\r\n\r\n      uint DepositorCreatedRecordIndex = DepositorToDepositorRecordIndexMapping[depositor];\r\n      mapping(uint=>uint) storage depositorCreatedRecordIndexToRecordId = DepositorToRecordIndexToRecordIDMapping[depositor];\r\n      depositorCreatedRecordIndexToRecordId[DepositorCreatedRecordIndex] = recordId;\r\n    }\r\n    \r\n   function CreateDepositorAddressToDepositRecordMapping (address payable depositor, uint recordId, uint amountDeposited,uint derivativeBalance, uint lockPeriodInSeconds, uint depositDateInSeconds, bool hasWithdrawn) external  onlyStorageOracle {\r\n        mapping(uint => FixedDepositRecord) storage depositorAddressMapping = DepositRecordToDepositorMapping[depositor];\r\n        \r\n        depositorAddressMapping[recordId].recordId = recordId;\r\n        depositorAddressMapping[recordId].depositorId = depositor;\r\n        depositorAddressMapping[recordId].amount = amountDeposited;\r\n        depositorAddressMapping[recordId].depositDateInSeconds = depositDateInSeconds;\r\n        depositorAddressMapping[recordId].lockPeriodInSeconds = lockPeriodInSeconds;\r\n        depositorAddressMapping[recordId].hasWithdrawn = hasWithdrawn;\r\n        depositorAddressMapping[recordId].derivativeBalance = derivativeBalance;\r\n        \r\n    }\r\n}\r\n",
  "sourcePath": "C:/Users/MKOPA/Documents/WORK/UGARSOFT/yearn-savings/yearnbsc/contracts/ClientRecord.sol",
  "compiler": {
    "name": "solc",
    "version": "0.6.6+commit.6c089d02.Emscripten.clang"
  },
  "schemaVersion": "3.3.4",
  "updatedAt": "2021-03-29T22:53:16.507Z",
  "devdoc": {
    "methods": {}
  },
  "userdoc": {
    "methods": {}
  }
}