{
  "contractName": "EsusuStorage",
  "abi": [
    {
      "inputs": [],
      "stateMutability": "nonpayable",
      "type": "constructor"
    },
    {
      "inputs": [
        {
          "internalType": "address",
          "name": "adapterContract",
          "type": "address"
        },
        {
          "internalType": "address",
          "name": "adapterDelegateContract",
          "type": "address"
        }
      ],
      "name": "UpdateAdapterAndAdapterDelegateAddresses",
      "outputs": [],
      "stateMutability": "nonpayable",
      "type": "function"
    },
    {
      "inputs": [],
      "name": "GetEsusuCycleId",
      "outputs": [
        {
          "internalType": "uint256",
          "name": "",
          "type": "uint256"
        }
      ],
      "stateMutability": "view",
      "type": "function",
      "constant": true
    },
    {
      "inputs": [],
      "name": "IncrementEsusuCycleId",
      "outputs": [],
      "stateMutability": "nonpayable",
      "type": "function"
    },
    {
      "inputs": [
        {
          "internalType": "uint256",
          "name": "groupId",
          "type": "uint256"
        },
        {
          "internalType": "uint256",
          "name": "depositAmount",
          "type": "uint256"
        },
        {
          "internalType": "uint256",
          "name": "payoutIntervalSeconds",
          "type": "uint256"
        },
        {
          "internalType": "uint256",
          "name": "startTimeInSeconds",
          "type": "uint256"
        },
        {
          "internalType": "address",
          "name": "owner",
          "type": "address"
        },
        {
          "internalType": "uint256",
          "name": "maxMembers",
          "type": "uint256"
        }
      ],
      "name": "CreateEsusuCycleMapping",
      "outputs": [],
      "stateMutability": "nonpayable",
      "type": "function"
    },
    {
      "inputs": [
        {
          "internalType": "uint256",
          "name": "esusuCycleId",
          "type": "uint256"
        }
      ],
      "name": "GetEsusuCycle",
      "outputs": [
        {
          "internalType": "uint256",
          "name": "CycleId",
          "type": "uint256"
        },
        {
          "internalType": "uint256",
          "name": "DepositAmount",
          "type": "uint256"
        },
        {
          "internalType": "uint256",
          "name": "PayoutIntervalSeconds",
          "type": "uint256"
        },
        {
          "internalType": "uint256",
          "name": "CycleState",
          "type": "uint256"
        },
        {
          "internalType": "uint256",
          "name": "TotalMembers",
          "type": "uint256"
        },
        {
          "internalType": "uint256",
          "name": "TotalAmountDeposited",
          "type": "uint256"
        },
        {
          "internalType": "uint256",
          "name": "TotalShares",
          "type": "uint256"
        },
        {
          "internalType": "uint256",
          "name": "TotalCycleDurationInSeconds",
          "type": "uint256"
        },
        {
          "internalType": "uint256",
          "name": "TotalCapitalWithdrawn",
          "type": "uint256"
        },
        {
          "internalType": "uint256",
          "name": "CycleStartTimeInSeconds",
          "type": "uint256"
        },
        {
          "internalType": "uint256",
          "name": "TotalBeneficiaries",
          "type": "uint256"
        },
        {
          "internalType": "uint256",
          "name": "MaxMembers",
          "type": "uint256"
        }
      ],
      "stateMutability": "view",
      "type": "function",
      "constant": true
    },
    {
      "inputs": [
        {
          "internalType": "uint256",
          "name": "groupId",
          "type": "uint256"
        }
      ],
      "name": "GetCycleIndexFromGroupId",
      "outputs": [
        {
          "internalType": "uint256",
          "name": "",
          "type": "uint256"
        }
      ],
      "stateMutability": "view",
      "type": "function",
      "constant": true
    },
    {
      "inputs": [
        {
          "internalType": "uint256",
          "name": "groupId",
          "type": "uint256"
        },
        {
          "internalType": "uint256",
          "name": "cycleIndex",
          "type": "uint256"
        }
      ],
      "name": "GetCycleIdFromCycleIndexAndGroupId",
      "outputs": [
        {
          "internalType": "uint256",
          "name": "",
          "type": "uint256"
        }
      ],
      "stateMutability": "view",
      "type": "function",
      "constant": true
    },
    {
      "inputs": [
        {
          "internalType": "address",
          "name": "cycleCreator",
          "type": "address"
        }
      ],
      "name": "GetCycleIndexFromCycleCreator",
      "outputs": [
        {
          "internalType": "uint256",
          "name": "",
          "type": "uint256"
        }
      ],
      "stateMutability": "view",
      "type": "function",
      "constant": true
    },
    {
      "inputs": [
        {
          "internalType": "uint256",
          "name": "cycleIndex",
          "type": "uint256"
        },
        {
          "internalType": "address",
          "name": "cycleCreator",
          "type": "address"
        }
      ],
      "name": "GetCycleIdFromCycleIndexAndCycleCreator",
      "outputs": [
        {
          "internalType": "uint256",
          "name": "",
          "type": "uint256"
        }
      ],
      "stateMutability": "view",
      "type": "function",
      "constant": true
    },
    {
      "inputs": [
        {
          "internalType": "address",
          "name": "member",
          "type": "address"
        }
      ],
      "name": "GetCycleIndexFromCycleMember",
      "outputs": [
        {
          "internalType": "uint256",
          "name": "",
          "type": "uint256"
        }
      ],
      "stateMutability": "view",
      "type": "function",
      "constant": true
    },
    {
      "inputs": [
        {
          "internalType": "uint256",
          "name": "cycleIndex",
          "type": "uint256"
        },
        {
          "internalType": "address",
          "name": "member",
          "type": "address"
        }
      ],
      "name": "GetCycleIdFromCycleIndexAndCycleMember",
      "outputs": [
        {
          "internalType": "uint256",
          "name": "",
          "type": "uint256"
        }
      ],
      "stateMutability": "view",
      "type": "function",
      "constant": true
    },
    {
      "inputs": [
        {
          "internalType": "uint256",
          "name": "esusuCycleId",
          "type": "uint256"
        }
      ],
      "name": "GetEsusuCycleBasicInformation",
      "outputs": [
        {
          "internalType": "uint256",
          "name": "CycleId",
          "type": "uint256"
        },
        {
          "internalType": "uint256",
          "name": "DepositAmount",
          "type": "uint256"
        },
        {
          "internalType": "uint256",
          "name": "CycleState",
          "type": "uint256"
        },
        {
          "internalType": "uint256",
          "name": "TotalMembers",
          "type": "uint256"
        },
        {
          "internalType": "uint256",
          "name": "MaxMembers",
          "type": "uint256"
        },
        {
          "internalType": "uint256",
          "name": "PayoutIntervalSeconds",
          "type": "uint256"
        },
        {
          "internalType": "uint256",
          "name": "GroupId",
          "type": "uint256"
        }
      ],
      "stateMutability": "view",
      "type": "function",
      "constant": true
    },
    {
      "inputs": [
        {
          "internalType": "uint256",
          "name": "esusuCycleId",
          "type": "uint256"
        }
      ],
      "name": "GetEsusuCycleTotalShares",
      "outputs": [
        {
          "internalType": "uint256",
          "name": "TotalShares",
          "type": "uint256"
        }
      ],
      "stateMutability": "view",
      "type": "function",
      "constant": true
    },
    {
      "inputs": [
        {
          "internalType": "uint256",
          "name": "esusuCycleId",
          "type": "uint256"
        }
      ],
      "name": "GetEsusuCycleTotalSharesAtStart",
      "outputs": [
        {
          "internalType": "uint256",
          "name": "TotalSharesAtStart",
          "type": "uint256"
        }
      ],
      "stateMutability": "view",
      "type": "function",
      "constant": true
    },
    {
      "inputs": [
        {
          "internalType": "uint256",
          "name": "esusuCycleId",
          "type": "uint256"
        }
      ],
      "name": "GetEsusuCycleStartonlyOwnerAdapterAndAdapterDelegateContractTime",
      "outputs": [
        {
          "internalType": "uint256",
          "name": "EsusuCycleStartTime",
          "type": "uint256"
        }
      ],
      "stateMutability": "view",
      "type": "function",
      "constant": true
    },
    {
      "inputs": [
        {
          "internalType": "uint256",
          "name": "esusuCycleId",
          "type": "uint256"
        }
      ],
      "name": "GetEsusuCyclePayoutInterval",
      "outputs": [
        {
          "internalType": "uint256",
          "name": "EsusuCyclePayoutInterval",
          "type": "uint256"
        }
      ],
      "stateMutability": "view",
      "type": "function",
      "constant": true
    },
    {
      "inputs": [
        {
          "internalType": "uint256",
          "name": "esusuCycleId",
          "type": "uint256"
        }
      ],
      "name": "GetEsusuCycleTotalAmountDeposited",
      "outputs": [
        {
          "internalType": "uint256",
          "name": "EsusuCycleTotalAmountDeposited",
          "type": "uint256"
        }
      ],
      "stateMutability": "view",
      "type": "function",
      "constant": true
    },
    {
      "inputs": [
        {
          "internalType": "uint256",
          "name": "esusuCycleId",
          "type": "uint256"
        }
      ],
      "name": "GetCycleOwner",
      "outputs": [
        {
          "internalType": "address",
          "name": "EsusuCycleOwner",
          "type": "address"
        }
      ],
      "stateMutability": "view",
      "type": "function",
      "constant": true
    },
    {
      "inputs": [
        {
          "internalType": "uint256",
          "name": "esusuCycleId",
          "type": "uint256"
        }
      ],
      "name": "GetEsusuCycleDuration",
      "outputs": [
        {
          "internalType": "uint256",
          "name": "EsusuCycleDuration",
          "type": "uint256"
        }
      ],
      "stateMutability": "view",
      "type": "function",
      "constant": true
    },
    {
      "inputs": [
        {
          "internalType": "uint256",
          "name": "esusuCycleId",
          "type": "uint256"
        }
      ],
      "name": "GetEsusuCycleTotalCapitalWithdrawn",
      "outputs": [
        {
          "internalType": "uint256",
          "name": "EsusuCycleTotalCapitalWithdrawn",
          "type": "uint256"
        }
      ],
      "stateMutability": "view",
      "type": "function",
      "constant": true
    },
    {
      "inputs": [
        {
          "internalType": "uint256",
          "name": "esusuCycleId",
          "type": "uint256"
        }
      ],
      "name": "GetEsusuCycleTotalBeneficiaries",
      "outputs": [
        {
          "internalType": "uint256",
          "name": "EsusuCycleTotalBeneficiaries",
          "type": "uint256"
        }
      ],
      "stateMutability": "view",
      "type": "function",
      "constant": true
    },
    {
      "inputs": [
        {
          "internalType": "uint256",
          "name": "esusuCycleId",
          "type": "uint256"
        },
        {
          "internalType": "address",
          "name": "memberAddress",
          "type": "address"
        }
      ],
      "name": "GetMemberWithdrawnCapitalInEsusuCycle",
      "outputs": [
        {
          "internalType": "uint256",
          "name": "",
          "type": "uint256"
        }
      ],
      "stateMutability": "view",
      "type": "function",
      "constant": true
    },
    {
      "inputs": [
        {
          "internalType": "uint256",
          "name": "esusuCycleId",
          "type": "uint256"
        },
        {
          "internalType": "address",
          "name": "memberAddress",
          "type": "address"
        }
      ],
      "name": "GetMemberCycleToBeneficiaryMapping",
      "outputs": [
        {
          "internalType": "uint256",
          "name": "",
          "type": "uint256"
        }
      ],
      "stateMutability": "view",
      "type": "function",
      "constant": true
    },
    {
      "inputs": [
        {
          "internalType": "address",
          "name": "memberAddress",
          "type": "address"
        },
        {
          "internalType": "uint256",
          "name": "esusuCycleId",
          "type": "uint256"
        }
      ],
      "name": "IsMemberInCycle",
      "outputs": [
        {
          "internalType": "bool",
          "name": "",
          "type": "bool"
        }
      ],
      "stateMutability": "view",
      "type": "function",
      "constant": true
    },
    {
      "inputs": [
        {
          "internalType": "uint256",
          "name": "esusuCycleId",
          "type": "uint256"
        },
        {
          "internalType": "uint256",
          "name": "amount",
          "type": "uint256"
        }
      ],
      "name": "IncreaseTotalAmountDepositedInCycle",
      "outputs": [
        {
          "internalType": "uint256",
          "name": "",
          "type": "uint256"
        }
      ],
      "stateMutability": "nonpayable",
      "type": "function"
    },
    {
      "inputs": [
        {
          "internalType": "address",
          "name": "member",
          "type": "address"
        },
        {
          "internalType": "uint256",
          "name": "esusuCycleId",
          "type": "uint256"
        }
      ],
      "name": "CreateMemberAddressToMemberCycleMapping",
      "outputs": [],
      "stateMutability": "nonpayable",
      "type": "function"
    },
    {
      "inputs": [
        {
          "internalType": "uint256",
          "name": "esusuCycleId",
          "type": "uint256"
        }
      ],
      "name": "IncreaseTotalMembersInCycle",
      "outputs": [],
      "stateMutability": "nonpayable",
      "type": "function"
    },
    {
      "inputs": [
        {
          "internalType": "uint256",
          "name": "esusuCycleId",
          "type": "uint256"
        },
        {
          "internalType": "address",
          "name": "member",
          "type": "address"
        }
      ],
      "name": "CreateMemberPositionMapping",
      "outputs": [],
      "stateMutability": "nonpayable",
      "type": "function"
    },
    {
      "inputs": [
        {
          "internalType": "uint256",
          "name": "esusuCycleBalance",
          "type": "uint256"
        }
      ],
      "name": "IncreaseTotalDeposits",
      "outputs": [],
      "stateMutability": "nonpayable",
      "type": "function"
    },
    {
      "inputs": [
        {
          "internalType": "uint256",
          "name": "esusuCycleId",
          "type": "uint256"
        },
        {
          "internalType": "uint256",
          "name": "cycleStateEnum",
          "type": "uint256"
        },
        {
          "internalType": "uint256",
          "name": "toalCycleDuration",
          "type": "uint256"
        },
        {
          "internalType": "uint256",
          "name": "totalShares",
          "type": "uint256"
        },
        {
          "internalType": "uint256",
          "name": "currentTime",
          "type": "uint256"
        }
      ],
      "name": "UpdateEsusuCycleDuringStart",
      "outputs": [],
      "stateMutability": "nonpayable",
      "type": "function"
    },
    {
      "inputs": [
        {
          "internalType": "uint256",
          "name": "esusuCycleId",
          "type": "uint256"
        },
        {
          "internalType": "uint256",
          "name": "memberShares",
          "type": "uint256"
        }
      ],
      "name": "UpdateEsusuCycleSharesDuringJoin",
      "outputs": [],
      "stateMutability": "nonpayable",
      "type": "function"
    },
    {
      "inputs": [
        {
          "internalType": "uint256",
          "name": "esusuCycleId",
          "type": "uint256"
        },
        {
          "internalType": "uint256",
          "name": "cycleStateEnum",
          "type": "uint256"
        }
      ],
      "name": "UpdateEsusuCycleState",
      "outputs": [],
      "stateMutability": "nonpayable",
      "type": "function"
    },
    {
      "inputs": [
        {
          "internalType": "address",
          "name": "memberAddress",
          "type": "address"
        },
        {
          "internalType": "uint256",
          "name": "esusuCycleId",
          "type": "uint256"
        }
      ],
      "name": "GetMemberCycleInfo",
      "outputs": [
        {
          "internalType": "uint256",
          "name": "CycleId",
          "type": "uint256"
        },
        {
          "internalType": "address",
          "name": "MemberId",
          "type": "address"
        },
        {
          "internalType": "uint256",
          "name": "TotalAmountDepositedInCycle",
          "type": "uint256"
        },
        {
          "internalType": "uint256",
          "name": "TotalPayoutReceivedInCycle",
          "type": "uint256"
        },
        {
          "internalType": "uint256",
          "name": "memberPosition",
          "type": "uint256"
        },
        {
          "internalType": "uint256",
          "name": "memberShares",
          "type": "uint256"
        }
      ],
      "stateMutability": "view",
      "type": "function",
      "constant": true
    },
    {
      "inputs": [
        {
          "internalType": "uint256",
          "name": "esusuCycleId",
          "type": "uint256"
        },
        {
          "internalType": "address",
          "name": "member",
          "type": "address"
        }
      ],
      "name": "CreateMemberCapitalMapping",
      "outputs": [],
      "stateMutability": "nonpayable",
      "type": "function"
    },
    {
      "inputs": [
        {
          "internalType": "uint256",
          "name": "esusuCycleId",
          "type": "uint256"
        },
        {
          "internalType": "uint256",
          "name": "cycleTotalShares",
          "type": "uint256"
        },
        {
          "internalType": "uint256",
          "name": "totalCapitalWithdrawnInCycle",
          "type": "uint256"
        }
      ],
      "name": "UpdateEsusuCycleDuringCapitalWithdrawal",
      "outputs": [],
      "stateMutability": "nonpayable",
      "type": "function"
    },
    {
      "inputs": [
        {
          "internalType": "uint256",
          "name": "esusuCycleId",
          "type": "uint256"
        },
        {
          "internalType": "uint256",
          "name": "totalShares",
          "type": "uint256"
        },
        {
          "internalType": "uint256",
          "name": "totalBeneficiaries",
          "type": "uint256"
        }
      ],
      "name": "UpdateEsusuCycleDuringROIWithdrawal",
      "outputs": [],
      "stateMutability": "nonpayable",
      "type": "function"
    },
    {
      "inputs": [
        {
          "internalType": "uint256",
          "name": "esusuCycleId",
          "type": "uint256"
        },
        {
          "internalType": "address",
          "name": "memberAddress",
          "type": "address"
        },
        {
          "internalType": "uint256",
          "name": "memberROINet",
          "type": "uint256"
        }
      ],
      "name": "CreateEsusuCycleToBeneficiaryMapping",
      "outputs": [],
      "stateMutability": "nonpayable",
      "type": "function"
    },
    {
      "inputs": [
        {
          "internalType": "uint256",
          "name": "cycleId",
          "type": "uint256"
        },
        {
          "internalType": "address",
          "name": "member",
          "type": "address"
        }
      ],
      "name": "CalculateMemberWithdrawalTime",
      "outputs": [
        {
          "internalType": "uint256",
          "name": "",
          "type": "uint256"
        }
      ],
      "stateMutability": "view",
      "type": "function",
      "constant": true
    },
    {
      "inputs": [
        {
          "internalType": "address",
          "name": "member",
          "type": "address"
        },
        {
          "internalType": "uint256",
          "name": "esusuCycleId",
          "type": "uint256"
        }
      ],
      "name": "CreateMemberToCycleIndexToCycleIDMapping",
      "outputs": [],
      "stateMutability": "nonpayable",
      "type": "function"
    },
    {
      "inputs": [],
      "name": "GetTotalDeposits",
      "outputs": [
        {
          "internalType": "uint256",
          "name": "",
          "type": "uint256"
        }
      ],
      "stateMutability": "view",
      "type": "function",
      "constant": true
    },
    {
      "inputs": [
        {
          "internalType": "uint256",
          "name": "esusuCycleId",
          "type": "uint256"
        }
      ],
      "name": "GetEsusuCycleState",
      "outputs": [
        {
          "internalType": "uint256",
          "name": "",
          "type": "uint256"
        }
      ],
      "stateMutability": "view",
      "type": "function",
      "constant": true
    },
    {
      "inputs": [
        {
          "internalType": "uint256",
          "name": "esusuCycleId",
          "type": "uint256"
        }
      ],
      "name": "GetEsusuCycleStartTime",
      "outputs": [
        {
          "internalType": "uint256",
          "name": "EsusuCycleStartTime",
          "type": "uint256"
        }
      ],
      "stateMutability": "view",
      "type": "function",
      "constant": true
    }
  ],
  "bytecode": "0x60c0604052600e60808190527f44616920537461626c65636f696e00000000000000000000000000000000000060a09081526200004091600091906200006c565b5060006003553480156200005357600080fd5b5060018054600160a060020a0319163317905562000111565b828054600181600116156101000203166002900490600052602060002090601f016020900481019282601f10620000af57805160ff1916838001178555620000df565b82800160010185558215620000df579182015b82811115620000df578251825591602001919060010190620000c2565b50620000ed929150620000f1565b5090565b6200010e91905b80821115620000ed5760008155600101620000f8565b90565b612a8380620001216000396000f3fe608060405234801561001057600080fd5b506004361061027b576000357c0100000000000000000000000000000000000000000000000000000000900480635e4f0ca911610163578063bce7c952116100e0578063d17e1b02116100a4578063d17e1b0214610869578063d2e29b5014610886578063d5a532d5146108a3578063da2a5ace146108d5578063e16483e6146108f2578063f06c8bbd1461092b5761027b565b8063bce7c952146107c8578063c86dde9c146107eb578063ca533a3a14610808578063cbe47cb314610834578063cc314df5146102b55761027b565b8063a90e2d5a11610127578063a90e2d5a14610752578063aa6aac731461077e578063ab30d53914610786578063b02d1ddb1461078e578063b4392797146107ab5761027b565b80635e4f0ca914610680578063776cdc5b146106c057806382da9fdf146106e6578063879ddf26146107035780638b8998aa1461072f5761027b565b8063299c8817116101fc57806342d96ea0116101c057806342d96ea0146104e15780634c215b041461050d5780634e8304661461053057806357ac7703146105ac5780635a4c4da0146106135780635c0615a8146106575761027b565b8063299c8817146103e55780633409b07e1461043a57806337ddff4b14610463578063388b011c1461048f57806339bca241146104bb5761027b565b806313becce41161024357806313becce41461034b5780631942d571146103685780631a9db7a8146103855780631f82c5de146103b15780632254d236146103b95761027b565b8063083c2f59146102805780630853c1f4146102b55780630d2737d5146102d25780630d43acd31461030257806311cbe90d1461032e575b600080fd5b6102a36004803603604081101561029657600080fd5b5080359060200135610948565b60408051918252519081900360200190f35b6102a3600480360360208110156102cb57600080fd5b5035610969565b610300600480360360408110156102e857600080fd5b50600160a060020a0381358116916020013516610acd565b005b6103006004803603604081101561031857600080fd5b5080359060200135600160a060020a0316610b58565b6102a36004803603602081101561034457600080fd5b5035610c04565b6103006004803603602081101561036157600080fd5b5035610d67565b6102a36004803603602081101561037e57600080fd5b5035610dfb565b6102a36004803603604081101561039b57600080fd5b5080359060200135600160a060020a0316610e20565b6102a3610e48565b610300600480360360408110156103cf57600080fd5b50600160a060020a038135169060200135610e4e565b610402600480360360208110156103fb57600080fd5b5035610f25565b604080519788526020880196909652868601949094526060860192909252608085015260a084015260c0830152519081900360e00190f35b6103006004803603606081101561045057600080fd5b50803590602081013590604001356110cf565b6103006004803603604081101561047957600080fd5b5080359060200135600160a060020a0316611168565b6102a3600480360360408110156104a557600080fd5b5080359060200135600160a060020a0316611214565b6102a3600480360360208110156104d157600080fd5b5035600160a060020a0316611239565b6102a3600480360360408110156104f757600080fd5b5080359060200135600160a060020a0316611254565b6102a36004803603604081101561052357600080fd5b5080359060200135611279565b61054d6004803603602081101561054657600080fd5b5035611384565b604080519c8d5260208d019b909b528b8b019990995260608b019790975260808a019590955260a089019390935260c088019190915260e087015261010086015261012085015261014084015261016083015251908190036101800190f35b6105d8600480360360408110156105c257600080fd5b50600160a060020a038135169060200135611564565b60408051968752600160a060020a039095166020870152858501939093526060850191909152608084015260a0830152519081900360c00190f35b610300600480360360c081101561062957600080fd5b50803590602081013590604081013590606081013590600160a060020a036080820135169060a00135611624565b6103006004803603606081101561066d57600080fd5b50803590602081013590604001356117ef565b6106ac6004803603604081101561069657600080fd5b50600160a060020a038135169060200135611886565b604080519115158252519081900360200190f35b6102a3600480360360208110156106d657600080fd5b5035600160a060020a03166118c4565b6102a3600480360360208110156106fc57600080fd5b50356118df565b6102a36004803603604081101561071957600080fd5b5080359060200135600160a060020a0316611a43565b6103006004803603604081101561074557600080fd5b5080359060200135611ab5565b6103006004803603604081101561076857600080fd5b50600160a060020a038135169060200135611b6a565b610300611c96565b6102a3611d1b565b6102a3600480360360208110156107a457600080fd5b5035611d21565b6102a3600480360360208110156107c157600080fd5b5035611e85565b610300600480360360408110156107de57600080fd5b5080359060200135611fe6565b6103006004803603602081101561080157600080fd5b503561209c565b6102a36004803603604081101561081e57600080fd5b5080359060200135600160a060020a031661212f565b610300600480360360a081101561084a57600080fd5b5080359060208101359060408101359060608101359060800135612157565b6102a36004803603602081101561087f57600080fd5b5035612248565b6102a36004803603602081101561089c57600080fd5b50356123ad565b610300600480360360608110156108b957600080fd5b50803590600160a060020a036020820135169060400135612511565b6102a3600480360360208110156108eb57600080fd5b50356125b1565b61090f6004803603602081101561090857600080fd5b50356125c3565b60408051600160a060020a039092168252519081900360200190f35b6102a36004803603602081101561094157600080fd5b5035612728565b6000828152600a602090815260408083208484529091529020545b92915050565b6000808211801561097c57506003548211155b6109ba5760405160e560020a62461bcd0281526004018080602001828103825260308152602001806129dd6030913960400191505060405180910390fd5b6109c261294c565b60008381526004602081815260409283902083516102008101855281548152600182015492810192909252600281015493820193909352600383015460608201529082015460808201526005820154600160a060020a031660a0820152600682015460c0820152600782015460e0820152600882015490919061010083019060ff168015610a4c57fe5b8015610a5457fe5b81526020016008820160019054906101000a900460ff166003811115610a7657fe5b6003811115610a8157fe5b815260098201546020820152600a8201546040820152600b8201546060820152600c8201546080820152600d82015460a0820152600e9091015460c09091015261018001519392505050565b600154600160a060020a03163314610b1d576040805160e560020a62461bcd02815260206004820152601f6024820152600080516020612a0d833981519152604482015290519081900360640190fd5b60108054600160a060020a0393841673ffffffffffffffffffffffffffffffffffffffff199182161790915560118054929093169116179055565b600154600160a060020a0316331480610b7b5750601154600160a060020a031633145b80610b905750601054600160a060020a031633145b610bd2576040805160e560020a62461bcd02815260206004820152601f6024820152600080516020612a0d833981519152604482015290519081900360640190fd5b60009182526006602090815260408084206004835281852060030154600160a060020a03909416855290915290912055565b60008082118015610c1757506003548211155b610c555760405160e560020a62461bcd0281526004018080602001828103825260308152602001806129dd6030913960400191505060405180910390fd5b610c5d61294c565b60008381526004602081815260409283902083516102008101855281548152600182015492810192909252600281015493820193909352600383015460608201529082015460808201526005820154600160a060020a031660a0820152600682015460c0820152600782015460e0820152600882015490919061010083019060ff168015610ce757fe5b8015610cef57fe5b81526020016008820160019054906101000a900460ff166003811115610d1157fe5b6003811115610d1c57fe5b815260098201546020820152600a8201546040820152600b8201546060820152600c8201546080820152600d82015460a0820152600e9091015460c09091015260e001519392505050565b600154600160a060020a0316331480610d8a5750601154600160a060020a031633145b80610d9f5750601054600160a060020a031633145b610de1576040805160e560020a62461bcd02815260206004820152601f6024820152600080516020612a0d833981519152604482015290519081900360640190fd5b600090815260046020526040902060030180546001019055565b600081815260046020526040812060080154610100900460ff16600381111561096357fe5b6000918252600860209081526040808420600160a060020a0393909316845291905290205490565b600f5490565b600154600160a060020a0316331480610e715750601154600160a060020a031633145b80610e865750601054600160a060020a031633145b610ec8576040805160e560020a62461bcd02815260206004820152601f6024820152600080516020612a0d833981519152604482015290519081900360640190fd5b600160a060020a0382166000908152600d6020526040902054610ef290600163ffffffff61288c16565b600160a060020a039092166000908152600d60209081526040808320859055600e82528083209483529390529190912055565b60008060008060008060008088118015610f4157506003548811155b610f7f5760405160e560020a62461bcd0281526004018080602001828103825260308152602001806129dd6030913960400191505060405180910390fd5b610f8761294c565b60008981526004602081815260409283902083516102008101855281548152600182015492810192909252600281015493820193909352600383015460608201529082015460808201526005820154600160a060020a031660a0820152600682015460c0820152600782015460e0820152600882015490919061010083019060ff16801561101157fe5b801561101957fe5b81526020016008820160019054906101000a900460ff16600381111561103b57fe5b600381111561104657fe5b815260200160098201548152602001600a8201548152602001600b8201548152602001600c8201548152602001600d8201548152602001600e8201548152505090508060000151816040015182610120015160038111156110a357fe5b60608401516101c085015160c0860151602090960151949e939d50919b50995097509195509350915050565b600154600160a060020a03163314806110f25750601154600160a060020a031633145b806111075750601054600160a060020a031633145b611149576040805160e560020a62461bcd02815260206004820152601f6024820152600080516020612a0d833981519152604482015290519081900360640190fd5b600092835260046020526040909220600a810192909255600c90910155565b600154600160a060020a031633148061118b5750601154600160a060020a031633145b806111a05750601054600160a060020a031633145b6111e2576040805160e560020a62461bcd02815260206004820152601f6024820152600080516020612a0d833981519152604482015290519081900360640190fd5b60009182526008602090815260408084206004835281852060020154600160a060020a03909416855290915290912055565b600160a060020a03166000908152600c60209081526040808320938352929052205490565b600160a060020a03166000908152600b602052604090205490565b600160a060020a03166000908152600e60209081526040808320938352929052205490565b600154600090600160a060020a031633148061129f5750601154600160a060020a031633145b806112b45750601054600160a060020a031633145b6112f6576040805160e560020a62461bcd02815260206004820152601f6024820152600080516020612a0d833981519152604482015290519081900360640190fd5b60008311801561130857506003548311155b6113465760405160e560020a62461bcd0281526004018080602001828103825260308152602001806129dd6030913960400191505060405180910390fd5b600083815260046020526040902060090154611368908363ffffffff61288c16565b6000848152600460205260409020600901819055905092915050565b60008060008060008060008060008060008060008d1180156113a857506003548d11155b6113e65760405160e560020a62461bcd0281526004018080602001828103825260308152602001806129dd6030913960400191505060405180910390fd5b6113ee61294c565b60008e81526004602081815260409283902083516102008101855281548152600182015492810192909252600281015493820193909352600383015460608201529082015460808201526005820154600160a060020a031660a0820152600682015460c0820152600782015460e0820152600882015490919061010083019060ff16801561147857fe5b801561148057fe5b81526020016008820160019054906101000a900460ff1660038111156114a257fe5b60038111156114ad57fe5b815260200160098201548152602001600a8201548152602001600b8201548152602001600c8201548152602001600d8201548152602001600e820154815250509050806000015181604001518260c00151836101200151600381111561150f57fe5b8460600151856101400151866101a001518760e001518861016001518961018001518a608001518b6101c001519c509c509c509c509c509c509c509c509c509c509c509c505091939597999b5091939597999b565b60008060008060008060008711801561157f57506003548711155b6115bd5760405160e560020a62461bcd0281526004018080602001828103825260308152602001806129dd6030913960400191505060405180910390fd5b50505050600160a060020a039384166000818152600560209081526040808320878452600683528184208184528285208054600182015460028301546003840154998952938752948720549a90965291909352600401549298971696909592945091925090565b600154600160a060020a03163314806116475750601154600160a060020a031633145b8061165c5750601054600160a060020a031633145b61169e576040805160e560020a62461bcd02815260206004820152601f6024820152600080516020612a0d833981519152604482015290519081900360640190fd5b600380546001908101808355600081815260046020908152604080832093845560029093018a905584548252828220600601899055845482528282206008908101805460ff191690558554835283832001805461ff001916905584548252828220600501805473ffffffffffffffffffffffffffffffffffffffff1916600160a060020a03891617905584548252828220600d0186905584548252828220600b018890559354815281812083018a90558981526009909352909120546117639161288c565b6000878152600960209081526040808320849055600a825280832060035485855281845282852055600160a060020a0387168452600b909252909120546117b190600163ffffffff61288c16565b600160a060020a039094166000908152600b60209081526040808320879055600c825280832060035497845290915290209390935550505050505050565b600154600160a060020a03163314806118125750601154600160a060020a031633145b806118275750601054600160a060020a031633145b611869576040805160e560020a62461bcd02815260206004820152601f6024820152600080516020612a0d833981519152604482015290519081900360640190fd5b600092835260046020819052604090932092830155600c90910155565b600160a060020a038216600090815260056020908152604080832084845291829052822054156118ba576001915050610963565b6000915050610963565b600160a060020a03166000908152600d602052604090205490565b600080821180156118f257506003548211155b6119305760405160e560020a62461bcd0281526004018080602001828103825260308152602001806129dd6030913960400191505060405180910390fd5b61193861294c565b60008381526004602081815260409283902083516102008101855281548152600182015492810192909252600281015493820193909352600383015460608201529082015460808201526005820154600160a060020a031660a0820152600682015460c0820152600782015460e0820152600882015490919061010083019060ff1680156119c257fe5b80156119ca57fe5b81526020016008820160019054906101000a900460ff1660038111156119ec57fe5b60038111156119f757fe5b815260098201546020820152600a8201546040820152600b8201546060820152600c8201546080820152600d82015460a0820152600e9091015460c0909101526101a001519392505050565b6000828152600660208181526040808420600160a060020a0386168552808352818520548786526004909352908420909201548390611aab90611a8d90849063ffffffff6128f016565b6000888152600460205260409020600b01549063ffffffff61288c16565b9695505050505050565b600154600160a060020a0316331480611ad85750601154600160a060020a031633145b80611aed5750601054600160a060020a031633145b611b2f576040805160e560020a62461bcd02815260206004820152601f6024820152600080516020612a0d833981519152604482015290519081900360640190fd5b6000828152600460205260409020600c0154611b51908263ffffffff61288c16565b600092835260046020526040909220600c019190915550565b600154600160a060020a0316331480611b8d5750601154600160a060020a031633145b80611ba25750601054600160a060020a031633145b611be4576040805160e560020a62461bcd02815260206004820152601f6024820152600080516020612a0d833981519152604482015290519081900360640190fd5b600160a060020a038216600081815260056020908152604080832085845280835281842086815560018101805473ffffffffffffffffffffffffffffffffffffffff191690961790955560048352922060029081015491839052909201549091611c54919063ffffffff61288c16565b60008381526020839052604081206002810192909255600390910154611c7f9163ffffffff61288c16565b600092835260209190915260409091206003015550565b600154600160a060020a0316331480611cb95750601154600160a060020a031633145b80611cce5750601054600160a060020a031633145b611d10576040805160e560020a62461bcd02815260206004820152601f6024820152600080516020612a0d833981519152604482015290519081900360640190fd5b600380546001019055565b60035490565b60008082118015611d3457506003548211155b611d725760405160e560020a62461bcd0281526004018080602001828103825260308152602001806129dd6030913960400191505060405180910390fd5b611d7a61294c565b60008381526004602081815260409283902083516102008101855281548152600182015492810192909252600281015493820193909352600383015460608201529082015460808201526005820154600160a060020a031660a0820152600682015460c0820152600782015460e0820152600882015490919061010083019060ff168015611e0457fe5b8015611e0c57fe5b81526020016008820160019054906101000a900460ff166003811115611e2e57fe5b6003811115611e3957fe5b815260098201546020820152600a8201546040820152600b8201546060820152600c8201546080820152600d82015460a0820152600e9091015460c09091015261016001519392505050565b60008082118015611e9857506003548211155b611ed65760405160e560020a62461bcd0281526004018080602001828103825260308152602001806129dd6030913960400191505060405180910390fd5b611ede61294c565b60008381526004602081815260409283902083516102008101855281548152600182015492810192909252600281015493820193909352600383015460608201529082015460808201526005820154600160a060020a031660a0820152600682015460c0820152600782015460e0820152600882015490919061010083019060ff168015611f6857fe5b8015611f7057fe5b81526020016008820160019054906101000a900460ff166003811115611f9257fe5b6003811115611f9d57fe5b815260098201546020820152600a8201546040820152600b8201546060820152600c8201546080820152600d82015460a0820152600e9091015460c09182015201519392505050565b600154600160a060020a03163314806120095750601154600160a060020a031633145b8061201e5750601054600160a060020a031633145b612060576040805160e560020a62461bcd02815260206004820152601f6024820152600080516020612a0d833981519152604482015290519081900360640190fd5b80600381111561206c57fe5b6000838152600460205260409020600801805461ff00191661010083600381111561209357fe5b02179055505050565b600154600160a060020a03163314806120bf5750601154600160a060020a031633145b806120d45750601054600160a060020a031633145b612116576040805160e560020a62461bcd02815260206004820152601f6024820152600080516020612a0d833981519152604482015290519081900360640190fd5b600f54612129908263ffffffff61288c16565b600f5550565b6000918252600760209081526040808420600160a060020a0393909316845291905290205490565b600154600160a060020a031633148061217a5750601154600160a060020a031633145b8061218f5750601054600160a060020a031633145b6121d1576040805160e560020a62461bcd02815260206004820152601f6024820152600080516020612a0d833981519152604482015290519081900360640190fd5b60008581526004602052604090206007018390558360038111156121f157fe5b6000868152600460205260409020600801805461ff00191661010083600381111561221857fe5b0217905550600094855260046020526040909420600c8101829055600b810194909455600e909301929092555050565b6000808211801561225b57506003548211155b6122995760405160e560020a62461bcd0281526004018080602001828103825260308152602001806129dd6030913960400191505060405180910390fd5b6122a161294c565b60008381526004602081815260409283902083516102008101855281548152600182015492810192909252600281015493820193909352600383015460608201529082015460808201526005820154600160a060020a031660a0820152600682015460c0820152600782015460e0820152600882015490919061010083019060ff16801561232b57fe5b801561233357fe5b81526020016008820160019054906101000a900460ff16600381111561235557fe5b600381111561236057fe5b815260098201546020820152600a8201546040820152600b8201546060820152600c820154608080830191909152600d83015460a0830152600e9092015460c09091015201519392505050565b600080821180156123c057506003548211155b6123fe5760405160e560020a62461bcd0281526004018080602001828103825260308152602001806129dd6030913960400191505060405180910390fd5b61240661294c565b60008381526004602081815260409283902083516102008101855281548152600182015492810192909252600281015493820193909352600383015460608201529082015460808201526005820154600160a060020a031660a0820152600682015460c0820152600782015460e0820152600882015490919061010083019060ff16801561249057fe5b801561249857fe5b81526020016008820160019054906101000a900460ff1660038111156124ba57fe5b60038111156124c557fe5b815260098201546020820152600a8201546040820152600b8201546060820152600c8201546080820152600d82015460a0820152600e9091015460c0909101526101e001519392505050565b600154600160a060020a03163314806125345750601154600160a060020a031633145b806125495750601054600160a060020a031633145b61258b576040805160e560020a62461bcd02815260206004820152601f6024820152600080516020612a0d833981519152604482015290519081900360640190fd5b6000928352600760209081526040808520600160a060020a039094168552929052912055565b60009081526009602052604090205490565b600080821180156125d657506003548211155b6126145760405160e560020a62461bcd0281526004018080602001828103825260308152602001806129dd6030913960400191505060405180910390fd5b61261c61294c565b60008381526004602081815260409283902083516102008101855281548152600182015492810192909252600281015493820193909352600383015460608201529082015460808201526005820154600160a060020a031660a0820152600682015460c0820152600782015460e0820152600882015490919061010083019060ff1680156126a657fe5b80156126ae57fe5b81526020016008820160019054906101000a900460ff1660038111156126d057fe5b60038111156126db57fe5b815260098201546020820152600a8201546040820152600b8201546060820152600c8201546080820152600d82015460a080830191909152600e9092015460c09091015201519392505050565b6000808211801561273b57506003548211155b6127795760405160e560020a62461bcd0281526004018080602001828103825260308152602001806129dd6030913960400191505060405180910390fd5b61278161294c565b60008381526004602081815260409283902083516102008101855281548152600182015492810192909252600281015493820193909352600383015460608201529082015460808201526005820154600160a060020a031660a0820152600682015460c0820152600782015460e0820152600882015490919061010083019060ff16801561280b57fe5b801561281357fe5b81526020016008820160019054906101000a900460ff16600381111561283557fe5b600381111561284057fe5b815260098201546020820152600a8201546040820152600b8201546060820152600c8201546080820152600d82015460a0820152600e9091015460c09091015261014001519392505050565b6000828201838110156128e9576040805160e560020a62461bcd02815260206004820152601b60248201527f536166654d6174683a206164646974696f6e206f766572666c6f770000000000604482015290519081900360640190fd5b9392505050565b6000826128ff57506000610963565b8282028284828161290c57fe5b04146128e95760405160e560020a62461bcd028152600401808060200182810382526021815260200180612a2d6021913960400191505060405180910390fd5b60405180610200016040528060008152602001600081526020016000815260200160008152602001600081526020016000600160a060020a0316815260200160008152602001600081526020016000808111156129a557fe5b815260200160008152602001600081526020016000815260200160008152602001600081526020016000815260200160008152509056fe4379636c65204944206d7573742062652077697468696e2076616c69642045737573754379636c6549642072616e6765556e617574686f72697a65642061636365737320746f20636f6e747261637400536166654d6174683a206d756c7469706c69636174696f6e206f766572666c6f77a2646970667358221220596b2c6883b6c739002bfb659c759ccdf30cb55d8c6a4f8b25c39a21a1901c5f64736f6c63430006060033",
  "immutableReferences": {},
  "source": "\npragma solidity >=0.6.6;\n\nimport \"../SafeMath.sol\";\n\n\ncontract EsusuStorage {\n\n    using SafeMath for uint256;\n\n    /*  Enum definitions */\n    enum CurrencyEnum{\n        Dai\n    }\n\n    enum CycleStateEnum{\n        Idle,               // Cycle has just been created and members can join in this state\n        Active,             // Cycle has started and members can take their ROI\n        Expired,            // Cycle Duration has elapsed and members can withdraw their capital as well as ROI\n        Inactive            // Total beneficiaries is equal to Total members, so all members have withdrawn their Capital and ROI\n    }\n\n    /*  Struct Definitions */\n    struct EsusuCycle{\n        uint CycleId;\n        uint GroupId;                   //  Group this Esusu Cycle belongs to\n        uint DepositAmount;\n        uint TotalMembers;\n        uint TotalBeneficiaries;        //  This is the total number of members that have withdrawn their ROI\n        address Owner;                  //  This is the creator of the cycle who is also the creator of the group\n        uint PayoutIntervalSeconds;     //  Time each member receives overall ROI within one Esusu Cycle in seconds\n        uint TotalCycleDuration;        //  The total time it will take for all users to be paid which is (number of members * payout interval)\n        CurrencyEnum Currency;          //  Currency supported in this Esusu Cycle\n        CycleStateEnum CycleState;      //  The current state of the Esusu Cycle\n        uint TotalAmountDeposited;   // Total  Dai Deposited\n        uint TotalCapitalWithdrawn;     // Total Capital In Dai Withdrawn\n        uint CycleStartTime;            //  Time which the cycle will start when it has elapsed. Anyone can start cycle after this time has elapsed\n        uint TotalShares;               //  Total yDai Shares\n        uint MaxMembers;                //  Maximum number of members that can join this esusu cycle\n        uint TotalSharesAtStart;        //  Total shares at the start of the cycle, will use this to estimate the number of shares that belongs to each member\n    }\n\n    struct Member{\n        address MemberId;\n        uint TotalDeposited;\n        uint TotalPayoutReceived;\n    }\n\n    struct MemberCycle{\n        uint CycleId;\n        address MemberId;\n        uint TotalAmountDepositedInCycle;\n        uint TotalPayoutReceivedInCycle;\n        uint MemberShares;\n    }\n\n        /*  Model definition starts */\n    string Dai = \"Dai Stablecoin\";\n\n\n    /* Model definition ends */\n\n    //  Member variables\n    address _owner;\n\n    string _feeRuleKey;\n\n    uint EsusuCycleId = 0;\n\n\n    mapping(uint => EsusuCycle) EsusuCycleMapping;\n\n\n    mapping(address=>mapping(uint=>MemberCycle)) MemberAddressToMemberCycleMapping;\n\n    mapping(uint=>mapping(address=>uint)) CycleToMemberPositionMapping;   //  This tracks position of the  member in an Esusu Cycle\n\n    mapping(uint=>mapping(address=> uint)) CycleToBeneficiaryMapping;  // This tracks members that have received overall ROI and amount received within an Esusu Cycle\n\n    mapping(uint=>mapping(address=> uint)) CycleToMemberWithdrawnCapitalMapping;    // This tracks members that have withdrawn their capital and the amount withdrawn\n\n    mapping(uint=>uint) GroupToCycleIndexMapping; //  This tracks the total number of cycles that belong to a group\n\n    mapping(uint=>mapping(uint=>uint)) GroupToCycleIndexToCycleIDMapping; //  This maps the Group to the cycle index and then the cycle ID\n\n    mapping(address=>uint) OwnerToCycleIndexMapping; //  This tracks the number of cycles by index created by an owner\n\n    mapping(address=>mapping(uint=>uint)) OwnerToCycleIndexToCycleIDMapping; //  This maps the owner to the cycle index and then to the cycle ID\n\n    mapping(address=>uint) MemberToCycleIndexMapping; //  This tracks the number of cycles by index created by a member\n\n    mapping(address=>mapping(uint=>uint)) MemberToCycleIndexToCycleIDMapping; //  This maps the member to the cycle index and then to the cycle ID\n\n\n    uint TotalDeposits; //  This holds all the dai amounts users have deposited in this contract\n\n\n    address  _adapterContract;\n    address _adapterDelegateContract;\n\n    constructor () public {\n        _owner = msg.sender;\n    }\n\n    function UpdateAdapterAndAdapterDelegateAddresses(address adapterContract, address adapterDelegateContract) onlyOwner external {\n            _adapterContract = adapterContract;\n            _adapterDelegateContract = adapterDelegateContract;\n    }\n\n    function GetEsusuCycleId() external view returns (uint){\n        return EsusuCycleId;\n    }\n\n    function IncrementEsusuCycleId() external onlyOwnerAdapterAndAdapterDelegateContract {\n        EsusuCycleId += 1;\n    }\n\n    function CreateEsusuCycleMapping(uint groupId, uint depositAmount, uint payoutIntervalSeconds,uint startTimeInSeconds, address owner, uint maxMembers) external onlyOwnerAdapterAndAdapterDelegateContract {\n\n        EsusuCycleId += 1;\n\n        EsusuCycleMapping[EsusuCycleId].CycleId = EsusuCycleId;\n        EsusuCycleMapping[EsusuCycleId].DepositAmount = depositAmount;\n        EsusuCycleMapping[EsusuCycleId].PayoutIntervalSeconds = payoutIntervalSeconds;\n        EsusuCycleMapping[EsusuCycleId].Currency = CurrencyEnum.Dai;\n        EsusuCycleMapping[EsusuCycleId].CycleState = CycleStateEnum.Idle;\n        EsusuCycleMapping[EsusuCycleId].Owner = owner;\n        EsusuCycleMapping[EsusuCycleId].MaxMembers = maxMembers;\n\n\n        //  Set the Cycle start time\n        EsusuCycleMapping[EsusuCycleId].CycleStartTime = startTimeInSeconds;\n\n         //  Assign groupId\n        EsusuCycleMapping[EsusuCycleId].GroupId = groupId;\n        GroupToCycleIndexMapping[groupId] = GroupToCycleIndexMapping[groupId].add(1); //  Increase the cycle index in the group by 1\n\n        uint cycleIndex = GroupToCycleIndexMapping[groupId];\n        mapping(uint=>uint) storage cylceIndexToCycleId = GroupToCycleIndexToCycleIDMapping[groupId];\n        cylceIndexToCycleId[cycleIndex] = EsusuCycleId;\n\n        // Increase the number of cycles created by the owner\n        OwnerToCycleIndexMapping[owner] = OwnerToCycleIndexMapping[owner].add(1);\n\n        uint ownerCreatedCycleIndex = OwnerToCycleIndexMapping[owner];\n        mapping(uint=>uint) storage ownerCreatedCylceIndexToCycleId = OwnerToCycleIndexToCycleIDMapping[owner];\n        ownerCreatedCylceIndexToCycleId[ownerCreatedCycleIndex] = EsusuCycleId;\n    }\n\n    function GetEsusuCycle(uint esusuCycleId) external view returns(uint CycleId, uint DepositAmount,\n                                                            uint PayoutIntervalSeconds, uint CycleState,\n                                                            uint TotalMembers, uint TotalAmountDeposited, uint TotalShares,\n                                                            uint TotalCycleDurationInSeconds, uint TotalCapitalWithdrawn, uint CycleStartTimeInSeconds,\n                                                            uint TotalBeneficiaries, uint MaxMembers){\n\n        require(esusuCycleId > 0 && esusuCycleId <= EsusuCycleId, \"Cycle ID must be within valid EsusuCycleId range\");\n\n        EsusuCycle memory cycle = EsusuCycleMapping[esusuCycleId];\n\n        return (cycle.CycleId, cycle.DepositAmount,  cycle.PayoutIntervalSeconds,\n                uint256(cycle.CycleState),\n                cycle.TotalMembers, cycle.TotalAmountDeposited, cycle.TotalShares,\n                cycle.TotalCycleDuration, cycle.TotalCapitalWithdrawn, cycle.CycleStartTime,\n                cycle.TotalBeneficiaries, cycle.MaxMembers);\n\n    }\n\n    function GetCycleIndexFromGroupId(uint groupId) external view returns(uint){\n\n        return GroupToCycleIndexMapping[groupId];\n    }\n\n    function GetCycleIdFromCycleIndexAndGroupId(uint groupId, uint cycleIndex) external view returns(uint){\n\n      mapping(uint=>uint) storage cylceIndexToCycleId = GroupToCycleIndexToCycleIDMapping[groupId];\n\n      return cylceIndexToCycleId[cycleIndex];\n    }\n\n    function GetCycleIndexFromCycleCreator(address cycleCreator) external view returns(uint){\n\n        return OwnerToCycleIndexMapping[cycleCreator];\n    }\n\n    function GetCycleIdFromCycleIndexAndCycleCreator(uint cycleIndex, address cycleCreator) external view returns(uint){\n\n      mapping(uint=>uint) storage ownerCreatedCylceIndexToCycleId = OwnerToCycleIndexToCycleIDMapping[cycleCreator];\n\n      return ownerCreatedCylceIndexToCycleId[cycleIndex];\n    }\n\n    function GetCycleIndexFromCycleMember(address member) external view returns(uint){\n\n        return MemberToCycleIndexMapping[member];\n    }\n\n    function GetCycleIdFromCycleIndexAndCycleMember(uint cycleIndex, address member) external view returns(uint){\n\n      mapping(uint=>uint) storage memberCreatedCylceIndexToCycleId = MemberToCycleIndexToCycleIDMapping[member];\n\n      return memberCreatedCylceIndexToCycleId[cycleIndex];\n    }\n\n\n\n    function GetEsusuCycleBasicInformation(uint esusuCycleId) external view returns(uint CycleId, uint DepositAmount, uint CycleState,uint TotalMembers,uint MaxMembers, uint PayoutIntervalSeconds, uint GroupId){\n\n        require(esusuCycleId > 0 && esusuCycleId <= EsusuCycleId, \"Cycle ID must be within valid EsusuCycleId range\");\n\n        EsusuCycle memory cycle = EsusuCycleMapping[esusuCycleId];\n\n        return (cycle.CycleId, cycle.DepositAmount,\n                uint256(cycle.CycleState),\n                cycle.TotalMembers, cycle.MaxMembers, cycle.PayoutIntervalSeconds,cycle.GroupId);\n\n    }\n\n    function GetEsusuCycleTotalShares(uint esusuCycleId) external view returns(uint TotalShares){\n\n        require(esusuCycleId > 0 && esusuCycleId <= EsusuCycleId, \"Cycle ID must be within valid EsusuCycleId range\");\n\n        EsusuCycle memory cycle = EsusuCycleMapping[esusuCycleId];\n\n        return (cycle.TotalShares);\n    }\n    function GetEsusuCycleTotalSharesAtStart(uint esusuCycleId) external view returns(uint TotalSharesAtStart){\n\n        require(esusuCycleId > 0 && esusuCycleId <= EsusuCycleId, \"Cycle ID must be within valid EsusuCycleId range\");\n\n        EsusuCycle memory cycle = EsusuCycleMapping[esusuCycleId];\n\n        return (cycle.TotalSharesAtStart);\n    }\n    function GetEsusuCycleStartonlyOwnerAdapterAndAdapterDelegateContractTime(uint esusuCycleId)external view returns(uint EsusuCycleStartTime){\n\n        require(esusuCycleId > 0 && esusuCycleId <= EsusuCycleId, \"Cycle ID must be within valid EsusuCycleId range\");\n\n        EsusuCycle memory cycle = EsusuCycleMapping[esusuCycleId];\n\n        return (cycle.CycleStartTime);\n    }\n\n\n    function GetEsusuCyclePayoutInterval(uint esusuCycleId)external view returns(uint EsusuCyclePayoutInterval){\n\n        require(esusuCycleId > 0 && esusuCycleId <= EsusuCycleId, \"Cycle ID must be within valid EsusuCycleId range\");\n\n        EsusuCycle memory cycle = EsusuCycleMapping[esusuCycleId];\n\n        return (cycle.PayoutIntervalSeconds);\n    }\n\n    function GetEsusuCycleTotalAmountDeposited(uint esusuCycleId)external view returns(uint EsusuCycleTotalAmountDeposited){\n\n        require(esusuCycleId > 0 && esusuCycleId <= EsusuCycleId, \"Cycle ID must be within valid EsusuCycleId range\");\n\n        EsusuCycle memory cycle = EsusuCycleMapping[esusuCycleId];\n\n        return (cycle.TotalAmountDeposited);\n    }\n\n    function GetCycleOwner(uint esusuCycleId)external view returns(address EsusuCycleOwner){\n\n        require(esusuCycleId > 0 && esusuCycleId <= EsusuCycleId, \"Cycle ID must be within valid EsusuCycleId range\");\n\n        EsusuCycle memory cycle = EsusuCycleMapping[esusuCycleId];\n\n        return (cycle.Owner);\n\n    }\n\n    function GetEsusuCycleDuration(uint esusuCycleId)external view returns(uint EsusuCycleDuration){\n        require(esusuCycleId > 0 && esusuCycleId <= EsusuCycleId, \"Cycle ID must be within valid EsusuCycleId range\");\n\n        EsusuCycle memory cycle = EsusuCycleMapping[esusuCycleId];\n\n        return (cycle.TotalCycleDuration);\n    }\n\n    function GetEsusuCycleTotalCapitalWithdrawn(uint esusuCycleId)external view returns(uint EsusuCycleTotalCapitalWithdrawn){\n\n        require(esusuCycleId > 0 && esusuCycleId <= EsusuCycleId, \"Cycle ID must be within valid EsusuCycleId range\");\n\n        EsusuCycle memory cycle = EsusuCycleMapping[esusuCycleId];\n\n        return (cycle.TotalCapitalWithdrawn);\n    }\n    function GetEsusuCycleTotalBeneficiaries(uint esusuCycleId)external view returns(uint EsusuCycleTotalBeneficiaries){\n\n        require(esusuCycleId > 0 && esusuCycleId <= EsusuCycleId, \"Cycle ID must be within valid EsusuCycleId range\");\n\n        EsusuCycle memory cycle = EsusuCycleMapping[esusuCycleId];\n\n        return (cycle.TotalBeneficiaries);\n    }\n    function GetMemberWithdrawnCapitalInEsusuCycle(uint esusuCycleId,address memberAddress) external view returns (uint) {\n\n        mapping(address=>uint) storage memberWithdrawnCapitalMapping =  CycleToMemberWithdrawnCapitalMapping[esusuCycleId];\n\n        uint amount = memberWithdrawnCapitalMapping[memberAddress];\n\n        return amount;\n    }\n\n    function GetMemberCycleToBeneficiaryMapping(uint esusuCycleId,address memberAddress) external view returns(uint){\n\n        mapping(address=>uint) storage beneficiaryMapping =  CycleToBeneficiaryMapping[esusuCycleId];\n\n        uint amount = beneficiaryMapping[memberAddress];\n\n        return amount;\n    }\n\n    function IsMemberInCycle(address memberAddress,uint esusuCycleId ) external view returns(bool){\n\n        mapping(uint=>MemberCycle) storage memberCycleMapping =  MemberAddressToMemberCycleMapping[memberAddress];\n\n        //  If member is in cycle, the cycle ID should be greater than 0\n        if(memberCycleMapping[esusuCycleId].CycleId > 0){\n\n            return true;\n        }else{\n            return false;\n        }\n    }\n\n    function IncreaseTotalAmountDepositedInCycle(uint esusuCycleId, uint amount) external onlyOwnerAdapterAndAdapterDelegateContract returns (uint){\n\n        require(esusuCycleId > 0 && esusuCycleId <= EsusuCycleId, \"Cycle ID must be within valid EsusuCycleId range\");\n\n        EsusuCycleMapping[esusuCycleId].TotalAmountDeposited =  EsusuCycleMapping[esusuCycleId].TotalAmountDeposited.add(amount);\n\n        return EsusuCycleMapping[esusuCycleId].TotalAmountDeposited;\n    }\n\n    function CreateMemberAddressToMemberCycleMapping(address member,uint esusuCycleId) external onlyOwnerAdapterAndAdapterDelegateContract{\n\n        //  Increment the total deposited amount for the member cycle struct\n        mapping(uint=>MemberCycle) storage memberCycleMapping =  MemberAddressToMemberCycleMapping[member];\n\n\n        memberCycleMapping[esusuCycleId].CycleId = esusuCycleId;\n        memberCycleMapping[esusuCycleId].MemberId = member;\n        memberCycleMapping[esusuCycleId].TotalAmountDepositedInCycle = memberCycleMapping[esusuCycleId].TotalAmountDepositedInCycle.add( EsusuCycleMapping[esusuCycleId].DepositAmount);\n        memberCycleMapping[esusuCycleId].TotalPayoutReceivedInCycle = memberCycleMapping[esusuCycleId].TotalPayoutReceivedInCycle.add(0);\n    }\n\n    function IncreaseTotalMembersInCycle(uint esusuCycleId) external onlyOwnerAdapterAndAdapterDelegateContract{\n        //  Increase TotalMembers count by 1\n\n        EsusuCycleMapping[esusuCycleId].TotalMembers +=1;\n    }\n\n    function CreateMemberPositionMapping(uint esusuCycleId, address member) onlyOwnerAdapterAndAdapterDelegateContract external{\n\n        mapping(address=>uint) storage memberPositionMapping =  CycleToMemberPositionMapping[esusuCycleId];\n\n        //  Assign Position to Member In this Cycle\n        memberPositionMapping[member] = EsusuCycleMapping[esusuCycleId].TotalMembers;\n    }\n\n    function IncreaseTotalDeposits(uint esusuCycleBalance) external onlyOwnerAdapterAndAdapterDelegateContract {\n\n        TotalDeposits = TotalDeposits.add(esusuCycleBalance);\n\n    }\n\n  \n    function UpdateEsusuCycleDuringStart(uint esusuCycleId,uint cycleStateEnum, uint toalCycleDuration, uint totalShares,uint currentTime) external onlyOwnerAdapterAndAdapterDelegateContract{\n\n        EsusuCycleMapping[esusuCycleId].TotalCycleDuration = toalCycleDuration;\n        EsusuCycleMapping[esusuCycleId].CycleState = CycleStateEnum(cycleStateEnum);\n        EsusuCycleMapping[esusuCycleId].TotalShares = totalShares;\n        EsusuCycleMapping[esusuCycleId].CycleStartTime = currentTime;\n        EsusuCycleMapping[esusuCycleId].TotalSharesAtStart = totalShares;\n\n    }\n    \n    /**\n        NOTE: before now, we update the cycle during start but because of ForTube precision issue\n        we now update the cycle once a member joins the cycle. We also invest member's funds immediately they join so \n        as to increase the exchangeRateStored on ForTube. \n        This function will not be important on Yearn Finance on the ethereum blockchain\n     */\n    function UpdateEsusuCycleSharesDuringJoin(uint esusuCycleId, uint memberShares) external onlyOwnerAdapterAndAdapterDelegateContract{\n       \n        // EsusuCycleMapping[esusuCycleId].TotalCycleDuration = toalCycleDuration;\n        // EsusuCycleMapping[esusuCycleId].CycleState = CycleStateEnum(cycleStateEnum); \n        EsusuCycleMapping[esusuCycleId].TotalShares = EsusuCycleMapping[esusuCycleId].TotalShares.add(memberShares);\n        // EsusuCycleMapping[esusuCycleId].CycleStartTime = currentTime;\n        \n    }\n\n    function UpdateEsusuCycleState(uint esusuCycleId,uint cycleStateEnum) external onlyOwnerAdapterAndAdapterDelegateContract{\n\n        EsusuCycleMapping[esusuCycleId].CycleState = CycleStateEnum(cycleStateEnum);\n\n    }\n    function GetMemberCycleInfo(address memberAddress, uint esusuCycleId) external view returns(uint CycleId, address MemberId, uint TotalAmountDepositedInCycle, uint TotalPayoutReceivedInCycle, uint memberPosition, uint memberShares){\n\n        require(esusuCycleId > 0 && esusuCycleId <= EsusuCycleId, \"Cycle ID must be within valid EsusuCycleId range\");\n\n        mapping(uint=>MemberCycle) storage memberCycleMapping =  MemberAddressToMemberCycleMapping[memberAddress];\n\n        mapping(address=>uint) storage memberPositionMapping =  CycleToMemberPositionMapping[esusuCycleId];\n\n\n        return  (memberCycleMapping[esusuCycleId].CycleId,memberCycleMapping[esusuCycleId].MemberId,\n        memberCycleMapping[esusuCycleId].TotalAmountDepositedInCycle,\n        memberCycleMapping[esusuCycleId].TotalPayoutReceivedInCycle,memberPositionMapping[memberAddress],memberCycleMapping[esusuCycleId].MemberShares );\n    }\n\n    function CreateMemberCapitalMapping(uint esusuCycleId, address member) external onlyOwnerAdapterAndAdapterDelegateContract {\n\n        mapping(address=>uint) storage memberCapitalMapping =  CycleToMemberWithdrawnCapitalMapping[esusuCycleId];\n        memberCapitalMapping[member] = EsusuCycleMapping[esusuCycleId].DepositAmount;\n    }\n\n    function UpdateEsusuCycleDuringCapitalWithdrawal(uint esusuCycleId, uint cycleTotalShares, uint totalCapitalWithdrawnInCycle) external onlyOwnerAdapterAndAdapterDelegateContract{\n\n        EsusuCycleMapping[esusuCycleId].TotalCapitalWithdrawn = totalCapitalWithdrawnInCycle;\n        EsusuCycleMapping[esusuCycleId].TotalShares = cycleTotalShares;\n    }\n\n    function UpdateEsusuCycleDuringROIWithdrawal(uint esusuCycleId, uint totalShares, uint totalBeneficiaries) external onlyOwnerAdapterAndAdapterDelegateContract{\n        EsusuCycleMapping[esusuCycleId].TotalBeneficiaries = totalBeneficiaries;\n        EsusuCycleMapping[esusuCycleId].TotalShares = totalShares;\n    }\n\n    function CreateEsusuCycleToBeneficiaryMapping(uint esusuCycleId, address memberAddress, uint memberROINet) external onlyOwnerAdapterAndAdapterDelegateContract{\n\n        mapping(address=>uint) storage beneficiaryMapping =  CycleToBeneficiaryMapping[esusuCycleId];\n\n        beneficiaryMapping[memberAddress] = memberROINet;\n    }\n\n    function CalculateMemberWithdrawalTime(uint cycleId, address member) external view returns(uint){\n\n        mapping(address=>uint) storage memberPositionMapping =  CycleToMemberPositionMapping[cycleId];\n\n        uint memberPosition = memberPositionMapping[member];\n\n        uint withdrawalTime = (EsusuCycleMapping[cycleId].CycleStartTime.add(memberPosition.mul(EsusuCycleMapping[cycleId].PayoutIntervalSeconds)));\n        return withdrawalTime;\n    }\n\n    function CreateMemberToCycleIndexToCycleIDMapping(address member, uint esusuCycleId) external onlyOwnerAdapterAndAdapterDelegateContract {\n      // Increase the number of cycles joined by the member\n      MemberToCycleIndexMapping[member] = MemberToCycleIndexMapping[member].add(1);\n\n      uint memberCreatedCycleIndex = MemberToCycleIndexMapping[member];\n      mapping(uint=>uint) storage memberCreatedCylceIndexToCycleId = MemberToCycleIndexToCycleIDMapping[member];\n      memberCreatedCylceIndexToCycleId[memberCreatedCycleIndex] = esusuCycleId;\n    }\n\n    function GetTotalDeposits() external view returns (uint){\n        return TotalDeposits;\n    }\n\n    function GetEsusuCycleState(uint esusuCycleId) external view returns (uint){\n\n        return uint(EsusuCycleMapping[esusuCycleId].CycleState);\n\n    }\n\n    function GetEsusuCycleStartTime(uint esusuCycleId)external view returns(uint EsusuCycleStartTime){\n         \n        require(esusuCycleId > 0 && esusuCycleId <= EsusuCycleId, \"Cycle ID must be within valid EsusuCycleId range\");\n        \n        EsusuCycle memory cycle = EsusuCycleMapping[esusuCycleId];\n        \n        return (cycle.CycleStartTime);      \n    }\n\n    modifier onlyOwner() {\n        require(msg.sender == _owner, \"Unauthorized access to contract\");\n        _;\n    }\n\n    modifier onlyOwnerAdapterAndAdapterDelegateContract() {\n        require(\n            msg.sender == _owner || msg.sender == _adapterDelegateContract || msg.sender == _adapterContract,\n            \"Unauthorized access to contract\"\n        );\n        _;\n    }\n\n}\n",
  "sourcePath": "/Users/mac/Desktop/BinaryHiils/yearn-savings/YearnBSC/contracts/esusu/EsusuStorage.sol",
  "compiler": {
    "name": "solc",
    "version": "0.6.6+commit.6c089d02.Emscripten.clang"
  },
  "schemaVersion": "3.3.2",
  "updatedAt": "2020-11-27T15:02:02.331Z",
  "networkType": "ethereum",
  "devdoc": {
    "methods": {}
  },
  "userdoc": {
    "methods": {
      "UpdateEsusuCycleSharesDuringJoin(uint256,uint256)": {
        "notice": "NOTE: before now, we update the cycle during start but because of ForTube precision issue we now update the cycle once a member joins the cycle. We also invest member's funds immediately they join so  as to increase the exchangeRateStored on ForTube.  This function will not be important on Yearn Finance on the ethereum blockchain"
      }
    }
  }
}