{
  "contractName": "ForTubeBankService",
  "abi": [
    {
      "inputs": [],
      "stateMutability": "nonpayable",
      "type": "constructor"
    },
    {
      "inputs": [
        {
          "internalType": "address",
          "name": "account",
          "type": "address"
        }
      ],
      "name": "transferOwnership",
      "outputs": [],
      "stateMutability": "nonpayable",
      "type": "function"
    },
    {
      "inputs": [
        {
          "internalType": "address",
          "name": "adapterAddress",
          "type": "address"
        }
      ],
      "name": "updateAdapter",
      "outputs": [],
      "stateMutability": "nonpayable",
      "type": "function"
    },
    {
      "inputs": [
        {
          "internalType": "address",
          "name": "withdrawalDelegateAddress",
          "type": "address"
        }
      ],
      "name": "updateWithdrawalDelegrateContract",
      "outputs": [],
      "stateMutability": "nonpayable",
      "type": "function"
    },
    {
      "inputs": [
        {
          "internalType": "uint256",
          "name": "depositAmount",
          "type": "uint256"
        },
        {
          "internalType": "address",
          "name": "member",
          "type": "address"
        }
      ],
      "name": "TransferCapitalBack",
      "outputs": [],
      "stateMutability": "nonpayable",
      "type": "function"
    },
    {
      "inputs": [
        {
          "internalType": "uint256",
          "name": "amount",
          "type": "uint256"
        },
        {
          "internalType": "uint256",
          "name": "sharesAmount",
          "type": "uint256"
        }
      ],
      "name": "WithdrawByShares",
      "outputs": [],
      "stateMutability": "nonpayable",
      "type": "function"
    },
    {
      "inputs": [
        {
          "internalType": "uint256",
          "name": "sharesAmount",
          "type": "uint256"
        }
      ],
      "name": "WithdrawBySharesOnly",
      "outputs": [],
      "stateMutability": "nonpayable",
      "type": "function"
    },
    {
      "inputs": [],
      "name": "GetForTubeAdapterAddress",
      "outputs": [
        {
          "internalType": "address",
          "name": "",
          "type": "address"
        }
      ],
      "stateMutability": "view",
      "type": "function"
    },
    {
      "inputs": [
        {
          "internalType": "address payable",
          "name": "newServiceContract",
          "type": "address"
        }
      ],
      "name": "TransferAdapterContractOwnership",
      "outputs": [],
      "stateMutability": "nonpayable",
      "type": "function"
    },
    {
      "inputs": [
        {
          "internalType": "address",
          "name": "user",
          "type": "address"
        }
      ],
      "name": "UserShares",
      "outputs": [
        {
          "internalType": "uint256",
          "name": "",
          "type": "uint256"
        }
      ],
      "stateMutability": "view",
      "type": "function"
    },
    {
      "inputs": [
        {
          "internalType": "address",
          "name": "user",
          "type": "address"
        }
      ],
      "name": "UserBUSDBalance",
      "outputs": [
        {
          "internalType": "uint256",
          "name": "",
          "type": "uint256"
        }
      ],
      "stateMutability": "view",
      "type": "function"
    },
    {
      "inputs": [
        {
          "internalType": "uint256",
          "name": "amount",
          "type": "uint256"
        },
        {
          "internalType": "address",
          "name": "user",
          "type": "address"
        }
      ],
      "name": "Save",
      "outputs": [],
      "stateMutability": "nonpayable",
      "type": "function"
    },
    {
      "inputs": [
        {
          "internalType": "uint256",
          "name": "amount",
          "type": "uint256"
        }
      ],
      "name": "Save",
      "outputs": [],
      "stateMutability": "nonpayable",
      "type": "function"
    },
    {
      "inputs": [
        {
          "internalType": "uint256",
          "name": "amount",
          "type": "uint256"
        },
        {
          "internalType": "address",
          "name": "user",
          "type": "address"
        }
      ],
      "name": "Withdraw",
      "outputs": [],
      "stateMutability": "nonpayable",
      "type": "function"
    },
    {
      "inputs": [
        {
          "internalType": "uint256",
          "name": "amount",
          "type": "uint256"
        }
      ],
      "name": "Withdraw",
      "outputs": [],
      "stateMutability": "nonpayable",
      "type": "function"
    }
  ],
  "bytecode": "0x608060405234801561001057600080fd5b5060008054600160a060020a03191633179055610a82806100326000396000f3fe608060405234801561001057600080fd5b5060043610610107576000357c0100000000000000000000000000000000000000000000000000000000900480637057f929116100a957806391b17e861161008357806391b17e8614610291578063a23e0701146102b7578063ad737613146102e3578063f2fde38b1461030057610107565b80637057f9291461021c57806382f9a8691461023f5780638353ffca1461026557610107565b8063352c95b7116100e5578063352c95b7146101985780635b6b431d146101bc578063611abc21146101d95780636583d12a146101ff57610107565b80630fcf3b3e1461010c578063274100d914610134578063330e35c91461016c575b600080fd5b6101326004803603602081101561012257600080fd5b5035600160a060020a0316610326565b005b61015a6004803603602081101561014a57600080fd5b5035600160a060020a03166103f8565b60408051918252519081900360200190f35b6101326004803603604081101561018257600080fd5b5080359060200135600160a060020a0316610494565b6101a061051e565b60408051600160a060020a039092168252519081900360200190f35b610132600480360360208110156101d257600080fd5b503561052d565b610132600480360360208110156101ef57600080fd5b5035600160a060020a0316610599565b6101326004803603602081101561021557600080fd5b5035610618565b6101326004803603604081101561023257600080fd5b5080359060200135610684565b6101326004803603602081101561025557600080fd5b5035600160a060020a03166106f7565b6101326004803603604081101561027b57600080fd5b5080359060200135600160a060020a0316610776565b61015a600480360360208110156102a757600080fd5b5035600160a060020a03166107e4565b610132600480360360408110156102cd57600080fd5b5080359060200135600160a060020a031661084e565b610132600480360360208110156102f957600080fd5b5035610933565b6101326004803603602081101561031657600080fd5b5035600160a060020a031661099f565b600054600160a060020a03163314610376576040805160e560020a62461bcd02815260206004820152601d6024820152600080516020610a2d833981519152604482015290519081900360640190fd5b600254604080517fa843c51f000000000000000000000000000000000000000000000000000000008152600160a060020a0384811660048301529151919092169163a843c51f91602480830192600092919082900301818387803b1580156103dd57600080fd5b505af11580156103f1573d6000803e3d6000fd5b5050505050565b600254604080517f7bdc9ad4000000000000000000000000000000000000000000000000000000008152600160a060020a03848116600483015291516000939290921691637bdc9ad491602480820192602092909190829003018186803b15801561046257600080fd5b505afa158015610476573d6000803e3d6000fd5b505050506040513d602081101561048c57600080fd5b505192915050565b600254604080517f330e35c900000000000000000000000000000000000000000000000000000000815260048101859052600160a060020a0384811660248301529151919092169163330e35c991604480830192600092919082900301818387803b15801561050257600080fd5b505af1158015610516573d6000803e3d6000fd5b505050505050565b600254600160a060020a031690565b600254604080517f8353ffca000000000000000000000000000000000000000000000000000000008152600481018490523360248201529051600160a060020a0390921691638353ffca9160448082019260009290919082900301818387803b1580156103dd57600080fd5b600054600160a060020a031633146105e9576040805160e560020a62461bcd02815260206004820152601d6024820152600080516020610a2d833981519152604482015290519081900360640190fd5b6001805473ffffffffffffffffffffffffffffffffffffffff1916600160a060020a0392909216919091179055565b600254604080517fef1dff55000000000000000000000000000000000000000000000000000000008152336004820152602481018490529051600160a060020a039092169163ef1dff559160448082019260009290919082900301818387803b1580156103dd57600080fd5b600254604080517fdfba295400000000000000000000000000000000000000000000000000000000815260048101859052336024820152604481018490529051600160a060020a039092169163dfba29549160648082019260009290919082900301818387803b15801561050257600080fd5b600054600160a060020a03163314610747576040805160e560020a62461bcd02815260206004820152601d6024820152600080516020610a2d833981519152604482015290519081900360640190fd5b6002805473ffffffffffffffffffffffffffffffffffffffff1916600160a060020a0392909216919091179055565b600254604080517f8353ffca00000000000000000000000000000000000000000000000000000000815260048101859052600160a060020a03848116602483015291519190921691638353ffca91604480830192600092919082900301818387803b15801561050257600080fd5b600254604080517f6f547f9e000000000000000000000000000000000000000000000000000000008152600160a060020a03848116600483015291516000939290921691636f547f9e91602480820192602092909190829003018186803b15801561046257600080fd5b600054600160a060020a03163314806108715750600154600160a060020a031633145b6108c5576040805160e560020a62461bcd02815260206004820152601f60248201527f556e617574686f72697a65642061636365737320746f20636f6e747261637400604482015290519081900360640190fd5b600254604080517fa23e070100000000000000000000000000000000000000000000000000000000815260048101859052600160a060020a0384811660248301529151919092169163a23e070191604480830192600092919082900301818387803b15801561050257600080fd5b600254604080517f330e35c9000000000000000000000000000000000000000000000000000000008152600481018490523360248201529051600160a060020a039092169163330e35c99160448082019260009290919082900301818387803b1580156103dd57600080fd5b600054600160a060020a031633146109ef576040805160e560020a62461bcd02815260206004820152601d6024820152600080516020610a2d833981519152604482015290519081900360640190fd5b600054600160a060020a031615610a29576000805473ffffffffffffffffffffffffffffffffffffffff1916600160a060020a0383161790555b5056fe4f6e6c79206f776e65722063616e206d616b6520746869732063616c6c000000a2646970667358221220a304d6af70ad339e727950a5d8eb5c2bb9924488c5dd8f751a687374ab460c4064736f6c63430006060033",
  "immutableReferences": {},
  "source": "pragma solidity >=0.6.6;\r\n\r\nimport \"./ForTubeBankAdapterHack.sol\";\r\n\r\ncontract ForTubeBankService {\r\n    address _owner;\r\n    address  _delegateContract;\r\n    \r\n    FortubeBankAdapterHack _bankAdapter;\r\n\r\n    constructor() public {\r\n        _owner = msg.sender;\r\n        \r\n    }\r\n\r\n    function transferOwnership(address account) external onlyOwner() {\r\n        if (_owner != address(0)) _owner = account;\r\n    }\r\n\r\n    function updateAdapter(address adapterAddress) external onlyOwner() {\r\n        _bankAdapter = FortubeBankAdapterHack(adapterAddress);\r\n    }\r\n    \r\n    function updateWithdrawalDelegrateContract (address withdrawalDelegateAddress) external onlyOwner() {\r\n        _delegateContract = withdrawalDelegateAddress;\r\n    }\r\n\r\n\r\n    /*\r\n        -   Before calling this function, ensure that the msg.sender or caller has given this contract address\r\n            approval to transfer money on its behalf to another address\r\n    */\r\n    function Save(uint256 amount) external {\r\n        _bankAdapter.Save(amount, msg.sender);\r\n    }\r\n\r\n    function Withdraw(uint256 amount) external {\r\n        _bankAdapter.Withdraw(amount, msg.sender);\r\n    }\r\n    \r\n     function TransferCapitalBack (uint depositAmount, address member) external onlyOwnerAndDelegateContract {\r\n            _bankAdapter.TransferCapitalBack(depositAmount, member);\r\n    }\r\n    \r\n    \r\n\r\n    function WithdrawByShares(uint256 amount, uint256 sharesAmount) external {\r\n        _bankAdapter.WithdrawByShares(amount, msg.sender, sharesAmount);\r\n    }\r\n\r\n    function WithdrawBySharesOnly(uint256 sharesAmount) external {\r\n        _bankAdapter.WithdrawBySharesOnly(msg.sender, sharesAmount);\r\n    }\r\n\r\n    function GetForTubeAdapterAddress() external view returns (address) {\r\n        return address(_bankAdapter);\r\n    }\r\n\r\n    function TransferAdapterContractOwnership(address payable newServiceContract) external onlyOwner {\r\n        _bankAdapter.transferContractOwnership(newServiceContract);\r\n    }\r\n    \r\n    function UserShares(address user) external view returns (uint256) {\r\n    return _bankAdapter.GetFBUSDBalance(user);\r\n}\r\n\r\nfunction UserBUSDBalance(address user) external view returns (uint256) {\r\n    return _bankAdapter.GetBUSDBalance(user);\r\n}\r\n\r\nfunction Save(uint256 amount, address user) external {\r\n    _bankAdapter.Save(amount, user);\r\n}\r\n\r\nfunction Withdraw(uint256 amount, address user) external {\r\n    _bankAdapter.Withdraw(amount, user);\r\n}\r\n\r\n    modifier onlyOwner() {\r\n        require(_owner == msg.sender, \"Only owner can make this call\");\r\n        _;\r\n    }\r\n    \r\n     modifier onlyOwnerAndDelegateContract() {\r\n        require(\r\n            msg.sender == _owner || msg.sender == _delegateContract,\r\n            \"Unauthorized access to contract\"\r\n        );\r\n        _;\r\n    }\r\n}",
  "sourcePath": "C:/Users/MKOPA/Documents/WORK/UGARSOFT/yearn-savings/yearnbsc/contracts/Fortube/ForTubeBankService.sol",
  "compiler": {
    "name": "solc",
    "version": "0.6.6+commit.6c089d02.Emscripten.clang"
  },
  "schemaVersion": "3.3.4",
  "updatedAt": "2021-03-29T22:53:16.569Z",
  "devdoc": {
    "methods": {}
  },
  "userdoc": {
    "methods": {}
  }
}