{
  "contractName": "FortubeBankAdapterHack",
  "abi": [
    {
      "inputs": [
        {
          "internalType": "address payable",
          "name": "serviceContract",
          "type": "address"
        }
      ],
      "stateMutability": "nonpayable",
      "type": "constructor"
    },
    {
      "inputs": [
        {
          "internalType": "uint256",
          "name": "a",
          "type": "uint256"
        },
        {
          "internalType": "uint256",
          "name": "b",
          "type": "uint256"
        }
      ],
      "name": "addExp",
      "outputs": [
        {
          "internalType": "uint256",
          "name": "result",
          "type": "uint256"
        }
      ],
      "stateMutability": "pure",
      "type": "function"
    },
    {
      "inputs": [
        {
          "internalType": "uint256",
          "name": "a",
          "type": "uint256"
        },
        {
          "internalType": "uint256",
          "name": "b",
          "type": "uint256"
        }
      ],
      "name": "divExp",
      "outputs": [
        {
          "internalType": "uint256",
          "name": "",
          "type": "uint256"
        }
      ],
      "stateMutability": "pure",
      "type": "function"
    },
    {
      "inputs": [
        {
          "internalType": "uint256",
          "name": "a",
          "type": "uint256"
        },
        {
          "internalType": "uint256",
          "name": "scalar",
          "type": "uint256"
        }
      ],
      "name": "divScalar",
      "outputs": [
        {
          "internalType": "uint256",
          "name": "",
          "type": "uint256"
        }
      ],
      "stateMutability": "pure",
      "type": "function"
    },
    {
      "inputs": [
        {
          "internalType": "uint256",
          "name": "scalar",
          "type": "uint256"
        },
        {
          "internalType": "uint256",
          "name": "divisor",
          "type": "uint256"
        }
      ],
      "name": "divScalarByExp",
      "outputs": [
        {
          "internalType": "uint256",
          "name": "",
          "type": "uint256"
        }
      ],
      "stateMutability": "pure",
      "type": "function"
    },
    {
      "inputs": [
        {
          "internalType": "uint256",
          "name": "scalar",
          "type": "uint256"
        },
        {
          "internalType": "uint256",
          "name": "divisor",
          "type": "uint256"
        }
      ],
      "name": "divScalarByExpTruncate",
      "outputs": [
        {
          "internalType": "uint256",
          "name": "",
          "type": "uint256"
        }
      ],
      "stateMutability": "pure",
      "type": "function"
    },
    {
      "inputs": [
        {
          "internalType": "uint256",
          "name": "num",
          "type": "uint256"
        },
        {
          "internalType": "uint256",
          "name": "denom",
          "type": "uint256"
        }
      ],
      "name": "getDiv",
      "outputs": [
        {
          "internalType": "uint256",
          "name": "rational",
          "type": "uint256"
        }
      ],
      "stateMutability": "pure",
      "type": "function"
    },
    {
      "inputs": [
        {
          "internalType": "uint256",
          "name": "num",
          "type": "uint256"
        },
        {
          "internalType": "uint256",
          "name": "denom",
          "type": "uint256"
        }
      ],
      "name": "getExp",
      "outputs": [
        {
          "internalType": "uint256",
          "name": "rational",
          "type": "uint256"
        }
      ],
      "stateMutability": "pure",
      "type": "function"
    },
    {
      "inputs": [
        {
          "internalType": "uint256",
          "name": "a",
          "type": "uint256"
        },
        {
          "internalType": "uint256",
          "name": "b",
          "type": "uint256"
        }
      ],
      "name": "mulExp",
      "outputs": [
        {
          "internalType": "uint256",
          "name": "",
          "type": "uint256"
        }
      ],
      "stateMutability": "pure",
      "type": "function"
    },
    {
      "inputs": [
        {
          "internalType": "uint256",
          "name": "a",
          "type": "uint256"
        },
        {
          "internalType": "uint256",
          "name": "b",
          "type": "uint256"
        },
        {
          "internalType": "uint256",
          "name": "c",
          "type": "uint256"
        }
      ],
      "name": "mulExp3",
      "outputs": [
        {
          "internalType": "uint256",
          "name": "",
          "type": "uint256"
        }
      ],
      "stateMutability": "pure",
      "type": "function"
    },
    {
      "inputs": [
        {
          "internalType": "uint256",
          "name": "a",
          "type": "uint256"
        },
        {
          "internalType": "uint256",
          "name": "scalar",
          "type": "uint256"
        }
      ],
      "name": "mulScalar",
      "outputs": [
        {
          "internalType": "uint256",
          "name": "scaled",
          "type": "uint256"
        }
      ],
      "stateMutability": "pure",
      "type": "function"
    },
    {
      "inputs": [
        {
          "internalType": "uint256",
          "name": "a",
          "type": "uint256"
        },
        {
          "internalType": "uint256",
          "name": "scalar",
          "type": "uint256"
        }
      ],
      "name": "mulScalarTruncate",
      "outputs": [
        {
          "internalType": "uint256",
          "name": "",
          "type": "uint256"
        }
      ],
      "stateMutability": "pure",
      "type": "function"
    },
    {
      "inputs": [
        {
          "internalType": "uint256",
          "name": "a",
          "type": "uint256"
        },
        {
          "internalType": "uint256",
          "name": "scalar",
          "type": "uint256"
        },
        {
          "internalType": "uint256",
          "name": "addend",
          "type": "uint256"
        }
      ],
      "name": "mulScalarTruncateAddUInt",
      "outputs": [
        {
          "internalType": "uint256",
          "name": "",
          "type": "uint256"
        }
      ],
      "stateMutability": "pure",
      "type": "function"
    },
    {
      "inputs": [],
      "name": "owner",
      "outputs": [
        {
          "internalType": "address payable",
          "name": "",
          "type": "address"
        }
      ],
      "stateMutability": "view",
      "type": "function"
    },
    {
      "inputs": [],
      "name": "serviceContract",
      "outputs": [
        {
          "internalType": "address payable",
          "name": "",
          "type": "address"
        }
      ],
      "stateMutability": "view",
      "type": "function"
    },
    {
      "inputs": [
        {
          "internalType": "uint256",
          "name": "a",
          "type": "uint256"
        },
        {
          "internalType": "uint256",
          "name": "b",
          "type": "uint256"
        }
      ],
      "name": "subExp",
      "outputs": [
        {
          "internalType": "uint256",
          "name": "result",
          "type": "uint256"
        }
      ],
      "stateMutability": "pure",
      "type": "function"
    },
    {
      "inputs": [
        {
          "internalType": "address payable",
          "name": "newServiceContract",
          "type": "address"
        }
      ],
      "name": "transferContractOwnership",
      "outputs": [],
      "stateMutability": "nonpayable",
      "type": "function"
    },
    {
      "inputs": [
        {
          "internalType": "address payable",
          "name": "newOwner",
          "type": "address"
        }
      ],
      "name": "transferOwnership",
      "outputs": [],
      "stateMutability": "nonpayable",
      "type": "function"
    },
    {
      "inputs": [
        {
          "internalType": "uint256",
          "name": "exp",
          "type": "uint256"
        }
      ],
      "name": "truncate",
      "outputs": [
        {
          "internalType": "uint256",
          "name": "",
          "type": "uint256"
        }
      ],
      "stateMutability": "pure",
      "type": "function"
    },
    {
      "inputs": [
        {
          "internalType": "uint256",
          "name": "amount",
          "type": "uint256"
        },
        {
          "internalType": "address",
          "name": "account",
          "type": "address"
        }
      ],
      "name": "Save",
      "outputs": [],
      "stateMutability": "nonpayable",
      "type": "function"
    },
    {
      "inputs": [
        {
          "internalType": "uint256",
          "name": "amount",
          "type": "uint256"
        },
        {
          "internalType": "address",
          "name": "member",
          "type": "address"
        }
      ],
      "name": "Withdraw",
      "outputs": [],
      "stateMutability": "nonpayable",
      "type": "function"
    },
    {
      "inputs": [
        {
          "internalType": "address",
          "name": "member",
          "type": "address"
        },
        {
          "internalType": "uint256",
          "name": "sharesAmount",
          "type": "uint256"
        }
      ],
      "name": "WithdrawBySharesOnly",
      "outputs": [],
      "stateMutability": "nonpayable",
      "type": "function"
    },
    {
      "inputs": [
        {
          "internalType": "uint256",
          "name": "amount",
          "type": "uint256"
        },
        {
          "internalType": "address",
          "name": "member",
          "type": "address"
        },
        {
          "internalType": "uint256",
          "name": "sharesAmount",
          "type": "uint256"
        }
      ],
      "name": "WithdrawByShares",
      "outputs": [],
      "stateMutability": "nonpayable",
      "type": "function"
    },
    {
      "inputs": [
        {
          "internalType": "uint256",
          "name": "depositAmount",
          "type": "uint256"
        },
        {
          "internalType": "address",
          "name": "member",
          "type": "address"
        }
      ],
      "name": "TransferCapitalBack",
      "outputs": [],
      "stateMutability": "nonpayable",
      "type": "function"
    },
    {
      "inputs": [
        {
          "internalType": "address",
          "name": "member",
          "type": "address"
        }
      ],
      "name": "GetBUSDBalance",
      "outputs": [
        {
          "internalType": "uint256",
          "name": "",
          "type": "uint256"
        }
      ],
      "stateMutability": "view",
      "type": "function"
    },
    {
      "inputs": [
        {
          "internalType": "address",
          "name": "member",
          "type": "address"
        }
      ],
      "name": "GetFBUSDBalance",
      "outputs": [
        {
          "internalType": "uint256",
          "name": "",
          "type": "uint256"
        }
      ],
      "stateMutability": "view",
      "type": "function"
    },
    {
      "inputs": [
        {
          "internalType": "address",
          "name": "member",
          "type": "address"
        }
      ],
      "name": "CalculateTotalBUSDEarned",
      "outputs": [
        {
          "internalType": "uint256",
          "name": "exchangeRate",
          "type": "uint256"
        }
      ],
      "stateMutability": "view",
      "type": "function"
    },
    {
      "inputs": [],
      "name": "ExchangeRateCurrentBUSD",
      "outputs": [
        {
          "internalType": "uint256",
          "name": "exchangeRate",
          "type": "uint256"
        }
      ],
      "stateMutability": "view",
      "type": "function"
    },
    {
      "inputs": [],
      "name": "ExchangeRateStoredBUSD",
      "outputs": [
        {
          "internalType": "uint256",
          "name": "exchangeRate",
          "type": "uint256"
        }
      ],
      "stateMutability": "view",
      "type": "function"
    },
    {
      "inputs": [
        {
          "internalType": "uint256",
          "name": "rate",
          "type": "uint256"
        }
      ],
      "name": "SetExchangeRateSell",
      "outputs": [],
      "stateMutability": "nonpayable",
      "type": "function"
    },
    {
      "inputs": [],
      "name": "CashoutShares",
      "outputs": [],
      "stateMutability": "nonpayable",
      "type": "function"
    }
  ],
  "bytecode": "0x608060405260058054600160a060020a031916733b1f033dd955f3be8649cc9825a2e3e194765a3f17905534801561003657600080fd5b50604051611b9b380380611b9b8339818101604052602081101561005957600080fd5b505160008054600160a060020a0319908116331790915560018054600160a060020a039093169282169290921790915560028054821673bffedf7f10fcd4255f1f622adbc8ccdc9d5bad9e179055600380548216736112a45160b2058c6402a5bfbe3a446c8fd4fb45179055600480549091167392fcf9f805aaf8e97482b86995c4e9ea16d9e2bb179055600f600655611aa3806100f86000396000f3fe608060405234801561001057600080fd5b50600436106101f7576000357c010000000000000000000000000000000000000000000000000000000090048063872e2ea611610121578063ba9316b7116100bf578063dec18a751161008e578063dec18a7514610552578063dfba29541461055a578063ef1dff551461058c578063f2fde38b146105b8576101f7565b8063ba9316b71461031a578063ce603aad146104e9578063d6079cc61461050c578063de32abd11461052f576101f7565b8063a23e0701116100fb578063a23e070114610451578063a843c51f1461047d578063b4ab15e7146104a3578063b507f9f9146104c6576101f7565b8063872e2ea6146104035780638da5cb5b146104205780638de4636214610428576101f7565b80634751b79c1161019957806370d27d7f1161016857806370d27d7f1461038c5780637b94aaac146103945780637bdc9ad4146103b15780638353ffca146103d7576101f7565b80634751b79c146102f75780635293ff311461031a5780636208fc411461033d5780636f547f9e14610366576101f7565b806334239cbc116101d557806334239cbc14610285578063364dab101461028d578063396a98cf146102b15780634147da13146102d4576101f7565b80632985fa31146101fc578063330e35c91461023157806333d3afa61461025f575b600080fd5b61021f6004803603604081101561021257600080fd5b50803590602001356105de565b60408051918252519081900360200190f35b61025d6004803603604081101561024757600080fd5b5080359060200135600160a060020a03166105f7565b005b61021f6004803603602081101561027557600080fd5b5035600160a060020a03166106f6565b61025d610818565b610295610994565b60408051600160a060020a039092168252519081900360200190f35b61021f600480360360408110156102c757600080fd5b50803590602001356109a3565b61021f600480360360408110156102ea57600080fd5b50803590602001356109b5565b61021f6004803603604081101561030d57600080fd5b50803590602001356109c7565b61021f6004803603604081101561033057600080fd5b50803590602001356109df565b61021f6004803603606081101561035357600080fd5b5080359060208101359060400135610a09565b61021f6004803603602081101561037c57600080fd5b5035600160a060020a0316610a3a565b61021f610ac0565b61021f600480360360208110156103aa57600080fd5b5035610b4f565b61021f600480360360208110156103c757600080fd5b5035600160a060020a0316610b69565b61025d600480360360408110156103ed57600080fd5b5080359060200135600160a060020a0316610bbd565b61025d6004803603602081101561041957600080fd5b5035610e60565b610295610eca565b61021f6004803603606081101561043e57600080fd5b5080359060208101359060400135610ed9565b61025d6004803603604081101561046757600080fd5b5080359060200135600160a060020a0316610eee565b61025d6004803603602081101561049357600080fd5b5035600160a060020a0316610fdc565b61021f600480360360408110156104b957600080fd5b508035906020013561107c565b61021f600480360360408110156104dc57600080fd5b5080359060200135611094565b61021f600480360360408110156104ff57600080fd5b50803590602001356110a0565b61021f6004803603604081101561052257600080fd5b50803590602001356110c7565b61021f6004803603604081101561054557600080fd5b50803590602001356110d4565b61021f611117565b61025d6004803603606081101561057057600080fd5b50803590600160a060020a036020820135169060400135611175565b61025d600480360360408110156105a257600080fd5b50600160a060020a038135169060200135611399565b61025d600480360360208110156105ce57600080fd5b5035600160a060020a0316611538565b60006105f0838363ffffffff6115c416565b9392505050565b600054600160a060020a031633148061061a5750600154600160a060020a031633145b61065c576040805160e560020a62461bcd02815260206004820152601f6024820152600080516020611a2d833981519152604482015290519081900360640190fd5b6005546040805160e060020a6323b872dd028152600160a060020a03848116600483015230602483015260448201869052915191909216916323b872dd9160648083019260209291908290030181600087803b1580156106bb57600080fd5b505af11580156106cf573d6000803e3d6000fd5b505050506040513d60208110156106e557600080fd5b506106f290508282611620565b5050565b6003546040805160e060020a6370a08231028152600160a060020a0384811660048301529151600093849316916370a08231916024808301926020929190829003018186803b15801561074857600080fd5b505afa15801561075c573d6000803e3d6000fd5b505050506040513d602081101561077257600080fd5b5051600354604080517f182df0f50000000000000000000000000000000000000000000000000000000081529051929350600092600160a060020a039092169163182df0f591600480820192602092909190829003018186803b1580156107d857600080fd5b505afa1580156107ec573d6000803e3d6000fd5b505050506040513d602081101561080257600080fd5b50519050610810828261107c565b949350505050565b600054600160a060020a031633148061083b5750600154600160a060020a031633145b61087d576040805160e560020a62461bcd02815260206004820152601f6024820152600080516020611a2d833981519152604482015290519081900360640190fd5b6003546000546040805160e060020a6370a082310281523060048201529051600160a060020a039384169363a9059cbb93169184916370a0823191602480820192602092909190829003018186803b1580156108d857600080fd5b505afa1580156108ec573d6000803e3d6000fd5b505050506040513d602081101561090257600080fd5b5051604080517c010000000000000000000000000000000000000000000000000000000063ffffffff8616028152600160a060020a03909316600484015260248301919091525160448083019260209291908290030181600087803b15801561096a57600080fd5b505af115801561097e573d6000803e3d6000fd5b505050506040513d60208110156106f257600080fd5b600154600160a060020a031681565b60006105f0838363ffffffff61184916565b60006105f0838363ffffffff61188b16565b60006105f0838363ffffffff6118e816565b92915050565b60006105f0826109fd85670de0b6b3a764000063ffffffff6115c416565b9063ffffffff6118e816565b600080610a1685856105de565b9050610a3183610a2583610b4f565b9063ffffffff61188b16565b95945050505050565b6005546040805160e060020a6370a08231028152600160a060020a038481166004830152915160009392909216916370a0823191602480820192602092909190829003018186803b158015610a8e57600080fd5b505afa158015610aa2573d6000803e3d6000fd5b505050506040513d6020811015610ab857600080fd5b505192915050565b600354604080517f182df0f50000000000000000000000000000000000000000000000000000000081529051600092600160a060020a03169163182df0f5916004808301926020929190829003018186803b158015610b1e57600080fd5b505afa158015610b32573d6000803e3d6000fd5b505050506040513d6020811015610b4857600080fd5b5051905090565b60006109d982670de0b6b3a764000063ffffffff6118e816565b6003546040805160e060020a6370a08231028152600160a060020a038481166004830152915160009392909216916370a0823191602480820192602092909190829003018186803b158015610a8e57600080fd5b600054600160a060020a0316331480610be05750600154600160a060020a031633145b610c22576040805160e560020a62461bcd02815260206004820152601f6024820152600080516020611a2d833981519152604482015290519081900360640190fd5b600354600080546040805160e060020a6370a08231028152600160a060020a0392831660048201529051929391909116916370a0823191602480820192602092909190829003018186803b158015610c7957600080fd5b505afa158015610c8d573d6000803e3d6000fd5b505050506040513d6020811015610ca357600080fd5b5051600354600080546040805160e060020a6323b872dd028152600160a060020a03888116600483015292831660248201526044810186905290519495509216926323b872dd926064808201936020939283900390910190829087803b158015610d0c57600080fd5b505af1158015610d20573d6000803e3d6000fd5b505050506040513d6020811015610d3657600080fd5b5050600654600090610d5690600a906109fd90859063ffffffff6115c416565b9050838111610daf576040805160e560020a62461bcd02815260206004820152601260248201527f496e73756666696369656e742066756e64730000000000000000000000000000604482015290519081900360640190fd5b6005546040805160e060020a63a9059cbb028152600160a060020a038681166004830152602482018890529151919092169163a9059cbb9160448083019260209291908290030181600087803b158015610e0857600080fd5b505af1158015610e1c573d6000803e3d6000fd5b505050506040513d6020811015610e3257600080fd5b5060009050610e47828663ffffffff61184916565b90508015610e5957610e598185611620565b5050505050565b600054600160a060020a0316331480610e835750600154600160a060020a031633145b610ec5576040805160e560020a62461bcd02815260206004820152601f6024820152600080516020611a2d833981519152604482015290519081900360640190fd5b600655565b600054600160a060020a031681565b6000610810610ee885856110d4565b836110d4565b600054600160a060020a0316331480610f115750600154600160a060020a031633145b610f53576040805160e560020a62461bcd02815260206004820152601f6024820152600080516020611a2d833981519152604482015290519081900360640190fd5b6005546040805160e060020a63a9059cbb028152600160a060020a038481166004830152602482018690529151919092169163a9059cbb9160448083019260209291908290030181600087803b158015610fac57600080fd5b505af1158015610fc0573d6000803e3d6000fd5b505050506040513d6020811015610fd657600080fd5b50505050565b600054600160a060020a0316331480610fff5750600154600160a060020a031633145b611041576040805160e560020a62461bcd02815260206004820152601f6024820152600080516020611a2d833981519152604482015290519081900360640190fd5b600160a060020a03811615611079576001805473ffffffffffffffffffffffffffffffffffffffff1916600160a060020a0383161790555b50565b60008061108984846105de565b905061081081610b4f565b60006105f083836109df565b6000806110bb670de0b6b3a76400008563ffffffff6115c416565b905061081081846109df565b60008061108984846110a0565b6000806110e7848463ffffffff6115c416565b905060006110fd6706f05b59d3b200008361188b565b9050610a3181670de0b6b3a764000063ffffffff6118e816565b600354604080517fbd6d894d0000000000000000000000000000000000000000000000000000000081529051600092600160a060020a03169163bd6d894d916004808301926020929190829003018186803b158015610b1e57600080fd5b600054600160a060020a03163314806111985750600154600160a060020a031633145b6111da576040805160e560020a62461bcd02815260206004820152601f6024820152600080516020611a2d833981519152604482015290519081900360640190fd5b600354600080546040805160e060020a6323b872dd028152600160a060020a0387811660048301529283166024820152604481018690529051859492909216926323b872dd926064808401936020939083900390910190829087803b15801561124257600080fd5b505af1158015611256573d6000803e3d6000fd5b505050506040513d602081101561126c57600080fd5b505060065460009061128c90600a906109fd90859063ffffffff6115c416565b9050808581116112e6576040805160e560020a62461bcd02815260206004820152601260248201527f496e73756666696369656e742066756e64730000000000000000000000000000604482015290519081900360640190fd5b6005546040805160e060020a63a9059cbb028152600160a060020a038881166004830152602482018a90529151919092169163a9059cbb9160448083019260209291908290030181600087803b15801561133f57600080fd5b505af1158015611353573d6000803e3d6000fd5b505050506040513d602081101561136957600080fd5b506000905061137e828863ffffffff61184916565b90508015611390576113908187611620565b50505050505050565b600054600160a060020a03163314806113bc5750600154600160a060020a031633145b6113fe576040805160e560020a62461bcd02815260206004820152601f6024820152600080516020611a2d833981519152604482015290519081900360640190fd5b600354600080546040805160e060020a6323b872dd028152600160a060020a0387811660048301529283166024820152604481018690529051859492909216926323b872dd926064808401936020939083900390910190829087803b15801561146657600080fd5b505af115801561147a573d6000803e3d6000fd5b505050506040513d602081101561149057600080fd5b50506006546000906114b090600a906109fd90859063ffffffff6115c416565b6005546040805160e060020a63a9059cbb028152600160a060020a0388811660048301526024820185905291519394508493919092169163a9059cbb9160448083019260209291908290030181600087803b15801561150e57600080fd5b505af1158015611522573d6000803e3d6000fd5b505050506040513d602081101561139057600080fd5b600054600160a060020a03163314611588576040805160e560020a62461bcd02815260206004820152601f6024820152600080516020611a2d833981519152604482015290519081900360640190fd5b600160a060020a038116156110795760008054600160a060020a03831673ffffffffffffffffffffffffffffffffffffffff1990911617905550565b6000826115d3575060006109d9565b828202828482816115e057fe5b04146105f05760405160e560020a62461bcd028152600401808060200182810382526021815260200180611a4d6021913960400191505060405180910390fd5b60055460048054604080517f095ea7b3000000000000000000000000000000000000000000000000000000008152600160a060020a0392831693810193909352602483018690525192169163095ea7b3916044808201926020929091908290030181600087803b15801561169357600080fd5b505af11580156116a7573d6000803e3d6000fd5b505050506040513d60208110156116bd57600080fd5b5050600254600554604080517f47e7ef24000000000000000000000000000000000000000000000000000000008152600160a060020a03928316600482015260248101869052905191909216916347e7ef2491604480830192600092919082900301818387803b15801561173057600080fd5b505af1158015611744573d6000803e3d6000fd5b50506003546040805160e060020a6370a08231028152306004820152905160009450600160a060020a0390921692506370a08231916024808301926020929190829003018186803b15801561179857600080fd5b505afa1580156117ac573d6000803e3d6000fd5b505050506040513d60208110156117c257600080fd5b50516003546040805160e060020a63a9059cbb028152600160a060020a03868116600483015260248201859052915193945091169163a9059cbb916044808201926020929091908290030181600087803b15801561181f57600080fd5b505af1158015611833573d6000803e3d6000fd5b505050506040513d6020811015610e5957600080fd5b60006105f083836040518060400160405280601e81526020017f536166654d6174683a207375627472616374696f6e206f766572666c6f77000081525061192a565b6000828201838110156105f0576040805160e560020a62461bcd02815260206004820152601b60248201527f536166654d6174683a206164646974696f6e206f766572666c6f770000000000604482015290519081900360640190fd5b60006105f083836040518060400160405280601a81526020017f536166654d6174683a206469766973696f6e206279207a65726f0000000000008152506119c4565b600081848411156119bc5760405160e560020a62461bcd0281526004018080602001828103825283818151815260200191508051906020019080838360005b83811015611981578181015183820152602001611969565b50505050905090810190601f1680156119ae5780820380516001836020036101000a031916815260200191505b509250505060405180910390fd5b505050900390565b60008183611a165760405160e560020a62461bcd028152602060048201818152835160248401528351909283926044909101919085019080838360008315611981578181015183820152602001611969565b506000838581611a2257fe5b049594505050505056fe556e617574686f72697a65642061636365737320746f20636f6e747261637400536166654d6174683a206d756c7469706c69636174696f6e206f766572666c6f77a26469706673582212200631293769febf493ecfda24e9b87fa776f295e7a355809ad5427b045da62b9264736f6c63430006060033",
  "immutableReferences": {},
  "source": "pragma solidity >=0.6.6;\r\n \r\nimport \"../IBank.sol\";\r\nimport \"../IFToken.sol\";\r\nimport \"../IBankController.sol\";\r\nimport \"../IBEP20.sol\";\r\nimport \"../SafeMath.sol\";\r\nimport \"./OwnableService.sol\";\r\nimport \"./Exponential.sol\";\r\n \r\ncontract FortubeBankAdapterHack is OwnableService, Exponential {\r\n \r\n    using SafeMath for uint256;\r\n \r\n \r\n    IBank _bank;\r\n    IFToken _fBUSD;  //  BUSD shares\r\n    IBankController _bankController;\r\n    IBEP20 _BUSD = IBEP20(0x3b1F033dD955f3BE8649Cc9825A2e3E194765a3F);  // This is a custom BUSD for ForTube, you will not find it on BSC Faucet\r\n    uint _exchangeRate;\r\n \r\n \r\n    constructor(address payable serviceContract) public OwnableService(serviceContract){\r\n        _bank = IBank(0xbFFEdF7F10fcD4255F1F622aDBc8CCDC9D5bAd9e);\r\n        _fBUSD = IFToken(0x6112a45160b2058C6402a5bfBE3A446c8fD4fb45);\r\n        _bankController = IBankController(0x92fcF9F805AAF8e97482B86995C4e9EA16D9e2Bb);\r\n        _exchangeRate = 15; //  Can be updated by owner\r\n    }\r\n \r\n \r\n    /*\r\n        account: this is the owner of the BUSD token\r\n    */\r\n    function Save(uint256 amount, address account)\r\n        public\r\n        onlyOwnerAndServiceContract\r\n    {\r\n \r\n        //  Ensure the account has given this contract approval to spend on his/her behalf\r\n        //  Transfer from the account to this contract\r\n        _BUSD.transferFrom(account, address(this),amount);\r\n \r\n        //  This gives the Bank contract approval to invest our BUSD\r\n        _save(amount, account);\r\n    }\r\n \r\n \r\n    /**\r\n        This is an internal function that invests the user's token into ForTube Bank \r\n    */\r\n    function _save(uint256 amount, address account) internal {\r\n \r\n        //  Approve Bank Controller Contract to be able to spend BUSD in this contract\r\n        _BUSD.approve(address(_bankController),amount);\r\n \r\n        //  deposit the BUSD on ForTube's Bank contract\r\n        _bank.deposit(address(_BUSD),amount);\r\n \r\n        //  call balanceOf and get the total balance of fBUSD in this contract\r\n        uint256 shares = _fBUSD.balanceOf(address(this));\r\n \r\n        //  transfer the fBUSD shares to the user's address\r\n        _fBUSD.transfer(account, shares);\r\n \r\n    }\r\n \r\n \r\n \r\n \r\n    function Withdraw(uint256 amount, address member) public onlyOwnerAndServiceContract\r\n    {\r\n        //  To withdraw our DAI amount, the amount argument is in DAI but the withdraw function of the yDAI expects amount in yDAI token\r\n        //  So we need to find our balance in yDAI\r\n \r\n        uint256 balanceShares = _fBUSD.balanceOf(owner);\r\n \r\n        //  Ensure the owner has given this contract approval to spend his/her fBUSD\r\n        //  transfer fBUSD From owner to this contract address\r\n        _fBUSD.transferFrom(member, owner, balanceShares);\r\n \r\n \r\n        //  --- The magic starts here ----\r\n \r\n        //  Get the BUSD Amount at the current exchangeRate\r\n        uint BUSDAmount = balanceShares.mul(_exchangeRate).div(10);\r\n \r\n        //  We now call the withdraw function to withdraw the total BUSD based on the fBUSD amount passed. This withdrawal is sent to this smart contract\r\n        //_bank.withdraw(address(_BUSD),balanceShares); // code change\r\n \r\n \r\n        //  Check the amount of BUSD when exchange rate is applied to fBUSD shares is greater than amount to withdraw so the user does not steal all our BUSD in the contract\r\n        require(BUSDAmount > amount, \"Insufficient funds\");\r\n \r\n        //  Now all the BUSD we have are in the smart contract wallet, we can now transfer the specified amount to a recipient of our choice\r\n        _BUSD.transfer(member, amount);\r\n \r\n \r\n        //  If we have some BUSD left after transferring a specified amount to a recipient, we can re-invest it in ForTube Bank\r\n        // uint256 BUSDBalance = _BUSD.balanceOf(address(this)); // code change\r\n \r\n        uint256 BUSDBalance = BUSDAmount.sub(amount);\r\n \r\n        //  --- The magic ends here ----\r\n \r\n        if (BUSDBalance > 0) {\r\n            //  This gives the yDAI contract approval to invest our DAI\r\n            _save(BUSDBalance, member);\r\n        }\r\n    }\r\n \r\n       /*\r\n        this function withdraws all the dai to this contract based on the sharesAmount passed\r\n    */\r\n    function WithdrawBySharesOnly(address member, uint256 sharesAmount)\r\n        public\r\n        onlyOwnerAndServiceContract\r\n    {\r\n        uint256 balanceShares = sharesAmount;\r\n \r\n        //  transfer fBUSD From owner to this contract address\r\n        _fBUSD.transferFrom(member, owner, balanceShares);\r\n \r\n \r\n        //  --- The magic starts here ----\r\n \r\n        //  Get the BUSD Amount at the current exchangeRate\r\n        uint BUSDAmount =  balanceShares.mul(_exchangeRate).div(10);\r\n \r\n        //  We now call the withdraw function to withdraw the total BUSD we have. This withdrawal is sent to this smart contract\r\n        // _bank.withdraw(address(_BUSD),balanceShares);    //  code change\r\n \r\n        // uint256 contractBUSDBalance = _BUSD.balanceOf(address(this));    //  code change\r\n        uint256 contractBUSDBalance = BUSDAmount;\r\n \r\n        //  --- The magic ends here ----\r\n \r\n \r\n        //  Now all the BUSD we have are in the smart contract wallet, we can now transfer the total amount to the recipient\r\n        _BUSD.transfer(member, contractBUSDBalance);\r\n \r\n        //  We do not have any dai left in this contract so nothing to re-invest\r\n \r\n    }\r\n \r\n    function WithdrawByShares(\r\n        uint256 amount,\r\n        address member,\r\n        uint256 sharesAmount\r\n    ) public onlyOwnerAndServiceContract {\r\n        //  To withdraw our BUSD amount, the amount argument is in BUSD but the withdraw function of the fBUSD expects amount in fBUSD token\r\n \r\n        uint256 balanceShares = sharesAmount;\r\n \r\n        //  transfer fBUSD From owner to this contract address\r\n        _fBUSD.transferFrom(member, owner, balanceShares);\r\n \r\n \r\n        //  --- The magic starts here ----\r\n \r\n        uint result = balanceShares.mul(_exchangeRate).div(10);\r\n \r\n        //  Get the BUSD Amount at the current exchangeRate\r\n        uint BUSDAmount = result;\r\n \r\n        //  We now call the withdraw function to withdraw the total BUSD we have. This withdrawal is sent to this smart contract\r\n        // _bank.withdraw(address(_BUSD),balanceShares);    //  Code change\r\n \r\n \r\n        //  Check the amount of BUSD when exchange rate is applied to fBUSD shares is greater than amount to withdraw so the user does not steal all our BUSD in the contract\r\n        require(BUSDAmount > amount, \"Insufficient funds\");\r\n \r\n        //  Now all the BUSD we have are in the smart contract wallet, we can now transfer the specified amount to a recipient of our choice\r\n        _BUSD.transfer(member, amount);\r\n \r\n \r\n        //  If we have some BUSD left after transferring a specified amount to a recipient, we can re-invest it in ForTube Bank\r\n        // uint256 BUSDBalance = _BUSD.balanceOf(address(this));    //  Code Change\r\n \r\n        uint256 BUSDBalance = BUSDAmount.sub(amount);\r\n \r\n        if (BUSDBalance > 0) {\r\n            //  This gives the yDAI contract approval to invest our DAI\r\n            _save(BUSDBalance, member);\r\n        }\r\n    }\r\n    \r\n    function TransferCapitalBack (uint depositAmount, address member) external onlyOwnerAndServiceContract {\r\n            _BUSD.transfer(member, depositAmount);\r\n    }\r\n    function GetBUSDBalance(address member) external view returns(uint){\r\n        return _BUSD.balanceOf(member);\r\n    }\r\n \r\n    function GetFBUSDBalance(address member) external view returns(uint){\r\n        return _fBUSD.balanceOf(member);\r\n    }\r\n \r\n        /**\r\n        Gets the total BUSD the user has earned \r\n \r\n        Total BUSD = price per fBUSD * _fBUSD.balanceOf(this)\r\n \r\n        This gives us the amount we deposited plus interest accrued\r\n    */\r\n \r\n \r\n    function CalculateTotalBUSDEarned(address member) external view returns (uint256 exchangeRate){\r\n \r\n        uint fBUSDBalance = _fBUSD.balanceOf(member);\r\n        uint currentPricePerFullShareOfFBUSD = _fBUSD.exchangeRateStored();\r\n        return mulScalarTruncate(fBUSDBalance,currentPricePerFullShareOfFBUSD);\r\n    }\r\n \r\n \r\n        /**\r\n        Gets the price per full share for the respective fToken \r\n    */\r\n    function ExchangeRateCurrentBUSD() external view returns (uint exchangeRate){\r\n        return _fBUSD.exchangeRateCurrent();\r\n    }\r\n \r\n    function ExchangeRateStoredBUSD() external view returns (uint exchangeRate){\r\n        return _fBUSD.exchangeRateStored();\r\n    }\r\n \r\n    /**\r\n     *  This function sets the rate at which fBUSD is converted to BUSD\r\n        Rate value - 1.5; We have to use 15 and later divide by 10\r\n        e.g 1 fBUSD = 1.5 BUSD\r\n \r\n    */\r\n    function SetExchangeRateSell(uint rate) external onlyOwnerAndServiceContract {\r\n \r\n        _exchangeRate = rate;\r\n    }\r\n \r\n\r\n \r\n    //  Cashout the fBUSD stored here to the owner just for keeps\r\n    function CashoutShares() external onlyOwnerAndServiceContract{\r\n        _fBUSD.transfer(owner,_fBUSD.balanceOf(address(this)));\r\n    }\r\n}",
  "sourcePath": "C:\\Users\\MKOPA\\Documents\\WORK\\UGARSOFT\\yearn-savings\\yearnbsc\\contracts\\Fortube\\ForTubeBankAdapterHack.sol",
  "compiler": {
    "name": "solc",
    "version": "0.6.6+commit.6c089d02.Emscripten.clang"
  },
  "schemaVersion": "3.3.4",
  "updatedAt": "2021-03-29T22:53:16.558Z",
  "devdoc": {
    "methods": {}
  },
  "userdoc": {
    "methods": {
      "CalculateTotalBUSDEarned(address)": {
        "notice": "Gets the total BUSD the user has earned  Total BUSD = price per fBUSD * _fBUSD.balanceOf(this) This gives us the amount we deposited plus interest accrued"
      },
      "ExchangeRateCurrentBUSD()": {
        "notice": "Gets the price per full share for the respective fToken "
      },
      "SetExchangeRateSell(uint256)": {
        "notice": "This function sets the rate at which fBUSD is converted to BUSD Rate value - 1.5; We have to use 15 and later divide by 10 e.g 1 fBUSD = 1.5 BUSD"
      }
    }
  }
}