{
  "contractName": "Groups",
  "abi": [
    {
      "inputs": [
        {
          "internalType": "address",
          "name": "oracle",
          "type": "address"
        }
      ],
      "name": "activateStorageOracle",
      "outputs": [],
      "stateMutability": "nonpayable",
      "type": "function"
    },
    {
      "inputs": [
        {
          "internalType": "address",
          "name": "oracle",
          "type": "address"
        }
      ],
      "name": "deactivateStorageOracle",
      "outputs": [],
      "stateMutability": "nonpayable",
      "type": "function"
    },
    {
      "inputs": [
        {
          "internalType": "address",
          "name": "newOracle",
          "type": "address"
        }
      ],
      "name": "reAssignStorageOracle",
      "outputs": [],
      "stateMutability": "nonpayable",
      "type": "function"
    },
    {
      "inputs": [
        {
          "internalType": "address payable",
          "name": "newOwner",
          "type": "address"
        }
      ],
      "name": "transferOwnership",
      "outputs": [],
      "stateMutability": "nonpayable",
      "type": "function"
    },
    {
      "inputs": [],
      "name": "getLengthOfTokenAddressesUsedInDeposit",
      "outputs": [
        {
          "internalType": "uint256",
          "name": "",
          "type": "uint256"
        }
      ],
      "stateMutability": "view",
      "type": "function"
    },
    {
      "inputs": [
        {
          "internalType": "address payable",
          "name": "receiverAddress",
          "type": "address"
        }
      ],
      "name": "getXendTokensReward",
      "outputs": [
        {
          "internalType": "uint256",
          "name": "",
          "type": "uint256"
        }
      ],
      "stateMutability": "view",
      "type": "function"
    },
    {
      "inputs": [
        {
          "internalType": "address payable",
          "name": "receiverAddress",
          "type": "address"
        },
        {
          "internalType": "uint256",
          "name": "amount",
          "type": "uint256"
        }
      ],
      "name": "setXendTokensReward",
      "outputs": [],
      "stateMutability": "nonpayable",
      "type": "function"
    },
    {
      "inputs": [
        {
          "internalType": "address",
          "name": "tokenAddress",
          "type": "address"
        },
        {
          "internalType": "uint256",
          "name": "amount",
          "type": "uint256"
        }
      ],
      "name": "incrementTokenDeposit",
      "outputs": [
        {
          "internalType": "uint256",
          "name": "",
          "type": "uint256"
        }
      ],
      "stateMutability": "nonpayable",
      "type": "function"
    },
    {
      "inputs": [
        {
          "internalType": "address",
          "name": "tokenAddress",
          "type": "address"
        },
        {
          "internalType": "uint256",
          "name": "amount",
          "type": "uint256"
        }
      ],
      "name": "decrementTokenDeposit",
      "outputs": [
        {
          "internalType": "uint256",
          "name": "",
          "type": "uint256"
        }
      ],
      "stateMutability": "nonpayable",
      "type": "function"
    },
    {
      "inputs": [
        {
          "internalType": "address",
          "name": "tokenAddress",
          "type": "address"
        }
      ],
      "name": "getTokenDeposit",
      "outputs": [
        {
          "internalType": "uint256",
          "name": "",
          "type": "uint256"
        }
      ],
      "stateMutability": "view",
      "type": "function"
    },
    {
      "inputs": [
        {
          "internalType": "uint256",
          "name": "amount",
          "type": "uint256"
        }
      ],
      "name": "incrementEtherDeposit",
      "outputs": [
        {
          "internalType": "uint256",
          "name": "",
          "type": "uint256"
        }
      ],
      "stateMutability": "nonpayable",
      "type": "function"
    },
    {
      "inputs": [
        {
          "internalType": "uint256",
          "name": "amount",
          "type": "uint256"
        }
      ],
      "name": "decrementEtherDeposit",
      "outputs": [
        {
          "internalType": "uint256",
          "name": "",
          "type": "uint256"
        }
      ],
      "stateMutability": "nonpayable",
      "type": "function"
    },
    {
      "inputs": [],
      "name": "getEtherDeposit",
      "outputs": [
        {
          "internalType": "uint256",
          "name": "",
          "type": "uint256"
        }
      ],
      "stateMutability": "view",
      "type": "function"
    },
    {
      "inputs": [
        {
          "internalType": "address payable",
          "name": "depositor",
          "type": "address"
        }
      ],
      "name": "createMember",
      "outputs": [],
      "stateMutability": "nonpayable",
      "type": "function"
    },
    {
      "inputs": [
        {
          "internalType": "address",
          "name": "_address",
          "type": "address"
        }
      ],
      "name": "getMember",
      "outputs": [
        {
          "internalType": "address",
          "name": "",
          "type": "address"
        }
      ],
      "stateMutability": "view",
      "type": "function"
    },
    {
      "inputs": [
        {
          "internalType": "string",
          "name": "name",
          "type": "string"
        },
        {
          "internalType": "string",
          "name": "symbol",
          "type": "string"
        },
        {
          "internalType": "address",
          "name": "groupCreator",
          "type": "address"
        }
      ],
      "name": "createGroup",
      "outputs": [
        {
          "internalType": "uint256",
          "name": "",
          "type": "uint256"
        }
      ],
      "stateMutability": "nonpayable",
      "type": "function"
    },
    {
      "inputs": [
        {
          "internalType": "uint256",
          "name": "id",
          "type": "uint256"
        },
        {
          "internalType": "string",
          "name": "name",
          "type": "string"
        },
        {
          "internalType": "string",
          "name": "symbol",
          "type": "string"
        },
        {
          "internalType": "address payable",
          "name": "creatorAddress",
          "type": "address"
        }
      ],
      "name": "updateGroup",
      "outputs": [],
      "stateMutability": "nonpayable",
      "type": "function"
    },
    {
      "inputs": [
        {
          "internalType": "string",
          "name": "groupName",
          "type": "string"
        }
      ],
      "name": "doesGroupExist",
      "outputs": [
        {
          "internalType": "bool",
          "name": "",
          "type": "bool"
        }
      ],
      "stateMutability": "view",
      "type": "function"
    },
    {
      "inputs": [
        {
          "internalType": "uint256",
          "name": "groupId",
          "type": "uint256"
        }
      ],
      "name": "doesGroupExist",
      "outputs": [
        {
          "internalType": "bool",
          "name": "",
          "type": "bool"
        }
      ],
      "stateMutability": "view",
      "type": "function"
    },
    {
      "inputs": [
        {
          "internalType": "address",
          "name": "depositor",
          "type": "address"
        }
      ],
      "name": "doesMemberExist",
      "outputs": [
        {
          "internalType": "bool",
          "name": "",
          "type": "bool"
        }
      ],
      "stateMutability": "view",
      "type": "function"
    },
    {
      "inputs": [
        {
          "internalType": "uint256",
          "name": "groupId",
          "type": "uint256"
        },
        {
          "internalType": "address payable",
          "name": "depositor",
          "type": "address"
        }
      ],
      "name": "createGroupMember",
      "outputs": [],
      "stateMutability": "nonpayable",
      "type": "function"
    },
    {
      "inputs": [
        {
          "internalType": "uint256",
          "name": "index",
          "type": "uint256"
        }
      ],
      "name": "getGroupMember",
      "outputs": [
        {
          "internalType": "address payable",
          "name": "_address",
          "type": "address"
        },
        {
          "internalType": "uint256",
          "name": "groupId",
          "type": "uint256"
        }
      ],
      "stateMutability": "view",
      "type": "function"
    },
    {
      "inputs": [
        {
          "internalType": "uint256",
          "name": "groupId",
          "type": "uint256"
        },
        {
          "internalType": "address",
          "name": "depositor",
          "type": "address"
        }
      ],
      "name": "getGroupMembersDeepIndexer",
      "outputs": [
        {
          "internalType": "bool",
          "name": "exists",
          "type": "bool"
        },
        {
          "internalType": "uint256",
          "name": "index",
          "type": "uint256"
        }
      ],
      "stateMutability": "view",
      "type": "function"
    },
    {
      "inputs": [
        {
          "internalType": "uint256",
          "name": "groupId",
          "type": "uint256"
        }
      ],
      "name": "getRecordIndexLengthForGroupMembersIndexer",
      "outputs": [
        {
          "internalType": "uint256",
          "name": "",
          "type": "uint256"
        }
      ],
      "stateMutability": "view",
      "type": "function"
    },
    {
      "inputs": [
        {
          "internalType": "address",
          "name": "depositor",
          "type": "address"
        }
      ],
      "name": "getRecordIndexLengthForGroupMembersIndexerByDepositor",
      "outputs": [
        {
          "internalType": "uint256",
          "name": "",
          "type": "uint256"
        }
      ],
      "stateMutability": "view",
      "type": "function"
    },
    {
      "inputs": [
        {
          "internalType": "uint256",
          "name": "groupId",
          "type": "uint256"
        },
        {
          "internalType": "uint256",
          "name": "indexerLocation",
          "type": "uint256"
        }
      ],
      "name": "getGroupMembersIndexer",
      "outputs": [
        {
          "internalType": "bool",
          "name": "exist",
          "type": "bool"
        },
        {
          "internalType": "uint256",
          "name": "index",
          "type": "uint256"
        }
      ],
      "stateMutability": "view",
      "type": "function"
    },
    {
      "inputs": [
        {
          "internalType": "address",
          "name": "depositor",
          "type": "address"
        },
        {
          "internalType": "uint256",
          "name": "indexerLocation",
          "type": "uint256"
        }
      ],
      "name": "getGroupMembersIndexerByDepositor",
      "outputs": [
        {
          "internalType": "bool",
          "name": "exist",
          "type": "bool"
        },
        {
          "internalType": "uint256",
          "name": "index",
          "type": "uint256"
        }
      ],
      "stateMutability": "view",
      "type": "function"
    },
    {
      "inputs": [
        {
          "internalType": "uint256",
          "name": "groupId",
          "type": "uint256"
        },
        {
          "internalType": "address",
          "name": "depositor",
          "type": "address"
        }
      ],
      "name": "doesGroupMemberExist",
      "outputs": [
        {
          "internalType": "bool",
          "name": "",
          "type": "bool"
        }
      ],
      "stateMutability": "view",
      "type": "function"
    },
    {
      "inputs": [
        {
          "internalType": "uint256",
          "name": "groupId",
          "type": "uint256"
        }
      ],
      "name": "getGroupIndexer",
      "outputs": [
        {
          "internalType": "bool",
          "name": "exist",
          "type": "bool"
        },
        {
          "internalType": "uint256",
          "name": "index",
          "type": "uint256"
        }
      ],
      "stateMutability": "view",
      "type": "function"
    },
    {
      "inputs": [
        {
          "internalType": "address",
          "name": "groupCreator",
          "type": "address"
        }
      ],
      "name": "getRecordIndexLengthForCreator",
      "outputs": [
        {
          "internalType": "uint256",
          "name": "",
          "type": "uint256"
        }
      ],
      "stateMutability": "view",
      "type": "function"
    },
    {
      "inputs": [
        {
          "internalType": "address",
          "name": "groupCreator",
          "type": "address"
        },
        {
          "internalType": "uint256",
          "name": "indexerLocation",
          "type": "uint256"
        }
      ],
      "name": "getGroupForCreatorIndexer",
      "outputs": [
        {
          "internalType": "bool",
          "name": "exist",
          "type": "bool"
        },
        {
          "internalType": "uint256",
          "name": "index",
          "type": "uint256"
        }
      ],
      "stateMutability": "view",
      "type": "function"
    },
    {
      "inputs": [
        {
          "internalType": "string",
          "name": "groupName",
          "type": "string"
        }
      ],
      "name": "getGroupIndexerByName",
      "outputs": [
        {
          "internalType": "bool",
          "name": "exist",
          "type": "bool"
        },
        {
          "internalType": "uint256",
          "name": "index",
          "type": "uint256"
        }
      ],
      "stateMutability": "view",
      "type": "function"
    },
    {
      "inputs": [
        {
          "internalType": "uint256",
          "name": "groupId",
          "type": "uint256"
        }
      ],
      "name": "getGroupById",
      "outputs": [
        {
          "internalType": "uint256",
          "name": "",
          "type": "uint256"
        },
        {
          "internalType": "string",
          "name": "",
          "type": "string"
        },
        {
          "internalType": "string",
          "name": "",
          "type": "string"
        },
        {
          "internalType": "address payable",
          "name": "",
          "type": "address"
        }
      ],
      "stateMutability": "view",
      "type": "function"
    },
    {
      "inputs": [
        {
          "internalType": "uint256",
          "name": "index",
          "type": "uint256"
        }
      ],
      "name": "getGroupByIndex",
      "outputs": [
        {
          "internalType": "uint256",
          "name": "",
          "type": "uint256"
        },
        {
          "internalType": "string",
          "name": "",
          "type": "string"
        },
        {
          "internalType": "string",
          "name": "",
          "type": "string"
        },
        {
          "internalType": "address payable",
          "name": "",
          "type": "address"
        }
      ],
      "stateMutability": "view",
      "type": "function"
    },
    {
      "inputs": [],
      "name": "getGroupsLength",
      "outputs": [
        {
          "internalType": "uint256",
          "name": "length",
          "type": "uint256"
        }
      ],
      "stateMutability": "view",
      "type": "function"
    },
    {
      "inputs": [
        {
          "internalType": "uint256",
          "name": "groupId",
          "type": "uint256"
        }
      ],
      "name": "getGroupIndex",
      "outputs": [
        {
          "internalType": "uint256",
          "name": "",
          "type": "uint256"
        }
      ],
      "stateMutability": "view",
      "type": "function"
    }
  ],
  "bytecode": "0x608060405260008054600160a060020a03191633179055612209806100256000396000f3fe608060405234801561001057600080fd5b5060043610610239576000357c0100000000000000000000000000000000000000000000000000000000900480635e82c389116101425780638edb1a06116100ca578063d73c9de411610099578063d73c9de41461099c578063daf0cf43146109dc578063e5705a68146109ff578063e824f2b514610a2b578063f2fde38b14610a5757610239565b80638edb1a061461087d5780639a259798146108a3578063c12c8ac21461096e578063d1f442781461099457610239565b80636d3524f5116101115780636d3524f5146107f55780636f583ba6146107fd57806380abc21a1461082357806381ea68fe1461082b5780638c2248261461085157610239565b80635e82c389146106c35780636041fc88146107955780636b2c46d5146107bb5780636cc29ea0146107d857610239565b80632e367f9f116101c55780634448d5e1116101945780634448d5e1146105d0578063458a8c07146105fc57806348c889231461066c57806348cf9e5c1461068957806352bc00c4146106a657610239565b80632e367f9f146104465780633037faf1146104725780633525e9c41461058d5780633ac179f8146105b357610239565b80630fdf80ed1161020c5780630fdf80ed14610363578063165301a5146103895780632124d529146103af5780632ada2596146103d55780632bd10bbc1461041757610239565b806308099b5d1461023e57806309080945146102c95780630c202741146102f55780630d15c07d14610323575b600080fd5b6102ae6004803603602081101561025457600080fd5b81019060208101813564010000000081111561026f57600080fd5b82018360208201111561028157600080fd5b803590602001918460018302840111640100000000831117156102a357600080fd5b509092509050610a7d565b60408051921515835260208301919091528051918290030190f35b6102ae600480360360408110156102df57600080fd5b5080359060200135600160a060020a0316610ad6565b6103216004803603604081101561030b57600080fd5b5080359060200135600160a060020a0316610b2d565b005b61034f6004803603604081101561033957600080fd5b5080359060200135600160a060020a0316610d62565b604080519115158252519081900360200190f35b6103216004803603602081101561037957600080fd5b5035600160a060020a0316610d75565b61034f6004803603602081101561039f57600080fd5b5035600160a060020a0316610e04565b610321600480360360208110156103c557600080fd5b5035600160a060020a0316610e17565b6103fb600480360360208110156103eb57600080fd5b5035600160a060020a0316610fb0565b60408051600160a060020a039092168252519081900360200190f35b6104346004803603602081101561042d57600080fd5b503561100e565b60408051918252519081900360200190f35b6104346004803603604081101561045c57600080fd5b50600160a060020a0381351690602001356110b9565b61048f6004803603602081101561048857600080fd5b5035611194565b60405180858152602001806020018060200184600160a060020a0316600160a060020a03168152602001838103835286818151815260200191508051906020019080838360005b838110156104ee5781810151838201526020016104d6565b50505050905090810190601f16801561051b5780820380516001836020036101000a031916815260200191505b50838103825285518152855160209182019187019080838360005b8381101561054e578181015183820152602001610536565b50505050905090810190601f16801561057b5780820380516001836020036101000a031916815260200191505b50965050505050505060405180910390f35b610434600480360360208110156105a357600080fd5b5035600160a060020a03166111b3565b610434600480360360208110156105c957600080fd5b50356111ce565b6102ae600480360360408110156105e657600080fd5b50600160a060020a0381351690602001356111e0565b61034f6004803603602081101561061257600080fd5b81019060208101813564010000000081111561062d57600080fd5b82018360208201111561063f57600080fd5b8035906020019184600183028401116401000000008311171561066157600080fd5b50909250905061124e565b6102ae6004803603602081101561068257600080fd5b503561128f565b6104346004803603602081101561069f57600080fd5b50356112d1565b610434600480360360208110156106bc57600080fd5b50356112dc565b610321600480360360808110156106d957600080fd5b813591908101906040810160208201356401000000008111156106fb57600080fd5b82018360208201111561070d57600080fd5b8035906020019184600183028401116401000000008311171561072f57600080fd5b91939092909160208101903564010000000081111561074d57600080fd5b82018360208201111561075f57600080fd5b8035906020019184600183028401116401000000008311171561078157600080fd5b919350915035600160a060020a0316611343565b610321600480360360208110156107ab57600080fd5b5035600160a060020a031661144f565b61034f600480360360208110156107d157600080fd5b50356114c0565b61048f600480360360208110156107ee57600080fd5b50356114cb565b61043461165d565b6103216004803603602081101561081357600080fd5b5035600160a060020a0316611664565b6104346116db565b6104346004803603602081101561084157600080fd5b5035600160a060020a03166116e1565b6104346004803603604081101561086757600080fd5b50600160a060020a0381351690602001356116fc565b6104346004803603602081101561089357600080fd5b5035600160a060020a03166117f1565b610434600480360360608110156108b957600080fd5b8101906020810181356401000000008111156108d457600080fd5b8201836020820111156108e657600080fd5b8035906020019184600183028401116401000000008311171561090857600080fd5b91939092909160208101903564010000000081111561092657600080fd5b82018360208201111561093857600080fd5b8035906020019184600183028401116401000000008311171561095a57600080fd5b919350915035600160a060020a031661180c565b6104346004803603602081101561098457600080fd5b5035600160a060020a0316611b97565b610434611bb2565b6109b9600480360360208110156109b257600080fd5b5035611bb8565b60408051600160a060020a03909316835260208301919091528051918290030190f35b6102ae600480360360408110156109f257600080fd5b5080359060200135611c20565b61032160048036036040811015610a1557600080fd5b50600160a060020a038135169060200135611c45565b6102ae60048036036040811015610a4157600080fd5b50600160a060020a038135169060200135611c8e565b61032160048036036020811015610a6d57600080fd5b5035600160a060020a0316611cbd565b600080610a88612014565b60058585604051808383808284379190910194855250506040805160209481900385018120818301909252815460ff1615158082526001909201549401849052989297509195505050505050565b600080610ae1612014565b5050506000918252600a60209081526040808420600160a060020a03939093168452918152918190208151808301909252805460ff161515808352600190910154919092018190529091565b3360009081526001602052604090205460ff1680610b83576040805160e560020a62461bcd02815260206004820152601f602482015260008051602061218c833981519152604482015290519081900360640190fd5b6000610b8f8484611d48565b90508015610be7576040805160e560020a62461bcd02815260206004820152601360248201527f47726f7570206d656d6265722065786973747300000000000000000000000000604482015290519081900360640190fd5b610bef612014565b5060408051808201909152600181526007546020820152610c0e61202b565b50604080516060810182526001808252600160a060020a0396871660208084018281528486018b815260008c815260088452878120805480880182559082528482208a516002928302909101805491151560ff199283161781558b87018051918a0191909155878452600987528a84208054808b0182559085528785208d519185020180549115159184169190911781558151908a01559e8352600a865289832096835295909452968720975188549015159085161788559a5196840196909655600780549384018155909452915192027fa66cc928b5edb82af9bd49922954155ab7b0942694bea4ce44661d9a8736c6888101805494519097166101000274ffffffffffffffffffffffffffffffffffffffff001993151594909216939093179190911617909355505090517fa66cc928b5edb82af9bd49922954155ab7b0942694bea4ce44661d9a8736c68990910155565b6000610d6e8383611d48565b9392505050565b3360009081526001602052604090205460ff1680610dcb576040805160e560020a62461bcd02815260206004820152601f602482015260008051602061218c833981519152604482015290519081900360640190fd5b50336000908152600160208190526040808320805460ff19908116909155600160a060020a039490941683529091208054909216179055565b6000610e0f82611d73565b90505b919050565b3360009081526001602052604090205460ff1680610e6d576040805160e560020a62461bcd02815260206004820152601f602482015260008051602061218c833981519152604482015290519081900360640190fd5b610e75612014565b506040805180820190915260018152600160a060020a03831660208201526000610e9e84611d73565b90508015610ef6576040805160e560020a62461bcd02815260206004820152601560248201527f4d656d62657220616c7265616479206578697374730000000000000000000000604482015290519081900360640190fd5b610efe612014565b50506040805180820182526001808252600b805460208085018281528285018455600093845287517f0175b7a638427703f0dbe7bb9bbf987a2551717b34e79f33b5b1008d1fa01db990930180549883015160ff19998a169415159490941774ffffffffffffffffffffffffffffffffffffffff001916610100600160a060020a0395861602179055989091168252600c90529290922090518154909316921515929092178255925192019190915550565b600080610fbc83611da9565b9050610fc6612014565b600b8281548110610fd357fe5b60009182526020918290206040805180820190915291015460ff8116151582526101009004600160a060020a03169101819052949350505050565b3360009081526001602052604081205460ff1680611064576040805160e560020a62461bcd02815260206004820152601f602482015260008051602061218c833981519152604482015290519081900360640190fd5b82600f5410156110a85760405160e560020a62461bcd0281526004018080602001828103825260288152602001806121ac6028913960400191505060405180910390fd5b5050600f8054919091039081905590565b3360009081526001602052604081205460ff168061110f576040805160e560020a62461bcd02815260206004820152601f602482015260008051602061218c833981519152604482015290519081900360640190fd5b600160a060020a0384166000908152601060205260409020548381101561116a5760405160e560020a62461bcd0281526004018080602001828103825260288152602001806121ac6028913960400191505060405180910390fd5b505050600160a060020a039190911660009081526010602052604090208054919091039081905590565b600060608060006111a485611e3f565b93509350935093509193509193565b600160a060020a031660009081526004602052604090205490565b60009081526008602052604090205490565b6000806111eb612014565b600160a060020a038516600090815260046020526040902080548590811061120f57fe5b600091825260209182902060408051808201909152600290920201805460ff161515808352600190910154919092018190529093509150509250929050565b6000610d6e83838080601f016020809104026020016040519081016040528093929190818152602001838380828437600092019190915250611eb292505050565b60008061129a612014565b5050506000908152600360209081526040918290208251808401909352805460ff1615158084526001909101549290910182905291565b6000610e0f82611f1f565b3360009081526001602052604081205460ff1680611332576040805160e560020a62461bcd02815260206004820152601f602482015260008051602061218c833981519152604482015290519081900360640190fd5b5050600f8054919091019081905590565b3360009081526001602052604090205460ff1680611399576040805160e560020a62461bcd02815260206004820152601f602482015260008051602061218c833981519152604482015290519081900360640190fd5b60006113a488611f1f565b90508686600283815481106113b557fe5b906000526020600020906005020160020191906113d392919061204b565b508484600283815481106113e357fe5b9060005260206000209060050201600301919061140192919061204b565b50826002828154811061141057fe5b906000526020600020906005020160040160006101000a815481600160a060020a030219169083600160a060020a031602179055505050505050505050565b600054600160a060020a0316331461149f576040805160e560020a62461bcd02815260206004820152601f602482015260008051602061218c833981519152604482015290519081900360640190fd5b600160a060020a03166000908152600160205260409020805460ff19169055565b6000610e0f82611fa2565b60006060806000806114dc86611f1f565b90506000600282815481106114ed57fe5b90600052602060002090600502019050806001015481600201826003018360040160009054906101000a9004600160a060020a0316828054600181600116156101000203166002900480601f0160208091040260200160405190810160405280929190818152602001828054600181600116156101000203166002900480156115b75780601f1061158c576101008083540402835291602001916115b7565b820191906000526020600020905b81548152906001019060200180831161159a57829003601f168201915b5050855460408051602060026001851615610100026000190190941693909304601f8101849004840282018401909252818152959850879450925084019050828280156116455780601f1061161a57610100808354040283529160200191611645565b820191906000526020600020905b81548152906001019060200180831161162857829003601f168201915b50505050509150955095509550955050509193509193565b6002545b90565b600054600160a060020a031633146116b4576040805160e560020a62461bcd02815260206004820152601f602482015260008051602061218c833981519152604482015290519081900360640190fd5b600160a060020a03166000908152600160208190526040909120805460ff19169091179055565b600e5490565b600160a060020a031660009081526009602052604090205490565b3360009081526001602052604081205460ff1680611752576040805160e560020a62461bcd02815260206004820152601f602482015260008051602061218c833981519152604482015290519081900360640190fd5b600160a060020a0384166000908152601060205260409020546117c857600e80546001810182556000919091527fbb7b4a454dc3493923482f07822329ed19e8244eff582cc204f8554c3620c3fd01805473ffffffffffffffffffffffffffffffffffffffff1916600160a060020a0386161790555b600160a060020a0384166000908152601060205260409020805484019081905591505092915050565b600160a060020a031660009081526010602052604090205490565b3360009081526001602052604081205460ff1680611862576040805160e560020a62461bcd02815260206004820152601f602482015260008051602061218c833981519152604482015290519081900360640190fd5b60006118a388888080601f016020809104026020016040519081016040528093929190818152602001838380828437600092019190915250611eb292505050565b905080156118fb576040805160e560020a62461bcd02815260206004820181905260248201527f47726f7570206e616d652068617320616c7265616479206265656e2075736564604482015290519081900360640190fd5b600d8054600101905561190c6120c9565b6040518060a00160405280600115158152602001600d5481526020018a8a8080601f016020809104026020016040519081016040528093929190818152602001838380828437600092019190915250505090825250604080516020601f8b0181900481028201810190925289815291810191908a908a9081908401838280828437600092019190915250505090825250600160a060020a0387166020909101526002549091506119ba612014565b506040805180820182526001808252602080830185905260028054928301815560005285517f405787fa12a823e0f2b7631cc41b3ba8828b3321ca811111fa75cd3aa3bb5ace6005909302928301805460ff1916911515919091178155868201517f405787fa12a823e0f2b7631cc41b3ba8828b3321ca811111fa75cd3aa3bb5acf840155938601518051939487949093611a7b937f405787fa12a823e0f2b7631cc41b3ba8828b3321ca811111fa75cd3aa3bb5ad0909101920190612103565b5060608201518051611a97916003840191602090910190612103565b50608091909101516004909101805473ffffffffffffffffffffffffffffffffffffffff1916600160a060020a03909216919091179055600d546000908152600360209081526040918290208351815460ff191690151517815590830151600191909101555181906005908d908d908083838082843791909101948552505060408051602094819003850190208551815460ff1990811691151591909117825595850151600191820155600160a060020a039c909c166000908152600485529081208054808e0182559082529084902086516002909202018054909516901515178455505091909101519601959095555050600d54979650505050505050565b600160a060020a031660009081526006602052604090205490565b600f5490565b600080611bc361202b565b60078481548110611bd057fe5b6000918252602091829020604080516060810182526002909302909101805460ff811615158452600160a060020a0361010090910416938301849052600101549101819052909350915050915091565b600080611c2b612014565b600085815260086020526040902080548590811061120f57fe5b600160a060020a038216600090815260066020526040902054611c6e908263ffffffff611fb716565b600160a060020a0390921660009081526006602052604090209190915550565b600080611c99612014565b600160a060020a038516600090815260096020526040902080548590811061120f57fe5b600054600160a060020a03163314611d0d576040805160e560020a62461bcd02815260206004820152601f602482015260008051602061218c833981519152604482015290519081900360640190fd5b600160a060020a03811615611d45576000805473ffffffffffffffffffffffffffffffffffffffff1916600160a060020a0383161790555b50565b6000918252600a60209081526040808420600160a060020a0393909316845291905290205460ff1690565b600160a060020a0381166000908152600c602052604081205460ff168015611d9f576001915050610e12565b6000915050610e12565b600160a060020a0381166000908152600c602052604081205460ff16801515600114611e1f576040805160e560020a62461bcd02815260206004820152601060248201527f4d656d626572206e6f7420666f756e6400000000000000000000000000000000604482015290519081900360640190fd5b5050600160a060020a03166000908152600c602052604090206001015490565b60025460009060609081908390858111611ea3576040805160e560020a62461bcd02815260206004820152600c60248201527f4f7574206f662072616e67650000000000000000000000000000000000000000604482015290519081900360640190fd5b6000600287815481106114ed57fe5b6000806005836040518082805190602001908083835b60208310611ee75780518252601f199092019160209182019101611ec8565b51815160209384036101000a600019018019909216911617905292019485525060405193849003019092205460ff1695945050505050565b60008181526003602052604081205460ff16801515600114611f8b576040805160e560020a62461bcd02815260206004820152600f60248201527f47726f7570206e6f7420666f756e640000000000000000000000000000000000604482015290519081900360640190fd5b505060009081526003602052604090206001015490565b60009081526003602052604090205460ff1690565b600082820183811015610d6e576040805160e560020a62461bcd02815260206004820152601b60248201527f536166654d6174683a206164646974696f6e206f766572666c6f770000000000604482015290519081900360640190fd5b604080518082019091526000808252602082015290565b604080516060810182526000808252602082018190529181019190915290565b828054600181600116156101000203166002900490600052602060002090601f016020900481019282601f1061208c5782800160ff198235161785556120b9565b828001600101855582156120b9579182015b828111156120b957823582559160200191906001019061209e565b506120c5929150612171565b5090565b6040518060a001604052806000151581526020016000815260200160608152602001606081526020016000600160a060020a031681525090565b828054600181600116156101000203166002900490600052602060002090601f016020900481019282601f1061214457805160ff19168380011785556120b9565b828001600101855582156120b9579182015b828111156120b9578251825591602001919060010190612156565b61166191905b808211156120c5576000815560010161217756fe756e617574686f72697a65642061636365737320746f20636f6e7472616374006465706f7369742062616c616e6365206f7665726472616674206973206e6f7420616c6c6f776564a26469706673582212207d0bcb9cbc7165c4148d6ce179ab946206b179db3c686e7cdad6432dffa8f47164736f6c63430006060033",
  "immutableReferences": {},
  "source": "pragma solidity ^0.6.0;\n\nimport \"./IGroupSchema.sol\";\nimport \"./StorageOwners.sol\";\nimport \"./SafeMath.sol\";\n\ncontract Groups is IGroupSchema, StorageOwners {\n    \n    using SafeMath for uint256;\n    // list of group records\n    Group[] private Groups;\n    //Mapping that enables ease of traversal of the group records\n    mapping(uint256 => RecordIndex) private GroupIndexer;\n\n    // Mapping that enables ease of traversal of groups created by an addressor\n    mapping(address => RecordIndex[]) private GroupForCreatorIndexer;\n\n    // indexes a group location using the group name\n    mapping(string => RecordIndex) private GroupIndexerByName;\n    \n    mapping(address => uint256) private XendTokensReward;\n\n\n    GroupMember[] GroupMembers;\n\n    //Mapping of a groups members. Key is the group id,\n    mapping(uint256 => RecordIndex[]) private GroupMembersIndexer;\n\n    mapping(address => RecordIndex[]) private GroupMembersIndexerByDepositor;\n    mapping(uint256 => mapping(address => RecordIndex))\n        private GroupMembersDeepIndexer;\n\n    // list of group records\n    Member[] private Members;\n\n    //Mapping that enables ease of traversal of the member records. key is the member address\n    mapping(address => RecordIndex) private MemberIndexer;\n\n    uint256 lastGroupId;\n\n    address[] tokenAddresses;\n    uint256 totalEthersDeposited;\n    mapping(address => uint256) totalTokensDeposited;\n\n    function getLengthOfTokenAddressesUsedInDeposit()\n        external\n        view\n        returns (uint256)\n    {\n        return tokenAddresses.length;\n    }\n    \n    function getXendTokensReward(address payable receiverAddress)\n        external\n        view\n        returns (uint256)\n    {\n        return XendTokensReward[receiverAddress];\n    }\n\n   function setXendTokensReward(\n        address payable receiverAddress,\n        uint256 amount\n    ) external {\n        XendTokensReward[receiverAddress] = XendTokensReward[receiverAddress]\n            .add(amount);\n    }\n    function incrementTokenDeposit(address tokenAddress, uint256 amount)\n        external\n        onlyStorageOracle\n        returns (uint256)\n    {\n        if (totalTokensDeposited[tokenAddress] == 0) {\n            tokenAddresses.push(tokenAddress);\n        }\n        totalTokensDeposited[tokenAddress] += amount;\n        return totalTokensDeposited[tokenAddress];\n    }\n\n    function decrementTokenDeposit(address tokenAddress, uint256 amount)\n        external\n        onlyStorageOracle\n        returns (uint256)\n    {\n        uint256 currentAmount = totalTokensDeposited[tokenAddress];\n        require(\n            currentAmount >= amount,\n            \"deposit balance overdraft is not allowed\"\n        );\n        totalTokensDeposited[tokenAddress] -= amount;\n        return totalTokensDeposited[tokenAddress];\n    }\n\n    function getTokenDeposit(address tokenAddress)\n        external\n        view\n        returns (uint256)\n    {\n        return totalTokensDeposited[tokenAddress];\n    }\n\n    function incrementEtherDeposit(uint256 amount)\n        external\n        onlyStorageOracle\n        returns (uint256)\n    {\n        totalEthersDeposited += amount;\n        return totalEthersDeposited;\n    }\n\n    function decrementEtherDeposit(uint256 amount)\n        external\n        onlyStorageOracle\n        returns (uint256)\n    {\n        require(\n            totalEthersDeposited >= amount,\n            \"deposit balance overdraft is not allowed\"\n        );\n        totalEthersDeposited -= amount;\n        return totalEthersDeposited;\n    }\n\n    function getEtherDeposit() external view returns (uint256) {\n        return totalEthersDeposited;\n    }\n\n    function createMember(address payable depositor)\n        external\n        onlyStorageOracle\n    {\n        Member memory member = Member(true, depositor);\n\n        bool exist = _doesMemberExist(depositor);\n\n        require(exist == false, \"Member already exists\");\n\n        RecordIndex memory recordIndex = RecordIndex(true, Members.length);\n\n        Members.push(member);\n        MemberIndexer[depositor] = recordIndex;\n    }\n\n    function getMember(address _address) external view returns (address) {\n        uint256 index = _getMemberIndex(_address);\n        Member memory member = Members[index];\n\n        return (member._address);\n    }\n\n    function _getMemberIndex(address _address) internal view returns (uint256) {\n        bool doesMemberExist = MemberIndexer[_address].exists;\n        require(doesMemberExist == true, \"Member not found\");\n\n        uint256 index = MemberIndexer[_address].index;\n        return index;\n    }\n\n    function createGroup(\n        string calldata name,\n        string calldata symbol,\n        address groupCreator\n    ) external onlyStorageOracle returns (uint256) {\n        bool exist = _doesGroupExist(name);\n        require(exist == false, \"Group name has already been used\");\n\n        lastGroupId += 1;\n        Group memory group = Group(\n            true,\n            lastGroupId,\n            name,\n            symbol,\n            payable(groupCreator)\n        );\n        uint256 index = Groups.length;\n        RecordIndex memory recordIndex = RecordIndex(true, index);\n        Groups.push(group);\n        GroupIndexer[lastGroupId] = recordIndex;\n        GroupIndexerByName[name] = recordIndex;\n        GroupForCreatorIndexer[groupCreator].push(recordIndex);\n\n        return lastGroupId;\n    }\n\n    function updateGroup(\n        uint256 id,\n        string calldata name,\n        string calldata symbol,\n        address payable creatorAddress\n    ) external onlyStorageOracle {\n        uint256 index = _getGroupIndex(id);\n        Groups[index].name = name;\n        Groups[index].symbol = symbol;\n        Groups[index].creatorAddress = creatorAddress;\n    }\n\n    function doesGroupExist(uint256 groupId) external view returns (bool) {\n        return _doesGroupExist(groupId);\n    }\n\n    function _doesGroupExist(uint256 groupId) internal view returns (bool) {\n        bool groupExist = GroupIndexer[groupId].exists;\n        return groupExist;\n    }\n\n    function doesGroupExist(string calldata groupName)\n        external\n        view\n        returns (bool)\n    {\n        return _doesGroupExist(groupName);\n    }\n\n    function _doesGroupExist(string memory groupName)\n        internal\n        view\n        returns (bool)\n    {\n        bool groupExist = GroupIndexerByName[groupName].exists;\n\n        return groupExist;\n    }\n\n    function doesMemberExist(address depositor) external view returns (bool) {\n        return _doesMemberExist(depositor);\n    }\n\n    function _doesMemberExist(address depositor) internal view returns (bool) {\n        bool exist = MemberIndexer[depositor].exists;\n\n        if (exist) return true;\n        else return false;\n    }\n\n    function createGroupMember(uint256 groupId, address payable depositor)\n        external\n        onlyStorageOracle\n    {\n        bool exist = _doesGroupMemberExist(groupId, depositor);\n        require(exist == false, \"Group member exists\");\n\n        RecordIndex memory recordIndex = RecordIndex(true, GroupMembers.length);\n\n        GroupMember memory groupMember = GroupMember(true, depositor, groupId);\n\n        GroupMembersIndexer[groupId].push(recordIndex);\n        GroupMembersIndexerByDepositor[depositor].push(recordIndex);\n        GroupMembersDeepIndexer[groupId][depositor] = recordIndex;\n        GroupMembers.push(groupMember);\n    }\n\n    function getGroupMember(uint256 index)\n        external\n        view\n        returns (address payable _address, uint256 groupId)\n    {\n        GroupMember memory groupMember = GroupMembers[index];\n        return (groupMember._address, groupMember.groupId);\n    }\n\n    function getGroupMembersDeepIndexer(uint256 groupId, address depositor)\n        external\n        view\n        returns (bool exists, uint256 index)\n    {\n\n            RecordIndex memory recordIndex\n         = GroupMembersDeepIndexer[groupId][depositor];\n        return (recordIndex.exists, recordIndex.index);\n    }\n\n    function getRecordIndexLengthForGroupMembersIndexer(uint256 groupId)\n        external\n        view\n        returns (uint256)\n    {\n        return GroupMembersIndexer[groupId].length;\n    }\n\n    function getRecordIndexLengthForGroupMembersIndexerByDepositor(\n        address depositor\n    ) external view returns (uint256) {\n        return GroupMembersIndexerByDepositor[depositor].length;\n    }\n\n    function getGroupMembersIndexer(uint256 groupId, uint256 indexerLocation)\n        external\n        view\n        returns (bool exist, uint256 index)\n    {\n\n            RecordIndex memory recordIndex\n         = GroupMembersIndexer[groupId][indexerLocation];\n        return (recordIndex.exists, recordIndex.index);\n    }\n\n    function getGroupMembersIndexerByDepositor(\n        address depositor,\n        uint256 indexerLocation\n    ) external view returns (bool exist, uint256 index) {\n\n            RecordIndex memory recordIndex\n         = GroupMembersIndexerByDepositor[depositor][indexerLocation];\n        return (recordIndex.exists, recordIndex.index);\n    }\n\n    function doesGroupMemberExist(uint256 groupId, address depositor)\n        external\n        view\n        returns (bool)\n    {\n        return _doesGroupMemberExist(groupId, depositor);\n    }\n\n    function _doesGroupMemberExist(uint256 groupId, address depositor)\n        internal\n        view\n        returns (bool)\n    {\n        bool exist = GroupMembersDeepIndexer[groupId][depositor].exists;\n        return exist;\n    }\n\n    function getGroupIndexer(uint256 groupId)\n        external\n        view\n        returns (bool exist, uint256 index)\n    {\n        RecordIndex memory recordIndex = GroupIndexer[groupId];\n        return (recordIndex.exists, recordIndex.index);\n    }\n\n    function getRecordIndexLengthForCreator(address groupCreator)\n        external\n        view\n        returns (uint256)\n    {\n        return GroupForCreatorIndexer[groupCreator].length;\n    }\n\n    function getGroupForCreatorIndexer(\n        address groupCreator,\n        uint256 indexerLocation\n    ) external view returns (bool exist, uint256 index) {\n\n            RecordIndex memory recordIndex\n         = GroupForCreatorIndexer[groupCreator][indexerLocation];\n        return (recordIndex.exists, recordIndex.index);\n    }\n\n    function getGroupIndexerByName(string calldata groupName)\n        external\n        view\n        returns (bool exist, uint256 index)\n    {\n        RecordIndex memory recordIndex = GroupIndexerByName[groupName];\n        return (recordIndex.exists, recordIndex.index);\n    }\n\n    function getGroupById(uint256 groupId)\n        external\n        view\n        returns (\n            uint256,\n            string memory,\n            string memory,\n            address payable\n        )\n    {\n        uint256 index = _getGroupIndex(groupId);\n\n        Group storage group = Groups[index];\n        return (group.id, group.name, group.symbol, group.creatorAddress);\n    }\n\n    function getGroupByIndex(uint256 index)\n        external\n        view\n        returns (\n            uint256,\n            string memory,\n            string memory,\n            address payable\n        )\n    {\n        return _getGroupByIndex(index);\n    }\n\n    function getGroupsLength() external view returns (uint256 length) {\n        return Groups.length;\n    }\n\n    function _getGroupByIndex(uint256 index)\n        internal\n        view\n        returns (\n            uint256,\n            string memory,\n            string memory,\n            address payable\n        )\n    {\n        uint256 length = Groups.length;\n        require(length > index, \"Out of range\");\n        Group storage group = Groups[index];\n        return (group.id, group.name, group.symbol, group.creatorAddress);\n    }\n\n    function getGroupIndex(uint256 groupId) external view returns (uint256) {\n        return _getGroupIndex(groupId);\n    }\n\n    function _getGroupIndex(uint256 groupId) internal view returns (uint256) {\n        bool doesGroupExist = GroupIndexer[groupId].exists;\n        require(doesGroupExist == true, \"Group not found\");\n        uint256 index = GroupIndexer[groupId].index;\n        return index;\n    }\n}\n",
  "sourcePath": "/Users/mac/Desktop/BinaryHiils/yearn-savings/YearnBSC/contracts/Groups.sol",
  "compiler": {
    "name": "solc",
    "version": "0.6.6+commit.6c089d02.Emscripten.clang"
  },
  "schemaVersion": "3.3.2",
  "updatedAt": "2020-12-13T07:42:53.789Z",
  "devdoc": {
    "methods": {}
  },
  "userdoc": {
    "methods": {}
  }
}