{
  "contractName": "XendFinanceIndividual_Yearn_V1",
  "abi": [
    {
      "inputs": [
        {
          "internalType": "address",
          "name": "fortubeServiceAddress",
          "type": "address"
        },
        {
          "internalType": "address",
          "name": "tokenAddress",
          "type": "address"
        },
        {
          "internalType": "address",
          "name": "clientRecordStorageAddress",
          "type": "address"
        },
        {
          "internalType": "address",
          "name": "savingsConfigAddress",
          "type": "address"
        },
        {
          "internalType": "address",
          "name": "derivativeTokenAddress",
          "type": "address"
        },
        {
          "internalType": "address",
          "name": "rewardConfigAddress",
          "type": "address"
        },
        {
          "internalType": "address",
          "name": "treasuryAddress",
          "type": "address"
        },
        {
          "internalType": "address",
          "name": "xendTokenAddress",
          "type": "address"
        }
      ],
      "stateMutability": "nonpayable",
      "type": "constructor"
    },
    {
      "anonymous": false,
      "inputs": [
        {
          "indexed": false,
          "internalType": "address payable",
          "name": "user",
          "type": "address"
        },
        {
          "indexed": false,
          "internalType": "uint256",
          "name": "underlyingAmount",
          "type": "uint256"
        },
        {
          "indexed": false,
          "internalType": "uint256",
          "name": "derivativeAmount",
          "type": "uint256"
        },
        {
          "indexed": false,
          "internalType": "uint256",
          "name": "balance",
          "type": "uint256"
        }
      ],
      "name": "DerivativeAssetWithdrawn",
      "type": "event"
    },
    {
      "anonymous": false,
      "inputs": [
        {
          "indexed": false,
          "internalType": "address payable",
          "name": "user",
          "type": "address"
        },
        {
          "indexed": false,
          "internalType": "uint256",
          "name": "underlyingAmount",
          "type": "uint256"
        },
        {
          "indexed": false,
          "internalType": "uint256",
          "name": "derivativeAmount",
          "type": "uint256"
        }
      ],
      "name": "DerivativeAssetWithdrawnFromFixed",
      "type": "event"
    },
    {
      "anonymous": false,
      "inputs": [
        {
          "indexed": false,
          "internalType": "address payable",
          "name": "user",
          "type": "address"
        },
        {
          "indexed": false,
          "internalType": "uint256",
          "name": "underlyingAmount",
          "type": "uint256"
        },
        {
          "indexed": false,
          "internalType": "uint256",
          "name": "derivativeAmount",
          "type": "uint256"
        },
        {
          "indexed": false,
          "internalType": "uint256",
          "name": "balance",
          "type": "uint256"
        }
      ],
      "name": "UnderlyingAssetDeposited",
      "type": "event"
    },
    {
      "anonymous": false,
      "inputs": [
        {
          "indexed": false,
          "internalType": "uint256",
          "name": "date",
          "type": "uint256"
        },
        {
          "indexed": true,
          "internalType": "address payable",
          "name": "member",
          "type": "address"
        },
        {
          "indexed": false,
          "internalType": "uint256",
          "name": "amount",
          "type": "uint256"
        }
      ],
      "name": "XendTokenReward",
      "type": "event"
    },
    {
      "inputs": [],
      "name": "owner",
      "outputs": [
        {
          "internalType": "address payable",
          "name": "",
          "type": "address"
        }
      ],
      "stateMutability": "view",
      "type": "function"
    },
    {
      "inputs": [
        {
          "internalType": "address payable",
          "name": "newOwner",
          "type": "address"
        }
      ],
      "name": "transferOwnership",
      "outputs": [],
      "stateMutability": "nonpayable",
      "type": "function"
    },
    {
      "inputs": [
        {
          "internalType": "address",
          "name": "newServiceAddress",
          "type": "address"
        }
      ],
      "name": "deprecateContract",
      "outputs": [],
      "stateMutability": "nonpayable",
      "type": "function"
    },
    {
      "inputs": [],
      "name": "GetTotalTokenRewardDistributed",
      "outputs": [
        {
          "internalType": "uint256",
          "name": "",
          "type": "uint256"
        }
      ],
      "stateMutability": "view",
      "type": "function"
    },
    {
      "inputs": [
        {
          "internalType": "address",
          "name": "member",
          "type": "address"
        }
      ],
      "name": "GetMemberXendTokenReward",
      "outputs": [
        {
          "internalType": "uint256",
          "name": "",
          "type": "uint256"
        }
      ],
      "stateMutability": "view",
      "type": "function"
    },
    {
      "inputs": [
        {
          "internalType": "address",
          "name": "depositor",
          "type": "address"
        }
      ],
      "name": "doesClientRecordExist",
      "outputs": [
        {
          "internalType": "bool",
          "name": "",
          "type": "bool"
        }
      ],
      "stateMutability": "view",
      "type": "function"
    },
    {
      "inputs": [],
      "name": "getAdapterAddress",
      "outputs": [],
      "stateMutability": "nonpayable",
      "type": "function"
    },
    {
      "inputs": [
        {
          "internalType": "address",
          "name": "depositor",
          "type": "address"
        }
      ],
      "name": "getClientRecord",
      "outputs": [
        {
          "internalType": "address payable",
          "name": "_address",
          "type": "address"
        },
        {
          "internalType": "uint256",
          "name": "underlyingTotalDeposits",
          "type": "uint256"
        },
        {
          "internalType": "uint256",
          "name": "underlyingTotalWithdrawn",
          "type": "uint256"
        },
        {
          "internalType": "uint256",
          "name": "derivativeBalance",
          "type": "uint256"
        },
        {
          "internalType": "uint256",
          "name": "derivativeTotalDeposits",
          "type": "uint256"
        },
        {
          "internalType": "uint256",
          "name": "derivativeTotalWithdrawn",
          "type": "uint256"
        }
      ],
      "stateMutability": "view",
      "type": "function"
    },
    {
      "inputs": [],
      "name": "getClientRecord",
      "outputs": [
        {
          "internalType": "address payable",
          "name": "_address",
          "type": "address"
        },
        {
          "internalType": "uint256",
          "name": "underlyingTotalDeposits",
          "type": "uint256"
        },
        {
          "internalType": "uint256",
          "name": "underlyingTotalWithdrawn",
          "type": "uint256"
        },
        {
          "internalType": "uint256",
          "name": "derivativeBalance",
          "type": "uint256"
        },
        {
          "internalType": "uint256",
          "name": "derivativeTotalDeposits",
          "type": "uint256"
        },
        {
          "internalType": "uint256",
          "name": "derivativeTotalWithdrawn",
          "type": "uint256"
        }
      ],
      "stateMutability": "view",
      "type": "function"
    },
    {
      "inputs": [
        {
          "internalType": "uint256",
          "name": "index",
          "type": "uint256"
        }
      ],
      "name": "getClientRecordByIndex",
      "outputs": [
        {
          "internalType": "address payable",
          "name": "_address",
          "type": "address"
        },
        {
          "internalType": "uint256",
          "name": "underlyingTotalDeposits",
          "type": "uint256"
        },
        {
          "internalType": "uint256",
          "name": "underlyingTotalWithdrawn",
          "type": "uint256"
        },
        {
          "internalType": "uint256",
          "name": "derivativeBalance",
          "type": "uint256"
        },
        {
          "internalType": "uint256",
          "name": "derivativeTotalDeposits",
          "type": "uint256"
        },
        {
          "internalType": "uint256",
          "name": "derivativeTotalWithdrawn",
          "type": "uint256"
        }
      ],
      "stateMutability": "view",
      "type": "function"
    },
    {
      "inputs": [
        {
          "internalType": "uint256",
          "name": "minimumLockPeriod",
          "type": "uint256"
        }
      ],
      "name": "setMinimumLockPeriod",
      "outputs": [],
      "stateMutability": "nonpayable",
      "type": "function"
    },
    {
      "inputs": [
        {
          "internalType": "uint256",
          "name": "derivativeAmount",
          "type": "uint256"
        }
      ],
      "name": "withdraw",
      "outputs": [],
      "stateMutability": "nonpayable",
      "type": "function"
    },
    {
      "inputs": [
        {
          "internalType": "address payable",
          "name": "recipient",
          "type": "address"
        },
        {
          "internalType": "uint256",
          "name": "derivativeAmount",
          "type": "uint256"
        }
      ],
      "name": "withdrawDelegate",
      "outputs": [],
      "stateMutability": "nonpayable",
      "type": "function"
    },
    {
      "inputs": [
        {
          "internalType": "uint256",
          "name": "derivativeAmount",
          "type": "uint256"
        }
      ],
      "name": "withdrawByShares",
      "outputs": [],
      "stateMutability": "nonpayable",
      "type": "function"
    },
    {
      "inputs": [],
      "name": "deposit",
      "outputs": [],
      "stateMutability": "nonpayable",
      "type": "function"
    },
    {
      "inputs": [
        {
          "internalType": "address payable",
          "name": "depositorAddress",
          "type": "address"
        }
      ],
      "name": "depositDelegate",
      "outputs": [],
      "stateMutability": "nonpayable",
      "type": "function"
    },
    {
      "inputs": [
        {
          "internalType": "uint256",
          "name": "depositDateInSeconds",
          "type": "uint256"
        },
        {
          "internalType": "uint256",
          "name": "lockPeriodInSeconds",
          "type": "uint256"
        }
      ],
      "name": "FixedDeposit",
      "outputs": [],
      "stateMutability": "nonpayable",
      "type": "function"
    },
    {
      "inputs": [
        {
          "internalType": "uint256",
          "name": "recordId",
          "type": "uint256"
        },
        {
          "internalType": "uint256",
          "name": "amount",
          "type": "uint256"
        },
        {
          "internalType": "uint256",
          "name": "depositDateInSeconds",
          "type": "uint256"
        },
        {
          "internalType": "uint256",
          "name": "lockPeriodInSeconds",
          "type": "uint256"
        }
      ],
      "name": "WithdrawFromFixedDeposit",
      "outputs": [],
      "stateMutability": "nonpayable",
      "type": "function"
    }
  ],
  "bytecode": "0x6080604052627864506001556009805460a060020a60ff02191690553480156200002857600080fd5b5060405162003cd238038062003cd28339810160408190526200004b9162000105565b6000805433600160a060020a031991821617909155600280548216600160a060020a039a8b16179055600380548216988a1698909817909755600580548816968916969096179095556006805487169488169490941790935560048054861692871692909217909155600780548516918616919091179055600980548416918516919091179055600880549092169216919091179055620001b4565b8051600160a060020a0381168114620000ff57600080fd5b92915050565b600080600080600080600080610100898b03121562000122578384fd5b6200012e8a8a620000e7565b97506200013f8a60208b01620000e7565b9650620001508a60408b01620000e7565b9550620001618a60608b01620000e7565b9450620001728a60808b01620000e7565b9350620001838a60a08b01620000e7565b9250620001948a60c08b01620000e7565b9150620001a58a60e08b01620000e7565b90509295985092959890939650565b613b0e80620001c46000396000f3fe608060405234801561001057600080fd5b506004361061011a5760003560e060020a90048063a53b0a0a116100a6578063da26ec2211610075578063da26ec221461022e578063e08c694c14610241578063e6a71e6114610254578063eec562c31461025c578063f2fde38b1461026f5761011a565b8063a53b0a0a146101d9578063c459b731146101fe578063cf04a19d14610213578063d0e30db0146102265761011a565b80632e1a7d4d116100ed5780632e1a7d4d14610178578063759dc9021461018b5780637d6633d01461019e5780638bb34bab146101b15780638da5cb5b146101c45761011a565b806306d4a9911461011f5780630a1b549414610134578063242222e01461013c5780632adc57a61461014f575b600080fd5b61013261012d36600461328f565b610282565b005b610132610941565b61013261014a3660046130b5565b6109ec565b61016261015d3660046130b5565b610c22565b60405161016f91906133e2565b60405180910390f35b610132610186366004613186565b610cf1565b610132610199366004613215565b610d2d565b6101326101ac3660046130ed565b6114d7565b6101326101bf366004613186565b61153b565b6101cc6116e0565b60405161016f91906132c0565b6101ec6101e73660046130b5565b6116ef565b60405161016f969594939291906133af565b61020661176e565b60405161016f9190613a30565b610132610221366004613186565b611774565b6101326117d3565b61013261023c3660046130b5565b61180d565b6101ec61024f366004613186565b611870565b6101ec6118bb565b61020661026a3660046130b5565b611939565b61013261027d3660046130b5565b611954565b60095460a060020a900460ff16156102b85760405160e560020a62461bcd0281526004016102af906135fa565b60405180910390fd5b336102c1613025565b6102ca866119b0565b905083836102d88888611a70565b60025460405160e160020a6348d8bf43028152600091600160a060020a0316906391b17e869061030c9030906004016132c0565b60206040518083038186803b15801561032457600080fd5b505afa158015610338573d6000803e3d6000fd5b505050506040513d601f19601f8201168201806040525081019061035c919061319e565b9050600260009054906101000a9004600160a060020a0316600160a060020a031663352c95b76040518163ffffffff1660e060020a02815260040160206040518083038186803b1580156103af57600080fd5b505afa1580156103c3573d6000803e3d6000fd5b505050506040513d601f19601f820116820180604052508101906103e791906130d1565b600a8054600160a060020a031916600160a060020a0392831617908190556004805460405160e060020a63095ea7b30281526000949182169363095ea7b3936104379391909116918e9101613312565b602060405180830381600087803b15801561045157600080fd5b505af1158015610465573d6000803e3d6000fd5b505050506040513d601f19601f82011682018060405250810190610489919061316a565b90506001811515146104b05760405160e560020a62461bcd0281526004016102af90613657565b6002546040517f6583d12a000000000000000000000000000000000000000000000000000000008152600160a060020a0390911690636583d12a906104f9908c90600401613a30565b600060405180830381600087803b15801561051357600080fd5b505af1158015610527573d6000803e3d6000fd5b505060025460405160e160020a6348d8bf4302815260009350600160a060020a0390911691506391b17e86906105619030906004016132c0565b60206040518083038186803b15801561057957600080fd5b505afa15801561058d573d6000803e3d6000fd5b505050506040513d601f19601f820116820180604052508101906105b1919061319e565b90508281116105d55760405160e560020a62461bcd0281526004016102af90613828565b60006105e7828563ffffffff611af816565b905060006105f482611b41565b90508082116106185760405160e560020a62461bcd0281526004016102af906138e2565b600061062a838363ffffffff611af816565b6003546040517fa9059cbb000000000000000000000000000000000000000000000000000000008152919250600160a060020a03169063a9059cbb90610676908d908590600401613312565b602060405180830381600087803b15801561069057600080fd5b505af11580156106a4573d6000803e3d6000fd5b505050506040513d601f19601f820116820180604052508101906106c8919061316a565b5081156107db5760035460095460405160e060020a63095ea7b3028152600160a060020a039283169263095ea7b392610708929116908690600401613312565b602060405180830381600087803b15801561072257600080fd5b505af1158015610736573d6000803e3d6000fd5b505050506040513d601f19601f8201168201806040525081019061075a919061316a565b506009546003546040517f2fd55265000000000000000000000000000000000000000000000000000000008152600160a060020a0392831692632fd55265926107a8929116906004016132c0565b600060405180830381600087803b1580156107c257600080fd5b505af11580156107d6573d6000803e3d6000fd5b505050505b600560009054906101000a9004600160a060020a0316600160a060020a0316635898d8838f8f60008b8d3360016040518863ffffffff1660e060020a02815260040161082d9796959493929190613a47565b600060405180830381600087803b15801561084757600080fd5b505af115801561085b573d6000803e3d6000fd5b50505050600560009054906101000a9004600160a060020a0316600160a060020a031663b91e1e228b8b600001518c6060015160008c8e60016040518863ffffffff1660e060020a0281526004016108b9979695949392919061334c565b600060405180830381600087803b1580156108d357600080fd5b505af11580156108e7573d6000803e3d6000fd5b505050506108f6878e8c611ba5565b7fc077a547e9e4a5a81fb1173392ff24703313b77d7d5de1c1a7ca082295392eed8a848f6040516109299392919061332b565b60405180910390a15050505050505050505050505050565b600260009054906101000a9004600160a060020a0316600160a060020a031663352c95b76040518163ffffffff1660e060020a02815260040160206040518083038186803b15801561099257600080fd5b505afa1580156109a6573d6000803e3d6000fd5b505050506040513d601f19601f820116820180604052508101906109ca91906130d1565b600a8054600160a060020a031916600160a060020a0392909216919091179055565b600054600160a060020a03163314610a195760405160e560020a62461bcd0281526004016102af906135c3565b60095460a060020a900460ff1615610a465760405160e560020a62461bcd0281526004016102af906135fa565b6009805474ff0000000000000000000000000000000000000000191660a060020a1790556005546040517f0fdf80ed000000000000000000000000000000000000000000000000000000008152600160a060020a0390911690630fdf80ed90610ab39084906004016132c0565b600060405180830381600087803b158015610acd57600080fd5b505af1158015610ae1573d6000803e3d6000fd5b5050600480546040517f70a0823100000000000000000000000000000000000000000000000000000000815260009450600160a060020a0390911692506370a0823191610b30913091016132c0565b60206040518083038186803b158015610b4857600080fd5b505afa158015610b5c573d6000803e3d6000fd5b505050506040513d601f19601f82011682018060405250810190610b80919061319e565b600480546040517fa9059cbb000000000000000000000000000000000000000000000000000000008152929350600160a060020a03169163a9059cbb91610bcb918691869101613312565b602060405180830381600087803b158015610be557600080fd5b505af1158015610bf9573d6000803e3d6000fd5b505050506040513d601f19601f82011682018060405250810190610c1d919061316a565b505050565b60095460009060a060020a900460ff1615610c525760405160e560020a62461bcd0281526004016102af906135fa565b6005546040517f2adc57a6000000000000000000000000000000000000000000000000000000008152600160a060020a0390911690632adc57a690610c9b9085906004016132c0565b60206040518083038186803b158015610cb357600080fd5b505afa158015610cc7573d6000803e3d6000fd5b505050506040513d601f19601f82011682018060405250810190610ceb919061316a565b92915050565b60095460a060020a900460ff1615610d1e5760405160e560020a62461bcd0281526004016102af906135fa565b33610d298183611cf6565b5050565b60095460a060020a900460ff1615610d5a5760405160e560020a62461bcd0281526004016102af906135fa565b6003546040517fdd62ed3e00000000000000000000000000000000000000000000000000000000815233913091600091600160a060020a03169063dd62ed3e90610daa90869086906004016132d4565b60206040518083038186803b158015610dc257600080fd5b505afa158015610dd6573d6000803e3d6000fd5b505050506040513d601f19601f82011682018060405250810190610dfa919061319e565b9050600154841015610e215760405160e560020a62461bcd0281526004016102af9061399c565b60008111610e445760405160e560020a62461bcd0281526004016102af90613440565b6003546040517f23b872dd000000000000000000000000000000000000000000000000000000008152600091600160a060020a0316906323b872dd90610e92908790879087906004016132ee565b602060405180830381600087803b158015610eac57600080fd5b505af1158015610ec0573d6000803e3d6000fd5b505050506040513d601f19601f82011682018060405250810190610ee4919061316a565b9050600181151514610f0b5760405160e560020a62461bcd0281526004016102af90613509565b6002546040517f274100d9000000000000000000000000000000000000000000000000000000008152600091600160a060020a03169063274100d990610f559030906004016132c0565b60206040518083038186803b158015610f6d57600080fd5b505afa158015610f81573d6000803e3d6000fd5b505050506040513d601f19601f82011682018060405250810190610fa5919061319e565b9050600260009054906101000a9004600160a060020a0316600160a060020a031663352c95b76040518163ffffffff1660e060020a02815260040160206040518083038186803b158015610ff857600080fd5b505afa15801561100c573d6000803e3d6000fd5b505050506040513d601f19601f8201168201806040525081019061103091906130d1565b600a8054600160a060020a031916600160a060020a03928316179081905560035460405160e060020a63095ea7b30281529083169263095ea7b39261107c929116908790600401613312565b602060405180830381600087803b15801561109657600080fd5b505af11580156110aa573d6000803e3d6000fd5b505050506040513d601f19601f820116820180604052508101906110ce919061316a565b506002546040517fad737613000000000000000000000000000000000000000000000000000000008152600160a060020a039091169063ad73761390611118908690600401613a30565b600060405180830381600087803b15801561113257600080fd5b505af1158015611146573d6000803e3d6000fd5b50506002546040517f274100d900000000000000000000000000000000000000000000000000000000815260009350600160a060020a03909116915063274100d9906111969030906004016132c0565b60206040518083038186803b1580156111ae57600080fd5b505afa1580156111c2573d6000803e3d6000fd5b505050506040513d601f19601f820116820180604052508101906111e6919061319e565b905060006111fa828463ffffffff611af816565b6005546040517f7a3f449a000000000000000000000000000000000000000000000000000000008152919250600160a060020a031690637a3f449a9061124f90889085908d908f908e90600090600401613a82565b602060405180830381600087803b15801561126957600080fd5b505af115801561127d573d6000803e3d6000fd5b505050506040513d601f19601f820116820180604052508101906112a1919061319e565b50600554604080517ffbae33720000000000000000000000000000000000000000000000000000000081529051600160a060020a0390921691639ff8325b918a91849163fbae3372916004808301926020929190829003018186803b15801561130957600080fd5b505afa15801561131d573d6000803e3d6000fd5b505050506040513d601f19601f82011682018060405250810190611341919061319e565b6040518363ffffffff1660e060020a028152600401611361929190613312565b600060405180830381600087803b15801561137b57600080fd5b505af115801561138f573d6000803e3d6000fd5b5050600554604080517ffbae33720000000000000000000000000000000000000000000000000000000081529051600160a060020a03909216935063b91e1e2292508a91849163fbae3372916004808301926020929190829003018186803b1580156113fa57600080fd5b505afa15801561140e573d6000803e3d6000fd5b505050506040513d601f19601f82011682018060405250810190611432919061319e565b88858d8f60006040518863ffffffff1660e060020a02815260040161145d979695949392919061334c565b600060405180830381600087803b15801561147757600080fd5b505af115801561148b573d6000803e3d6000fd5b505050507f86a9dc3904ee8065112f9a0b8fa88e50a3d11fde7dd6d983619db7e3176bd045878683886040516114c49493929190613389565b60405180910390a1505050505050505050565b60095460a060020a900460ff16156115045760405160e560020a62461bcd0281526004016102af906135fa565b600054600160a060020a031633146115315760405160e560020a62461bcd0281526004016102af906135c3565b610d298282611cf6565b600260009054906101000a9004600160a060020a0316600160a060020a031663352c95b76040518163ffffffff1660e060020a02815260040160206040518083038186803b15801561158c57600080fd5b505afa1580156115a0573d6000803e3d6000fd5b505050506040513d601f19601f820116820180604052508101906115c491906130d1565b600a8054600160a060020a031916600160a060020a0392831617908190556004805460405160e060020a63095ea7b30281529084169363095ea7b39361160f93911691869101613312565b602060405180830381600087803b15801561162957600080fd5b505af115801561163d573d6000803e3d6000fd5b505050506040513d601f19601f82011682018060405250810190611661919061316a565b506002546040517f6583d12a000000000000000000000000000000000000000000000000000000008152600160a060020a0390911690636583d12a906116ab908490600401613a30565b600060405180830381600087803b1580156116c557600080fd5b505af11580156116d9573d6000803e3d6000fd5b5050505050565b600054600160a060020a031681565b6009546000908190819081908190819060a060020a900460ff16156117295760405160e560020a62461bcd0281526004016102af906135fa565b61173161306d565b61173a8861229a565b602081015160408201516060830151608084015160a085015160c090950151939d929c50909a509850919650945092505050565b600d5490565b60095460a060020a900460ff16156117a15760405160e560020a62461bcd0281526004016102af906135fa565b600054600160a060020a031633146117ce5760405160e560020a62461bcd0281526004016102af906135c3565b600155565b60095460a060020a900460ff16156118005760405160e560020a62461bcd0281526004016102af906135fa565b3361180a81612390565b50565b60095460a060020a900460ff161561183a5760405160e560020a62461bcd0281526004016102af906135fa565b600054600160a060020a031633146118675760405160e560020a62461bcd0281526004016102af906135c3565b61180a81612390565b6009546000908190819081908190819060a060020a900460ff16156118aa5760405160e560020a62461bcd0281526004016102af906135fa565b6118b261306d565b61173a886129ac565b6009546000908190819081908190819060a060020a900460ff16156118f55760405160e560020a62461bcd0281526004016102af906135fa565b6118fd61306d565b6119063361229a565b602081015160408201516060830151608084015160a085015160c090950151939c929b5090995097509195509350915050565b600160a060020a03166000908152600b602052604090205490565b600054600160a060020a031633146119815760405160e560020a62461bcd0281526004016102af906135c3565b600160a060020a0381161561180a5760008054600160a060020a038316600160a060020a031990911617905550565b6119b8613025565b6005546040517f35dc275b00000000000000000000000000000000000000000000000000000000815260009182918291829182918291600160a060020a03909116906335dc275b90611a0e908b90600401613a30565b60c06040518083038186803b158015611a2657600080fd5b505afa158015611a3a573d6000803e3d6000fd5b505050506040513d601f19601f82011682018060405250810190611a5e91906131b6565b509a9c9b505050505050505050505050565b611a78613025565b611a81836119b0565b60a0810151608082015191925090600090611aa2908363ffffffff612a0a16565b60408401519091508015611acb5760405160e560020a62461bcd0281526004016102af9061349d565b4282811015611aef5760405160e560020a62461bcd0281526004016102af9061376e565b50505050505050565b6000611b3a83836040518060400160405280601e81526020017f536166654d6174683a207375627472616374696f6e206f766572666c6f770000815250612a32565b9392505050565b600080611b4c612a61565b90506000611b58612ba2565b905060008411611b7d5760405160e560020a62461bcd0281526004016102af90613566565b611b9d81611b91868563ffffffff612c2816565b9063ffffffff612c6516565b949350505050565b6007546040517feabe85cb000000000000000000000000000000000000000000000000000000008152600091600160a060020a03169063eabe85cb90611bf19087908790600401613a39565b60206040518083038186803b158015611c0957600080fd5b505afa158015611c1d573d6000803e3d6000fd5b505050506040513d601f19601f82011682018060405250810190611c41919061319e565b90508015611cf0576008546040517f40c10f19000000000000000000000000000000000000000000000000000000008152600160a060020a03909116906340c10f1990611c949085908590600401613312565b600060405180830381600087803b158015611cae57600080fd5b505af1158015611cc2573d6000803e3d6000fd5b50505050611cd08282612ca7565b600d54611ce3908263ffffffff612a0a16565b600d55611cf08282612d1d565b50505050565b611d008282612d64565b5060025460405160e160020a6348d8bf43028152600091600160a060020a0316906391b17e8690611d359030906004016132c0565b60206040518083038186803b158015611d4d57600080fd5b505afa158015611d61573d6000803e3d6000fd5b505050506040513d601f19601f82011682018060405250810190611d85919061319e565b9050600260009054906101000a9004600160a060020a0316600160a060020a031663352c95b76040518163ffffffff1660e060020a02815260040160206040518083038186803b158015611dd857600080fd5b505afa158015611dec573d6000803e3d6000fd5b505050506040513d601f19601f82011682018060405250810190611e1091906130d1565b600a8054600160a060020a031916600160a060020a0392831617908190556004805460405160e060020a63095ea7b30281526000949182169363095ea7b393611e60939190911691889101613312565b602060405180830381600087803b158015611e7a57600080fd5b505af1158015611e8e573d6000803e3d6000fd5b505050506040513d601f19601f82011682018060405250810190611eb2919061316a565b9050600181151514611ed95760405160e560020a62461bcd0281526004016102af90613657565b6002546040517f6583d12a000000000000000000000000000000000000000000000000000000008152600160a060020a0390911690636583d12a90611f22908690600401613a30565b600060405180830381600087803b158015611f3c57600080fd5b505af1158015611f50573d6000803e3d6000fd5b505060025460405160e160020a6348d8bf4302815260009350600160a060020a0390911691506391b17e8690611f8a9030906004016132c0565b60206040518083038186803b158015611fa257600080fd5b505afa158015611fb6573d6000803e3d6000fd5b505050506040513d601f19601f82011682018060405250810190611fda919061319e565b9050828111611ffe5760405160e560020a62461bcd0281526004016102af90613885565b6000612010828563ffffffff611af816565b9050600061201d82611b41565b90508082116120415760405160e560020a62461bcd0281526004016102af906138e2565b6000612053838363ffffffff611af816565b6003546040517fa9059cbb000000000000000000000000000000000000000000000000000000008152919250600091600160a060020a039091169063a9059cbb906120a4908c908690600401613312565b602060405180830381600087803b1580156120be57600080fd5b505af11580156120d2573d6000803e3d6000fd5b505050506040513d601f19601f820116820180604052508101906120f6919061316a565b905060018115151461211d5760405160e560020a62461bcd0281526004016102af906139f9565b821561222f5760035460095460405160e060020a63095ea7b3028152600160a060020a039283169263095ea7b39261215c929116908790600401613312565b602060405180830381600087803b15801561217657600080fd5b505af115801561218a573d6000803e3d6000fd5b505050506040513d601f19601f820116820180604052508101906121ae919061316a565b506009546003546040517f2fd55265000000000000000000000000000000000000000000000000000000008152600160a060020a0392831692632fd55265926121fc929116906004016132c0565b600060405180830381600087803b15801561221657600080fd5b505af115801561222a573d6000803e3d6000fd5b505050505b61223761306d565b6122428a868b612daa565b905061224d81612e1c565b7fd5468dee606e30ba003497bfa4b158e7a8b1134f21a820a3d72e4b3d8af8514f8a868b84608001516040516122869493929190613389565b60405180910390a150505050505050505050565b6122a261306d565b6005546040517f7c79ed4600000000000000000000000000000000000000000000000000000000815260009182918291829182918291600160a060020a0390911690637c79ed46906122f8908b906004016132c0565b60c06040518083038186803b15801561231057600080fd5b505afa158015612324573d6000803e3d6000fd5b505050506040513d601f19601f820116820180604052508101906123489190613118565b6040805160e08101825260018152600160a060020a0390971660208801528601949094526060850192909252608084015260a083015260c08201529650505050505050919050565b6003546040517fdd62ed3e0000000000000000000000000000000000000000000000000000000081523091600091600160a060020a039091169063dd62ed3e906123e090869086906004016132d4565b60206040518083038186803b1580156123f857600080fd5b505afa15801561240c573d6000803e3d6000fd5b505050506040513d601f19601f82011682018060405250810190612430919061319e565b9050600081116124555760405160e560020a62461bcd0281526004016102af90613440565b6003546040517f23b872dd000000000000000000000000000000000000000000000000000000008152600091600160a060020a0316906323b872dd906124a3908790879087906004016132ee565b602060405180830381600087803b1580156124bd57600080fd5b505af11580156124d1573d6000803e3d6000fd5b505050506040513d601f19601f820116820180604052508101906124f5919061316a565b905060018115151461251c5760405160e560020a62461bcd0281526004016102af90613509565b600480546040517f70a08231000000000000000000000000000000000000000000000000000000008152600092600160a060020a03909216916370a0823191612567913091016132c0565b60206040518083038186803b15801561257f57600080fd5b505afa158015612593573d6000803e3d6000fd5b505050506040513d601f19601f820116820180604052508101906125b7919061319e565b9050600260009054906101000a9004600160a060020a0316600160a060020a031663352c95b76040518163ffffffff1660e060020a02815260040160206040518083038186803b15801561260a57600080fd5b505afa15801561261e573d6000803e3d6000fd5b505050506040513d601f19601f8201168201806040525081019061264291906130d1565b600a8054600160a060020a031916600160a060020a03928316179081905560035460405160e060020a63095ea7b30281529083169263095ea7b39261268e929116908790600401613312565b602060405180830381600087803b1580156126a857600080fd5b505af11580156126bc573d6000803e3d6000fd5b505050506040513d601f19601f820116820180604052508101906126e0919061316a565b506002546040517fad737613000000000000000000000000000000000000000000000000000000008152600160a060020a039091169063ad7376139061272a908690600401613a30565b600060405180830381600087803b15801561274457600080fd5b505af1158015612758573d6000803e3d6000fd5b5050600480546040517f70a0823100000000000000000000000000000000000000000000000000000000815260009450600160a060020a0390911692506370a08231916127a7913091016132c0565b60206040518083038186803b1580156127bf57600080fd5b505afa1580156127d3573d6000803e3d6000fd5b505050506040513d601f19601f820116820180604052508101906127f7919061319e565b9050600061280b828463ffffffff611af816565b905061281561306d565b612820888784612e87565b6005546040517f2adc57a6000000000000000000000000000000000000000000000000000000008152919250600091600160a060020a0390911690632adc57a69061286f908c906004016132c0565b60206040518083038186803b15801561288757600080fd5b505afa15801561289b573d6000803e3d6000fd5b505050506040513d601f19601f820116820180604052508101906128bf919061316a565b905080156128d5576128d082612e1c565b612973565b60055460208301516040808501516060860151608087015160a088015160c089015194517f89694be7000000000000000000000000000000000000000000000000000000008152600160a060020a03909716966389694be796612940969095949392916004016133af565b600060405180830381600087803b15801561295a57600080fd5b505af115801561296e573d6000803e3d6000fd5b505050505b7f86a9dc3904ee8065112f9a0b8fa88e50a3d11fde7dd6d983619db7e3176bd04589888585608001516040516114c49493929190613389565b6129b461306d565b6005546040517fe08c694c00000000000000000000000000000000000000000000000000000000815260009182918291829182918291600160a060020a039091169063e08c694c906122f8908b90600401613a30565b600082820183811015611b3a5760405160e560020a62461bcd0281526004016102af906134d2565b60008184841115612a595760405160e560020a62461bcd0281526004016102af91906133ed565b505050900390565b600654604080518082018252601f81527f58454e445f46494e414e43455f434f4d4d4953494f4e5f4449564944454e4400602082015290517f37f2a02400000000000000000000000000000000000000000000000000000000815260009283928392839283928392600160a060020a03909216916337f2a02491612ae7916004016133ed565b60a060405180830381600087803b158015612b0157600080fd5b505af1158015612b15573d6000803e3d6000fd5b505050506040513d601f19601f82011682018060405250810190612b399190613236565b945094509450945094508115156001151514612b6a5760405160e560020a62461bcd0281526004016102af90613711565b6001816001811115612b7857fe5b14612b985760405160e560020a62461bcd0281526004016102af9061393f565b5090935050505090565b600654604080518082018252601e81527f58454e445f46494e414e43455f434f4d4d4953494f4e5f44495649534f520000602082015290517f37f2a02400000000000000000000000000000000000000000000000000000000815260009283928392839283928392600160a060020a03909216916337f2a02491612ae7916004016133ed565b600082612c3757506000610ceb565b82820282848281612c4457fe5b0414611b3a5760405160e560020a62461bcd0281526004016102af906136b4565b6000611b3a83836040518060400160405280601a81526020017f536166654d6174683a206469766973696f6e206279207a65726f000000000000815250612feb565b60095460a060020a900460ff1615612cd45760405160e560020a62461bcd0281526004016102af906135fa565b600160a060020a0382166000908152600b6020526040902054612cfd908263ffffffff612a0a16565b600160a060020a039092166000908152600b602052604090209190915550565b81600160a060020a03167fedc02529ff71ee6028ad075806d0f6ac8bc18e48d2230ac2961d468d285f20ba4283604051612d58929190613a39565b60405180910390a25050565b6000612d6e61306d565b612d778461229a565b608081015190915083811015612da25760405160e560020a62461bcd0281526004016102af906137cb565b505092915050565b612db261306d565b612dba61306d565b612dc38561229a565b6060810151909150612ddb908563ffffffff612a0a16565b606082015260c0810151612df5908463ffffffff612a0a16565b60c08201526080810151612e0f908463ffffffff611af816565b6080820152949350505050565b60055460208201516040808401516060850151608086015160a087015160c088015194517f46854aa7000000000000000000000000000000000000000000000000000000008152600160a060020a03909716966346854aa7966116ab969095949392916004016133af565b612e8f61306d565b6005546040517f2adc57a6000000000000000000000000000000000000000000000000000000008152600091600160a060020a031690632adc57a690612ed99088906004016132c0565b60206040518083038186803b158015612ef157600080fd5b505afa158015612f05573d6000803e3d6000fd5b505050506040513d601f19601f82011682018060405250810190612f29919061316a565b905080612f8057612f3861306d565b50506040805160e08101825260018152600160a060020a03861660208201529081018490526000606082018190526080820184905260a0820184905260c08201529050611b3a565b612f8861306d565b612f918661229a565b6040810151909150612fa9908663ffffffff612a0a16565b604082015260a0810151612fc3908563ffffffff612a0a16565b60a08201526080810151612fdd908563ffffffff612a0a16565b60808201529150611b3a9050565b6000818361300f5760405160e560020a62461bcd0281526004016102af91906133ed565b50600083858161301b57fe5b0495945050505050565b6040518060e00160405280600081526020016000600160a060020a03168152602001600015158152602001600081526020016000815260200160008152602001600081525090565b6040518060e001604052806000151581526020016000600160a060020a0316815260200160008152602001600081526020016000815260200160008152602001600081525090565b6000602082840312156130c6578081fd5b8135611b3a81613ab5565b6000602082840312156130e2578081fd5b8151611b3a81613ab5565b600080604083850312156130ff578081fd5b823561310a81613ab5565b946020939093013593505050565b60008060008060008060c08789031215613130578182fd5b865161313b81613ab5565b6020880151604089015160608a015160808b015160a0909b0151939c929b509099909850965090945092505050565b60006020828403121561317b578081fd5b8151611b3a81613aca565b600060208284031215613197578081fd5b5035919050565b6000602082840312156131af578081fd5b5051919050565b60008060008060008060c087890312156131ce578182fd5b8651955060208701516131e081613ab5565b8095505060408701519350606087015192506080870151915060a087015161320781613aca565b809150509295509295509295565b60008060408385031215613227578182fd5b50508035926020909101359150565b600080600080600060a0868803121561324d578081fd5b855194506020860151935060408601519250606086015161326d81613aca565b608087015190925060028110613281578182fd5b809150509295509295909350565b600080600080608085870312156132a4578384fd5b5050823594602084013594506040840135936060013592509050565b600160a060020a0391909116815260200190565b600160a060020a0392831681529116602082015260400190565b600160a060020a039384168152919092166020820152604081019190915260600190565b600160a060020a03929092168252602082015260400190565b600160a060020a039390931683526020830191909152604082015260600190565b600160a060020a03979097168752602087019590955260408601939093526060850191909152608084015260a0830152151560c082015260e00190565b600160a060020a0394909416845260208401929092526040830152606082015260800190565b600160a060020a03969096168652602086019490945260408501929092526060840152608083015260a082015260c00190565b901515815260200190565b6000602080835283518082850152825b81811015613419578581018301518582016040015282016133fd565b8181111561342a5783604083870101525b50601f01601f1916929092016040019392505050565b60208082526031908201527f417070726f766520616e20616d6f756e74203e203020666f7220746f6b656e2060408201527f6265666f72652070726f63656564696e67000000000000000000000000000000606082015260800190565b6020808252818101527f496e646976696475616c2068617320616c72656164792077697468647261776e604082015260600190565b6020808252601b908201527f536166654d6174683a206164646974696f6e206f766572666c6f770000000000604082015260600190565b60208082526036908201527f436f756c64206e6f7420636f6d706c657465206465706f7369742070726f636560408201527f73732066726f6d20746f6b656e20636f6e747261637400000000000000000000606082015260800190565b60208082526026908201527f6d656d626572206465706f736974207265616c6c792069736e277420776f727460408201527f68206d7563680000000000000000000000000000000000000000000000000000606082015260800190565b6020808252601f908201527f556e617574686f72697a65642061636365737320746f20636f6e747261637400604082015260600190565b60208082526024908201527f5365727669636520636f6e747261637420686173206265656e2064657072656360408201527f6174656400000000000000000000000000000000000000000000000000000000606082015260800190565b60208082526032908201527f636f756c64206e6f7420617070726f766520666275736420746f6b656e20666f60408201527f72206164617074657220636f6e74726163740000000000000000000000000000606082015260800190565b60208082526021908201527f536166654d6174683a206d756c7469706c69636174696f6e206f766572666c6f60408201527f7700000000000000000000000000000000000000000000000000000000000000606082015260800190565b60208082526027908201527f756e737570706f727465642072756c6520646566696e74696f6e20666f72207260408201527f756c652073657400000000000000000000000000000000000000000000000000606082015260800190565b60208082526036908201527f46756e647320617265207374696c6c206c6f636b65642c207761697420756e7460408201527f696c206c6f636b20706572696f64206578706972657300000000000000000000606082015260800190565b6020808252603b908201527f5769746864726177616c2063616e6e6f742062652070726f63657373652c207260408201527f6561736f6e3a20496e73756666696369656e742042616c616e63650000000000606082015260800190565b60208082526035908201527f42616c616e6365206166746572206e6565647320746f2062652067726561746560408201527f72207468616e2062616c616e6365206265666f72650000000000000000000000606082015260800190565b60208082526035908201527f42616c616e6365206265666f7265206e6565647320746f20626520677265617460408201527f6572207468616e2062616c616e63652061667465720000000000000000000000606082015260800190565b6020808252603a908201527f416d6f756e7420746f2062652077697468647261776e206d757374206265206760408201527f726561746572207468616e20636f6d6d6973696f6e2066656573000000000000606082015260800190565b6020808252603a908201527f756e737570706f727465642072756c6520646566696e74696f6e20666f72207060408201527f656e616c74792070657263656e746167652072756c6520736574000000000000606082015260800190565b60208082526024908201527f4d696e696d756d206c6f636b20706572696f64206d7573742062652033206d6f60408201527f6e74687300000000000000000000000000000000000000000000000000000000606082015260800190565b6020808252601d908201527f436f756c64206e6f7420636f6d706c657465207769746864726177616c000000604082015260600190565b90815260200190565b918252602082015260400190565b9687526020870195909552604086019390935260608501919091526080840152600160a060020a031660a0830152151560c082015260e00190565b958652602086019490945260408501929092526060840152600160a060020a03166080830152151560a082015260c00190565b600160a060020a038116811461180a57600080fd5b801515811461180a57600080fdfea26469706673582212204d4bb615bb669ae21528b14cb5b2f4954de8914ed56d870d57983f7e2662efee64736f6c63430006060033",
  "immutableReferences": {},
  "source": "// SPDX-License-Identifier: MIT\r\n\r\npragma solidity ^0.6.0;\r\n\r\nimport \"./IClientRecordSchema.sol\";\r\nimport \"./IGroupSchema.sol\";\r\nimport \"./SafeMath.sol\";\r\nimport \"./Ownable.sol\";\r\nimport \"./SafeERC20.sol\";\r\n// import \"./IDaiLendingService.sol\";\r\nimport \"./IClientRecord.sol\";\r\n// import \"./IERC20.sol\";\r\nimport \"./Address.sol\";\r\nimport \"./ISavingsConfig.sol\";\r\nimport \"./ISavingsConfigSchema.sol\";\r\nimport \"./ITreasury.sol\";\r\nimport \"./IRewardConfig.sol\";\r\nimport \"./IBEP20.sol\";\r\nimport \"./IForTubeBankService.sol\";\r\nimport \"./IFToken.sol\";\r\nimport \"./IXendToken.sol\";\r\npragma experimental ABIEncoderV2;\r\n\r\n\r\ncontract XendFinanceIndividual_Yearn_V1 is\r\n    Ownable,\r\n    IClientRecordSchema,\r\n    ISavingsConfigSchema\r\n{\r\n    using SafeMath for uint256;\r\n    \r\n    using SafeERC20 for IFToken;\r\n    \r\n    using SafeERC20 for IBEP20;\r\n\r\n    using Address for address payable;\r\n\r\n    event UnderlyingAssetDeposited(\r\n        address payable user,\r\n        uint256 underlyingAmount,\r\n        uint256 derivativeAmount,\r\n        uint256 balance\r\n    );\r\n\r\n    event DerivativeAssetWithdrawn(\r\n        address payable user,\r\n        uint256 underlyingAmount,\r\n        uint256 derivativeAmount,\r\n        uint256 balance\r\n    );\r\n    \r\n    event DerivativeAssetWithdrawnFromFixed(\r\n          address payable user,\r\n        uint256 underlyingAmount,\r\n        uint256 derivativeAmount        );\r\n    \r\n      event XendTokenReward (\r\n        uint date,\r\n        address payable indexed member,\r\n        uint amount\r\n    );\r\n    \r\n   \r\n    uint minLockPeriod = 7890000;\r\n    \r\n    \r\n  \r\n\r\n    //IDaiLendingService lendingService;\r\n    IForTubeBankService fortubeService;\r\n    //IERC20 daiToken;\r\n    IBEP20 busdToken;      //  BEP20 - ForTube BUSD Testnet TODO: change to live when moving to mainnet \r\n    IFToken fBusdToken;   //  BEP20 - fBUSD Testnet TODO: change to mainnet\r\n    IClientRecord clientRecordStorage;\r\n    ISavingsConfig savingsConfig;\r\n    IRewardConfig rewardConfig;\r\n    //IERC20 derivativeToken;\r\n    IXendToken xendToken;\r\n    ITreasury treasury;\r\n\r\n    bool isDeprecated = false;\r\n\r\n    //address LendingAdapterAddress;\r\n\r\n    address FortubeBankAdapter;\r\n\r\n    string constant XEND_FINANCE_COMMISION_DIVISOR = \"XEND_FINANCE_COMMISION_DIVISOR\";\r\n    string constant XEND_FINANCE_COMMISION_DIVIDEND = \"XEND_FINANCE_COMMISION_DIVIDEND\";\r\n    \r\n    mapping(address=>uint) MemberToXendTokenRewardMapping;  //  This tracks the total amount of xend token rewards a member has received\r\n    \r\n    uint256 lastRecordId;\r\n    \r\n     uint256 _totalTokenReward;      //  This tracks the total number of token rewards distributed on the individual savings\r\n\r\n    constructor(\r\n        //address fortubeBankAdapterAddress,\r\n        address fortubeServiceAddress,\r\n        address tokenAddress,\r\n        address clientRecordStorageAddress,\r\n        address savingsConfigAddress,\r\n        address derivativeTokenAddress,\r\n        address rewardConfigAddress,\r\n        address treasuryAddress,\r\n        address xendTokenAddress\r\n    ) public {\r\n        fortubeService = IForTubeBankService(fortubeServiceAddress);\r\n        busdToken = IBEP20(tokenAddress);\r\n        clientRecordStorage = IClientRecord(clientRecordStorageAddress);\r\n       // FortubeBankAdapter = fortubeBankAdapterAddress;\r\n        savingsConfig = ISavingsConfig(savingsConfigAddress);\r\n        fBusdToken = IFToken(derivativeTokenAddress);\r\n        rewardConfig = IRewardConfig(rewardConfigAddress);\r\n        treasury = ITreasury(treasuryAddress);\r\n        xendToken = IXendToken(xendTokenAddress);\r\n    }\r\n\r\n    function deprecateContract(address newServiceAddress)\r\n        external\r\n        onlyOwner\r\n        onlyNonDeprecatedCalls\r\n    {\r\n        isDeprecated = true;\r\n        clientRecordStorage.reAssignStorageOracle(newServiceAddress);\r\n        uint256 derivativeTokenBalance = fBusdToken.balanceOf(\r\n            address(this)\r\n        );\r\n        fBusdToken.transfer(newServiceAddress, derivativeTokenBalance);\r\n    }\r\n   \r\n\r\n       function GetTotalTokenRewardDistributed() external view returns(uint256){\r\n            return _totalTokenReward;\r\n        }\r\n      function _UpdateMemberToXendTokeRewardMapping(address member, uint rewardAmount) internal onlyNonDeprecatedCalls {\r\n        MemberToXendTokenRewardMapping[member] = MemberToXendTokenRewardMapping[member].add(rewardAmount);\r\n    }\r\n\r\n        function GetMemberXendTokenReward(address member) external view returns(uint) {\r\n        return MemberToXendTokenRewardMapping[member];\r\n    }\r\n    \r\n    function doesClientRecordExist(address depositor)\r\n        external\r\n        view\r\n        onlyNonDeprecatedCalls\r\n        returns (bool)\r\n    {\r\n        return clientRecordStorage.doesClientRecordExist(depositor);\r\n    }\r\n    \r\n    function getAdapterAddress() external  {\r\n        FortubeBankAdapter = fortubeService.GetForTubeAdapterAddress();\r\n    }\r\n\r\n    function getClientRecord(address depositor)\r\n        external\r\n        view\r\n        onlyNonDeprecatedCalls\r\n        returns (\r\n            address payable _address,\r\n            uint256 underlyingTotalDeposits,\r\n            uint256 underlyingTotalWithdrawn,\r\n            uint256 derivativeBalance,\r\n            uint256 derivativeTotalDeposits,\r\n            uint256 derivativeTotalWithdrawn\r\n        )\r\n    {\r\n        ClientRecord memory clientRecord = _getClientRecordByAddress(depositor);\r\n        return (\r\n            clientRecord._address,\r\n            clientRecord.underlyingTotalDeposits,\r\n            clientRecord.underlyingTotalWithdrawn,\r\n            clientRecord.derivativeBalance,\r\n            clientRecord.derivativeTotalDeposits,\r\n            clientRecord.derivativeTotalWithdrawn\r\n        );\r\n    }\r\n\r\n    function getClientRecord()\r\n        external\r\n        view\r\n        onlyNonDeprecatedCalls\r\n        returns (\r\n            address payable _address,\r\n            uint256 underlyingTotalDeposits,\r\n            uint256 underlyingTotalWithdrawn,\r\n            uint256 derivativeBalance,\r\n            uint256 derivativeTotalDeposits,\r\n            uint256 derivativeTotalWithdrawn\r\n        )\r\n    {\r\n        ClientRecord memory clientRecord = _getClientRecordByAddress(\r\n            msg.sender\r\n        );\r\n\r\n        return (\r\n            clientRecord._address,\r\n            clientRecord.underlyingTotalDeposits,\r\n            clientRecord.underlyingTotalWithdrawn,\r\n            clientRecord.derivativeBalance,\r\n            clientRecord.derivativeTotalDeposits,\r\n            clientRecord.derivativeTotalWithdrawn\r\n        );\r\n    }\r\n\r\n    function getClientRecordByIndex(uint256 index)\r\n        external\r\n        view\r\n        onlyNonDeprecatedCalls\r\n        returns (\r\n            address payable _address,\r\n            uint256 underlyingTotalDeposits,\r\n            uint256 underlyingTotalWithdrawn,\r\n            uint256 derivativeBalance,\r\n            uint256 derivativeTotalDeposits,\r\n            uint256 derivativeTotalWithdrawn\r\n        )\r\n    {\r\n        ClientRecord memory clientRecord = _getClientRecordByIndex(index);\r\n        return (\r\n            clientRecord._address,\r\n            clientRecord.underlyingTotalDeposits,\r\n            clientRecord.underlyingTotalWithdrawn,\r\n            clientRecord.derivativeBalance,\r\n            clientRecord.derivativeTotalDeposits,\r\n            clientRecord.derivativeTotalWithdrawn\r\n        );\r\n    }\r\n\r\n    function _getClientRecordByIndex(uint256 index)\r\n        internal\r\n        view\r\n        returns (ClientRecord memory)\r\n    {\r\n        (\r\n            address payable _address,\r\n            uint256 underlyingTotalDeposits,\r\n            uint256 underlyingTotalWithdrawn,\r\n            uint256 derivativeBalance,\r\n            uint256 derivativeTotalDeposits,\r\n            uint256 derivativeTotalWithdrawn\r\n        ) = clientRecordStorage.getClientRecordByIndex(index);\r\n        return\r\n            ClientRecord(\r\n                true,\r\n                _address,\r\n                underlyingTotalDeposits,\r\n                underlyingTotalWithdrawn,\r\n                derivativeBalance,\r\n                derivativeTotalDeposits,\r\n                derivativeTotalWithdrawn\r\n            );\r\n    }\r\n\r\n    function _getClientRecordByAddress(address member)\r\n        internal\r\n        view\r\n        returns (ClientRecord memory)\r\n    {\r\n        (\r\n            address payable _address,\r\n            uint256 underlyingTotalDeposits,\r\n            uint256 underlyingTotalWithdrawn,\r\n            uint256 derivativeBalance,\r\n            uint256 derivativeTotalDeposits,\r\n            uint256 derivativeTotalWithdrawn\r\n        ) = clientRecordStorage.getClientRecordByAddress(member);\r\n\r\n        return\r\n            ClientRecord(\r\n                true,\r\n                _address,\r\n                underlyingTotalDeposits,\r\n                underlyingTotalWithdrawn,\r\n                derivativeBalance,\r\n                derivativeTotalDeposits,\r\n                derivativeTotalWithdrawn\r\n            );\r\n    }\r\n    \r\n    function setMinimumLockPeriod (uint minimumLockPeriod) external onlyNonDeprecatedCalls onlyOwner {\r\n        minLockPeriod = minimumLockPeriod;\r\n    }\r\n    \r\n    function _getFixedDepositRecordById(uint recordId) internal returns (FixedDepositRecord memory) {\r\n        (uint recordId, address payable depositorId, uint amount, uint depositDateInSeconds, uint lockPeriodInSeconds, bool hasWithdrawn) = clientRecordStorage.GetRecordById(recordId);\r\n    }\r\n    \r\n   \r\n\r\n    function withdraw(uint256 derivativeAmount)\r\n        external\r\n        onlyNonDeprecatedCalls\r\n    {\r\n      address payable recipient = msg.sender;\r\n      \r\n      _withdraw(recipient, derivativeAmount);\r\n    }\r\n\r\n    function withdrawDelegate(\r\n        address payable recipient,\r\n        uint256 derivativeAmount\r\n    ) external onlyNonDeprecatedCalls onlyOwner {\r\n        _withdraw(recipient, derivativeAmount);\r\n    }\r\n    \r\n    function withdrawByShares(uint256 derivativeAmount) external {\r\n        \r\n        FortubeBankAdapter = fortubeService.GetForTubeAdapterAddress();\r\n        \r\n        fBusdToken.approve(FortubeBankAdapter, derivativeAmount);\r\n        \r\n        fortubeService.WithdrawBySharesOnly(derivativeAmount);\r\n    }\r\n\r\n    function _withdraw(address payable recipient, uint256 derivativeAmount)\r\n        internal\r\n    {\r\n        _validateUserBalanceIsSufficient(recipient, derivativeAmount);\r\n\r\n        uint256 balanceBeforeWithdraw = fortubeService.UserBUSDBalance(address(this));\r\n        \r\n        FortubeBankAdapter = fortubeService.GetForTubeAdapterAddress();\r\n\r\n         bool isApprovalSuccessful = fBusdToken.approve(FortubeBankAdapter,derivativeAmount);\r\n         \r\n         require(isApprovalSuccessful == true, 'could not approve fbusd token for adapter contract');\r\n        \r\n         fortubeService.WithdrawBySharesOnly(derivativeAmount);\r\n\r\n        uint256 balanceAfterWithdraw = fortubeService.UserBUSDBalance(address(this));\r\n\r\n        require(balanceAfterWithdraw>balanceBeforeWithdraw, \"Balance before needs to be greater than balance after\");\r\n\r\n        uint256 amountOfUnderlyingAssetWithdrawn =  balanceAfterWithdraw.sub(\r\n            balanceBeforeWithdraw\r\n        );\r\n        \r\n\r\n        uint256 commissionFees = _computeXendFinanceCommisions(\r\n            amountOfUnderlyingAssetWithdrawn\r\n        );\r\n\r\n        require(amountOfUnderlyingAssetWithdrawn>commissionFees, \"Amount to be withdrawn must be greater than commision fees\");\r\n        uint256 amountToSendToDepositor = amountOfUnderlyingAssetWithdrawn.sub(\r\n            commissionFees\r\n        );\r\n            \r\n        //busdToken.approve(recipient, amountToSendToDepositor);\r\n\r\n        bool isSuccessful = busdToken.transfer(\r\n            recipient,\r\n            amountToSendToDepositor\r\n        );\r\n\r\n        require(isSuccessful == true, \"Could not complete withdrawal\");\r\n\r\n        if (commissionFees > 0) {\r\n            busdToken.approve(address(treasury), commissionFees);\r\n            treasury.depositToken(address(busdToken));\r\n        }\r\n\r\n        ClientRecord memory clientRecord = _updateClientRecordAfterWithdrawal(\r\n            recipient,\r\n            amountOfUnderlyingAssetWithdrawn,\r\n            derivativeAmount\r\n        );\r\n        _updateClientRecord(clientRecord);\r\n\r\n        emit DerivativeAssetWithdrawn(\r\n            recipient,\r\n            amountOfUnderlyingAssetWithdrawn,\r\n            derivativeAmount,\r\n            clientRecord.derivativeBalance\r\n        );\r\n    }\r\n\r\n    function _validateUserBalanceIsSufficient(\r\n        address payable recipient,\r\n        uint256 derivativeAmount\r\n    ) internal view returns (uint256) {\r\n        ClientRecord memory clientRecord = _getClientRecordByAddress(recipient);\r\n\r\n        uint256 derivativeBalance = clientRecord.derivativeBalance;\r\n\r\n        require(\r\n            derivativeBalance >= derivativeAmount,\r\n            \"Withdrawal cannot be processe, reason: Insufficient Balance\"\r\n        );\r\n    }\r\n    \r\n  \r\n    \r\n    function _validateLockTimeHasElapsedAndHasNotWithdrawn (uint256 recordId, uint256 derivativeAmount) internal {\r\n        \r\n     FixedDepositRecord memory depositRecord =\r\n            _getFixedDepositRecordById(recordId);\r\n\r\n        uint256 lockPeriod = depositRecord.lockPeriodInSeconds;\r\n        uint256 maturityDate =\r\n            depositRecord.depositDateInSeconds.add(lockPeriod);\r\n\r\n        bool hasWithdrawn = depositRecord.hasWithdrawn;\r\n\r\n        require(!hasWithdrawn, \"Individual has already withdrawn\");\r\n\r\n        uint256 currentTimeStamp = now;\r\n\r\n        require(\r\n            currentTimeStamp >= maturityDate,\r\n            \"Funds are still locked, wait until lock period expires\"\r\n        );\r\n    \r\n    }\r\n\r\n    function _computeXendFinanceCommisions(uint256 worthOfMemberDepositNow)\r\n        internal\r\n        returns (uint256)\r\n    {\r\n        uint256 dividend = _getDividend();\r\n        uint256 divisor = _getDivisor();\r\n\r\n        require(\r\n            worthOfMemberDepositNow > 0,\r\n            \"member deposit really isn't worth much\"\r\n        );\r\n\r\n        return worthOfMemberDepositNow.mul(dividend).div(divisor);\r\n    }\r\n\r\n    function _getDivisor() internal returns (uint256) {\r\n        (\r\n            uint256 minimumDivisor,\r\n            uint256 maximumDivisor,\r\n            uint256 exactDivisor,\r\n            bool appliesDivisor,\r\n            RuleDefinition ruleDefinitionDivisor\r\n        ) = savingsConfig.getRuleSet(XEND_FINANCE_COMMISION_DIVISOR);\r\n\r\n        require(\r\n            appliesDivisor == true,\r\n            \"unsupported rule defintion for rule set\"\r\n        );\r\n\r\n        require(\r\n            ruleDefinitionDivisor == RuleDefinition.VALUE,\r\n            \"unsupported rule defintion for penalty percentage rule set\"\r\n        );\r\n        return exactDivisor;\r\n    }\r\n\r\n    function _getDividend() internal returns (uint256) {\r\n        (\r\n            uint256 minimumDividend,\r\n            uint256 maximumDividend,\r\n            uint256 exactDividend,\r\n            bool appliesDividend,\r\n            RuleDefinition ruleDefinitionDividend\r\n        ) = savingsConfig.getRuleSet(XEND_FINANCE_COMMISION_DIVIDEND);\r\n\r\n        require(\r\n            appliesDividend == true,\r\n            \"unsupported rule defintion for rule set\"\r\n        );\r\n\r\n        require(\r\n            ruleDefinitionDividend == RuleDefinition.VALUE,\r\n            \"unsupported rule defintion for penalty percentage rule set\"\r\n        );\r\n        return exactDividend;\r\n    }\r\n\r\n    function deposit() external onlyNonDeprecatedCalls {\r\n        address payable depositor = msg.sender;\r\n        _deposit(depositor);\r\n    }\r\n\r\n    function depositDelegate(address payable depositorAddress)\r\n        external\r\n        onlyNonDeprecatedCalls\r\n        onlyOwner\r\n    {\r\n        _deposit(depositorAddress);\r\n    }\r\n    \r\n    function FixedDeposit(uint256 depositDateInSeconds, uint256 lockPeriodInSeconds) external onlyNonDeprecatedCalls {\r\n        address payable depositorAddress = msg.sender;\r\n        \r\n        address recipient = address(this);\r\n        \r\n         uint256 amountTransferrable = busdToken.allowance(\r\n            depositorAddress,\r\n            recipient\r\n        );\r\n        \r\n        require(lockPeriodInSeconds >= minLockPeriod, \"Minimum lock period must be 3 months\");\r\n\r\n        require(\r\n            amountTransferrable > 0,\r\n            \"Approve an amount > 0 for token before proceeding\"\r\n        );\r\n        bool isSuccessful = busdToken.transferFrom(\r\n            depositorAddress,\r\n            recipient,\r\n            amountTransferrable\r\n        );\r\n        require(\r\n            isSuccessful == true,\r\n            \"Could not complete deposit process from token contract\"\r\n        );\r\n       \r\n\r\n        uint256 balanceBeforeDeposit = fortubeService.UserShares(address(this));\r\n        \r\n        FortubeBankAdapter = fortubeService.GetForTubeAdapterAddress();\r\n\r\n         busdToken.approve(FortubeBankAdapter, amountTransferrable);\r\n\r\n        fortubeService.Save(amountTransferrable);\r\n\r\n        uint256 balanceAfterDeposit = fortubeService.UserShares(address(this));\r\n\r\n        uint256 amountOfyDai = balanceAfterDeposit.sub(balanceBeforeDeposit);\r\n        \r\n        \r\n    \r\n        clientRecordStorage.CreateDepositRecordMapping(amountTransferrable,amountOfyDai, lockPeriodInSeconds, depositDateInSeconds, depositorAddress, false);\r\n        \r\n        clientRecordStorage.CreateDepositorToDepositRecordIndexToRecordIDMapping(depositorAddress, clientRecordStorage.GetRecordId());\r\n        \r\n        clientRecordStorage.CreateDepositorAddressToDepositRecordMapping(depositorAddress, clientRecordStorage.GetRecordId(), amountTransferrable,amountOfyDai, lockPeriodInSeconds, depositDateInSeconds, false);\r\n            \r\n\r\n      \r\n        emit UnderlyingAssetDeposited(\r\n            depositorAddress,\r\n            amountTransferrable,\r\n            amountOfyDai,\r\n            amountTransferrable\r\n        );\r\n        \r\n    }\r\n    \r\n    function WithdrawFromFixedDeposit (uint recordId, uint amount, uint256 depositDateInSeconds, uint256 lockPeriodInSeconds) external onlyNonDeprecatedCalls {\r\n        \r\n        address payable recipient = msg.sender;\r\n        \r\n         FixedDepositRecord memory depositRecord = _getFixedDepositRecordById(recordId);\r\n          \r\n         \r\n          \r\n          uint256 depositDate = depositDateInSeconds;\r\n          \r\n          uint256 lockPeriod = lockPeriodInSeconds;\r\n          \r\n           _validateLockTimeHasElapsedAndHasNotWithdrawn(recordId, amount);\r\n           \r\n           \r\n\r\n        uint256 balanceBeforeWithdraw = fortubeService.UserBUSDBalance(address(this));\r\n        \r\n        FortubeBankAdapter = fortubeService.GetForTubeAdapterAddress();\r\n\r\n         bool isApprovalSuccessful = fBusdToken.approve(FortubeBankAdapter,amount);\r\n         \r\n         require(isApprovalSuccessful == true, 'could not approve fbusd token for adapter contract');\r\n        \r\n         fortubeService.WithdrawBySharesOnly(amount);\r\n\r\n        uint256 balanceAfterWithdraw = fortubeService.UserBUSDBalance(address(this));\r\n\r\n        require(balanceAfterWithdraw>balanceBeforeWithdraw, \"Balance after needs to be greater than balance before\");\r\n\r\n        uint256 amountOfUnderlyingAssetWithdrawn =  balanceAfterWithdraw.sub(\r\n            balanceBeforeWithdraw\r\n        );\r\n        \r\n\r\n        uint256 commissionFees = _computeXendFinanceCommisions(\r\n            amountOfUnderlyingAssetWithdrawn\r\n        );\r\n\r\n        require(amountOfUnderlyingAssetWithdrawn>commissionFees, \"Amount to be withdrawn must be greater than commision fees\");\r\n        \r\n    \r\n        uint256 amountToSendToDepositor = amountOfUnderlyingAssetWithdrawn.sub(\r\n            commissionFees\r\n        );\r\n            \r\n        //busdToken.approve(recipient, amountToSendToDepositor);\r\n\r\n       busdToken.transfer(\r\n            recipient,\r\n            amountToSendToDepositor\r\n        );\r\n\r\n        if (commissionFees > 0) {\r\n            busdToken.approve(address(treasury), commissionFees);\r\n            treasury.depositToken(address(busdToken));\r\n        }\r\n       clientRecordStorage.UpdateDepositRecordMapping(recordId, amount,0, lockPeriod, depositDate, msg.sender, true);\r\n       clientRecordStorage.CreateDepositorAddressToDepositRecordMapping(recipient, depositRecord.recordId, depositRecord.amount, 0,lockPeriod, depositDate, true);\r\n    \r\n        \r\n        _rewardUserWithTokens(\r\n        lockPeriod,\r\n        amount,\r\n        recipient\r\n        );\r\n\r\n\r\n        emit DerivativeAssetWithdrawnFromFixed(\r\n            recipient,\r\n            amountOfUnderlyingAssetWithdrawn,\r\n            amount\r\n        );\r\n    }\r\n    \r\n   \r\n    \r\n\r\n    function _deposit(address payable depositorAddress) internal {\r\n        address recipient = address(this);\r\n        uint256 amountTransferrable = busdToken.allowance(\r\n            depositorAddress,\r\n            recipient\r\n        );\r\n\r\n        require(\r\n            amountTransferrable > 0,\r\n            \"Approve an amount > 0 for token before proceeding\"\r\n        );\r\n        bool isSuccessful = busdToken.transferFrom(\r\n            depositorAddress,\r\n            recipient,\r\n            amountTransferrable\r\n        );\r\n        require(\r\n            isSuccessful == true,\r\n            \"Could not complete deposit process from token contract\"\r\n        );\r\n\r\n       \r\n\r\n        uint256 balanceBeforeDeposit = fBusdToken.balanceOf(address(this));\r\n        \r\n        FortubeBankAdapter = fortubeService.GetForTubeAdapterAddress();\r\n\r\n         busdToken.approve(FortubeBankAdapter, amountTransferrable);\r\n\r\n        fortubeService.Save(amountTransferrable);\r\n\r\n        uint256 balanceAfterDeposit = fBusdToken.balanceOf(address(this));\r\n\r\n        uint256 amountOfyDai = balanceAfterDeposit.sub(balanceBeforeDeposit);\r\n        ClientRecord memory clientRecord = _updateClientRecordAfterDeposit(\r\n            depositorAddress,\r\n            amountTransferrable,\r\n            amountOfyDai\r\n        );\r\n\r\n        bool exists = clientRecordStorage.doesClientRecordExist(\r\n            depositorAddress\r\n        );\r\n\r\n        if (exists) _updateClientRecord(clientRecord);\r\n        else {\r\n            clientRecordStorage.createClientRecord(\r\n                clientRecord._address,\r\n                clientRecord.underlyingTotalDeposits,\r\n                clientRecord.underlyingTotalWithdrawn,\r\n                clientRecord.derivativeBalance,\r\n                clientRecord.derivativeTotalDeposits,\r\n                clientRecord.derivativeTotalWithdrawn\r\n            );\r\n        }\r\n\r\n        emit UnderlyingAssetDeposited(\r\n            depositorAddress,\r\n            amountTransferrable,\r\n            amountOfyDai,\r\n            clientRecord.derivativeBalance\r\n        );\r\n    }\r\n\r\n    function _updateClientRecordAfterDeposit(\r\n        address payable client,\r\n        uint256 underlyingAmountDeposited,\r\n        uint256 derivativeAmountDeposited\r\n    ) internal returns (ClientRecord memory) {\r\n        bool exists = clientRecordStorage.doesClientRecordExist(client);\r\n        if (!exists) {\r\n            ClientRecord memory record = ClientRecord(\r\n                true,\r\n                client,\r\n                underlyingAmountDeposited,\r\n                0,\r\n                derivativeAmountDeposited,\r\n                derivativeAmountDeposited,\r\n                0\r\n            );\r\n\r\n           \r\n            return record;\r\n        } else {\r\n            ClientRecord memory record = _getClientRecordByAddress(client);\r\n\r\n            record.underlyingTotalDeposits = record.underlyingTotalDeposits.add(\r\n                underlyingAmountDeposited\r\n            );\r\n            record.derivativeTotalDeposits = record.derivativeTotalDeposits.add(\r\n                derivativeAmountDeposited\r\n            );\r\n            record.derivativeBalance = record.derivativeBalance.add(\r\n                derivativeAmountDeposited\r\n            );\r\n\r\n            return record;\r\n        }\r\n    }\r\n\r\n    function _updateClientRecordAfterWithdrawal(\r\n        address payable client,\r\n        uint256 underlyingAmountWithdrawn,\r\n        uint256 derivativeAmountWithdrawn\r\n    ) internal returns (ClientRecord memory) {\r\n        ClientRecord memory record = _getClientRecordByAddress(client);\r\n\r\n        record.underlyingTotalWithdrawn = record.underlyingTotalWithdrawn.add(\r\n            underlyingAmountWithdrawn\r\n        );\r\n\r\n        record.derivativeTotalWithdrawn = record.derivativeTotalWithdrawn.add(\r\n            derivativeAmountWithdrawn\r\n        );\r\n        record.derivativeBalance = record.derivativeBalance.sub(\r\n            derivativeAmountWithdrawn\r\n        );\r\n\r\n        return record;\r\n    }\r\n    \r\n     function _emitXendTokenReward(address payable member, uint256 amount) internal {\r\n    emit XendTokenReward(now, member, amount);\r\n}\r\n\r\nfunction _rewardUserWithTokens(\r\n    uint256 totalLockPeriod,\r\n    uint256 amountDeposited,\r\n    address payable recipient\r\n) internal {\r\n    uint256 numberOfRewardTokens = rewardConfig\r\n        .CalculateIndividualSavingsReward(\r\n        totalLockPeriod,\r\n        amountDeposited\r\n    );\r\n\r\n    if (numberOfRewardTokens > 0) {\r\n        xendToken.mint(recipient, numberOfRewardTokens);\r\n        _UpdateMemberToXendTokeRewardMapping(recipient,numberOfRewardTokens);\r\n         //  increase the total number of xend token rewards distributed\r\n            _totalTokenReward = _totalTokenReward.add(numberOfRewardTokens);\r\n          _emitXendTokenReward(recipient, numberOfRewardTokens);\r\n\r\n    }\r\n\r\n}\r\n\r\n    function _updateClientRecord(ClientRecord memory clientRecord) internal {\r\n        clientRecordStorage.updateClientRecord(\r\n            clientRecord._address,\r\n            clientRecord.underlyingTotalDeposits,\r\n            clientRecord.underlyingTotalWithdrawn,\r\n            clientRecord.derivativeBalance,\r\n            clientRecord.derivativeTotalDeposits,\r\n            clientRecord.derivativeTotalWithdrawn\r\n        );\r\n    }\r\n\r\n    modifier onlyNonDeprecatedCalls() {\r\n        require(isDeprecated == false, \"Service contract has been deprecated\");\r\n        _;\r\n    }\r\n}",
  "sourcePath": "C:/Users/MKOPA/Documents/WORK/UGARSOFT/yearn-savings/yearnbsc/contracts/XendFinanceIndividual_Yearn_V1.sol",
  "compiler": {
    "name": "solc",
    "version": "0.6.6+commit.6c089d02.Emscripten.clang"
  },
  "schemaVersion": "3.3.4",
  "updatedAt": "2021-03-29T21:24:41.027Z",
  "devdoc": {
    "methods": {}
  },
  "userdoc": {
    "methods": {}
  }
}